{
  "address": "0xEc8Ddf5110b820d9a3DD170Bb70fF980bAe186C9",
  "abi": [
    {
      "inputs": [],
      "name": "IncompatibleLengths",
      "type": "error"
    },
    {
      "inputs": [],
      "name": "InvalidReturnMessage",
      "type": "error"
    },
    {
      "inputs": [],
      "name": "NotApprovedOrOwner",
      "type": "error"
    },
    {
      "inputs": [],
      "name": "NotGovernor",
      "type": "error"
    },
    {
      "inputs": [],
      "name": "NotGovernorOrGuardian",
      "type": "error"
    },
    {
      "inputs": [],
      "name": "TooSmallAmountOut",
      "type": "error"
    },
    {
      "inputs": [],
      "name": "TransferFailed",
      "type": "error"
    },
    {
      "inputs": [],
      "name": "ZeroAddress",
      "type": "error"
    },
    {
      "anonymous": false,
      "inputs": [
        {
          "indexed": true,
          "internalType": "address",
          "name": "_core",
          "type": "address"
        }
      ],
      "name": "CoreUpdated",
      "type": "event"
    },
    {
      "anonymous": false,
      "inputs": [
        {
          "indexed": false,
          "internalType": "uint8",
          "name": "version",
          "type": "uint8"
        }
      ],
      "name": "Initialized",
      "type": "event"
    },
    {
      "inputs": [],
      "name": "WMATIC",
      "outputs": [
        {
          "internalType": "contract IWETH9",
          "name": "",
          "type": "address"
        }
      ],
      "stateMutability": "view",
      "type": "function"
    },
    {
      "inputs": [
        {
          "internalType": "contract IERC20[]",
          "name": "tokens",
          "type": "address[]"
        },
        {
          "internalType": "address[]",
          "name": "spenders",
          "type": "address[]"
        },
        {
          "internalType": "uint256[]",
          "name": "amounts",
          "type": "uint256[]"
        }
      ],
      "name": "changeAllowance",
      "outputs": [],
      "stateMutability": "nonpayable",
      "type": "function"
    },
    {
      "inputs": [
        {
          "internalType": "address",
          "name": "gaugeUser",
          "type": "address"
        },
        {
          "internalType": "address[]",
          "name": "liquidityGauges",
          "type": "address[]"
        }
      ],
      "name": "claimRewards",
      "outputs": [],
      "stateMutability": "nonpayable",
      "type": "function"
    },
    {
      "inputs": [],
      "name": "core",
      "outputs": [
        {
          "internalType": "contract ICoreBorrow",
          "name": "",
          "type": "address"
        }
      ],
      "stateMutability": "view",
      "type": "function"
    },
    {
      "inputs": [
        {
          "internalType": "address",
          "name": "_core",
          "type": "address"
        },
        {
          "internalType": "address",
          "name": "_uniswapRouter",
          "type": "address"
        },
        {
          "internalType": "address",
          "name": "_oneInch",
          "type": "address"
        }
      ],
      "name": "initializeRouter",
      "outputs": [],
      "stateMutability": "nonpayable",
      "type": "function"
    },
    {
      "inputs": [
        {
          "components": [
            {
              "internalType": "address",
              "name": "token",
              "type": "address"
            },
            {
              "internalType": "address",
              "name": "owner",
              "type": "address"
            },
            {
              "internalType": "uint256",
              "name": "value",
              "type": "uint256"
            },
            {
              "internalType": "uint256",
              "name": "deadline",
              "type": "uint256"
            },
            {
              "internalType": "uint8",
              "name": "v",
              "type": "uint8"
            },
            {
              "internalType": "bytes32",
              "name": "r",
              "type": "bytes32"
            },
            {
              "internalType": "bytes32",
              "name": "s",
              "type": "bytes32"
            }
          ],
          "internalType": "struct PermitType[]",
          "name": "paramsPermit",
          "type": "tuple[]"
        },
        {
          "internalType": "enum ActionType[]",
          "name": "actions",
          "type": "uint8[]"
        },
        {
          "internalType": "bytes[]",
          "name": "data",
          "type": "bytes[]"
        }
      ],
      "name": "mixer",
      "outputs": [],
      "stateMutability": "payable",
      "type": "function"
    },
    {
      "inputs": [
        {
          "components": [
            {
              "internalType": "address",
              "name": "vaultManager",
              "type": "address"
            },
            {
              "internalType": "address",
              "name": "owner",
              "type": "address"
            },
            {
              "internalType": "bool",
              "name": "approved",
              "type": "bool"
            },
            {
              "internalType": "uint256",
              "name": "deadline",
              "type": "uint256"
            },
            {
              "internalType": "uint8",
              "name": "v",
              "type": "uint8"
            },
            {
              "internalType": "bytes32",
              "name": "r",
              "type": "bytes32"
            },
            {
              "internalType": "bytes32",
              "name": "s",
              "type": "bytes32"
            }
          ],
          "internalType": "struct PermitVaultManagerType[]",
          "name": "paramsPermitVaultManager",
          "type": "tuple[]"
        },
        {
          "components": [
            {
              "internalType": "address",
              "name": "token",
              "type": "address"
            },
            {
              "internalType": "address",
              "name": "owner",
              "type": "address"
            },
            {
              "internalType": "uint256",
              "name": "value",
              "type": "uint256"
            },
            {
              "internalType": "uint256",
              "name": "deadline",
              "type": "uint256"
            },
            {
              "internalType": "uint8",
              "name": "v",
              "type": "uint8"
            },
            {
              "internalType": "bytes32",
              "name": "r",
              "type": "bytes32"
            },
            {
              "internalType": "bytes32",
              "name": "s",
              "type": "bytes32"
            }
          ],
          "internalType": "struct PermitType[]",
          "name": "paramsPermit",
          "type": "tuple[]"
        },
        {
          "internalType": "enum ActionType[]",
          "name": "actions",
          "type": "uint8[]"
        },
        {
          "internalType": "bytes[]",
          "name": "data",
          "type": "bytes[]"
        }
      ],
      "name": "mixerVaultManagerPermit",
      "outputs": [],
      "stateMutability": "payable",
      "type": "function"
    },
    {
      "inputs": [],
      "name": "oneInch",
      "outputs": [
        {
          "internalType": "address",
          "name": "",
          "type": "address"
        }
      ],
      "stateMutability": "view",
      "type": "function"
    },
    {
      "inputs": [
        {
          "internalType": "contract ICoreBorrow",
          "name": "_core",
          "type": "address"
        }
      ],
      "name": "setCore",
      "outputs": [],
      "stateMutability": "nonpayable",
      "type": "function"
    },
    {
      "inputs": [],
      "name": "uniswapV3Router",
      "outputs": [
        {
          "internalType": "contract IUniswapV3Router",
          "name": "",
          "type": "address"
        }
      ],
      "stateMutability": "view",
      "type": "function"
    },
    {
      "stateMutability": "payable",
      "type": "receive"
    }
  ],
  "transactionHash": "0xe51e057c85414521fa5b3fda40c41ad0adeb811ce2f1dfcc9ccc82ecc8cd9d9e",
  "args": [],
  "numDeployments": 1,
  "solcInputHash": "a3dd206a21b4a561af04c39e9fe00ffb",
  "bytecode": "0x60806040523480156200001157600080fd5b50600054610100900460ff1615808015620000335750600054600160ff909116105b8062000063575062000050306200013d60201b620016791760201c565b15801562000063575060005460ff166001145b620000cb5760405162461bcd60e51b815260206004820152602e60248201527f496e697469616c697a61626c653a20636f6e747261637420697320616c72656160448201526d191e481a5b9a5d1a585b1a5e995960921b606482015260840160405180910390fd5b6000805460ff191660011790558015620000ef576000805461ff0019166101001790555b801562000136576000805461ff0019169055604051600181527f7f26b83ff96e1f2b6a682f133852f6798a09c465da95921460cefb38474024989060200160405180910390a15b506200014c565b6001600160a01b03163b151590565b614329806200015c6000396000f3fe6080604052600436106100b55760003560e01c806359856d5611610069578063848c48da1161004e578063848c48da146101e1578063b82c4dc1146101f4578063f2f4eb261461021457600080fd5b806359856d56146101ae57806380009630146101c157600080fd5b80632c76d7a61161009a5780632c76d7a61461013957806342860d4b146101665780634d95cad91461018657600080fd5b8063045c08d5146100c15780632026ffa31461011757600080fd5b366100bc57005b600080fd5b3480156100cd57600080fd5b506002546100ee9073ffffffffffffffffffffffffffffffffffffffff1681565b60405173ffffffffffffffffffffffffffffffffffffffff909116815260200160405180910390f35b34801561012357600080fd5b50610137610132366004613231565b610247565b005b34801561014557600080fd5b506001546100ee9073ffffffffffffffffffffffffffffffffffffffff1681565b34801561017257600080fd5b50610137610181366004613281565b610255565b34801561019257600080fd5b506100ee730d500b1d8e8ef31e21c99d1db9a6444d3adf127081565b6101376101bc36600461347a565b6102b2565b3480156101cd57600080fd5b506101376101dc3660046135fa565b61064f565b6101376101ef366004613617565b610855565b34801561020057600080fd5b5061013761020f3660046136a2565b6114d1565b34801561022057600080fd5b506000546100ee9062010000900473ffffffffffffffffffffffffffffffffffffffff1681565b6102518282611695565b5050565b61025e83611758565b6001805473ffffffffffffffffffffffffffffffffffffffff9384167fffffffffffffffffffffffff0000000000000000000000000000000000000000918216179091556002805492909316911617905550565b60005b855181101561047b578581815181106102d0576102d061373c565b60200260200101516040015115610464578581815181106102f3576102f361373c565b60200260200101516000015173ffffffffffffffffffffffffffffffffffffffff1663f51cc7dd87838151811061032c5761032c61373c565b6020026020010151602001513060018a868151811061034d5761034d61373c565b6020026020010151606001518b878151811061036b5761036b61373c565b6020026020010151608001518c88815181106103895761038961373c565b602002602001015160a001518d89815181106103a7576103a761373c565b602090810291909101015160c001516040517fffffffff0000000000000000000000000000000000000000000000000000000060e08a901b16815273ffffffffffffffffffffffffffffffffffffffff97881660048201529690951660248701529215156044860152606485019190915260ff16608484015260a483015260c482015260e401600060405180830381600087803b15801561044757600080fd5b505af115801561045b573d6000803e3d6000fd5b50505050610469565b61047b565b806104738161379a565b9150506102b5565b5061048884848484610855565b60005b8551811015610647578581815181106104a6576104a661373c565b602002602001015160400151610635578581815181106104c8576104c861373c565b60200260200101516000015173ffffffffffffffffffffffffffffffffffffffff1663f51cc7dd8783815181106105015761050161373c565b6020026020010151602001513060008a86815181106105225761052261373c565b6020026020010151606001518b87815181106105405761054061373c565b6020026020010151608001518c888151811061055e5761055e61373c565b602002602001015160a001518d898151811061057c5761057c61373c565b602090810291909101015160c001516040517fffffffff0000000000000000000000000000000000000000000000000000000060e08a901b16815273ffffffffffffffffffffffffffffffffffffffff97881660048201529690951660248701529215156044860152606485019190915260ff16608484015260a483015260c482015260e401600060405180830381600087803b15801561061c57600080fd5b505af1158015610630573d6000803e3d6000fd5b505050505b8061063f8161379a565b91505061048b565b505050505050565b6000546040517fe43581b80000000000000000000000000000000000000000000000000000000081523360048201526201000090910473ffffffffffffffffffffffffffffffffffffffff169063e43581b890602401602060405180830381865afa1580156106c2573d6000803e3d6000fd5b505050506040513d601f19601f820116820180604052508101906106e691906137d3565b61071c576040517fee3675d400000000000000000000000000000000000000000000000000000000815260040160405180910390fd5b6040517fe43581b800000000000000000000000000000000000000000000000000000000815233600482015273ffffffffffffffffffffffffffffffffffffffff82169063e43581b890602401602060405180830381865afa158015610786573d6000803e3d6000fd5b505050506040513d601f19601f820116820180604052508101906107aa91906137d3565b6107e0576040517fee3675d400000000000000000000000000000000000000000000000000000000815260040160405180910390fd5b600080547fffffffffffffffffffff0000000000000000000000000000000000000000ffff166201000073ffffffffffffffffffffffffffffffffffffffff841690810291909117825560405190917f0c9c0f914e121785e2cd2269d6698bc11f59a50b85ef9aa1197fb4ddb96c4e5691a250565b60005b8451811015610a0e578481815181106108735761087361373c565b60200260200101516000015173ffffffffffffffffffffffffffffffffffffffff1663d505accf8683815181106108ac576108ac61373c565b602002602001015160200151308885815181106108cb576108cb61373c565b6020026020010151604001518986815181106108e9576108e961373c565b6020026020010151606001518a87815181106109075761090761373c565b6020026020010151608001518b88815181106109255761092561373c565b602002602001015160a001518c89815181106109435761094361373c565b602090810291909101015160c001516040517fffffffff0000000000000000000000000000000000000000000000000000000060e08a901b16815273ffffffffffffffffffffffffffffffffffffffff97881660048201529690951660248701526044860193909352606485019190915260ff16608484015260a483015260c482015260e401600060405180830381600087803b1580156109e357600080fd5b505af11580156109f7573d6000803e3d6000fd5b505050508080610a069061379a565b915050610858565b5060005b83518110156114ca576000848281518110610a2f57610a2f61373c565b60200260200101516014811115610a4857610a486137f0565b1415610ab5576000806000858585818110610a6557610a6561373c565b9050602002810190610a77919061381f565b810190610a84919061388f565b91945092509050610aad73ffffffffffffffffffffffffffffffffffffffff8416338484611979565b5050506114b8565b6001848281518110610ac957610ac961373c565b60200260200101516014811115610ae257610ae26137f0565b1415610b2a57600080848484818110610afd57610afd61373c565b9050602002810190610b0f919061381f565b810190610b1c91906138d0565b91509150610aad8282611a5b565b6002848281518110610b3e57610b3e61373c565b60200260200101516014811115610b5757610b576137f0565b1415610b6b57610b65611a64565b506114b8565b6005848281518110610b7f57610b7f61373c565b60200260200101516014811115610b9857610b986137f0565b1415610bee576000806000858585818110610bb557610bb561373c565b9050602002810190610bc7919061381f565b810190610bd491906138f2565b925092509250610be5838383611ae1565b505050506114b8565b6006848281518110610c0257610c0261373c565b60200260200101516014811115610c1b57610c1b6137f0565b1415610c6357600080848484818110610c3657610c3661373c565b9050602002810190610c48919061381f565b810190610c559190613920565b91509150610aad8282611aeb565b6003848281518110610c7757610c7761373c565b60200260200101516014811115610c9057610c906137f0565b1415610cdd576000806000858585818110610cad57610cad61373c565b9050602002810190610cbf919061381f565b810190610ccc9190613950565b925092509250610aad838383611c14565b6004848281518110610cf157610cf161373c565b60200260200101516014811115610d0a57610d0a6137f0565b1415610d25574715610d2057610d203347611cd8565b6114b8565b6007848281518110610d3957610d3961373c565b60200260200101516014811115610d5257610d526137f0565b1415610db3576000806000806000878787818110610d7257610d7261373c565b9050602002810190610d84919061381f565b810190610d919190613987565b94509450945094509450610da88585858585611d1d565b5050505050506114b8565b6008848281518110610dc757610dc761373c565b60200260200101516014811115610de057610de06137f0565b1415610e36576000806000806000878787818110610e0057610e0061373c565b9050602002810190610e12919061381f565b810190610e1f9190613987565b94509450945094509450610da88585858585611dd9565b6009848281518110610e4a57610e4a61373c565b60200260200101516014811115610e6357610e636137f0565b1415610ebe57600080600080868686818110610e8157610e8161373c565b9050602002810190610e93919061381f565b810190610ea09190613a74565b9350935093509350610eb484848484611e40565b50505050506114b8565b600a848281518110610ed257610ed261373c565b60200260200101516014811115610eeb57610eeb6137f0565b1415610f38576000806000858585818110610f0857610f0861373c565b9050602002810190610f1a919061381f565b810190610f279190613ad7565b925092509250610be5838383611f2d565b6014848281518110610f4c57610f4c61373c565b60200260200101516014811115610f6557610f656137f0565b1415610fd0576000806000806000806000898989818110610f8857610f8861373c565b9050602002810190610f9a919061381f565b810190610fa79190613b30565b9650965096509650965096509650610fc487878787878787612022565b505050505050506114b8565b600b848281518110610fe457610fe461373c565b60200260200101516014811115610ffd57610ffd6137f0565b141561104c576000808484848181106110185761101861373c565b905060200281019061102a919061381f565b8101906110379190613231565b915091506110458282611695565b50506114b8565b600c8482815181106110605761106061373c565b60200260200101516014811115611079576110796137f0565b14156110ca576000806000808686868181106110975761109761373c565b90506020028101906110a9919061381f565b8101906110b69190613bcb565b9350935093509350610be5848484846120b9565b600d8482815181106110de576110de61373c565b602002602001015160148111156110f7576110f76137f0565b141561119857600080600080600080600089898981811061111a5761111a61373c565b905060200281019061112c919061381f565b8101906111399190613d07565b965096509650965096509650965061115283838861214f565b61117d87877fffffffffffffffffffffffffffffffffffffffffffffffffffffffffffffffff612518565b61118b868484888886612621565b50610fc487876000612518565b600e8482815181106111ac576111ac61373c565b602002602001015160148111156111c5576111c56137f0565b14156112325760008060008060008787878181106111e5576111e561373c565b90506020028101906111f7919061381f565b8101906112049190613dc7565b94509450945094509450611219858583612518565b611225848484846126f6565b50610eb485856000612518565b600f8482815181106112465761124661373c565b6020026020010151601481111561125f5761125f6137f0565b14156112bf57600080600080600087878781811061127f5761127f61373c565b9050602002810190611291919061381f565b81019061129e9190613dc7565b945094509450945094506112b3858585612518565b610da8848484846127aa565b60108482815181106112d3576112d361373c565b602002602001015160148111156112ec576112ec6137f0565b141561133d5760008060008086868681811061130a5761130a61373c565b905060200281019061131c919061381f565b8101906113299190613e22565b9350935093509350610eb484848484612854565b60118482815181106113515761135161373c565b6020026020010151601481111561136a5761136a6137f0565b14156113bb576000806000808686868181106113885761138861373c565b905060200281019061139a919061381f565b8101906113a79190613e22565b9350935093509350610eb4848484846128bc565b60128482815181106113cf576113cf61373c565b602002602001015160148111156113e8576113e86137f0565b1415611439576000806000808686868181106114065761140661373c565b9050602002810190611418919061381f565b8101906114259190613e22565b9350935093509350610eb484848484612927565b601384828151811061144d5761144d61373c565b60200260200101516014811115611466576114666137f0565b14156114b85760008060008585858181106114835761148361373c565b9050602002810190611495919061381f565b8101906114a29190613e6a565b9250925092506114b383838361298f565b505050505b806114c28161379a565b915050610a12565b5050505050565b6000546040517f521d4de90000000000000000000000000000000000000000000000000000000081523360048201526201000090910473ffffffffffffffffffffffffffffffffffffffff169063521d4de990602401602060405180830381865afa158015611544573d6000803e3d6000fd5b505050506040513d601f19601f8201168201806040525081019061156891906137d3565b61159e576040517f99e120bc00000000000000000000000000000000000000000000000000000000815260040160405180910390fd5b84831415806115ad5750848114155b156115e4576040517f46282e8d00000000000000000000000000000000000000000000000000000000815260040160405180910390fd5b60005b858110156116705761165e8787838181106116045761160461373c565b905060200201602081019061161991906135fa565b86868481811061162b5761162b61373c565b905060200201602081019061164091906135fa565b8585858181106116525761165261373c565b90506020020135612518565b806116688161379a565b9150506115e7565b50505050505050565b73ffffffffffffffffffffffffffffffffffffffff163b151590565b60005b8151811015611753578181815181106116b3576116b361373c565b60209081029190910101516040517f84e9bd7e00000000000000000000000000000000000000000000000000000000815273ffffffffffffffffffffffffffffffffffffffff8581166004830152909116906384e9bd7e90602401600060405180830381600087803b15801561172857600080fd5b505af115801561173c573d6000803e3d6000fd5b50505050808061174b9061379a565b915050611698565b505050565b600054610100900460ff16158080156117785750600054600160ff909116105b806117925750303b158015611792575060005460ff166001145b611823576040517f08c379a000000000000000000000000000000000000000000000000000000000815260206004820152602e60248201527f496e697469616c697a61626c653a20636f6e747261637420697320616c72656160448201527f647920696e697469616c697a656400000000000000000000000000000000000060648201526084015b60405180910390fd5b600080547fffffffffffffffffffffffffffffffffffffffffffffffffffffffffffffff00166001179055801561188157600080547fffffffffffffffffffffffffffffffffffffffffffffffffffffffffffff00ff166101001790555b73ffffffffffffffffffffffffffffffffffffffff82166118ce576040517fd92e233d00000000000000000000000000000000000000000000000000000000815260040160405180910390fd5b600080547fffffffffffffffffffff0000000000000000000000000000000000000000ffff166201000073ffffffffffffffffffffffffffffffffffffffff851602179055801561025157600080547fffffffffffffffffffffffffffffffffffffffffffffffffffffffffffff00ff169055604051600181527f7f26b83ff96e1f2b6a682f133852f6798a09c465da95921460cefb38474024989060200160405180910390a15050565b60405173ffffffffffffffffffffffffffffffffffffffff80851660248301528316604482015260648101829052611a559085907f23b872dd00000000000000000000000000000000000000000000000000000000906084015b604080517fffffffffffffffffffffffffffffffffffffffffffffffffffffffffffffffe08184030181529190526020810180517bffffffffffffffffffffffffffffffffffffffffffffffffffffffff167fffffffff0000000000000000000000000000000000000000000000000000000090931692909217909152612a29565b50505050565b60005b92915050565b6000730d500b1d8e8ef31e21c99d1db9a6444d3adf127073ffffffffffffffffffffffffffffffffffffffff1663d0e30db0346040518263ffffffff1660e01b81526004016000604051808303818588803b158015611ac257600080fd5b505af1158015611ad6573d6000803e3d6000fd5b505050505034905090565b60005b9392505050565b6040517f70a08231000000000000000000000000000000000000000000000000000000008152306004820152600090730d500b1d8e8ef31e21c99d1db9a6444d3adf1270906370a0823190602401602060405180830381865afa158015611b56573d6000803e3d6000fd5b505050506040513d601f19601f82011682018060405250810190611b7a9190613ec2565b9050611b868184612b35565b8015611a5e576040517f2e1a7d4d00000000000000000000000000000000000000000000000000000000815260048101829052730d500b1d8e8ef31e21c99d1db9a6444d3adf127090632e1a7d4d90602401600060405180830381600087803b158015611bf257600080fd5b505af1158015611c06573d6000803e3d6000fd5b50505050611a5e8282611cd8565b6040517f70a0823100000000000000000000000000000000000000000000000000000000815230600482015260009073ffffffffffffffffffffffffffffffffffffffff8516906370a0823190602401602060405180830381865afa158015611c81573d6000803e3d6000fd5b505050506040513d601f19601f82011682018060405250810190611ca59190613ec2565b9050611cb18184612b35565b8015611a5557611a5573ffffffffffffffffffffffffffffffffffffffff85168383612b6f565b600080600080600085875af1905080611753576040517f90b8ec1800000000000000000000000000000000000000000000000000000000815260040160405180910390fd5b6040517f151dd75500000000000000000000000000000000000000000000000000000000815273ffffffffffffffffffffffffffffffffffffffff85811660048301526024820185905282811660448301526000919087169063151dd755906064015b6020604051808303816000875af1158015611d9f573d6000803e3d6000fd5b505050506040513d601f19601f82011682018060405250810190611dc39190613ec2565b9350611dcf8484612b35565b5091949350505050565b6040517fd44ad63f00000000000000000000000000000000000000000000000000000000815273ffffffffffffffffffffffffffffffffffffffff85811660048301526024820185905282811660448301526000919087169063d44ad63f90606401611d80565b600154600090611e6890869073ffffffffffffffffffffffffffffffffffffffff1686612bc5565b6001546040805160a0810182528481523060208201524281830152606081018790526080810186905290517fc04b8d5900000000000000000000000000000000000000000000000000000000815273ffffffffffffffffffffffffffffffffffffffff9092169163c04b8d5991611ee191600401613f51565b6020604051808303816000875af1158015611f00573d6000803e3d6000fd5b505050506040513d601f19601f82011682018060405250810190611f249190613ec2565b95945050505050565b600254600090611f7590859073ffffffffffffffffffffffffffffffffffffffff167fffffffffffffffffffffffffffffffffffffffffffffffffffffffffffffffff612518565b600254604051600091829173ffffffffffffffffffffffffffffffffffffffff90911690611fa4908690613fb7565b6000604051808303816000865af19150503d8060008114611fe1576040519150601f19603f3d011682016040523d82523d6000602084013e611fe6565b606091505b509150915081611ff957611ff981612c97565b8080602001905181019061200d9190613ec2565b92506120198386612b35565b50509392505050565b6040517fa5d4096b00000000000000000000000000000000000000000000000000000000815273ffffffffffffffffffffffffffffffffffffffff88169063a5d4096b9061207e90899089908990899089908990600401613fd3565b600060405180830381600087803b15801561209857600080fd5b505af11580156120ac573d6000803e3d6000fd5b5050505050505050505050565b6040517f83df67470000000000000000000000000000000000000000000000000000000081526004810184905273ffffffffffffffffffffffffffffffffffffffff858116602483015282151560448301528316906383df674790606401600060405180830381600087803b15801561213157600080fd5b505af1158015612145573d6000803e3d6000fd5b5050505050505050565b600a83511061218a576040517f46282e8d00000000000000000000000000000000000000000000000000000000815260040160405180910390fd5b6121926130ae565b60008080805b8751811015612145576000808983815181106121b6576121b661373c565b602002602001015160078111156121cf576121cf6137f0565b14156121df576001945050612506565b60038983815181106121f3576121f361373c565b6020026020010151600781111561220c5761220c6137f0565b1480612242575060058983815181106122275761222761373c565b60200260200101516007811115612240576122406137f0565b145b1561227c578782815181106122595761225961373c565b6020026020010151806020019051810190612274919061402c565b509050612355565b60018983815181106122905761229061373c565b602002602001015160078111156122a9576122a96137f0565b14156122e3578782815181106122c1576122c161373c565b60200260200101518060200190518101906122dc9190613ec2565b9050612355565b60068983815181106122f7576122f761373c565b60200260200101516007811115612310576123106137f0565b141561234f578782815181106123285761232861373c565b60200260200101518060200190518101906123439190614050565b50919250612355915050565b50612506565b806123e05784156123665750612506565b836123dd578673ffffffffffffffffffffffffffffffffffffffff16633c2e941b6040518163ffffffff1660e01b8152600401602060405180830381865afa1580156123b6573d6000803e3d6000fd5b505050506040513d601f19601f820116820180604052508101906123da9190613ec2565b93505b50825b60005b8381101561241357818782600a81106123fe576123fe61373c565b5050508061240b8161379a565b9150506123e3565b506040517f430c20810000000000000000000000000000000000000000000000000000000081523360048201526024810182905273ffffffffffffffffffffffffffffffffffffffff88169063430c208190604401602060405180830381865afa158015612485573d6000803e3d6000fd5b505050506040513d601f19601f820116820180604052508101906124a991906137d3565b6124df576040517fe433766c00000000000000000000000000000000000000000000000000000000815260040160405180910390fd5b808684600a81106124f2576124f261373c565b602002015261250260018461408e565b9250505b806125108161379a565b915050612198565b6040517fdd62ed3e00000000000000000000000000000000000000000000000000000000815230600482015273ffffffffffffffffffffffffffffffffffffffff83811660248301526000919085169063dd62ed3e90604401602060405180830381865afa15801561258e573d6000803e3d6000fd5b505050506040513d601f19601f820116820180604052508101906125b29190613ec2565b9050818110156125ed576125e8836125ca83856140a6565b73ffffffffffffffffffffffffffffffffffffffff87169190612cd8565b611a55565b81811115611a5557611a558361260384846140a6565b73ffffffffffffffffffffffffffffffffffffffff87169190612dd6565b61264c6040518060800160405280600081526020016000815260200160008152602001600081525090565b6040517fde8fc69800000000000000000000000000000000000000000000000000000000815273ffffffffffffffffffffffffffffffffffffffff88169063de8fc698906126a8908990899033908a908a908a90600401614112565b6080604051808303816000875af11580156126c7573d6000803e3d6000fd5b505050506040513d601f19601f820116820180604052508101906126eb9190614212565b979650505050505050565b6040517f94bf804d0000000000000000000000000000000000000000000000000000000081526004810184905273ffffffffffffffffffffffffffffffffffffffff83811660248301526000916127a2918491908816906394bf804d906044015b6020604051808303816000875af1158015612776573d6000803e3d6000fd5b505050506040513d601f19601f8201168201806040525081019061279a9190613ec2565b925082612b35565b949350505050565b6040517f6e553f650000000000000000000000000000000000000000000000000000000081526004810184905273ffffffffffffffffffffffffffffffffffffffff83811660248301526000916127a291871690636e553f65906044015b6020604051808303816000875af1158015612827573d6000803e3d6000fd5b505050506040513d601f19601f8201168201806040525081019061284b9190613ec2565b91508183612b35565b6040517fba0876520000000000000000000000000000000000000000000000000000000081526004810184905273ffffffffffffffffffffffffffffffffffffffff83811660248301523360448301526000916127a29187169063ba08765290606401612808565b6040517fb460af940000000000000000000000000000000000000000000000000000000081526004810184905273ffffffffffffffffffffffffffffffffffffffff83811660248301523360448301526000916127a29184919088169063b460af9490606401612757565b6040517ffbcc01ae0000000000000000000000000000000000000000000000000000000081526004810184905273ffffffffffffffffffffffffffffffffffffffff83811660248301523360448301526000916127a29187169063fbcc01ae90606401612808565b6040517f29a6132700000000000000000000000000000000000000000000000000000000815260009073ffffffffffffffffffffffffffffffffffffffff8516906329a61327906129e69086908690600401614278565b6020604051808303816000875af1158015612a05573d6000803e3d6000fd5b505050506040513d601f19601f820116820180604052508101906127a29190613ec2565b6000612a8b826040518060400160405280602081526020017f5361666545524332303a206c6f772d6c6576656c2063616c6c206661696c65648152508573ffffffffffffffffffffffffffffffffffffffff16612f5c9092919063ffffffff16565b8051909150156117535780806020019051810190612aa991906137d3565b611753576040517f08c379a000000000000000000000000000000000000000000000000000000000815260206004820152602a60248201527f5361666545524332303a204552433230206f7065726174696f6e20646964206e60448201527f6f74207375636365656400000000000000000000000000000000000000000000606482015260840161181a565b80821015610251576040517fa1aabbe100000000000000000000000000000000000000000000000000000000815260040160405180910390fd5b60405173ffffffffffffffffffffffffffffffffffffffff83166024820152604481018290526117539084907fa9059cbb00000000000000000000000000000000000000000000000000000000906064016119d3565b6040517fdd62ed3e00000000000000000000000000000000000000000000000000000000815230600482015273ffffffffffffffffffffffffffffffffffffffff83811660248301526000919085169063dd62ed3e90604401602060405180830381865afa158015612c3b573d6000803e3d6000fd5b505050506040513d601f19601f82011682018060405250810190612c5f9190613ec2565b905081811015611a5557611a55836125ca837fffffffffffffffffffffffffffffffffffffffffffffffffffffffffffffffff6140a6565b805115612ca657805181602001fd5b6040517fee418e3700000000000000000000000000000000000000000000000000000000815260040160405180910390fd5b6040517fdd62ed3e00000000000000000000000000000000000000000000000000000000815230600482015273ffffffffffffffffffffffffffffffffffffffff8381166024830152600091839186169063dd62ed3e90604401602060405180830381865afa158015612d4f573d6000803e3d6000fd5b505050506040513d601f19601f82011682018060405250810190612d739190613ec2565b612d7d919061408e565b60405173ffffffffffffffffffffffffffffffffffffffff8516602482015260448101829052909150611a559085907f095ea7b300000000000000000000000000000000000000000000000000000000906064016119d3565b6040517fdd62ed3e00000000000000000000000000000000000000000000000000000000815230600482015273ffffffffffffffffffffffffffffffffffffffff83811660248301526000919085169063dd62ed3e90604401602060405180830381865afa158015612e4c573d6000803e3d6000fd5b505050506040513d601f19601f82011682018060405250810190612e709190613ec2565b905081811015612f02576040517f08c379a000000000000000000000000000000000000000000000000000000000815260206004820152602960248201527f5361666545524332303a2064656372656173656420616c6c6f77616e6365206260448201527f656c6f77207a65726f0000000000000000000000000000000000000000000000606482015260840161181a565b60405173ffffffffffffffffffffffffffffffffffffffff8416602482015282820360448201819052906114ca9086907f095ea7b300000000000000000000000000000000000000000000000000000000906064016119d3565b60606127a284846000858573ffffffffffffffffffffffffffffffffffffffff85163b612fe5576040517f08c379a000000000000000000000000000000000000000000000000000000000815260206004820152601d60248201527f416464726573733a2063616c6c20746f206e6f6e2d636f6e7472616374000000604482015260640161181a565b6000808673ffffffffffffffffffffffffffffffffffffffff16858760405161300e9190613fb7565b60006040518083038185875af1925050503d806000811461304b576040519150601f19603f3d011682016040523d82523d6000602084013e613050565b606091505b50915091506126eb8282866060831561306a575081611ae4565b82511561307a5782518084602001fd5b816040517f08c379a000000000000000000000000000000000000000000000000000000000815260040161181a91906142e0565b604051806101400160405280600a906020820280368337509192915050565b73ffffffffffffffffffffffffffffffffffffffff811681146130ef57600080fd5b50565b7f4e487b7100000000000000000000000000000000000000000000000000000000600052604160045260246000fd5b60405160e0810167ffffffffffffffff81118282101715613144576131446130f2565b60405290565b604051601f82017fffffffffffffffffffffffffffffffffffffffffffffffffffffffffffffffe016810167ffffffffffffffff81118282101715613191576131916130f2565b604052919050565b600067ffffffffffffffff8211156131b3576131b36130f2565b5060051b60200190565b600082601f8301126131ce57600080fd5b813560206131e36131de83613199565b61314a565b82815260059290921b8401810191818101908684111561320257600080fd5b8286015b84811015613226578035613219816130cd565b8352918301918301613206565b509695505050505050565b6000806040838503121561324457600080fd5b823561324f816130cd565b9150602083013567ffffffffffffffff81111561326b57600080fd5b613277858286016131bd565b9150509250929050565b60008060006060848603121561329657600080fd5b83356132a1816130cd565b925060208401356132b1816130cd565b915060408401356132c1816130cd565b809150509250925092565b80151581146130ef57600080fd5b803560ff811681146132eb57600080fd5b919050565b600082601f83011261330157600080fd5b813560206133116131de83613199565b82815260e0928302850182019282820191908785111561333057600080fd5b8387015b858110156133b85781818a03121561334c5760008081fd5b613354613121565b813561335f816130cd565b81528186013561336e816130cd565b81870152604082810135908201526060808301359082015260806133938184016132da565b9082015260a0828101359082015260c080830135908201528452928401928101613334565b5090979650505050505050565b600082601f8301126133d657600080fd5b813560206133e66131de83613199565b82815260059290921b8401810191818101908684111561340557600080fd5b8286015b84811015613226578035601581106134215760008081fd5b8352918301918301613409565b60008083601f84011261344057600080fd5b50813567ffffffffffffffff81111561345857600080fd5b6020830191508360208260051b850101111561347357600080fd5b9250929050565b60008060008060006080868803121561349257600080fd5b853567ffffffffffffffff808211156134aa57600080fd5b818801915088601f8301126134be57600080fd5b813560206134ce6131de83613199565b82815260e0928302850182019282820191908d8511156134ed57600080fd5b958301955b848710156135815780878f03121561350a5760008081fd5b613512613121565b873561351d816130cd565b81528785013561352c816130cd565b8186015260408881013561353f816132cc565b9082015260608881013590820152613559608089016132da565b608082015260a0888101359082015260c08089013590820152835295860195918301916134f2565b509950508901359250508082111561359857600080fd5b6135a489838a016132f0565b955060408801359150808211156135ba57600080fd5b6135c689838a016133c5565b945060608801359150808211156135dc57600080fd5b506135e98882890161342e565b969995985093965092949392505050565b60006020828403121561360c57600080fd5b8135611ae4816130cd565b6000806000806060858703121561362d57600080fd5b843567ffffffffffffffff8082111561364557600080fd5b613651888389016132f0565b9550602087013591508082111561366757600080fd5b613673888389016133c5565b9450604087013591508082111561368957600080fd5b506136968782880161342e565b95989497509550505050565b600080600080600080606087890312156136bb57600080fd5b863567ffffffffffffffff808211156136d357600080fd5b6136df8a838b0161342e565b909850965060208901359150808211156136f857600080fd5b6137048a838b0161342e565b9096509450604089013591508082111561371d57600080fd5b5061372a89828a0161342e565b979a9699509497509295939492505050565b7f4e487b7100000000000000000000000000000000000000000000000000000000600052603260045260246000fd5b7f4e487b7100000000000000000000000000000000000000000000000000000000600052601160045260246000fd5b60007fffffffffffffffffffffffffffffffffffffffffffffffffffffffffffffffff8214156137cc576137cc61376b565b5060010190565b6000602082840312156137e557600080fd5b8151611ae4816132cc565b7f4e487b7100000000000000000000000000000000000000000000000000000000600052602160045260246000fd5b60008083357fffffffffffffffffffffffffffffffffffffffffffffffffffffffffffffffe184360301811261385457600080fd5b83018035915067ffffffffffffffff82111561386f57600080fd5b60200191503681900382131561347357600080fd5b80356132eb816130cd565b6000806000606084860312156138a457600080fd5b83356138af816130cd565b925060208401356138bf816130cd565b929592945050506040919091013590565b600080604083850312156138e357600080fd5b50508035926020909101359150565b60008060006060848603121561390757600080fd5b833592506020840135915060408401356132c1816130cd565b6000806040838503121561393357600080fd5b823591506020830135613945816130cd565b809150509250929050565b60008060006060848603121561396557600080fd5b8335613970816130cd565b92506020840135915060408401356132c1816130cd565b600080600080600060a0868803121561399f57600080fd5b85356139aa816130cd565b945060208601356139ba816130cd565b9350604086013592506060860135915060808601356139d8816130cd565b809150509295509295909350565b600082601f8301126139f757600080fd5b813567ffffffffffffffff811115613a1157613a116130f2565b613a4260207fffffffffffffffffffffffffffffffffffffffffffffffffffffffffffffffe0601f8401160161314a565b818152846020838601011115613a5757600080fd5b816020850160208301376000918101602001919091529392505050565b60008060008060808587031215613a8a57600080fd5b8435613a95816130cd565b93506020850135925060408501359150606085013567ffffffffffffffff811115613abf57600080fd5b613acb878288016139e6565b91505092959194509250565b600080600060608486031215613aec57600080fd5b8335613af7816130cd565b925060208401359150604084013567ffffffffffffffff811115613b1a57600080fd5b613b26868287016139e6565b9150509250925092565b600080600080600080600060e0888a031215613b4b57600080fd5b8735613b56816130cd565b96506020880135613b66816130cd565b95506040880135613b76816130cd565b94506060880135613b86816130cd565b93506080880135925060a0880135915060c088013567ffffffffffffffff811115613bb057600080fd5b613bbc8a828b016139e6565b91505092959891949750929550565b60008060008060808587031215613be157600080fd5b8435613bec816130cd565b9350602085013592506040850135613c03816130cd565b91506060850135613c13816132cc565b939692955090935050565b600082601f830112613c2f57600080fd5b81356020613c3f6131de83613199565b82815260059290921b84018101918181019086841115613c5e57600080fd5b8286015b8481101561322657803560088110613c7a5760008081fd5b8352918301918301613c62565b600082601f830112613c9857600080fd5b81356020613ca86131de83613199565b82815260059290921b84018101918181019086841115613cc757600080fd5b8286015b8481101561322657803567ffffffffffffffff811115613ceb5760008081fd5b613cf98986838b01016139e6565b845250918301918301613ccb565b600080600080600080600060e0888a031215613d2257600080fd5b8735613d2d816130cd565b96506020880135613d3d816130cd565b9550613d4b60408901613884565b9450613d5960608901613884565b9350608088013567ffffffffffffffff80821115613d7657600080fd5b613d828b838c01613c1e565b945060a08a0135915080821115613d9857600080fd5b613da48b838c01613c87565b935060c08a0135915080821115613dba57600080fd5b50613bbc8a828b016139e6565b600080600080600060a08688031215613ddf57600080fd5b8535613dea816130cd565b94506020860135613dfa816130cd565b9350604086013592506060860135613e11816130cd565b949793965091946080013592915050565b60008060008060808587031215613e3857600080fd5b8435613e43816130cd565b9350602085013592506040850135613e5a816130cd565b9396929550929360600135925050565b600080600060608486031215613e7f57600080fd5b8335613e8a816130cd565b92506020840135613e9a816130cd565b9150604084013567ffffffffffffffff811115613eb657600080fd5b613b26868287016131bd565b600060208284031215613ed457600080fd5b5051919050565b60005b83811015613ef6578181015183820152602001613ede565b83811115611a555750506000910152565b60008151808452613f1f816020860160208601613edb565b601f017fffffffffffffffffffffffffffffffffffffffffffffffffffffffffffffffe0169290920160200192915050565b602081526000825160a06020840152613f6d60c0840182613f07565b905073ffffffffffffffffffffffffffffffffffffffff60208501511660408401526040840151606084015260608401516080840152608084015160a08401528091505092915050565b60008251613fc9818460208701613edb565b9190910192915050565b600073ffffffffffffffffffffffffffffffffffffffff8089168352808816602084015280871660408401525084606083015283608083015260c060a083015261402060c0830184613f07565b98975050505050505050565b6000806040838503121561403f57600080fd5b505080516020909101519092909150565b6000806000806080858703121561406657600080fd5b845193506020850151614078816130cd565b6040860151606090960151949790965092505050565b600082198211156140a1576140a161376b565b500190565b6000828210156140b8576140b861376b565b500390565b600081518084526020808501808196508360051b8101915082860160005b858110156141055782840389526140f3848351613f07565b988501989350908401906001016140db565b5091979650505050505050565b60c0808252875190820181905260009060209060e0840190828b0184805b838110156141815782516008811061416f577f4e487b710000000000000000000000000000000000000000000000000000000083526021600452602483fd5b85529385019391850191600101614130565b5050505083810382850152614196818a6140bd565b9150506141bb604084018873ffffffffffffffffffffffffffffffffffffffff169052565b73ffffffffffffffffffffffffffffffffffffffff8616606084015273ffffffffffffffffffffffffffffffffffffffff8516608084015282810360a08401526142058185613f07565b9998505050505050505050565b60006080828403121561422457600080fd5b6040516080810181811067ffffffffffffffff82111715614247576142476130f2565b8060405250825181526020830151602082015260408301516040820152606083015160608201528091505092915050565b60006040820173ffffffffffffffffffffffffffffffffffffffff80861684526020604081860152828651808552606087019150828801945060005b818110156142d25785518516835294830194918301916001016142b4565b509098975050505050505050565b602081526000611ae46020830184613f0756fea26469706673582212202c25fbb444ca16c72876bc3c986e30935bfc3b1d0afac44c7f3cad86c2148aeb64736f6c634300080c0033",
  "devdoc": {
    "author": "Angle Core Team",
    "kind": "dev",
    "methods": {
      "changeAllowance(address[],address[],uint256[])": {
        "params": {
          "amounts": "Amounts to allow",
          "spenders": "Addresses to allow transfer",
          "tokens": "Addresses of the tokens to allow"
        }
      },
      "claimRewards(address,address[])": {
        "details": "If the caller wants to send the rewards to another account it first needs to call `set_rewards_receiver(otherAccount)` on each `liquidityGauge`",
        "params": {
          "gaugeUser": "Address for which to fetch the rewards from the gauges",
          "liquidityGauges": "Gauges to claim on"
        }
      },
      "mixer((address,address,uint256,uint256,uint8,bytes32,bytes32)[],uint8[],bytes[])": {
        "details": "With this function, users can specify paths to swap tokens to the desired token of their choice. Yet the protocol does not verify the payload given and cannot check that the swap performed by users actually gives the desired out token: in this case funds may be made accessible to anyone on this contract if the concerned users do not perform a sweep action on these tokens",
        "params": {
          "actions": "List of actions to be performed by the router (in order of execution)",
          "data": "Array of encoded data for each of the actions performed in this mixer. This is where the bytes-encoded parameters for a given action are stored",
          "paramsPermit": "Array of params `PermitType` used to do a 1 tx to approve the router on each token (can be done once by setting high approved amounts) which supports the `permit` standard. Users willing to interact with the contract with tokens that do not support permit should approve the contract for these tokens prior to interacting with it"
        }
      },
      "mixerVaultManagerPermit((address,address,bool,uint256,uint8,bytes32,bytes32)[],(address,address,uint256,uint256,uint8,bytes32,bytes32)[],uint8[],bytes[])": {
        "details": "In `paramsPermitVaultManager`, the signatures for granting approvals must be given first before the signatures to revoke approvalsThe router contract has been built to be safe to keep approvals as you cannot take an action on a vault you are not approved for, but people wary about their approvals may want to grant it before immediately revoking it, although this is just an option",
        "params": {
          "paramsPermitVaultManager": "Parameters to sign permit to give allowance to the router for a `VaultManager` contract"
        }
      }
    },
    "title": "AngleRouterPolygon",
    "version": 1
  },
  "userdoc": {
    "kind": "user",
    "methods": {
      "changeAllowance(address[],address[],uint256[])": {
        "notice": "Changes allowances for different tokens"
      },
      "claimRewards(address,address[])": {
        "notice": "Wrapper built on top of the `_claimRewards` function. It allows to claim rewards for multiple gauges at once"
      },
      "core()": {
        "notice": "Core Borrow address"
      },
      "mixer((address,address,uint256,uint256,uint8,bytes32,bytes32)[],uint8[],bytes[])": {
        "notice": "Allows composable calls to different functions within the protocol"
      },
      "mixerVaultManagerPermit((address,address,bool,uint256,uint8,bytes32,bytes32)[],(address,address,uint256,uint256,uint8,bytes32,bytes32)[],uint8[],bytes[])": {
        "notice": "Wrapper built on top of the base `mixer` function to grant approval to a `VaultManager` contract before performing actions and then revoking this approval after these actions"
      },
      "oneInch()": {
        "notice": "Address of the 1Inch router potentially used for swaps"
      },
      "setCore(address)": {
        "notice": "Sets a new `core` contract"
      },
      "uniswapV3Router()": {
        "notice": "Address of the Uniswap V3 router potentially used for swaps"
      }
    },
    "notice": "Router contract built specifially for Angle use cases on Polygon",
    "version": 1
  },
  "storageLayout": {
    "storage": [
      {
        "astId": 6,
        "contract": "contracts/sidechains/polygon/AngleRouterPolygon.sol:AngleRouterPolygon",
        "label": "_initialized",
        "offset": 0,
        "slot": "0",
        "type": "t_uint8"
      },
      {
        "astId": 9,
        "contract": "contracts/sidechains/polygon/AngleRouterPolygon.sol:AngleRouterPolygon",
        "label": "_initializing",
        "offset": 1,
        "slot": "0",
        "type": "t_bool"
      },
      {
        "astId": 3179,
        "contract": "contracts/sidechains/polygon/AngleRouterPolygon.sol:AngleRouterPolygon",
        "label": "core",
        "offset": 2,
        "slot": "0",
        "type": "t_contract(ICoreBorrow)7205"
      },
      {
        "astId": 3183,
        "contract": "contracts/sidechains/polygon/AngleRouterPolygon.sol:AngleRouterPolygon",
        "label": "uniswapV3Router",
        "offset": 0,
        "slot": "1",
        "type": "t_contract(IUniswapV3Router)7461"
      },
      {
        "astId": 3186,
        "contract": "contracts/sidechains/polygon/AngleRouterPolygon.sol:AngleRouterPolygon",
        "label": "oneInch",
        "offset": 0,
        "slot": "2",
        "type": "t_address"
      },
      {
        "astId": 3190,
        "contract": "contracts/sidechains/polygon/AngleRouterPolygon.sol:AngleRouterPolygon",
        "label": "__gap",
        "offset": 0,
        "slot": "3",
        "type": "t_array(t_uint256)47_storage"
      }
    ],
    "types": {
      "t_address": {
        "encoding": "inplace",
        "label": "address",
        "numberOfBytes": "20"
      },
      "t_array(t_uint256)47_storage": {
        "base": "t_uint256",
        "encoding": "inplace",
        "label": "uint256[47]",
        "numberOfBytes": "1504"
      },
      "t_bool": {
        "encoding": "inplace",
        "label": "bool",
        "numberOfBytes": "1"
      },
      "t_contract(ICoreBorrow)7205": {
        "encoding": "inplace",
        "label": "contract ICoreBorrow",
        "numberOfBytes": "20"
      },
      "t_contract(IUniswapV3Router)7461": {
        "encoding": "inplace",
        "label": "contract IUniswapV3Router",
        "numberOfBytes": "20"
      },
      "t_uint256": {
        "encoding": "inplace",
        "label": "uint256",
        "numberOfBytes": "32"
      },
      "t_uint8": {
        "encoding": "inplace",
        "label": "uint8",
        "numberOfBytes": "1"
      }
    }
  }
}