{
  "address": "0x927eD3c2e8f309C195b90C87040F884979c9eCC6",
  "abi": [
    {
      "inputs": [],
      "name": "IncompatibleLengths",
      "type": "error"
    },
    {
      "inputs": [],
      "name": "InvalidReturnMessage",
      "type": "error"
    },
    {
      "inputs": [],
      "name": "NotApprovedOrOwner",
      "type": "error"
    },
    {
      "inputs": [],
      "name": "NotGovernor",
      "type": "error"
    },
    {
      "inputs": [],
      "name": "NotGovernorOrGuardian",
      "type": "error"
    },
    {
      "inputs": [],
      "name": "TooSmallAmountOut",
      "type": "error"
    },
    {
      "inputs": [],
      "name": "TransferFailed",
      "type": "error"
    },
    {
      "inputs": [],
      "name": "ZeroAddress",
      "type": "error"
    },
    {
      "anonymous": false,
      "inputs": [
        {
          "indexed": false,
          "internalType": "uint8",
          "name": "version",
          "type": "uint8"
        }
      ],
      "name": "Initialized",
      "type": "event"
    },
    {
      "anonymous": false,
      "inputs": [
        {
          "indexed": false,
          "internalType": "address",
          "name": "caller",
          "type": "address"
        },
        {
          "indexed": true,
          "internalType": "address",
          "name": "owner",
          "type": "address"
        },
        {
          "indexed": false,
          "internalType": "uint256",
          "name": "assets",
          "type": "uint256"
        },
        {
          "indexed": false,
          "internalType": "uint256",
          "name": "shares",
          "type": "uint256"
        },
        {
          "indexed": true,
          "internalType": "address",
          "name": "savings",
          "type": "address"
        },
        {
          "indexed": true,
          "internalType": "address",
          "name": "referrer",
          "type": "address"
        }
      ],
      "name": "ReferredDeposit",
      "type": "event"
    },
    {
      "inputs": [
        {
          "internalType": "contract IERC20[]",
          "name": "tokens",
          "type": "address[]"
        },
        {
          "internalType": "address[]",
          "name": "spenders",
          "type": "address[]"
        },
        {
          "internalType": "uint256[]",
          "name": "amounts",
          "type": "uint256[]"
        }
      ],
      "name": "changeAllowance",
      "outputs": [],
      "stateMutability": "nonpayable",
      "type": "function"
    },
    {
      "inputs": [],
      "name": "core",
      "outputs": [
        {
          "internalType": "contract ICoreBorrow",
          "name": "",
          "type": "address"
        }
      ],
      "stateMutability": "view",
      "type": "function"
    },
    {
      "inputs": [
        {
          "internalType": "address",
          "name": "token",
          "type": "address"
        },
        {
          "internalType": "address",
          "name": "savings",
          "type": "address"
        },
        {
          "internalType": "uint256",
          "name": "amount",
          "type": "uint256"
        },
        {
          "internalType": "address",
          "name": "to",
          "type": "address"
        },
        {
          "internalType": "uint256",
          "name": "minSharesOut",
          "type": "uint256"
        },
        {
          "internalType": "address",
          "name": "referrer",
          "type": "address"
        }
      ],
      "name": "deposit4626Referral",
      "outputs": [
        {
          "internalType": "uint256",
          "name": "sharesOut",
          "type": "uint256"
        }
      ],
      "stateMutability": "nonpayable",
      "type": "function"
    },
    {
      "inputs": [
        {
          "internalType": "address",
          "name": "_core",
          "type": "address"
        },
        {
          "internalType": "address",
          "name": "_uniswapRouter",
          "type": "address"
        },
        {
          "internalType": "address",
          "name": "_oneInch",
          "type": "address"
        }
      ],
      "name": "initializeRouter",
      "outputs": [],
      "stateMutability": "nonpayable",
      "type": "function"
    },
    {
      "inputs": [
        {
          "components": [
            {
              "internalType": "address",
              "name": "token",
              "type": "address"
            },
            {
              "internalType": "address",
              "name": "owner",
              "type": "address"
            },
            {
              "internalType": "uint256",
              "name": "value",
              "type": "uint256"
            },
            {
              "internalType": "uint256",
              "name": "deadline",
              "type": "uint256"
            },
            {
              "internalType": "uint8",
              "name": "v",
              "type": "uint8"
            },
            {
              "internalType": "bytes32",
              "name": "r",
              "type": "bytes32"
            },
            {
              "internalType": "bytes32",
              "name": "s",
              "type": "bytes32"
            }
          ],
          "internalType": "struct PermitType[]",
          "name": "paramsPermit",
          "type": "tuple[]"
        },
        {
          "internalType": "enum ActionType[]",
          "name": "actions",
          "type": "uint8[]"
        },
        {
          "internalType": "bytes[]",
          "name": "data",
          "type": "bytes[]"
        }
      ],
      "name": "mixer",
      "outputs": [],
      "stateMutability": "payable",
      "type": "function"
    },
    {
      "inputs": [
        {
          "components": [
            {
              "internalType": "address",
              "name": "vaultManager",
              "type": "address"
            },
            {
              "internalType": "address",
              "name": "owner",
              "type": "address"
            },
            {
              "internalType": "bool",
              "name": "approved",
              "type": "bool"
            },
            {
              "internalType": "uint256",
              "name": "deadline",
              "type": "uint256"
            },
            {
              "internalType": "uint8",
              "name": "v",
              "type": "uint8"
            },
            {
              "internalType": "bytes32",
              "name": "r",
              "type": "bytes32"
            },
            {
              "internalType": "bytes32",
              "name": "s",
              "type": "bytes32"
            }
          ],
          "internalType": "struct PermitVaultManagerType[]",
          "name": "paramsPermitVaultManager",
          "type": "tuple[]"
        },
        {
          "components": [
            {
              "internalType": "address",
              "name": "token",
              "type": "address"
            },
            {
              "internalType": "address",
              "name": "owner",
              "type": "address"
            },
            {
              "internalType": "uint256",
              "name": "value",
              "type": "uint256"
            },
            {
              "internalType": "uint256",
              "name": "deadline",
              "type": "uint256"
            },
            {
              "internalType": "uint8",
              "name": "v",
              "type": "uint8"
            },
            {
              "internalType": "bytes32",
              "name": "r",
              "type": "bytes32"
            },
            {
              "internalType": "bytes32",
              "name": "s",
              "type": "bytes32"
            }
          ],
          "internalType": "struct PermitType[]",
          "name": "paramsPermit",
          "type": "tuple[]"
        },
        {
          "internalType": "enum ActionType[]",
          "name": "actions",
          "type": "uint8[]"
        },
        {
          "internalType": "bytes[]",
          "name": "data",
          "type": "bytes[]"
        }
      ],
      "name": "mixerVaultManagerPermit",
      "outputs": [],
      "stateMutability": "payable",
      "type": "function"
    },
    {
      "inputs": [],
      "name": "oneInch",
      "outputs": [
        {
          "internalType": "address",
          "name": "",
          "type": "address"
        }
      ],
      "stateMutability": "view",
      "type": "function"
    },
    {
      "inputs": [
        {
          "internalType": "contract ICoreBorrow",
          "name": "_core",
          "type": "address"
        }
      ],
      "name": "setCore",
      "outputs": [],
      "stateMutability": "nonpayable",
      "type": "function"
    },
    {
      "inputs": [
        {
          "internalType": "address",
          "name": "router",
          "type": "address"
        },
        {
          "internalType": "uint8",
          "name": "who",
          "type": "uint8"
        }
      ],
      "name": "setRouter",
      "outputs": [],
      "stateMutability": "nonpayable",
      "type": "function"
    },
    {
      "inputs": [],
      "name": "uniswapV3Router",
      "outputs": [
        {
          "internalType": "contract IUniswapV3Router",
          "name": "",
          "type": "address"
        }
      ],
      "stateMutability": "view",
      "type": "function"
    },
    {
      "stateMutability": "payable",
      "type": "receive"
    }
  ],
  "transactionHash": "0x5efce1782a295d27896d37faa3c63ccf001a6ebfcb33b36de317b2d58259ce49",
  "args": [],
  "numDeployments": 1,
  "solcInputHash": "6f0d45798a7c7dcf301a286f6b3b2c21",
  "bytecode": "0x60806040523480156200001157600080fd5b50600054610100900460ff1615808015620000335750600054600160ff909116105b8062000063575062000050306200013d60201b62001afd1760201c565b15801562000063575060005460ff166001145b620000cb5760405162461bcd60e51b815260206004820152602e60248201527f496e697469616c697a61626c653a20636f6e747261637420697320616c72656160448201526d191e481a5b9a5d1a585b1a5e995960921b606482015260840160405180910390fd5b6000805460ff191660011790558015620000ef576000805461ff0019166101001790555b801562000136576000805461ff0019169055604051600181527f7f26b83ff96e1f2b6a682f133852f6798a09c465da95921460cefb38474024989060200160405180910390a15b506200014c565b6001600160a01b03163b151590565b61417a806200015c6000396000f3fe6080604052600436106100b55760003560e01c80638000963011610069578063848c48da1161004e578063848c48da146101e8578063b82c4dc1146101fb578063f2f4eb261461021b57600080fd5b806380009630146101a857806383f1d681146101c857600080fd5b806340c7c4ed1161009a57806340c7c4ed1461014557806342860d4b1461017357806359856d561461019557600080fd5b8063045c08d5146100c15780632c76d7a61461011857600080fd5b366100bc57005b600080fd5b3480156100cd57600080fd5b506002546100ee9073ffffffffffffffffffffffffffffffffffffffff1681565b60405173ffffffffffffffffffffffffffffffffffffffff90911681526020015b60405180910390f35b34801561012457600080fd5b506001546100ee9073ffffffffffffffffffffffffffffffffffffffff1681565b34801561015157600080fd5b5061016561016036600461315c565b61024e565b60405190815260200161010f565b34801561017f57600080fd5b5061019361018e3660046131cc565b6102b5565b005b6101936101a336600461342c565b610520565b3480156101b457600080fd5b506101936101c33660046135b2565b6108bc565b3480156101d457600080fd5b506101936101e33660046135cf565b610a6e565b6101936101f6366004613604565b610c1e565b34801561020757600080fd5b50610193610216366004613699565b61195f565b34801561022757600080fd5b506000546100ee9062010000900473ffffffffffffffffffffffffffffffffffffffff1681565b600061027273ffffffffffffffffffffffffffffffffffffffff8816333088611b19565b61029d87877fffffffffffffffffffffffffffffffffffffffffffffffffffffffffffffffff611bf5565b6102aa8686868686611d33565b979650505050505050565b600054610100900460ff16158080156102d55750600054600160ff909116105b806102ef5750303b1580156102ef575060005460ff166001145b610380576040517f08c379a000000000000000000000000000000000000000000000000000000000815260206004820152602e60248201527f496e697469616c697a61626c653a20636f6e747261637420697320616c72656160448201527f647920696e697469616c697a656400000000000000000000000000000000000060648201526084015b60405180910390fd5b600080547fffffffffffffffffffffffffffffffffffffffffffffffffffffffffffffff0016600117905580156103de57600080547fffffffffffffffffffffffffffffffffffffffffffffffffffffffffffff00ff166101001790555b73ffffffffffffffffffffffffffffffffffffffff841661042b576040517fd92e233d00000000000000000000000000000000000000000000000000000000815260040160405180910390fd5b6000805473ffffffffffffffffffffffffffffffffffffffff80871662010000027fffffffffffffffffffff0000000000000000000000000000000000000000ffff90921691909117909155600180548583167fffffffffffffffffffffffff0000000000000000000000000000000000000000918216179091556002805492851692909116919091179055801561051a57600080547fffffffffffffffffffffffffffffffffffffffffffffffffffffffffffff00ff169055604051600181527f7f26b83ff96e1f2b6a682f133852f6798a09c465da95921460cefb38474024989060200160405180910390a15b50505050565b855160005b818110156106e85787818151811061053f5761053f613714565b602002602001015160400151156106d35787818151811061056257610562613714565b60200260200101516000015173ffffffffffffffffffffffffffffffffffffffff1663f51cc7dd89838151811061059b5761059b613714565b6020026020010151602001513060018c86815181106105bc576105bc613714565b6020026020010151606001518d87815181106105da576105da613714565b6020026020010151608001518e88815181106105f8576105f8613714565b602002602001015160a001518f898151811061061657610616613714565b602090810291909101015160c001516040517fffffffff0000000000000000000000000000000000000000000000000000000060e08a901b16815273ffffffffffffffffffffffffffffffffffffffff97881660048201529690951660248701529215156044860152606485019190915260ff16608484015260a483015260c482015260e401600060405180830381600087803b1580156106b657600080fd5b505af11580156106ca573d6000803e3d6000fd5b505050506106d8565b6106e8565b6106e181613772565b9050610525565b506106f68686868686610c1e565b60005b818110156108b25787818151811061071357610713613714565b6020026020010151604001516108a25787818151811061073557610735613714565b60200260200101516000015173ffffffffffffffffffffffffffffffffffffffff1663f51cc7dd89838151811061076e5761076e613714565b6020026020010151602001513060008c868151811061078f5761078f613714565b6020026020010151606001518d87815181106107ad576107ad613714565b6020026020010151608001518e88815181106107cb576107cb613714565b602002602001015160a001518f89815181106107e9576107e9613714565b602090810291909101015160c001516040517fffffffff0000000000000000000000000000000000000000000000000000000060e08a901b16815273ffffffffffffffffffffffffffffffffffffffff97881660048201529690951660248701529215156044860152606485019190915260ff16608484015260a483015260c482015260e401600060405180830381600087803b15801561088957600080fd5b505af115801561089d573d6000803e3d6000fd5b505050505b6108ab81613772565b90506106f9565b5050505050505050565b6000546040517fe43581b80000000000000000000000000000000000000000000000000000000081523360048201526201000090910473ffffffffffffffffffffffffffffffffffffffff169063e43581b890602401602060405180830381865afa15801561092f573d6000803e3d6000fd5b505050506040513d601f19601f8201168201806040525081019061095391906137aa565b15806109ea57506040517fe43581b800000000000000000000000000000000000000000000000000000000815233600482015273ffffffffffffffffffffffffffffffffffffffff82169063e43581b890602401602060405180830381865afa1580156109c4573d6000803e3d6000fd5b505050506040513d601f19601f820116820180604052508101906109e891906137aa565b155b15610a21576040517fee3675d400000000000000000000000000000000000000000000000000000000815260040160405180910390fd5b6000805473ffffffffffffffffffffffffffffffffffffffff90921662010000027fffffffffffffffffffff0000000000000000000000000000000000000000ffff909216919091179055565b6000546040517f521d4de90000000000000000000000000000000000000000000000000000000081523360048201526201000090910473ffffffffffffffffffffffffffffffffffffffff169063521d4de990602401602060405180830381865afa158015610ae1573d6000803e3d6000fd5b505050506040513d601f19601f82011682018060405250810190610b0591906137aa565b610b3b576040517f99e120bc00000000000000000000000000000000000000000000000000000000815260040160405180910390fd5b73ffffffffffffffffffffffffffffffffffffffff8216610b88576040517fd92e233d00000000000000000000000000000000000000000000000000000000815260040160405180910390fd5b8060ff16600003610bd9576001805473ffffffffffffffffffffffffffffffffffffffff84167fffffffffffffffffffffffff00000000000000000000000000000000000000009091161790555050565b600280547fffffffffffffffffffffffff00000000000000000000000000000000000000001673ffffffffffffffffffffffffffffffffffffffff84161790555b5050565b845160005b81811015610dd657868181518110610c3d57610c3d613714565b60200260200101516000015173ffffffffffffffffffffffffffffffffffffffff1663d505accf888381518110610c7657610c76613714565b602002602001015160200151308a8581518110610c9557610c95613714565b6020026020010151604001518b8681518110610cb357610cb3613714565b6020026020010151606001518c8781518110610cd157610cd1613714565b6020026020010151608001518d8881518110610cef57610cef613714565b602002602001015160a001518e8981518110610d0d57610d0d613714565b602090810291909101015160c001516040517fffffffff0000000000000000000000000000000000000000000000000000000060e08a901b16815273ffffffffffffffffffffffffffffffffffffffff97881660048201529690951660248701526044860193909352606485019190915260ff16608484015260a483015260c482015260e401600060405180830381600087803b158015610dad57600080fd5b505af1158015610dc1573d6000803e3d6000fd5b5050505080610dcf90613772565b9050610c23565b508360005b818110156108b2576000878783818110610df757610df7613714565b9050602002016020810190610e0c91906137f6565b601b811115610e1d57610e1d6137c7565b03610f40576000806000878785818110610e3957610e39613714565b9050602002810190610e4b9190613817565b810190610e589190613887565b9250925092507fffffffffffffffffffffffffffffffffffffffffffffffffffffffffffffffff8103610f16576040517f70a0823100000000000000000000000000000000000000000000000000000000815233600482015273ffffffffffffffffffffffffffffffffffffffff8416906370a0823190602401602060405180830381865afa158015610eef573d6000803e3d6000fd5b505050506040513d601f19601f82011682018060405250810190610f1391906138c8565b90505b610f3873ffffffffffffffffffffffffffffffffffffffff8416338484611b19565b50505061194f565b6001878783818110610f5457610f54613714565b9050602002016020810190610f6991906137f6565b601b811115610f7a57610f7a6137c7565b03610f8d57610f87611dae565b5061194f565b6002878783818110610fa157610fa1613714565b9050602002016020810190610fb691906137f6565b601b811115610fc757610fc76137c7565b0361100e57600080868684818110610fe157610fe1613714565b9050602002810190610ff39190613817565b81019061100091906138e1565b91509150610f388282611e2b565b600387878381811061102257611022613714565b905060200201602081019061103791906137f6565b601b811115611048576110486137c7565b0361109457600080600087878581811061106457611064613714565b90506020028101906110769190613817565b8101906110839190613911565b925092509250610f38838383611f72565b60048787838181106110a8576110a8613714565b90506020020160208101906110bd91906137f6565b601b8111156110ce576110ce6137c7565b036110e457478015610f8757610f873382612036565b60068787838181106110f8576110f8613714565b905060200201602081019061110d91906137f6565b601b81111561111e5761111e6137c7565b0361117357600080600087878581811061113a5761113a613714565b905060200281019061114c9190613817565b81019061115991906139d6565b92509250925061116a83838361207b565b5050505061194f565b600787878381811061118757611187613714565b905060200201602081019061119c91906137f6565b601b8111156111ad576111ad6137c7565b036111fb576000808686848181106111c7576111c7613714565b90506020028101906111d99190613817565b8101906111e69190613a2f565b915091506111f48282612169565b505061194f565b600987878381811061120f5761120f613714565b905060200201602081019061122491906137f6565b601b811115611235576112356137c7565b036112d85760008060008060008060008b8b8981811061125757611257613714565b90506020028101906112699190613817565b8101906112769190613bd2565b96509650965096509650965096506112908383888a612226565b91506112bd87877fffffffffffffffffffffffffffffffffffffffffffffffffffffffffffffffff611bf5565b6112cb868484888886612753565b505050505050505061194f565b600a8787838181106112ec576112ec613714565b905060200201602081019061130191906137f6565b601b811115611312576113126137c7565b0361137c5760008060008060008060008b8b8981811061133457611334613714565b90506020028101906113469190613817565b8101906113539190613ca1565b96509650965096509650965096506113708787878787878761281d565b5050505050505061194f565b600b87878381811061139057611390613714565b90506020020160208101906113a591906137f6565b601b8111156113b6576113b66137c7565b036114405760008060008060008989878181106113d5576113d5613714565b90506020028101906113e79190613817565b8101906113f49190613d2d565b9450945094509450945061142985857fffffffffffffffffffffffffffffffffffffffffffffffffffffffffffffffff611bf5565b611435848484846128b4565b50505050505061194f565b600c87878381811061145457611454613714565b905060200201602081019061146991906137f6565b601b81111561147a5761147a6137c7565b036115b157600080600080600089898781811061149957611499613714565b90506020028101906114ab9190613817565b8101906114b89190613d2d565b945094509450945094507fffffffffffffffffffffffffffffffffffffffffffffffffffffffffffffffff830361157a576040517f70a0823100000000000000000000000000000000000000000000000000000000815230600482015273ffffffffffffffffffffffffffffffffffffffff8616906370a0823190602401602060405180830381865afa158015611553573d6000803e3d6000fd5b505050506040513d601f19601f8201168201806040525081019061157791906138c8565b92505b6115a585857fffffffffffffffffffffffffffffffffffffffffffffffffffffffffffffffff611bf5565b61143584848484612960565b601b8787838181106115c5576115c5613714565b90506020020160208101906115da91906137f6565b601b8111156115eb576115eb6137c7565b03611726576000806000806000808a8a8881811061160b5761160b613714565b905060200281019061161d9190613817565b81019061162a919061315c565b9550955095509550955095507fffffffffffffffffffffffffffffffffffffffffffffffffffffffffffffffff84036116ee576040517f70a0823100000000000000000000000000000000000000000000000000000000815230600482015273ffffffffffffffffffffffffffffffffffffffff8716906370a0823190602401602060405180830381865afa1580156116c7573d6000803e3d6000fd5b505050506040513d601f19601f820116820180604052508101906116eb91906138c8565b93505b61171986867fffffffffffffffffffffffffffffffffffffffffffffffffffffffffffffffff611bf5565b6113708585858585611d33565b600d87878381811061173a5761173a613714565b905060200201602081019061174f91906137f6565b601b811115611760576117606137c7565b036118725760008060008088888681811061177d5761177d613714565b905060200281019061178f9190613817565b81019061179c9190613d88565b93509350935093507fffffffffffffffffffffffffffffffffffffffffffffffffffffffffffffffff830361185c576040517f70a0823100000000000000000000000000000000000000000000000000000000815233600482015273ffffffffffffffffffffffffffffffffffffffff8516906370a0823190602401602060405180830381865afa158015611835573d6000803e3d6000fd5b505050506040513d601f19601f8201168201806040525081019061185991906138c8565b92505b61186884848484612a0a565b505050505061194f565b600e87878381811061188657611886613714565b905060200201602081019061189b91906137f6565b601b8111156118ac576118ac6137c7565b036118fc576000806000808888868181106118c9576118c9613714565b90506020028101906118db9190613817565b8101906118e89190613d88565b935093509350935061186884848484612a72565b61194f87878381811061191157611911613714565b905060200201602081019061192691906137f6565b86868481811061193857611938613714565b905060200281019061194a9190613817565b505050565b61195881613772565b9050610ddb565b6000546040517f521d4de90000000000000000000000000000000000000000000000000000000081523360048201526201000090910473ffffffffffffffffffffffffffffffffffffffff169063521d4de990602401602060405180830381865afa1580156119d2573d6000803e3d6000fd5b505050506040513d601f19601f820116820180604052508101906119f691906137aa565b611a2c576040517f99e120bc00000000000000000000000000000000000000000000000000000000815260040160405180910390fd5b848381141580611a3c5750808214155b15611a73576040517f46282e8d00000000000000000000000000000000000000000000000000000000815260040160405180910390fd5b60005b818110156108b257611aed888883818110611a9357611a93613714565b9050602002016020810190611aa891906135b2565b878784818110611aba57611aba613714565b9050602002016020810190611acf91906135b2565b868685818110611ae157611ae1613714565b90506020020135611bf5565b611af681613772565b9050611a76565b73ffffffffffffffffffffffffffffffffffffffff163b151590565b60405173ffffffffffffffffffffffffffffffffffffffff8085166024830152831660448201526064810182905261051a9085907f23b872dd00000000000000000000000000000000000000000000000000000000906084015b604080517fffffffffffffffffffffffffffffffffffffffffffffffffffffffffffffffe08184030181529190526020810180517bffffffffffffffffffffffffffffffffffffffffffffffffffffffff167fffffffff0000000000000000000000000000000000000000000000000000000090931692909217909152612add565b6040517fdd62ed3e00000000000000000000000000000000000000000000000000000000815230600482015273ffffffffffffffffffffffffffffffffffffffff83811660248301526000919085169063dd62ed3e90604401602060405180830381865afa158015611c6b573d6000803e3d6000fd5b505050506040513d601f19601f82011682018060405250810190611c8f91906138c8565b90508181108015611cc95750611cc660027fffffffffffffffffffffffffffffffffffffffffffffffffffffffffffffffff613dd0565b81105b15611cff57611cfa83611cdc8385613e0b565b73ffffffffffffffffffffffffffffffffffffffff87169190612be9565b61051a565b8181111561051a5761051a83611d158484613e0b565b73ffffffffffffffffffffffffffffffffffffffff87169190612ce7565b6000611d4186868686612960565b604080513381526020810188905290810182905290915073ffffffffffffffffffffffffffffffffffffffff80841691888216918716907ff0abe475665c1088274490f21db8d3d3351d565d49d5222cc54656fba17f49119060600160405180910390a495945050505050565b600073e538905cf8410324e03a5a23c1c177a474d59b2b73ffffffffffffffffffffffffffffffffffffffff1663d0e30db0346040518263ffffffff1660e01b81526004016000604051808303818588803b158015611e0c57600080fd5b505af1158015611e20573d6000803e3d6000fd5b505050505034905090565b600073e538905cf8410324e03a5a23c1c177a474d59b2b6040517f70a0823100000000000000000000000000000000000000000000000000000000815230600482015273ffffffffffffffffffffffffffffffffffffffff91909116906370a0823190602401602060405180830381865afa158015611eae573d6000803e3d6000fd5b505050506040513d601f19601f82011682018060405250810190611ed291906138c8565b9050611ede8184612e74565b8015611f6c576040517f2e1a7d4d0000000000000000000000000000000000000000000000000000000081526004810182905273e538905cf8410324e03a5a23c1c177a474d59b2b90632e1a7d4d90602401600060405180830381600087803b158015611f4a57600080fd5b505af1158015611f5e573d6000803e3d6000fd5b50505050611f6c8282612036565b92915050565b6040517f70a0823100000000000000000000000000000000000000000000000000000000815230600482015260009073ffffffffffffffffffffffffffffffffffffffff8516906370a0823190602401602060405180830381865afa158015611fdf573d6000803e3d6000fd5b505050506040513d601f19601f8201168201806040525081019061200391906138c8565b905061200f8184612e74565b801561051a5761051a73ffffffffffffffffffffffffffffffffffffffff85168383612eae565b600080600080600085875af190508061194a576040517f90b8ec1800000000000000000000000000000000000000000000000000000000815260040160405180910390fd5b60025460009073ffffffffffffffffffffffffffffffffffffffff166120c285827fffffffffffffffffffffffffffffffffffffffffffffffffffffffffffffffff611bf5565b6000808273ffffffffffffffffffffffffffffffffffffffff16856040516120ea9190613e42565b6000604051808303816000865af19150503d8060008114612127576040519150601f19603f3d011682016040523d82523d6000602084013e61212c565b606091505b50915091508161213f5761213f81612f04565b8080602001905181019061215391906138c8565b935061215f8487612e74565b5050509392505050565b805160005b8181101561051a5782818151811061218857612188613714565b60209081029190910101516040517f84e9bd7e00000000000000000000000000000000000000000000000000000000815273ffffffffffffffffffffffffffffffffffffffff8681166004830152909116906384e9bd7e90602401600060405180830381600087803b1580156121fd57600080fd5b505af1158015612211573d6000803e3d6000fd5b505050508061221f90613772565b905061216e565b835160609060008167ffffffffffffffff81111561224657612246613217565b60405190808252806020026020018201604052801561226f578160200160208202803683370190505b5090506000806000805b85811015612741576000808c838151811061229657612296613714565b602002602001015160078111156122af576122af6137c7565b036122be576001945050612731565b60028c83815181106122d2576122d2613714565b602002602001015160078111156122eb576122eb6137c7565b036124025760008b838151811061230457612304613714565b602002602001015180602001905181019061231f9190613e5e565b9092509050600181016123fb576040517f70a08231000000000000000000000000000000000000000000000000000000008152306004820152829073ffffffffffffffffffffffffffffffffffffffff8c16906370a0823190602401602060405180830381865afa158015612398573d6000803e3d6000fd5b505050506040513d601f19601f820116820180604052508101906123bc91906138c8565b6040805160208101939093528201526060016040516020818303038152906040528c84815181106123ef576123ef613714565b60200260200101819052505b5050612731565b60038c838151811061241657612416613714565b6020026020010151600781111561242f5761242f6137c7565b1480612465575060058c838151811061244a5761244a613714565b60200260200101516007811115612463576124636137c7565b145b1561249f578a828151811061247c5761247c613714565b60200260200101518060200190518101906124979190613e5e565b509050612576565b60018c83815181106124b3576124b3613714565b602002602001015160078111156124cc576124cc6137c7565b03612505578a82815181106124e3576124e3613714565b60200260200101518060200190518101906124fe91906138c8565b9050612576565b60068c838151811061251957612519613714565b60200260200101516007811115612532576125326137c7565b03612570578a828151811061254957612549613714565b60200260200101518060200190518101906125649190613e82565b50919250612576915050565b50612731565b8060000361260757841561258a5750612731565b83600003612604578973ffffffffffffffffffffffffffffffffffffffff16633c2e941b6040518163ffffffff1660e01b8152600401602060405180830381865afa1580156125dd573d6000803e3d6000fd5b505050506040513d601f19601f8201168201806040525081019061260191906138c8565b93505b50825b60005b83811015612638578187828151811061262557612625613714565b50505061263181613772565b905061260a565b506040517f430c20810000000000000000000000000000000000000000000000000000000081523360048201526024810182905273ffffffffffffffffffffffffffffffffffffffff8b169063430c208190604401602060405180830381865afa1580156126aa573d6000803e3d6000fd5b505050506040513d601f19601f820116820180604052508101906126ce91906137aa565b612704576040517fe433766c00000000000000000000000000000000000000000000000000000000815260040160405180910390fd5b8086848151811061271757612717613714565b602090810291909101015261272d600184613ec0565b9250505b61273a81613772565b9050612279565b5088955050505050505b949350505050565b61277e6040518060800160405280600081526020016000815260200160008152602001600081525090565b6040517fde8fc69800000000000000000000000000000000000000000000000000000000815273ffffffffffffffffffffffffffffffffffffffff88169063de8fc698906127da908990899033908a908a908a90600401613f72565b6080604051808303816000875af11580156127f9573d6000803e3d6000fd5b505050506040513d601f19601f820116820180604052508101906102aa9190614072565b6040517fa5d4096b00000000000000000000000000000000000000000000000000000000815273ffffffffffffffffffffffffffffffffffffffff88169063a5d4096b90612879908990899089908990899089906004016140d8565b600060405180830381600087803b15801561289357600080fd5b505af11580156128a7573d6000803e3d6000fd5b5050505050505050505050565b6040517f94bf804d0000000000000000000000000000000000000000000000000000000081526004810184905273ffffffffffffffffffffffffffffffffffffffff838116602483015260009161274b918491908816906394bf804d906044015b6020604051808303816000875af1158015612934573d6000803e3d6000fd5b505050506040513d601f19601f8201168201806040525081019061295891906138c8565b925082612e74565b6040517f6e553f650000000000000000000000000000000000000000000000000000000081526004810184905273ffffffffffffffffffffffffffffffffffffffff838116602483015260009161274b91871690636e553f65906044015b6020604051808303816000875af11580156129dd573d6000803e3d6000fd5b505050506040513d601f19601f82011682018060405250810190612a0191906138c8565b91508183612e74565b6040517fba0876520000000000000000000000000000000000000000000000000000000081526004810184905273ffffffffffffffffffffffffffffffffffffffff838116602483015233604483015260009161274b9187169063ba087652906064016129be565b6040517fb460af940000000000000000000000000000000000000000000000000000000081526004810184905273ffffffffffffffffffffffffffffffffffffffff838116602483015233604483015260009161274b9184919088169063b460af9490606401612915565b6000612b3f826040518060400160405280602081526020017f5361666545524332303a206c6f772d6c6576656c2063616c6c206661696c65648152508573ffffffffffffffffffffffffffffffffffffffff16612f459092919063ffffffff16565b80519091501561194a5780806020019051810190612b5d91906137aa565b61194a576040517f08c379a000000000000000000000000000000000000000000000000000000000815260206004820152602a60248201527f5361666545524332303a204552433230206f7065726174696f6e20646964206e60448201527f6f742073756363656564000000000000000000000000000000000000000000006064820152608401610377565b6040517fdd62ed3e00000000000000000000000000000000000000000000000000000000815230600482015273ffffffffffffffffffffffffffffffffffffffff8381166024830152600091839186169063dd62ed3e90604401602060405180830381865afa158015612c60573d6000803e3d6000fd5b505050506040513d601f19601f82011682018060405250810190612c8491906138c8565b612c8e9190613ec0565b60405173ffffffffffffffffffffffffffffffffffffffff851660248201526044810182905290915061051a9085907f095ea7b30000000000000000000000000000000000000000000000000000000090606401611b73565b6040517fdd62ed3e00000000000000000000000000000000000000000000000000000000815230600482015273ffffffffffffffffffffffffffffffffffffffff83811660248301526000919085169063dd62ed3e90604401602060405180830381865afa158015612d5d573d6000803e3d6000fd5b505050506040513d601f19601f82011682018060405250810190612d8191906138c8565b905081811015612e13576040517f08c379a000000000000000000000000000000000000000000000000000000000815260206004820152602960248201527f5361666545524332303a2064656372656173656420616c6c6f77616e6365206260448201527f656c6f77207a65726f00000000000000000000000000000000000000000000006064820152608401610377565b60405173ffffffffffffffffffffffffffffffffffffffff841660248201528282036044820181905290612e6d9086907f095ea7b30000000000000000000000000000000000000000000000000000000090606401611b73565b5050505050565b80821015610c1a576040517fa1aabbe100000000000000000000000000000000000000000000000000000000815260040160405180910390fd5b60405173ffffffffffffffffffffffffffffffffffffffff831660248201526044810182905261194a9084907fa9059cbb0000000000000000000000000000000000000000000000000000000090606401611b73565b805115612f1357805181602001fd5b6040517fee418e3700000000000000000000000000000000000000000000000000000000815260040160405180910390fd5b6060612f548484600085612f5e565b90505b9392505050565b606082471015612ff0576040517f08c379a000000000000000000000000000000000000000000000000000000000815260206004820152602660248201527f416464726573733a20696e73756666696369656e742062616c616e636520666f60448201527f722063616c6c00000000000000000000000000000000000000000000000000006064820152608401610377565b73ffffffffffffffffffffffffffffffffffffffff85163b61306e576040517f08c379a000000000000000000000000000000000000000000000000000000000815260206004820152601d60248201527f416464726573733a2063616c6c20746f206e6f6e2d636f6e74726163740000006044820152606401610377565b6000808673ffffffffffffffffffffffffffffffffffffffff1685876040516130979190613e42565b60006040518083038185875af1925050503d80600081146130d4576040519150601f19603f3d011682016040523d82523d6000602084013e6130d9565b606091505b50915091506102aa828286606083156130f3575081612f57565b8251156131035782518084602001fd5b816040517f08c379a00000000000000000000000000000000000000000000000000000000081526004016103779190614131565b73ffffffffffffffffffffffffffffffffffffffff8116811461315957600080fd5b50565b60008060008060008060c0878903121561317557600080fd5b863561318081613137565b9550602087013561319081613137565b94506040870135935060608701356131a781613137565b92506080870135915060a08701356131be81613137565b809150509295509295509295565b6000806000606084860312156131e157600080fd5b83356131ec81613137565b925060208401356131fc81613137565b9150604084013561320c81613137565b809150509250925092565b7f4e487b7100000000000000000000000000000000000000000000000000000000600052604160045260246000fd5b60405160e0810167ffffffffffffffff8111828210171561326957613269613217565b60405290565b604051601f82017fffffffffffffffffffffffffffffffffffffffffffffffffffffffffffffffe016810167ffffffffffffffff811182821017156132b6576132b6613217565b604052919050565b600067ffffffffffffffff8211156132d8576132d8613217565b5060051b60200190565b801515811461315957600080fd5b803560ff8116811461330157600080fd5b919050565b600082601f83011261331757600080fd5b8135602061332c613327836132be565b61326f565b82815260e0928302850182019282820191908785111561334b57600080fd5b8387015b858110156133d35781818a0312156133675760008081fd5b61336f613246565b813561337a81613137565b81528186013561338981613137565b81870152604082810135908201526060808301359082015260806133ae8184016132f0565b9082015260a0828101359082015260c08083013590820152845292840192810161334f565b5090979650505050505050565b60008083601f8401126133f257600080fd5b50813567ffffffffffffffff81111561340a57600080fd5b6020830191508360208260051b850101111561342557600080fd5b9250929050565b6000806000806000806080878903121561344557600080fd5b863567ffffffffffffffff8082111561345d57600080fd5b818901915089601f83011261347157600080fd5b81356020613481613327836132be565b82815260e09092028401810191818101908d84111561349f57600080fd5b948201945b838610156135365760e0868f0312156134bd5760008081fd5b6134c5613246565b86356134d081613137565b8152868401356134df81613137565b818501526040878101356134f2816132e2565b908201526060878101359082015261350c608088016132f0565b608082015260a0878101359082015260c08088013590820152825260e090950194908201906134a4565b9a50508a01359250508082111561354c57600080fd5b6135588a838b01613306565b9650604089013591508082111561356e57600080fd5b61357a8a838b016133e0565b9096509450606089013591508082111561359357600080fd5b506135a089828a016133e0565b979a9699509497509295939492505050565b6000602082840312156135c457600080fd5b8135612f5781613137565b600080604083850312156135e257600080fd5b82356135ed81613137565b91506135fb602084016132f0565b90509250929050565b60008060008060006060868803121561361c57600080fd5b853567ffffffffffffffff8082111561363457600080fd5b61364089838a01613306565b9650602088013591508082111561365657600080fd5b61366289838a016133e0565b9096509450604088013591508082111561367b57600080fd5b50613688888289016133e0565b969995985093965092949392505050565b600080600080600080606087890312156136b257600080fd5b863567ffffffffffffffff808211156136ca57600080fd5b6136d68a838b016133e0565b909850965060208901359150808211156136ef57600080fd5b6136fb8a838b016133e0565b9096509450604089013591508082111561359357600080fd5b7f4e487b7100000000000000000000000000000000000000000000000000000000600052603260045260246000fd5b7f4e487b7100000000000000000000000000000000000000000000000000000000600052601160045260246000fd5b60007fffffffffffffffffffffffffffffffffffffffffffffffffffffffffffffffff82036137a3576137a3613743565b5060010190565b6000602082840312156137bc57600080fd5b8151612f57816132e2565b7f4e487b7100000000000000000000000000000000000000000000000000000000600052602160045260246000fd5b60006020828403121561380857600080fd5b8135601c8110612f5757600080fd5b60008083357fffffffffffffffffffffffffffffffffffffffffffffffffffffffffffffffe184360301811261384c57600080fd5b83018035915067ffffffffffffffff82111561386757600080fd5b60200191503681900382131561342557600080fd5b803561330181613137565b60008060006060848603121561389c57600080fd5b83356138a781613137565b925060208401356138b781613137565b929592945050506040919091013590565b6000602082840312156138da57600080fd5b5051919050565b600080604083850312156138f457600080fd5b82359150602083013561390681613137565b809150509250929050565b60008060006060848603121561392657600080fd5b833561393181613137565b925060208401359150604084013561320c81613137565b600082601f83011261395957600080fd5b813567ffffffffffffffff81111561397357613973613217565b6139a460207fffffffffffffffffffffffffffffffffffffffffffffffffffffffffffffffe0601f8401160161326f565b8181528460208386010111156139b957600080fd5b816020850160208301376000918101602001919091529392505050565b6000806000606084860312156139eb57600080fd5b83356139f681613137565b925060208401359150604084013567ffffffffffffffff811115613a1957600080fd5b613a2586828701613948565b9150509250925092565b60008060408385031215613a4257600080fd5b8235613a4d81613137565b915060208381013567ffffffffffffffff811115613a6a57600080fd5b8401601f81018613613a7b57600080fd5b8035613a89613327826132be565b81815260059190911b82018301908381019088831115613aa857600080fd5b928401925b82841015613acf578335613ac081613137565b82529284019290840190613aad565b80955050505050509250929050565b600082601f830112613aef57600080fd5b81356020613aff613327836132be565b82815260059290921b84018101918181019086841115613b1e57600080fd5b8286015b84811015613b4757803560088110613b3a5760008081fd5b8352918301918301613b22565b509695505050505050565b600082601f830112613b6357600080fd5b81356020613b73613327836132be565b82815260059290921b84018101918181019086841115613b9257600080fd5b8286015b84811015613b4757803567ffffffffffffffff811115613bb65760008081fd5b613bc48986838b0101613948565b845250918301918301613b96565b600080600080600080600060e0888a031215613bed57600080fd5b8735613bf881613137565b96506020880135613c0881613137565b9550613c166040890161387c565b9450613c246060890161387c565b9350608088013567ffffffffffffffff80821115613c4157600080fd5b613c4d8b838c01613ade565b945060a08a0135915080821115613c6357600080fd5b613c6f8b838c01613b52565b935060c08a0135915080821115613c8557600080fd5b50613c928a828b01613948565b91505092959891949750929550565b600080600080600080600060e0888a031215613cbc57600080fd5b8735613cc781613137565b96506020880135613cd781613137565b95506040880135613ce781613137565b94506060880135613cf781613137565b93506080880135925060a0880135915060c088013567ffffffffffffffff811115613d2157600080fd5b613c928a828b01613948565b600080600080600060a08688031215613d4557600080fd5b8535613d5081613137565b94506020860135613d6081613137565b9350604086013592506060860135613d7781613137565b949793965091946080013592915050565b60008060008060808587031215613d9e57600080fd5b8435613da981613137565b9350602085013592506040850135613dc081613137565b9396929550929360600135925050565b600082613e06577f4e487b7100000000000000000000000000000000000000000000000000000000600052601260045260246000fd5b500490565b81810381811115611f6c57611f6c613743565b60005b83811015613e39578181015183820152602001613e21565b50506000910152565b60008251613e54818460208701613e1e565b9190910192915050565b60008060408385031215613e7157600080fd5b505080516020909101519092909150565b60008060008060808587031215613e9857600080fd5b845193506020850151613eaa81613137565b6040860151606090960151949790965092505050565b80820180821115611f6c57611f6c613743565b60008151808452613eeb816020860160208601613e1e565b601f017fffffffffffffffffffffffffffffffffffffffffffffffffffffffffffffffe0169290920160200192915050565b600081518084526020808501808196508360051b8101915082860160005b85811015613f65578284038952613f53848351613ed3565b98850198935090840190600101613f3b565b5091979650505050505050565b60c0808252875190820181905260009060209060e0840190828b0184805b83811015613fe157825160088110613fcf577f4e487b710000000000000000000000000000000000000000000000000000000083526021600452602483fd5b85529385019391850191600101613f90565b5050505083810382850152613ff6818a613f1d565b91505061401b604084018873ffffffffffffffffffffffffffffffffffffffff169052565b73ffffffffffffffffffffffffffffffffffffffff8616606084015273ffffffffffffffffffffffffffffffffffffffff8516608084015282810360a08401526140658185613ed3565b9998505050505050505050565b60006080828403121561408457600080fd5b6040516080810181811067ffffffffffffffff821117156140a7576140a7613217565b8060405250825181526020830151602082015260408301516040820152606083015160608201528091505092915050565b600073ffffffffffffffffffffffffffffffffffffffff8089168352808816602084015280871660408401525084606083015283608083015260c060a083015261412560c0830184613ed3565b98975050505050505050565b602081526000612f576020830184613ed356fea2646970667358221220fe38695d9b66e29adcf35a0386982b0cbaa0589c6822cafa0b5cc60073125d2e64736f6c63430008110033",
  "devdoc": {
    "author": "Angle Core Team",
    "kind": "dev",
    "methods": {
      "changeAllowance(address[],address[],uint256[])": {
        "params": {
          "amounts": "Amounts to allow",
          "spenders": "Addresses to allow transfer",
          "tokens": "Addresses of the tokens to allow"
        }
      },
      "mixer((address,address,uint256,uint256,uint8,bytes32,bytes32)[],uint8[],bytes[])": {
        "details": "With this function, users can specify paths to swap tokens to the desired token of their choice. Yet the protocol does not verify the payload given and cannot check that the swap performed by users actually gives the desired out token: in this case funds may be made accessible to anyone on this contract if the concerned users do not perform a sweep action on these tokens",
        "params": {
          "actions": "List of actions to be performed by the router (in order of execution)",
          "data": "Array of encoded data for each of the actions performed in this mixer. This is where the bytes-encoded parameters for a given action are stored",
          "paramsPermit": "Array of params `PermitType` used to do a 1 tx to approve the router on each token (can be done once by setting high approved amounts) which supports the `permit` standard. Users willing to interact with the contract with tokens that do not support permit should approve the contract for these tokens prior to interacting with it"
        }
      },
      "mixerVaultManagerPermit((address,address,bool,uint256,uint8,bytes32,bytes32)[],(address,address,uint256,uint256,uint8,bytes32,bytes32)[],uint8[],bytes[])": {
        "details": "In `paramsPermitVaultManager`, the signatures for granting approvals must be given first before the signatures to revoke approvalsThe router contract has been built to be safe to keep approvals as you cannot take an action on a vault you are not approved for, but people wary about their approvals may want to grant it before immediately revoking it, although this is just an option",
        "params": {
          "paramsPermitVaultManager": "Parameters to sign permit to give allowance to the router for a `VaultManager` contract"
        }
      }
    },
    "title": "AngleRouterXlayer",
    "version": 1
  },
  "userdoc": {
    "kind": "user",
    "methods": {
      "changeAllowance(address[],address[],uint256[])": {
        "notice": "Changes allowances for different tokens"
      },
      "core()": {
        "notice": "Core address handling access control"
      },
      "deposit4626Referral(address,address,uint256,address,uint256,address)": {
        "notice": "Wrapper built on top of the base `_deposit4626Referral` function to add a proxy enabling to track addresses depositing from a certain referring address into an ERC4626 contract"
      },
      "initializeRouter(address,address,address)": {
        "notice": "Deploys the router contract on a chain"
      },
      "mixer((address,address,uint256,uint256,uint8,bytes32,bytes32)[],uint8[],bytes[])": {
        "notice": "Allows composable calls to different functions within the protocol"
      },
      "mixerVaultManagerPermit((address,address,bool,uint256,uint8,bytes32,bytes32)[],(address,address,uint256,uint256,uint8,bytes32,bytes32)[],uint8[],bytes[])": {
        "notice": "Wrapper built on top of the base `mixer` function to grant approval to a `VaultManager` contract before performing actions and then revoking this approval after these actions"
      },
      "oneInch()": {
        "notice": "Address of 1Inch router used for swaps"
      },
      "setCore(address)": {
        "notice": "Sets a new `core` contract"
      },
      "setRouter(address,uint8)": {
        "notice": "Sets a new router variable"
      },
      "uniswapV3Router()": {
        "notice": "Address of the router used for swaps"
      }
    },
    "notice": "Router contract built specifially for Angle use cases on Xlayer",
    "version": 1
  },
  "storageLayout": {
    "storage": [
      {
        "astId": 6,
        "contract": "contracts/implementations/xlayer/AngleRouterXlayer.sol:AngleRouterXlayer",
        "label": "_initialized",
        "offset": 0,
        "slot": "0",
        "type": "t_uint8"
      },
      {
        "astId": 9,
        "contract": "contracts/implementations/xlayer/AngleRouterXlayer.sol:AngleRouterXlayer",
        "label": "_initializing",
        "offset": 1,
        "slot": "0",
        "type": "t_bool"
      },
      {
        "astId": 6523,
        "contract": "contracts/implementations/xlayer/AngleRouterXlayer.sol:AngleRouterXlayer",
        "label": "core",
        "offset": 2,
        "slot": "0",
        "type": "t_contract(ICoreBorrow)9291"
      },
      {
        "astId": 6527,
        "contract": "contracts/implementations/xlayer/AngleRouterXlayer.sol:AngleRouterXlayer",
        "label": "uniswapV3Router",
        "offset": 0,
        "slot": "1",
        "type": "t_contract(IUniswapV3Router)9828"
      },
      {
        "astId": 6530,
        "contract": "contracts/implementations/xlayer/AngleRouterXlayer.sol:AngleRouterXlayer",
        "label": "oneInch",
        "offset": 0,
        "slot": "2",
        "type": "t_address"
      },
      {
        "astId": 6534,
        "contract": "contracts/implementations/xlayer/AngleRouterXlayer.sol:AngleRouterXlayer",
        "label": "__gap",
        "offset": 0,
        "slot": "3",
        "type": "t_array(t_uint256)47_storage"
      }
    ],
    "types": {
      "t_address": {
        "encoding": "inplace",
        "label": "address",
        "numberOfBytes": "20"
      },
      "t_array(t_uint256)47_storage": {
        "base": "t_uint256",
        "encoding": "inplace",
        "label": "uint256[47]",
        "numberOfBytes": "1504"
      },
      "t_bool": {
        "encoding": "inplace",
        "label": "bool",
        "numberOfBytes": "1"
      },
      "t_contract(ICoreBorrow)9291": {
        "encoding": "inplace",
        "label": "contract ICoreBorrow",
        "numberOfBytes": "20"
      },
      "t_contract(IUniswapV3Router)9828": {
        "encoding": "inplace",
        "label": "contract IUniswapV3Router",
        "numberOfBytes": "20"
      },
      "t_uint256": {
        "encoding": "inplace",
        "label": "uint256",
        "numberOfBytes": "32"
      },
      "t_uint8": {
        "encoding": "inplace",
        "label": "uint8",
        "numberOfBytes": "1"
      }
    }
  }
}