{
  "address": "0xEF66C906879Ec3904Ff441c4693b33F3B285325e",
  "abi": [
    {
      "inputs": [],
      "name": "IncompatibleLengths",
      "type": "error"
    },
    {
      "inputs": [],
      "name": "InvalidReturnMessage",
      "type": "error"
    },
    {
      "inputs": [],
      "name": "NotApprovedOrOwner",
      "type": "error"
    },
    {
      "inputs": [],
      "name": "NotGovernor",
      "type": "error"
    },
    {
      "inputs": [],
      "name": "NotGovernorOrGuardian",
      "type": "error"
    },
    {
      "inputs": [],
      "name": "TooSmallAmountOut",
      "type": "error"
    },
    {
      "inputs": [],
      "name": "TransferFailed",
      "type": "error"
    },
    {
      "inputs": [],
      "name": "ZeroAddress",
      "type": "error"
    },
    {
      "anonymous": false,
      "inputs": [
        {
          "indexed": false,
          "internalType": "uint8",
          "name": "version",
          "type": "uint8"
        }
      ],
      "name": "Initialized",
      "type": "event"
    },
    {
      "inputs": [
        {
          "internalType": "contract IERC20[]",
          "name": "tokens",
          "type": "address[]"
        },
        {
          "internalType": "address[]",
          "name": "spenders",
          "type": "address[]"
        },
        {
          "internalType": "uint256[]",
          "name": "amounts",
          "type": "uint256[]"
        }
      ],
      "name": "changeAllowance",
      "outputs": [],
      "stateMutability": "nonpayable",
      "type": "function"
    },
    {
      "inputs": [
        {
          "internalType": "address",
          "name": "gaugeUser",
          "type": "address"
        },
        {
          "internalType": "address[]",
          "name": "liquidityGauges",
          "type": "address[]"
        }
      ],
      "name": "claimRewards",
      "outputs": [],
      "stateMutability": "nonpayable",
      "type": "function"
    },
    {
      "inputs": [],
      "name": "core",
      "outputs": [
        {
          "internalType": "contract ICoreBorrow",
          "name": "",
          "type": "address"
        }
      ],
      "stateMutability": "view",
      "type": "function"
    },
    {
      "inputs": [
        {
          "internalType": "address",
          "name": "_core",
          "type": "address"
        },
        {
          "internalType": "address",
          "name": "_uniswapRouter",
          "type": "address"
        },
        {
          "internalType": "address",
          "name": "_oneInch",
          "type": "address"
        }
      ],
      "name": "initializeRouter",
      "outputs": [],
      "stateMutability": "nonpayable",
      "type": "function"
    },
    {
      "inputs": [
        {
          "components": [
            {
              "internalType": "address",
              "name": "token",
              "type": "address"
            },
            {
              "internalType": "address",
              "name": "owner",
              "type": "address"
            },
            {
              "internalType": "uint256",
              "name": "value",
              "type": "uint256"
            },
            {
              "internalType": "uint256",
              "name": "deadline",
              "type": "uint256"
            },
            {
              "internalType": "uint8",
              "name": "v",
              "type": "uint8"
            },
            {
              "internalType": "bytes32",
              "name": "r",
              "type": "bytes32"
            },
            {
              "internalType": "bytes32",
              "name": "s",
              "type": "bytes32"
            }
          ],
          "internalType": "struct PermitType[]",
          "name": "paramsPermit",
          "type": "tuple[]"
        },
        {
          "internalType": "enum ActionType[]",
          "name": "actions",
          "type": "uint8[]"
        },
        {
          "internalType": "bytes[]",
          "name": "data",
          "type": "bytes[]"
        }
      ],
      "name": "mixer",
      "outputs": [],
      "stateMutability": "payable",
      "type": "function"
    },
    {
      "inputs": [
        {
          "components": [
            {
              "internalType": "address",
              "name": "vaultManager",
              "type": "address"
            },
            {
              "internalType": "address",
              "name": "owner",
              "type": "address"
            },
            {
              "internalType": "bool",
              "name": "approved",
              "type": "bool"
            },
            {
              "internalType": "uint256",
              "name": "deadline",
              "type": "uint256"
            },
            {
              "internalType": "uint8",
              "name": "v",
              "type": "uint8"
            },
            {
              "internalType": "bytes32",
              "name": "r",
              "type": "bytes32"
            },
            {
              "internalType": "bytes32",
              "name": "s",
              "type": "bytes32"
            }
          ],
          "internalType": "struct PermitVaultManagerType[]",
          "name": "paramsPermitVaultManager",
          "type": "tuple[]"
        },
        {
          "components": [
            {
              "internalType": "address",
              "name": "token",
              "type": "address"
            },
            {
              "internalType": "address",
              "name": "owner",
              "type": "address"
            },
            {
              "internalType": "uint256",
              "name": "value",
              "type": "uint256"
            },
            {
              "internalType": "uint256",
              "name": "deadline",
              "type": "uint256"
            },
            {
              "internalType": "uint8",
              "name": "v",
              "type": "uint8"
            },
            {
              "internalType": "bytes32",
              "name": "r",
              "type": "bytes32"
            },
            {
              "internalType": "bytes32",
              "name": "s",
              "type": "bytes32"
            }
          ],
          "internalType": "struct PermitType[]",
          "name": "paramsPermit",
          "type": "tuple[]"
        },
        {
          "internalType": "enum ActionType[]",
          "name": "actions",
          "type": "uint8[]"
        },
        {
          "internalType": "bytes[]",
          "name": "data",
          "type": "bytes[]"
        }
      ],
      "name": "mixerVaultManagerPermit",
      "outputs": [],
      "stateMutability": "payable",
      "type": "function"
    },
    {
      "inputs": [],
      "name": "oneInch",
      "outputs": [
        {
          "internalType": "address",
          "name": "",
          "type": "address"
        }
      ],
      "stateMutability": "view",
      "type": "function"
    },
    {
      "inputs": [
        {
          "internalType": "contract ICoreBorrow",
          "name": "_core",
          "type": "address"
        }
      ],
      "name": "setCore",
      "outputs": [],
      "stateMutability": "nonpayable",
      "type": "function"
    },
    {
      "inputs": [
        {
          "internalType": "address",
          "name": "router",
          "type": "address"
        },
        {
          "internalType": "uint8",
          "name": "who",
          "type": "uint8"
        }
      ],
      "name": "setRouter",
      "outputs": [],
      "stateMutability": "nonpayable",
      "type": "function"
    },
    {
      "inputs": [],
      "name": "uniswapV3Router",
      "outputs": [
        {
          "internalType": "contract IUniswapV3Router",
          "name": "",
          "type": "address"
        }
      ],
      "stateMutability": "view",
      "type": "function"
    },
    {
      "stateMutability": "payable",
      "type": "receive"
    }
  ],
  "transactionHash": "0x0d019dd1d16ed6e6bc325aaa743bcb3d3745b6dd0eb3bd85a8722c716a1118dd",
  "args": [],
  "numDeployments": 1,
  "solcInputHash": "b31330d2368b69698120516903f43a1f",
  "bytecode": "0x60806040523480156200001157600080fd5b50600054610100900460ff1615808015620000335750600054600160ff909116105b8062000063575062000050306200013d60201b62001a081760201c565b15801562000063575060005460ff166001145b620000cb5760405162461bcd60e51b815260206004820152602e60248201527f496e697469616c697a61626c653a20636f6e747261637420697320616c72656160448201526d191e481a5b9a5d1a585b1a5e995960921b606482015260840160405180910390fd5b6000805460ff191660011790558015620000ef576000805461ff0019166101001790555b801562000136576000805461ff0019169055604051600181527f7f26b83ff96e1f2b6a682f133852f6798a09c465da95921460cefb38474024989060200160405180910390a15b506200014c565b6001600160a01b03163b151590565b614615806200015c6000396000f3fe6080604052600436106100b55760003560e01c80638000963011610069578063848c48da1161004e578063848c48da146101d9578063b82c4dc1146101ec578063f2f4eb261461020c57600080fd5b8063800096301461019957806383f1d681146101b957600080fd5b80632c76d7a61161009a5780632c76d7a61461013957806342860d4b1461016657806359856d561461018657600080fd5b8063045c08d5146100c15780632026ffa31461011757600080fd5b366100bc57005b600080fd5b3480156100cd57600080fd5b506002546100ee9073ffffffffffffffffffffffffffffffffffffffff1681565b60405173ffffffffffffffffffffffffffffffffffffffff909116815260200160405180910390f35b34801561012357600080fd5b50610137610132366004613469565b61023f565b005b34801561014557600080fd5b506001546100ee9073ffffffffffffffffffffffffffffffffffffffff1681565b34801561017257600080fd5b506101376101813660046134be565b610281565b6101376101943660046136d2565b6104ec565b3480156101a557600080fd5b506101376101b4366004613858565b610888565b3480156101c557600080fd5b506101376101d4366004613875565b610a3a565b6101376101e73660046138aa565b610bea565b3480156101f857600080fd5b5061013761020736600461393f565b61186a565b34801561021857600080fd5b506000546100ee9062010000900473ffffffffffffffffffffffffffffffffffffffff1681565b61027c83838380806020026020016040519081016040528093929190818152602001838360200280828437600092019190915250611a2492505050565b505050565b600054610100900460ff16158080156102a15750600054600160ff909116105b806102bb5750303b1580156102bb575060005460ff166001145b61034c576040517f08c379a000000000000000000000000000000000000000000000000000000000815260206004820152602e60248201527f496e697469616c697a61626c653a20636f6e747261637420697320616c72656160448201527f647920696e697469616c697a656400000000000000000000000000000000000060648201526084015b60405180910390fd5b600080547fffffffffffffffffffffffffffffffffffffffffffffffffffffffffffffff0016600117905580156103aa57600080547fffffffffffffffffffffffffffffffffffffffffffffffffffffffffffff00ff166101001790555b73ffffffffffffffffffffffffffffffffffffffff84166103f7576040517fd92e233d00000000000000000000000000000000000000000000000000000000815260040160405180910390fd5b6000805473ffffffffffffffffffffffffffffffffffffffff80871662010000027fffffffffffffffffffff0000000000000000000000000000000000000000ffff90921691909117909155600180548583167fffffffffffffffffffffffff000000000000000000000000000000000000000091821617909155600280549285169290911691909117905580156104e657600080547fffffffffffffffffffffffffffffffffffffffffffffffffffffffffffff00ff169055604051600181527f7f26b83ff96e1f2b6a682f133852f6798a09c465da95921460cefb38474024989060200160405180910390a15b50505050565b855160005b818110156106b45787818151811061050b5761050b6139ba565b6020026020010151604001511561069f5787818151811061052e5761052e6139ba565b60200260200101516000015173ffffffffffffffffffffffffffffffffffffffff1663f51cc7dd898381518110610567576105676139ba565b6020026020010151602001513060018c8681518110610588576105886139ba565b6020026020010151606001518d87815181106105a6576105a66139ba565b6020026020010151608001518e88815181106105c4576105c46139ba565b602002602001015160a001518f89815181106105e2576105e26139ba565b602090810291909101015160c001516040517fffffffff0000000000000000000000000000000000000000000000000000000060e08a901b16815273ffffffffffffffffffffffffffffffffffffffff97881660048201529690951660248701529215156044860152606485019190915260ff16608484015260a483015260c482015260e401600060405180830381600087803b15801561068257600080fd5b505af1158015610696573d6000803e3d6000fd5b505050506106a4565b6106b4565b6106ad81613a18565b90506104f1565b506106c28686868686610bea565b60005b8181101561087e578781815181106106df576106df6139ba565b60200260200101516040015161086e57878181518110610701576107016139ba565b60200260200101516000015173ffffffffffffffffffffffffffffffffffffffff1663f51cc7dd89838151811061073a5761073a6139ba565b6020026020010151602001513060008c868151811061075b5761075b6139ba565b6020026020010151606001518d8781518110610779576107796139ba565b6020026020010151608001518e8881518110610797576107976139ba565b602002602001015160a001518f89815181106107b5576107b56139ba565b602090810291909101015160c001516040517fffffffff0000000000000000000000000000000000000000000000000000000060e08a901b16815273ffffffffffffffffffffffffffffffffffffffff97881660048201529690951660248701529215156044860152606485019190915260ff16608484015260a483015260c482015260e401600060405180830381600087803b15801561085557600080fd5b505af1158015610869573d6000803e3d6000fd5b505050505b61087781613a18565b90506106c5565b5050505050505050565b6000546040517fe43581b80000000000000000000000000000000000000000000000000000000081523360048201526201000090910473ffffffffffffffffffffffffffffffffffffffff169063e43581b890602401602060405180830381865afa1580156108fb573d6000803e3d6000fd5b505050506040513d601f19601f8201168201806040525081019061091f9190613a50565b15806109b657506040517fe43581b800000000000000000000000000000000000000000000000000000000815233600482015273ffffffffffffffffffffffffffffffffffffffff82169063e43581b890602401602060405180830381865afa158015610990573d6000803e3d6000fd5b505050506040513d601f19601f820116820180604052508101906109b49190613a50565b155b156109ed576040517fee3675d400000000000000000000000000000000000000000000000000000000815260040160405180910390fd5b6000805473ffffffffffffffffffffffffffffffffffffffff90921662010000027fffffffffffffffffffff0000000000000000000000000000000000000000ffff909216919091179055565b6000546040517f521d4de90000000000000000000000000000000000000000000000000000000081523360048201526201000090910473ffffffffffffffffffffffffffffffffffffffff169063521d4de990602401602060405180830381865afa158015610aad573d6000803e3d6000fd5b505050506040513d601f19601f82011682018060405250810190610ad19190613a50565b610b07576040517f99e120bc00000000000000000000000000000000000000000000000000000000815260040160405180910390fd5b73ffffffffffffffffffffffffffffffffffffffff8216610b54576040517fd92e233d00000000000000000000000000000000000000000000000000000000815260040160405180910390fd5b8060ff16600003610ba5576001805473ffffffffffffffffffffffffffffffffffffffff84167fffffffffffffffffffffffff00000000000000000000000000000000000000009091161790555050565b600280547fffffffffffffffffffffffff00000000000000000000000000000000000000001673ffffffffffffffffffffffffffffffffffffffff84161790555b5050565b845160005b81811015610da257868181518110610c0957610c096139ba565b60200260200101516000015173ffffffffffffffffffffffffffffffffffffffff1663d505accf888381518110610c4257610c426139ba565b602002602001015160200151308a8581518110610c6157610c616139ba565b6020026020010151604001518b8681518110610c7f57610c7f6139ba565b6020026020010151606001518c8781518110610c9d57610c9d6139ba565b6020026020010151608001518d8881518110610cbb57610cbb6139ba565b602002602001015160a001518e8981518110610cd957610cd96139ba565b602090810291909101015160c001516040517fffffffff0000000000000000000000000000000000000000000000000000000060e08a901b16815273ffffffffffffffffffffffffffffffffffffffff97881660048201529690951660248701526044860193909352606485019190915260ff16608484015260a483015260c482015260e401600060405180830381600087803b158015610d7957600080fd5b505af1158015610d8d573d6000803e3d6000fd5b5050505080610d9b90613a18565b9050610bef565b508360005b8181101561087e576000878783818110610dc357610dc36139ba565b9050602002016020810190610dd89190613a9c565b601a811115610de957610de9613a6d565b03610f0c576000806000878785818110610e0557610e056139ba565b9050602002810190610e179190613abd565b810190610e249190613b2d565b9250925092507fffffffffffffffffffffffffffffffffffffffffffffffffffffffffffffffff8103610ee2576040517f70a0823100000000000000000000000000000000000000000000000000000000815233600482015273ffffffffffffffffffffffffffffffffffffffff8416906370a0823190602401602060405180830381865afa158015610ebb573d6000803e3d6000fd5b505050506040513d601f19601f82011682018060405250810190610edf9190613b6e565b90505b610f0473ffffffffffffffffffffffffffffffffffffffff8416338484611ae1565b50505061185a565b6001878783818110610f2057610f206139ba565b9050602002016020810190610f359190613a9c565b601a811115610f4657610f46613a6d565b03610f5957610f53611bbd565b5061185a565b6002878783818110610f6d57610f6d6139ba565b9050602002016020810190610f829190613a9c565b601a811115610f9357610f93613a6d565b03610fda57600080868684818110610fad57610fad6139ba565b9050602002810190610fbf9190613abd565b810190610fcc9190613b87565b91509150610f048282611c3a565b6003878783818110610fee57610fee6139ba565b90506020020160208101906110039190613a9c565b601a81111561101457611014613a6d565b03611060576000806000878785818110611030576110306139ba565b90506020028101906110429190613abd565b81019061104f9190613bb7565b925092509250610f04838383611d81565b6004878783818110611074576110746139ba565b90506020020160208101906110899190613a9c565b601a81111561109a5761109a613a6d565b036110b057478015610f5357610f533382611e45565b60058787838181106110c4576110c46139ba565b90506020020160208101906110d99190613a9c565b601a8111156110ea576110ea613a6d565b0361114457600080600080888886818110611107576111076139ba565b90506020028101906111199190613abd565b8101906111269190613c7c565b935093509350935061113a84848484611e8a565b505050505061185a565b6006878783818110611158576111586139ba565b905060200201602081019061116d9190613a9c565b601a81111561117e5761117e613a6d565b036111d357600080600087878581811061119a5761119a6139ba565b90506020028101906111ac9190613abd565b8101906111b99190613cdf565b9250925092506111ca838383612046565b5050505061185a565b60078787838181106111e7576111e76139ba565b90506020020160208101906111fc9190613a9c565b601a81111561120d5761120d613a6d565b0361125b57600080868684818110611227576112276139ba565b90506020028101906112399190613abd565b8101906112469190613da7565b915091506112548282611a24565b505061185a565b600887878381811061126f5761126f6139ba565b90506020020160208101906112849190613a9c565b601a81111561129557611295613a6d565b036112e5576000806000808888868181106112b2576112b26139ba565b90506020028101906112c49190613abd565b8101906112d19190613df7565b93509350935093506111ca84848484612134565b60098787838181106112f9576112f96139ba565b905060200201602081019061130e9190613a9c565b601a81111561131f5761131f613a6d565b036113c25760008060008060008060008b8b89818110611341576113416139ba565b90506020028101906113539190613abd565b8101906113609190613f33565b965096509650965096509650965061137a8383888a6121c0565b91506113a787877fffffffffffffffffffffffffffffffffffffffffffffffffffffffffffffffff6126ed565b6113b58684848888866127f6565b505050505050505061185a565b600a8787838181106113d6576113d66139ba565b90506020020160208101906113eb9190613a9c565b601a8111156113fc576113fc613a6d565b036114665760008060008060008060008b8b8981811061141e5761141e6139ba565b90506020028101906114309190613abd565b81019061143d9190614002565b965096509650965096509650965061145a878787878787876128c0565b5050505050505061185a565b600b87878381811061147a5761147a6139ba565b905060200201602081019061148f9190613a9c565b601a8111156114a0576114a0613a6d565b0361152a5760008060008060008989878181106114bf576114bf6139ba565b90506020028101906114d19190613abd565b8101906114de919061408e565b9450945094509450945061151385857fffffffffffffffffffffffffffffffffffffffffffffffffffffffffffffffff6126ed565b61151f84848484612957565b50505050505061185a565b600c87878381811061153e5761153e6139ba565b90506020020160208101906115539190613a9c565b601a81111561156457611564613a6d565b036115e3576000806000806000898987818110611583576115836139ba565b90506020028101906115959190613abd565b8101906115a2919061408e565b945094509450945094506115d785857fffffffffffffffffffffffffffffffffffffffffffffffffffffffffffffffff6126ed565b61151f84848484612a03565b600d8787838181106115f7576115f76139ba565b905060200201602081019061160c9190613a9c565b601a81111561161d5761161d613a6d565b0361166d5760008060008088888681811061163a5761163a6139ba565b905060200281019061164c9190613abd565b81019061165991906140e9565b935093509350935061113a84848484612aad565b600e878783818110611681576116816139ba565b90506020020160208101906116969190613a9c565b601a8111156116a7576116a7613a6d565b036116f7576000806000808888868181106116c4576116c46139ba565b90506020028101906116d69190613abd565b8101906116e391906140e9565b935093509350935061113a84848484612b15565b600f87878381811061170b5761170b6139ba565b90506020020160208101906117209190613a9c565b601a81111561173157611731613a6d565b036117815760008060008088888681811061174e5761174e6139ba565b90506020028101906117609190613abd565b81019061176d91906140e9565b935093509350935061113a84848484612b80565b6010878783818110611795576117956139ba565b90506020020160208101906117aa9190613a9c565b601a8111156117bb576117bb613a6d565b036118075760008060008787858181106117d7576117d76139ba565b90506020028101906117e99190613abd565b8101906117f69190614131565b9250925092506111ca838383612be8565b61185a87878381811061181c5761181c6139ba565b90506020020160208101906118319190613a9c565b868684818110611843576118436139ba565b90506020028101906118559190613abd565b612c8c565b61186381613a18565b9050610da7565b6000546040517f521d4de90000000000000000000000000000000000000000000000000000000081523360048201526201000090910473ffffffffffffffffffffffffffffffffffffffff169063521d4de990602401602060405180830381865afa1580156118dd573d6000803e3d6000fd5b505050506040513d601f19601f820116820180604052508101906119019190613a50565b611937576040517f99e120bc00000000000000000000000000000000000000000000000000000000815260040160405180910390fd5b8483811415806119475750808214155b1561197e576040517f46282e8d00000000000000000000000000000000000000000000000000000000815260040160405180910390fd5b60005b8181101561087e576119f888888381811061199e5761199e6139ba565b90506020020160208101906119b39190613858565b8787848181106119c5576119c56139ba565b90506020020160208101906119da9190613858565b8686858181106119ec576119ec6139ba565b905060200201356126ed565b611a0181613a18565b9050611981565b73ffffffffffffffffffffffffffffffffffffffff163b151590565b805160005b818110156104e657828181518110611a4357611a436139ba565b60209081029190910101516040517f84e9bd7e00000000000000000000000000000000000000000000000000000000815273ffffffffffffffffffffffffffffffffffffffff8681166004830152909116906384e9bd7e90602401600060405180830381600087803b158015611ab857600080fd5b505af1158015611acc573d6000803e3d6000fd5b5050505080611ada90613a18565b9050611a29565b60405173ffffffffffffffffffffffffffffffffffffffff808516602483015283166044820152606481018290526104e69085907f23b872dd00000000000000000000000000000000000000000000000000000000906084015b604080517fffffffffffffffffffffffffffffffffffffffffffffffffffffffffffffffe08184030181529190526020810180517bffffffffffffffffffffffffffffffffffffffffffffffffffffffff167fffffffff0000000000000000000000000000000000000000000000000000000090931692909217909152612d1b565b600073b31f66aa3c1e785363f0875a1b74e27b85fd66c773ffffffffffffffffffffffffffffffffffffffff1663d0e30db0346040518263ffffffff1660e01b81526004016000604051808303818588803b158015611c1b57600080fd5b505af1158015611c2f573d6000803e3d6000fd5b505050505034905090565b600073b31f66aa3c1e785363f0875a1b74e27b85fd66c76040517f70a0823100000000000000000000000000000000000000000000000000000000815230600482015273ffffffffffffffffffffffffffffffffffffffff91909116906370a0823190602401602060405180830381865afa158015611cbd573d6000803e3d6000fd5b505050506040513d601f19601f82011682018060405250810190611ce19190613b6e565b9050611ced8184612e27565b8015611d7b576040517f2e1a7d4d0000000000000000000000000000000000000000000000000000000081526004810182905273b31f66aa3c1e785363f0875a1b74e27b85fd66c790632e1a7d4d90602401600060405180830381600087803b158015611d5957600080fd5b505af1158015611d6d573d6000803e3d6000fd5b50505050611d7b8282611e45565b92915050565b6040517f70a0823100000000000000000000000000000000000000000000000000000000815230600482015260009073ffffffffffffffffffffffffffffffffffffffff8516906370a0823190602401602060405180830381865afa158015611dee573d6000803e3d6000fd5b505050506040513d601f19601f82011682018060405250810190611e129190613b6e565b9050611e1e8184612e27565b80156104e6576104e673ffffffffffffffffffffffffffffffffffffffff85168383612e61565b600080600080600085875af190508061027c576040517f90b8ec1800000000000000000000000000000000000000000000000000000000815260040160405180910390fd5b6001546040517fdd62ed3e00000000000000000000000000000000000000000000000000000000815230600482015273ffffffffffffffffffffffffffffffffffffffff918216602482018190526000929091839188169063dd62ed3e90604401602060405180830381865afa158015611f08573d6000803e3d6000fd5b505050506040513d601f19601f82011682018060405250810190611f2c9190613b6e565b905085811015611f8257611f8282611f64837fffffffffffffffffffffffffffffffffffffffffffffffffffffffffffffffff614189565b73ffffffffffffffffffffffffffffffffffffffff8a169190612eb7565b6040805160a0810182528581523060208201524281830152606081018890526080810187905290517fc04b8d5900000000000000000000000000000000000000000000000000000000815273ffffffffffffffffffffffffffffffffffffffff84169163c04b8d5991611ff8919060040161420a565b6020604051808303816000875af1158015612017573d6000803e3d6000fd5b505050506040513d601f19601f8201168201806040525081019061203b9190613b6e565b979650505050505050565b60025460009073ffffffffffffffffffffffffffffffffffffffff1661208d85827fffffffffffffffffffffffffffffffffffffffffffffffffffffffffffffffff6126ed565b6000808273ffffffffffffffffffffffffffffffffffffffff16856040516120b59190614270565b6000604051808303816000865af19150503d80600081146120f2576040519150601f19603f3d011682016040523d82523d6000602084013e6120f7565b606091505b50915091508161210a5761210a81612fb5565b8080602001905181019061211e9190613b6e565b935061212a8487612e27565b5050509392505050565b6040517f83df67470000000000000000000000000000000000000000000000000000000081526004810184905273ffffffffffffffffffffffffffffffffffffffff858116602483015282151560448301528316906383df674790606401600060405180830381600087803b1580156121ac57600080fd5b505af115801561087e573d6000803e3d6000fd5b835160609060008167ffffffffffffffff8111156121e0576121e0613509565b604051908082528060200260200182016040528015612209578160200160208202803683370190505b5090506000806000805b858110156126db576000808c8381518110612230576122306139ba565b6020026020010151600781111561224957612249613a6d565b036122585760019450506126cb565b60028c838151811061226c5761226c6139ba565b6020026020010151600781111561228557612285613a6d565b0361239c5760008b838151811061229e5761229e6139ba565b60200260200101518060200190518101906122b9919061428c565b909250905060018101612395576040517f70a08231000000000000000000000000000000000000000000000000000000008152306004820152829073ffffffffffffffffffffffffffffffffffffffff8c16906370a0823190602401602060405180830381865afa158015612332573d6000803e3d6000fd5b505050506040513d601f19601f820116820180604052508101906123569190613b6e565b6040805160208101939093528201526060016040516020818303038152906040528c8481518110612389576123896139ba565b60200260200101819052505b50506126cb565b60038c83815181106123b0576123b06139ba565b602002602001015160078111156123c9576123c9613a6d565b14806123ff575060058c83815181106123e4576123e46139ba565b602002602001015160078111156123fd576123fd613a6d565b145b15612439578a8281518110612416576124166139ba565b6020026020010151806020019051810190612431919061428c565b509050612510565b60018c838151811061244d5761244d6139ba565b6020026020010151600781111561246657612466613a6d565b0361249f578a828151811061247d5761247d6139ba565b60200260200101518060200190518101906124989190613b6e565b9050612510565b60068c83815181106124b3576124b36139ba565b602002602001015160078111156124cc576124cc613a6d565b0361250a578a82815181106124e3576124e36139ba565b60200260200101518060200190518101906124fe91906142b0565b50919250612510915050565b506126cb565b806000036125a157841561252457506126cb565b8360000361259e578973ffffffffffffffffffffffffffffffffffffffff16633c2e941b6040518163ffffffff1660e01b8152600401602060405180830381865afa158015612577573d6000803e3d6000fd5b505050506040513d601f19601f8201168201806040525081019061259b9190613b6e565b93505b50825b60005b838110156125d257818782815181106125bf576125bf6139ba565b5050506125cb81613a18565b90506125a4565b506040517f430c20810000000000000000000000000000000000000000000000000000000081523360048201526024810182905273ffffffffffffffffffffffffffffffffffffffff8b169063430c208190604401602060405180830381865afa158015612644573d6000803e3d6000fd5b505050506040513d601f19601f820116820180604052508101906126689190613a50565b61269e576040517fe433766c00000000000000000000000000000000000000000000000000000000815260040160405180910390fd5b808684815181106126b1576126b16139ba565b60209081029190910101526126c76001846142ee565b9250505b6126d481613a18565b9050612213565b5088955050505050505b949350505050565b6040517fdd62ed3e00000000000000000000000000000000000000000000000000000000815230600482015273ffffffffffffffffffffffffffffffffffffffff83811660248301526000919085169063dd62ed3e90604401602060405180830381865afa158015612763573d6000803e3d6000fd5b505050506040513d601f19601f820116820180604052508101906127879190613b6e565b9050818110156127c2576127bd8361279f8385614189565b73ffffffffffffffffffffffffffffffffffffffff87169190612eb7565b6104e6565b818111156104e6576104e6836127d88484614189565b73ffffffffffffffffffffffffffffffffffffffff87169190612ff6565b6128216040518060800160405280600081526020016000815260200160008152602001600081525090565b6040517fde8fc69800000000000000000000000000000000000000000000000000000000815273ffffffffffffffffffffffffffffffffffffffff88169063de8fc6989061287d908990899033908a908a908a90600401614346565b6080604051808303816000875af115801561289c573d6000803e3d6000fd5b505050506040513d601f19601f8201168201806040525081019061203b9190614446565b6040517fa5d4096b00000000000000000000000000000000000000000000000000000000815273ffffffffffffffffffffffffffffffffffffffff88169063a5d4096b9061291c908990899089908990899089906004016144ac565b600060405180830381600087803b15801561293657600080fd5b505af115801561294a573d6000803e3d6000fd5b5050505050505050505050565b6040517f94bf804d0000000000000000000000000000000000000000000000000000000081526004810184905273ffffffffffffffffffffffffffffffffffffffff83811660248301526000916126e5918491908816906394bf804d906044015b6020604051808303816000875af11580156129d7573d6000803e3d6000fd5b505050506040513d601f19601f820116820180604052508101906129fb9190613b6e565b925082612e27565b6040517f6e553f650000000000000000000000000000000000000000000000000000000081526004810184905273ffffffffffffffffffffffffffffffffffffffff83811660248301526000916126e591871690636e553f65906044015b6020604051808303816000875af1158015612a80573d6000803e3d6000fd5b505050506040513d601f19601f82011682018060405250810190612aa49190613b6e565b91508183612e27565b6040517fba0876520000000000000000000000000000000000000000000000000000000081526004810184905273ffffffffffffffffffffffffffffffffffffffff83811660248301523360448301526000916126e59187169063ba08765290606401612a61565b6040517fb460af940000000000000000000000000000000000000000000000000000000081526004810184905273ffffffffffffffffffffffffffffffffffffffff83811660248301523360448301526000916126e59184919088169063b460af94906064016129b8565b6040517ffbcc01ae0000000000000000000000000000000000000000000000000000000081526004810184905273ffffffffffffffffffffffffffffffffffffffff83811660248301523360448301526000916126e59187169063fbcc01ae90606401612a61565b6040517f29a6132700000000000000000000000000000000000000000000000000000000815260009073ffffffffffffffffffffffffffffffffffffffff8516906329a6132790612c3f9086908690600401614505565b6020604051808303816000875af1158015612c5e573d6000803e3d6000fd5b505050506040513d601f19601f82011682018060405250810190612c829190613b6e565b90505b9392505050565b601183601a811115612ca057612ca0613a6d565b03612cd957600080808080612cb78688018861456d565b94509450945094509450612cce8585858585613183565b505050505050505050565b601283601a811115612ced57612ced613a6d565b0361027c57600080808080612d048688018861456d565b94509450945094509450612cce858585858561323f565b6000612d7d826040518060400160405280602081526020017f5361666545524332303a206c6f772d6c6576656c2063616c6c206661696c65648152508573ffffffffffffffffffffffffffffffffffffffff166132a69092919063ffffffff16565b80519091501561027c5780806020019051810190612d9b9190613a50565b61027c576040517f08c379a000000000000000000000000000000000000000000000000000000000815260206004820152602a60248201527f5361666545524332303a204552433230206f7065726174696f6e20646964206e60448201527f6f742073756363656564000000000000000000000000000000000000000000006064820152608401610343565b80821015610be6576040517fa1aabbe100000000000000000000000000000000000000000000000000000000815260040160405180910390fd5b60405173ffffffffffffffffffffffffffffffffffffffff831660248201526044810182905261027c9084907fa9059cbb0000000000000000000000000000000000000000000000000000000090606401611b3b565b6040517fdd62ed3e00000000000000000000000000000000000000000000000000000000815230600482015273ffffffffffffffffffffffffffffffffffffffff8381166024830152600091839186169063dd62ed3e90604401602060405180830381865afa158015612f2e573d6000803e3d6000fd5b505050506040513d601f19601f82011682018060405250810190612f529190613b6e565b612f5c91906142ee565b60405173ffffffffffffffffffffffffffffffffffffffff85166024820152604481018290529091506104e69085907f095ea7b30000000000000000000000000000000000000000000000000000000090606401611b3b565b805115612fc457805181602001fd5b6040517fee418e3700000000000000000000000000000000000000000000000000000000815260040160405180910390fd5b6040517fdd62ed3e00000000000000000000000000000000000000000000000000000000815230600482015273ffffffffffffffffffffffffffffffffffffffff83811660248301526000919085169063dd62ed3e90604401602060405180830381865afa15801561306c573d6000803e3d6000fd5b505050506040513d601f19601f820116820180604052508101906130909190613b6e565b905081811015613122576040517f08c379a000000000000000000000000000000000000000000000000000000000815260206004820152602960248201527f5361666545524332303a2064656372656173656420616c6c6f77616e6365206260448201527f656c6f77207a65726f00000000000000000000000000000000000000000000006064820152608401610343565b60405173ffffffffffffffffffffffffffffffffffffffff84166024820152828203604482018190529061317c9086907f095ea7b30000000000000000000000000000000000000000000000000000000090606401611b3b565b5050505050565b6040517f151dd75500000000000000000000000000000000000000000000000000000000815273ffffffffffffffffffffffffffffffffffffffff85811660048301526024820185905282811660448301526000919087169063151dd755906064015b6020604051808303816000875af1158015613205573d6000803e3d6000fd5b505050506040513d601f19601f820116820180604052508101906132299190613b6e565b93506132358484612e27565b5091949350505050565b6040517fd44ad63f00000000000000000000000000000000000000000000000000000000815273ffffffffffffffffffffffffffffffffffffffff85811660048301526024820185905282811660448301526000919087169063d44ad63f906064016131e6565b6060612c8284846000858573ffffffffffffffffffffffffffffffffffffffff85163b61332f576040517f08c379a000000000000000000000000000000000000000000000000000000000815260206004820152601d60248201527f416464726573733a2063616c6c20746f206e6f6e2d636f6e74726163740000006044820152606401610343565b6000808673ffffffffffffffffffffffffffffffffffffffff1685876040516133589190614270565b60006040518083038185875af1925050503d8060008114613395576040519150601f19603f3d011682016040523d82523d6000602084013e61339a565b606091505b509150915061203b828286606083156133b4575081612c85565b8251156133c45782518084602001fd5b816040517f08c379a000000000000000000000000000000000000000000000000000000000815260040161034391906145cc565b73ffffffffffffffffffffffffffffffffffffffff8116811461341a57600080fd5b50565b60008083601f84011261342f57600080fd5b50813567ffffffffffffffff81111561344757600080fd5b6020830191508360208260051b850101111561346257600080fd5b9250929050565b60008060006040848603121561347e57600080fd5b8335613489816133f8565b9250602084013567ffffffffffffffff8111156134a557600080fd5b6134b18682870161341d565b9497909650939450505050565b6000806000606084860312156134d357600080fd5b83356134de816133f8565b925060208401356134ee816133f8565b915060408401356134fe816133f8565b809150509250925092565b7f4e487b7100000000000000000000000000000000000000000000000000000000600052604160045260246000fd5b60405160e0810167ffffffffffffffff8111828210171561355b5761355b613509565b60405290565b604051601f82017fffffffffffffffffffffffffffffffffffffffffffffffffffffffffffffffe016810167ffffffffffffffff811182821017156135a8576135a8613509565b604052919050565b600067ffffffffffffffff8211156135ca576135ca613509565b5060051b60200190565b801515811461341a57600080fd5b803560ff811681146135f357600080fd5b919050565b600082601f83011261360957600080fd5b8135602061361e613619836135b0565b613561565b82815260e0928302850182019282820191908785111561363d57600080fd5b8387015b858110156136c55781818a0312156136595760008081fd5b613661613538565b813561366c816133f8565b81528186013561367b816133f8565b81870152604082810135908201526060808301359082015260806136a08184016135e2565b9082015260a0828101359082015260c080830135908201528452928401928101613641565b5090979650505050505050565b600080600080600080608087890312156136eb57600080fd5b863567ffffffffffffffff8082111561370357600080fd5b818901915089601f83011261371757600080fd5b81356020613727613619836135b0565b82815260e09092028401810191818101908d84111561374557600080fd5b948201945b838610156137dc5760e0868f0312156137635760008081fd5b61376b613538565b8635613776816133f8565b815286840135613785816133f8565b81850152604087810135613798816135d4565b90820152606087810135908201526137b2608088016135e2565b608082015260a0878101359082015260c08088013590820152825260e0909501949082019061374a565b9a50508a0135925050808211156137f257600080fd5b6137fe8a838b016135f8565b9650604089013591508082111561381457600080fd5b6138208a838b0161341d565b9096509450606089013591508082111561383957600080fd5b5061384689828a0161341d565b979a9699509497509295939492505050565b60006020828403121561386a57600080fd5b8135612c85816133f8565b6000806040838503121561388857600080fd5b8235613893816133f8565b91506138a1602084016135e2565b90509250929050565b6000806000806000606086880312156138c257600080fd5b853567ffffffffffffffff808211156138da57600080fd5b6138e689838a016135f8565b965060208801359150808211156138fc57600080fd5b61390889838a0161341d565b9096509450604088013591508082111561392157600080fd5b5061392e8882890161341d565b969995985093965092949392505050565b6000806000806000806060878903121561395857600080fd5b863567ffffffffffffffff8082111561397057600080fd5b61397c8a838b0161341d565b9098509650602089013591508082111561399557600080fd5b6139a18a838b0161341d565b9096509450604089013591508082111561383957600080fd5b7f4e487b7100000000000000000000000000000000000000000000000000000000600052603260045260246000fd5b7f4e487b7100000000000000000000000000000000000000000000000000000000600052601160045260246000fd5b60007fffffffffffffffffffffffffffffffffffffffffffffffffffffffffffffffff8203613a4957613a496139e9565b5060010190565b600060208284031215613a6257600080fd5b8151612c85816135d4565b7f4e487b7100000000000000000000000000000000000000000000000000000000600052602160045260246000fd5b600060208284031215613aae57600080fd5b8135601b8110612c8557600080fd5b60008083357fffffffffffffffffffffffffffffffffffffffffffffffffffffffffffffffe1843603018112613af257600080fd5b83018035915067ffffffffffffffff821115613b0d57600080fd5b60200191503681900382131561346257600080fd5b80356135f3816133f8565b600080600060608486031215613b4257600080fd5b8335613b4d816133f8565b92506020840135613b5d816133f8565b929592945050506040919091013590565b600060208284031215613b8057600080fd5b5051919050565b60008060408385031215613b9a57600080fd5b823591506020830135613bac816133f8565b809150509250929050565b600080600060608486031215613bcc57600080fd5b8335613bd7816133f8565b92506020840135915060408401356134fe816133f8565b600082601f830112613bff57600080fd5b813567ffffffffffffffff811115613c1957613c19613509565b613c4a60207fffffffffffffffffffffffffffffffffffffffffffffffffffffffffffffffe0601f84011601613561565b818152846020838601011115613c5f57600080fd5b816020850160208301376000918101602001919091529392505050565b60008060008060808587031215613c9257600080fd5b8435613c9d816133f8565b93506020850135925060408501359150606085013567ffffffffffffffff811115613cc757600080fd5b613cd387828801613bee565b91505092959194509250565b600080600060608486031215613cf457600080fd5b8335613cff816133f8565b925060208401359150604084013567ffffffffffffffff811115613d2257600080fd5b613d2e86828701613bee565b9150509250925092565b600082601f830112613d4957600080fd5b81356020613d59613619836135b0565b82815260059290921b84018101918181019086841115613d7857600080fd5b8286015b84811015613d9c578035613d8f816133f8565b8352918301918301613d7c565b509695505050505050565b60008060408385031215613dba57600080fd5b8235613dc5816133f8565b9150602083013567ffffffffffffffff811115613de157600080fd5b613ded85828601613d38565b9150509250929050565b60008060008060808587031215613e0d57600080fd5b8435613e18816133f8565b9350602085013592506040850135613e2f816133f8565b91506060850135613e3f816135d4565b939692955090935050565b600082601f830112613e5b57600080fd5b81356020613e6b613619836135b0565b82815260059290921b84018101918181019086841115613e8a57600080fd5b8286015b84811015613d9c57803560088110613ea65760008081fd5b8352918301918301613e8e565b600082601f830112613ec457600080fd5b81356020613ed4613619836135b0565b82815260059290921b84018101918181019086841115613ef357600080fd5b8286015b84811015613d9c57803567ffffffffffffffff811115613f175760008081fd5b613f258986838b0101613bee565b845250918301918301613ef7565b600080600080600080600060e0888a031215613f4e57600080fd5b8735613f59816133f8565b96506020880135613f69816133f8565b9550613f7760408901613b22565b9450613f8560608901613b22565b9350608088013567ffffffffffffffff80821115613fa257600080fd5b613fae8b838c01613e4a565b945060a08a0135915080821115613fc457600080fd5b613fd08b838c01613eb3565b935060c08a0135915080821115613fe657600080fd5b50613ff38a828b01613bee565b91505092959891949750929550565b600080600080600080600060e0888a03121561401d57600080fd5b8735614028816133f8565b96506020880135614038816133f8565b95506040880135614048816133f8565b94506060880135614058816133f8565b93506080880135925060a0880135915060c088013567ffffffffffffffff81111561408257600080fd5b613ff38a828b01613bee565b600080600080600060a086880312156140a657600080fd5b85356140b1816133f8565b945060208601356140c1816133f8565b93506040860135925060608601356140d8816133f8565b949793965091946080013592915050565b600080600080608085870312156140ff57600080fd5b843561410a816133f8565b9350602085013592506040850135614121816133f8565b9396929550929360600135925050565b60008060006060848603121561414657600080fd5b8335614151816133f8565b92506020840135614161816133f8565b9150604084013567ffffffffffffffff81111561417d57600080fd5b613d2e86828701613d38565b81810381811115611d7b57611d7b6139e9565b60005b838110156141b757818101518382015260200161419f565b50506000910152565b600081518084526141d881602086016020860161419c565b601f017fffffffffffffffffffffffffffffffffffffffffffffffffffffffffffffffe0169290920160200192915050565b602081526000825160a0602084015261422660c08401826141c0565b905073ffffffffffffffffffffffffffffffffffffffff60208501511660408401526040840151606084015260608401516080840152608084015160a08401528091505092915050565b6000825161428281846020870161419c565b9190910192915050565b6000806040838503121561429f57600080fd5b505080516020909101519092909150565b600080600080608085870312156142c657600080fd5b8451935060208501516142d8816133f8565b6040860151606090960151949790965092505050565b80820180821115611d7b57611d7b6139e9565b6000815180845260208085019450848260051b860182860160005b858110156136c55783830389526143348383516141c0565b9885019892509084019060010161431c565b60c0808252875190820181905260009060209060e0840190828b0184805b838110156143b5578251600881106143a3577f4e487b710000000000000000000000000000000000000000000000000000000083526021600452602483fd5b85529385019391850191600101614364565b50505050838103828501526143ca818a614301565b9150506143ef604084018873ffffffffffffffffffffffffffffffffffffffff169052565b73ffffffffffffffffffffffffffffffffffffffff8616606084015273ffffffffffffffffffffffffffffffffffffffff8516608084015282810360a084015261443981856141c0565b9998505050505050505050565b60006080828403121561445857600080fd5b6040516080810181811067ffffffffffffffff8211171561447b5761447b613509565b8060405250825181526020830151602082015260408301516040820152606083015160608201528091505092915050565b600073ffffffffffffffffffffffffffffffffffffffff8089168352808816602084015280871660408401525084606083015283608083015260c060a08301526144f960c08301846141c0565b98975050505050505050565b60006040820173ffffffffffffffffffffffffffffffffffffffff80861684526020604081860152828651808552606087019150828801945060005b8181101561455f578551851683529483019491830191600101614541565b509098975050505050505050565b600080600080600060a0868803121561458557600080fd5b8535614590816133f8565b945060208601356145a0816133f8565b9350604086013592506060860135915060808601356145be816133f8565b809150509295509295909350565b602081526000612c8560208301846141c056fea2646970667358221220fde90415825f40b8d46e792805ac305433faec819b03bcee98dbf9d95b38babc64736f6c63430008110033",
  "devdoc": {
    "author": "Angle Core Team",
    "kind": "dev",
    "methods": {
      "changeAllowance(address[],address[],uint256[])": {
        "params": {
          "amounts": "Amounts to allow",
          "spenders": "Addresses to allow transfer",
          "tokens": "Addresses of the tokens to allow"
        }
      },
      "claimRewards(address,address[])": {
        "details": "If the caller wants to send the rewards to another account it first needs to call `set_rewards_receiver(otherAccount)` on each `liquidityGauge`",
        "params": {
          "gaugeUser": "Address for which to fetch the rewards from the gauges",
          "liquidityGauges": "Gauges to claim on"
        }
      },
      "mixer((address,address,uint256,uint256,uint8,bytes32,bytes32)[],uint8[],bytes[])": {
        "details": "With this function, users can specify paths to swap tokens to the desired token of their choice. Yet the protocol does not verify the payload given and cannot check that the swap performed by users actually gives the desired out token: in this case funds may be made accessible to anyone on this contract if the concerned users do not perform a sweep action on these tokens",
        "params": {
          "actions": "List of actions to be performed by the router (in order of execution)",
          "data": "Array of encoded data for each of the actions performed in this mixer. This is where the bytes-encoded parameters for a given action are stored",
          "paramsPermit": "Array of params `PermitType` used to do a 1 tx to approve the router on each token (can be done once by setting high approved amounts) which supports the `permit` standard. Users willing to interact with the contract with tokens that do not support permit should approve the contract for these tokens prior to interacting with it"
        }
      },
      "mixerVaultManagerPermit((address,address,bool,uint256,uint8,bytes32,bytes32)[],(address,address,uint256,uint256,uint8,bytes32,bytes32)[],uint8[],bytes[])": {
        "details": "In `paramsPermitVaultManager`, the signatures for granting approvals must be given first before the signatures to revoke approvalsThe router contract has been built to be safe to keep approvals as you cannot take an action on a vault you are not approved for, but people wary about their approvals may want to grant it before immediately revoking it, although this is just an option",
        "params": {
          "paramsPermitVaultManager": "Parameters to sign permit to give allowance to the router for a `VaultManager` contract"
        }
      }
    },
    "title": "AngleRouterAvalanche",
    "version": 1
  },
  "userdoc": {
    "kind": "user",
    "methods": {
      "changeAllowance(address[],address[],uint256[])": {
        "notice": "Changes allowances for different tokens"
      },
      "claimRewards(address,address[])": {
        "notice": "Wrapper built on top of the `_claimRewards` function. It allows to claim rewards for multiple gauges at once"
      },
      "core()": {
        "notice": "Core address handling access control"
      },
      "initializeRouter(address,address,address)": {
        "notice": "Deploys the router contract on a chain"
      },
      "mixer((address,address,uint256,uint256,uint8,bytes32,bytes32)[],uint8[],bytes[])": {
        "notice": "Allows composable calls to different functions within the protocol"
      },
      "mixerVaultManagerPermit((address,address,bool,uint256,uint8,bytes32,bytes32)[],(address,address,uint256,uint256,uint8,bytes32,bytes32)[],uint8[],bytes[])": {
        "notice": "Wrapper built on top of the base `mixer` function to grant approval to a `VaultManager` contract before performing actions and then revoking this approval after these actions"
      },
      "oneInch()": {
        "notice": "Address of 1Inch router used for swaps"
      },
      "setCore(address)": {
        "notice": "Sets a new `core` contract"
      },
      "setRouter(address,uint8)": {
        "notice": "Sets a new router variable"
      },
      "uniswapV3Router()": {
        "notice": "Address of the router used for swaps"
      }
    },
    "notice": "Router contract built specifially for Angle use cases on Avalanche",
    "version": 1
  },
  "storageLayout": {
    "storage": [
      {
        "astId": 6,
        "contract": "contracts/implementations/avalanche/AngleRouterAvalanche.sol:AngleRouterAvalanche",
        "label": "_initialized",
        "offset": 0,
        "slot": "0",
        "type": "t_uint8"
      },
      {
        "astId": 9,
        "contract": "contracts/implementations/avalanche/AngleRouterAvalanche.sol:AngleRouterAvalanche",
        "label": "_initializing",
        "offset": 1,
        "slot": "0",
        "type": "t_bool"
      },
      {
        "astId": 6704,
        "contract": "contracts/implementations/avalanche/AngleRouterAvalanche.sol:AngleRouterAvalanche",
        "label": "core",
        "offset": 2,
        "slot": "0",
        "type": "t_contract(ICoreBorrow)9238"
      },
      {
        "astId": 6708,
        "contract": "contracts/implementations/avalanche/AngleRouterAvalanche.sol:AngleRouterAvalanche",
        "label": "uniswapV3Router",
        "offset": 0,
        "slot": "1",
        "type": "t_contract(IUniswapV3Router)9779"
      },
      {
        "astId": 6711,
        "contract": "contracts/implementations/avalanche/AngleRouterAvalanche.sol:AngleRouterAvalanche",
        "label": "oneInch",
        "offset": 0,
        "slot": "2",
        "type": "t_address"
      },
      {
        "astId": 6715,
        "contract": "contracts/implementations/avalanche/AngleRouterAvalanche.sol:AngleRouterAvalanche",
        "label": "__gap",
        "offset": 0,
        "slot": "3",
        "type": "t_array(t_uint256)47_storage"
      }
    ],
    "types": {
      "t_address": {
        "encoding": "inplace",
        "label": "address",
        "numberOfBytes": "20"
      },
      "t_array(t_uint256)47_storage": {
        "base": "t_uint256",
        "encoding": "inplace",
        "label": "uint256[47]",
        "numberOfBytes": "1504"
      },
      "t_bool": {
        "encoding": "inplace",
        "label": "bool",
        "numberOfBytes": "1"
      },
      "t_contract(ICoreBorrow)9238": {
        "encoding": "inplace",
        "label": "contract ICoreBorrow",
        "numberOfBytes": "20"
      },
      "t_contract(IUniswapV3Router)9779": {
        "encoding": "inplace",
        "label": "contract IUniswapV3Router",
        "numberOfBytes": "20"
      },
      "t_uint256": {
        "encoding": "inplace",
        "label": "uint256",
        "numberOfBytes": "32"
      },
      "t_uint8": {
        "encoding": "inplace",
        "label": "uint8",
        "numberOfBytes": "1"
      }
    }
  }
}