{
  "address": "0x05225a6416EDaeeC7227027E86F7A47D18A06b91",
  "abi": [
    {
      "inputs": [],
      "name": "IncompatibleLengths",
      "type": "error"
    },
    {
      "inputs": [],
      "name": "InvalidReturnMessage",
      "type": "error"
    },
    {
      "inputs": [],
      "name": "NotApprovedOrOwner",
      "type": "error"
    },
    {
      "inputs": [],
      "name": "NotGovernor",
      "type": "error"
    },
    {
      "inputs": [],
      "name": "NotGovernorOrGuardian",
      "type": "error"
    },
    {
      "inputs": [],
      "name": "TooSmallAmountOut",
      "type": "error"
    },
    {
      "inputs": [],
      "name": "TransferFailed",
      "type": "error"
    },
    {
      "inputs": [],
      "name": "ZeroAddress",
      "type": "error"
    },
    {
      "anonymous": false,
      "inputs": [
        {
          "indexed": false,
          "internalType": "uint8",
          "name": "version",
          "type": "uint8"
        }
      ],
      "name": "Initialized",
      "type": "event"
    },
    {
      "anonymous": false,
      "inputs": [
        {
          "indexed": false,
          "internalType": "address",
          "name": "caller",
          "type": "address"
        },
        {
          "indexed": true,
          "internalType": "address",
          "name": "owner",
          "type": "address"
        },
        {
          "indexed": false,
          "internalType": "uint256",
          "name": "assets",
          "type": "uint256"
        },
        {
          "indexed": false,
          "internalType": "uint256",
          "name": "shares",
          "type": "uint256"
        },
        {
          "indexed": true,
          "internalType": "address",
          "name": "savings",
          "type": "address"
        },
        {
          "indexed": true,
          "internalType": "address",
          "name": "referrer",
          "type": "address"
        }
      ],
      "name": "ReferredDeposit",
      "type": "event"
    },
    {
      "inputs": [
        {
          "internalType": "contract IERC20[]",
          "name": "tokens",
          "type": "address[]"
        },
        {
          "internalType": "address[]",
          "name": "spenders",
          "type": "address[]"
        },
        {
          "internalType": "uint256[]",
          "name": "amounts",
          "type": "uint256[]"
        }
      ],
      "name": "changeAllowance",
      "outputs": [],
      "stateMutability": "nonpayable",
      "type": "function"
    },
    {
      "inputs": [],
      "name": "core",
      "outputs": [
        {
          "internalType": "contract ICoreBorrow",
          "name": "",
          "type": "address"
        }
      ],
      "stateMutability": "view",
      "type": "function"
    },
    {
      "inputs": [
        {
          "internalType": "address",
          "name": "token",
          "type": "address"
        },
        {
          "internalType": "address",
          "name": "savings",
          "type": "address"
        },
        {
          "internalType": "uint256",
          "name": "amount",
          "type": "uint256"
        },
        {
          "internalType": "address",
          "name": "to",
          "type": "address"
        },
        {
          "internalType": "uint256",
          "name": "minSharesOut",
          "type": "uint256"
        },
        {
          "internalType": "address",
          "name": "referrer",
          "type": "address"
        }
      ],
      "name": "deposit4626Referral",
      "outputs": [
        {
          "internalType": "uint256",
          "name": "sharesOut",
          "type": "uint256"
        }
      ],
      "stateMutability": "nonpayable",
      "type": "function"
    },
    {
      "inputs": [
        {
          "internalType": "address",
          "name": "_core",
          "type": "address"
        },
        {
          "internalType": "address",
          "name": "_uniswapRouter",
          "type": "address"
        },
        {
          "internalType": "address",
          "name": "_oneInch",
          "type": "address"
        }
      ],
      "name": "initializeRouter",
      "outputs": [],
      "stateMutability": "nonpayable",
      "type": "function"
    },
    {
      "inputs": [
        {
          "components": [
            {
              "internalType": "address",
              "name": "token",
              "type": "address"
            },
            {
              "internalType": "address",
              "name": "owner",
              "type": "address"
            },
            {
              "internalType": "uint256",
              "name": "value",
              "type": "uint256"
            },
            {
              "internalType": "uint256",
              "name": "deadline",
              "type": "uint256"
            },
            {
              "internalType": "uint8",
              "name": "v",
              "type": "uint8"
            },
            {
              "internalType": "bytes32",
              "name": "r",
              "type": "bytes32"
            },
            {
              "internalType": "bytes32",
              "name": "s",
              "type": "bytes32"
            }
          ],
          "internalType": "struct PermitType[]",
          "name": "paramsPermit",
          "type": "tuple[]"
        },
        {
          "internalType": "enum ActionType[]",
          "name": "actions",
          "type": "uint8[]"
        },
        {
          "internalType": "bytes[]",
          "name": "data",
          "type": "bytes[]"
        }
      ],
      "name": "mixer",
      "outputs": [],
      "stateMutability": "payable",
      "type": "function"
    },
    {
      "inputs": [
        {
          "components": [
            {
              "internalType": "address",
              "name": "vaultManager",
              "type": "address"
            },
            {
              "internalType": "address",
              "name": "owner",
              "type": "address"
            },
            {
              "internalType": "bool",
              "name": "approved",
              "type": "bool"
            },
            {
              "internalType": "uint256",
              "name": "deadline",
              "type": "uint256"
            },
            {
              "internalType": "uint8",
              "name": "v",
              "type": "uint8"
            },
            {
              "internalType": "bytes32",
              "name": "r",
              "type": "bytes32"
            },
            {
              "internalType": "bytes32",
              "name": "s",
              "type": "bytes32"
            }
          ],
          "internalType": "struct PermitVaultManagerType[]",
          "name": "paramsPermitVaultManager",
          "type": "tuple[]"
        },
        {
          "components": [
            {
              "internalType": "address",
              "name": "token",
              "type": "address"
            },
            {
              "internalType": "address",
              "name": "owner",
              "type": "address"
            },
            {
              "internalType": "uint256",
              "name": "value",
              "type": "uint256"
            },
            {
              "internalType": "uint256",
              "name": "deadline",
              "type": "uint256"
            },
            {
              "internalType": "uint8",
              "name": "v",
              "type": "uint8"
            },
            {
              "internalType": "bytes32",
              "name": "r",
              "type": "bytes32"
            },
            {
              "internalType": "bytes32",
              "name": "s",
              "type": "bytes32"
            }
          ],
          "internalType": "struct PermitType[]",
          "name": "paramsPermit",
          "type": "tuple[]"
        },
        {
          "internalType": "enum ActionType[]",
          "name": "actions",
          "type": "uint8[]"
        },
        {
          "internalType": "bytes[]",
          "name": "data",
          "type": "bytes[]"
        }
      ],
      "name": "mixerVaultManagerPermit",
      "outputs": [],
      "stateMutability": "payable",
      "type": "function"
    },
    {
      "inputs": [],
      "name": "oneInch",
      "outputs": [
        {
          "internalType": "address",
          "name": "",
          "type": "address"
        }
      ],
      "stateMutability": "view",
      "type": "function"
    },
    {
      "inputs": [
        {
          "internalType": "contract ICoreBorrow",
          "name": "_core",
          "type": "address"
        }
      ],
      "name": "setCore",
      "outputs": [],
      "stateMutability": "nonpayable",
      "type": "function"
    },
    {
      "inputs": [
        {
          "internalType": "address",
          "name": "router",
          "type": "address"
        },
        {
          "internalType": "uint8",
          "name": "who",
          "type": "uint8"
        }
      ],
      "name": "setRouter",
      "outputs": [],
      "stateMutability": "nonpayable",
      "type": "function"
    },
    {
      "inputs": [],
      "name": "uniswapV3Router",
      "outputs": [
        {
          "internalType": "contract IUniswapV3Router",
          "name": "",
          "type": "address"
        }
      ],
      "stateMutability": "view",
      "type": "function"
    },
    {
      "stateMutability": "payable",
      "type": "receive"
    }
  ],
  "transactionHash": "0xf8eb544cdf98771398a9b0744fe46177e8449128bc8218fa94630b9e7ef84f4a",
  "args": [],
  "numDeployments": 1,
  "solcInputHash": "0d1b1c94fd2e1964436c8b9a0e25c545",
  "bytecode": "0x60806040523480156200001157600080fd5b50600054610100900460ff1615808015620000335750600054600160ff909116105b8062000063575062000050306200013d60201b620018d51760201c565b15801562000063575060005460ff166001145b620000cb5760405162461bcd60e51b815260206004820152602e60248201527f496e697469616c697a61626c653a20636f6e747261637420697320616c72656160448201526d191e481a5b9a5d1a585b1a5e995960921b606482015260840160405180910390fd5b6000805460ff191660011790558015620000ef576000805461ff0019166101001790555b801562000136576000805461ff0019169055604051600181527f7f26b83ff96e1f2b6a682f133852f6798a09c465da95921460cefb38474024989060200160405180910390a15b506200014c565b6001600160a01b03163b151590565b613f17806200015c6000396000f3fe6080604052600436106100b55760003560e01c80638000963011610069578063848c48da1161004e578063848c48da146101e8578063b82c4dc1146101fb578063f2f4eb261461021b57600080fd5b806380009630146101a857806383f1d681146101c857600080fd5b806340c7c4ed1161009a57806340c7c4ed1461014557806342860d4b1461017357806359856d561461019557600080fd5b8063045c08d5146100c15780632c76d7a61461011857600080fd5b366100bc57005b600080fd5b3480156100cd57600080fd5b506002546100ee9073ffffffffffffffffffffffffffffffffffffffff1681565b60405173ffffffffffffffffffffffffffffffffffffffff90911681526020015b60405180910390f35b34801561012457600080fd5b506001546100ee9073ffffffffffffffffffffffffffffffffffffffff1681565b34801561015157600080fd5b50610165610160366004612ef9565b61024e565b60405190815260200161010f565b34801561017f57600080fd5b5061019361018e366004612f69565b6102b5565b005b6101936101a33660046131c9565b610520565b3480156101b457600080fd5b506101936101c336600461334f565b6108bc565b3480156101d457600080fd5b506101936101e336600461336c565b610a6e565b6101936101f63660046133a1565b610c1e565b34801561020757600080fd5b50610193610216366004613436565b611737565b34801561022757600080fd5b506000546100ee9062010000900473ffffffffffffffffffffffffffffffffffffffff1681565b600061027273ffffffffffffffffffffffffffffffffffffffff88163330886118f1565b61029d87877fffffffffffffffffffffffffffffffffffffffffffffffffffffffffffffffff6119cd565b6102aa8686868686611b0b565b979650505050505050565b600054610100900460ff16158080156102d55750600054600160ff909116105b806102ef5750303b1580156102ef575060005460ff166001145b610380576040517f08c379a000000000000000000000000000000000000000000000000000000000815260206004820152602e60248201527f496e697469616c697a61626c653a20636f6e747261637420697320616c72656160448201527f647920696e697469616c697a656400000000000000000000000000000000000060648201526084015b60405180910390fd5b600080547fffffffffffffffffffffffffffffffffffffffffffffffffffffffffffffff0016600117905580156103de57600080547fffffffffffffffffffffffffffffffffffffffffffffffffffffffffffff00ff166101001790555b73ffffffffffffffffffffffffffffffffffffffff841661042b576040517fd92e233d00000000000000000000000000000000000000000000000000000000815260040160405180910390fd5b6000805473ffffffffffffffffffffffffffffffffffffffff80871662010000027fffffffffffffffffffff0000000000000000000000000000000000000000ffff90921691909117909155600180548583167fffffffffffffffffffffffff0000000000000000000000000000000000000000918216179091556002805492851692909116919091179055801561051a57600080547fffffffffffffffffffffffffffffffffffffffffffffffffffffffffffff00ff169055604051600181527f7f26b83ff96e1f2b6a682f133852f6798a09c465da95921460cefb38474024989060200160405180910390a15b50505050565b855160005b818110156106e85787818151811061053f5761053f6134b1565b602002602001015160400151156106d357878181518110610562576105626134b1565b60200260200101516000015173ffffffffffffffffffffffffffffffffffffffff1663f51cc7dd89838151811061059b5761059b6134b1565b6020026020010151602001513060018c86815181106105bc576105bc6134b1565b6020026020010151606001518d87815181106105da576105da6134b1565b6020026020010151608001518e88815181106105f8576105f86134b1565b602002602001015160a001518f8981518110610616576106166134b1565b602090810291909101015160c001516040517fffffffff0000000000000000000000000000000000000000000000000000000060e08a901b16815273ffffffffffffffffffffffffffffffffffffffff97881660048201529690951660248701529215156044860152606485019190915260ff16608484015260a483015260c482015260e401600060405180830381600087803b1580156106b657600080fd5b505af11580156106ca573d6000803e3d6000fd5b505050506106d8565b6106e8565b6106e18161350f565b9050610525565b506106f68686868686610c1e565b60005b818110156108b257878181518110610713576107136134b1565b6020026020010151604001516108a257878181518110610735576107356134b1565b60200260200101516000015173ffffffffffffffffffffffffffffffffffffffff1663f51cc7dd89838151811061076e5761076e6134b1565b6020026020010151602001513060008c868151811061078f5761078f6134b1565b6020026020010151606001518d87815181106107ad576107ad6134b1565b6020026020010151608001518e88815181106107cb576107cb6134b1565b602002602001015160a001518f89815181106107e9576107e96134b1565b602090810291909101015160c001516040517fffffffff0000000000000000000000000000000000000000000000000000000060e08a901b16815273ffffffffffffffffffffffffffffffffffffffff97881660048201529690951660248701529215156044860152606485019190915260ff16608484015260a483015260c482015260e401600060405180830381600087803b15801561088957600080fd5b505af115801561089d573d6000803e3d6000fd5b505050505b6108ab8161350f565b90506106f9565b5050505050505050565b6000546040517fe43581b80000000000000000000000000000000000000000000000000000000081523360048201526201000090910473ffffffffffffffffffffffffffffffffffffffff169063e43581b890602401602060405180830381865afa15801561092f573d6000803e3d6000fd5b505050506040513d601f19601f820116820180604052508101906109539190613547565b15806109ea57506040517fe43581b800000000000000000000000000000000000000000000000000000000815233600482015273ffffffffffffffffffffffffffffffffffffffff82169063e43581b890602401602060405180830381865afa1580156109c4573d6000803e3d6000fd5b505050506040513d601f19601f820116820180604052508101906109e89190613547565b155b15610a21576040517fee3675d400000000000000000000000000000000000000000000000000000000815260040160405180910390fd5b6000805473ffffffffffffffffffffffffffffffffffffffff90921662010000027fffffffffffffffffffff0000000000000000000000000000000000000000ffff909216919091179055565b6000546040517f521d4de90000000000000000000000000000000000000000000000000000000081523360048201526201000090910473ffffffffffffffffffffffffffffffffffffffff169063521d4de990602401602060405180830381865afa158015610ae1573d6000803e3d6000fd5b505050506040513d601f19601f82011682018060405250810190610b059190613547565b610b3b576040517f99e120bc00000000000000000000000000000000000000000000000000000000815260040160405180910390fd5b73ffffffffffffffffffffffffffffffffffffffff8216610b88576040517fd92e233d00000000000000000000000000000000000000000000000000000000815260040160405180910390fd5b8060ff16600003610bd9576001805473ffffffffffffffffffffffffffffffffffffffff84167fffffffffffffffffffffffff00000000000000000000000000000000000000009091161790555050565b600280547fffffffffffffffffffffffff00000000000000000000000000000000000000001673ffffffffffffffffffffffffffffffffffffffff84161790555b5050565b845160005b81811015610dd657868181518110610c3d57610c3d6134b1565b60200260200101516000015173ffffffffffffffffffffffffffffffffffffffff1663d505accf888381518110610c7657610c766134b1565b602002602001015160200151308a8581518110610c9557610c956134b1565b6020026020010151604001518b8681518110610cb357610cb36134b1565b6020026020010151606001518c8781518110610cd157610cd16134b1565b6020026020010151608001518d8881518110610cef57610cef6134b1565b602002602001015160a001518e8981518110610d0d57610d0d6134b1565b602090810291909101015160c001516040517fffffffff0000000000000000000000000000000000000000000000000000000060e08a901b16815273ffffffffffffffffffffffffffffffffffffffff97881660048201529690951660248701526044860193909352606485019190915260ff16608484015260a483015260c482015260e401600060405180830381600087803b158015610dad57600080fd5b505af1158015610dc1573d6000803e3d6000fd5b5050505080610dcf9061350f565b9050610c23565b508360005b818110156108b2576000878783818110610df757610df76134b1565b9050602002016020810190610e0c9190613593565b601b811115610e1d57610e1d613564565b03610f40576000806000878785818110610e3957610e396134b1565b9050602002810190610e4b91906135b4565b810190610e589190613624565b9250925092507fffffffffffffffffffffffffffffffffffffffffffffffffffffffffffffffff8103610f16576040517f70a0823100000000000000000000000000000000000000000000000000000000815233600482015273ffffffffffffffffffffffffffffffffffffffff8416906370a0823190602401602060405180830381865afa158015610eef573d6000803e3d6000fd5b505050506040513d601f19601f82011682018060405250810190610f139190613665565b90505b610f3873ffffffffffffffffffffffffffffffffffffffff84163384846118f1565b505050611727565b6001878783818110610f5457610f546134b1565b9050602002016020810190610f699190613593565b601b811115610f7a57610f7a613564565b03610f8d57610f87611b86565b50611727565b6002878783818110610fa157610fa16134b1565b9050602002016020810190610fb69190613593565b601b811115610fc757610fc7613564565b0361100e57600080868684818110610fe157610fe16134b1565b9050602002810190610ff391906135b4565b810190611000919061367e565b91509150610f388282611bef565b6003878783818110611022576110226134b1565b90506020020160208101906110379190613593565b601b81111561104857611048613564565b03611094576000806000878785818110611064576110646134b1565b905060200281019061107691906135b4565b81019061108391906136ae565b925092509250610f38838383611d0f565b60048787838181106110a8576110a86134b1565b90506020020160208101906110bd9190613593565b601b8111156110ce576110ce613564565b036110e457478015610f8757610f873382611dd3565b60068787838181106110f8576110f86134b1565b905060200201602081019061110d9190613593565b601b81111561111e5761111e613564565b0361117357600080600087878581811061113a5761113a6134b1565b905060200281019061114c91906135b4565b8101906111599190613773565b92509250925061116a838383611e18565b50505050611727565b6007878783818110611187576111876134b1565b905060200201602081019061119c9190613593565b601b8111156111ad576111ad613564565b036111fb576000808686848181106111c7576111c76134b1565b90506020028101906111d991906135b4565b8101906111e691906137cc565b915091506111f48282611f06565b5050611727565b600987878381811061120f5761120f6134b1565b90506020020160208101906112249190613593565b601b81111561123557611235613564565b036112d85760008060008060008060008b8b89818110611257576112576134b1565b905060200281019061126991906135b4565b810190611276919061396f565b96509650965096509650965096506112908383888a611fc3565b91506112bd87877fffffffffffffffffffffffffffffffffffffffffffffffffffffffffffffffff6119cd565b6112cb8684848888866124f0565b5050505050505050611727565b600a8787838181106112ec576112ec6134b1565b90506020020160208101906113019190613593565b601b81111561131257611312613564565b0361137c5760008060008060008060008b8b89818110611334576113346134b1565b905060200281019061134691906135b4565b8101906113539190613a3e565b9650965096509650965096509650611370878787878787876125ba565b50505050505050611727565b600b878783818110611390576113906134b1565b90506020020160208101906113a59190613593565b601b8111156113b6576113b6613564565b036114405760008060008060008989878181106113d5576113d56134b1565b90506020028101906113e791906135b4565b8101906113f49190613aca565b9450945094509450945061142985857fffffffffffffffffffffffffffffffffffffffffffffffffffffffffffffffff6119cd565b61143584848484612651565b505050505050611727565b600c878783818110611454576114546134b1565b90506020020160208101906114699190613593565b601b81111561147a5761147a613564565b036114f9576000806000806000898987818110611499576114996134b1565b90506020028101906114ab91906135b4565b8101906114b89190613aca565b945094509450945094506114ed85857fffffffffffffffffffffffffffffffffffffffffffffffffffffffffffffffff6119cd565b611435848484846126fd565b601b87878381811061150d5761150d6134b1565b90506020020160208101906115229190613593565b601b81111561153357611533613564565b036115b6576000806000806000808a8a88818110611553576115536134b1565b905060200281019061156591906135b4565b8101906115729190612ef9565b9550955095509550955095506115a986867fffffffffffffffffffffffffffffffffffffffffffffffffffffffffffffffff6119cd565b6113708585858585611b0b565b600d8787838181106115ca576115ca6134b1565b90506020020160208101906115df9190613593565b601b8111156115f0576115f0613564565b0361164a5760008060008088888681811061160d5761160d6134b1565b905060200281019061161f91906135b4565b81019061162c9190613b25565b9350935093509350611640848484846127a7565b5050505050611727565b600e87878381811061165e5761165e6134b1565b90506020020160208101906116739190613593565b601b81111561168457611684613564565b036116d4576000806000808888868181106116a1576116a16134b1565b90506020028101906116b391906135b4565b8101906116c09190613b25565b93509350935093506116408484848461280f565b6117278787838181106116e9576116e96134b1565b90506020020160208101906116fe9190613593565b868684818110611710576117106134b1565b905060200281019061172291906135b4565b505050565b6117308161350f565b9050610ddb565b6000546040517f521d4de90000000000000000000000000000000000000000000000000000000081523360048201526201000090910473ffffffffffffffffffffffffffffffffffffffff169063521d4de990602401602060405180830381865afa1580156117aa573d6000803e3d6000fd5b505050506040513d601f19601f820116820180604052508101906117ce9190613547565b611804576040517f99e120bc00000000000000000000000000000000000000000000000000000000815260040160405180910390fd5b8483811415806118145750808214155b1561184b576040517f46282e8d00000000000000000000000000000000000000000000000000000000815260040160405180910390fd5b60005b818110156108b2576118c588888381811061186b5761186b6134b1565b9050602002016020810190611880919061334f565b878784818110611892576118926134b1565b90506020020160208101906118a7919061334f565b8686858181106118b9576118b96134b1565b905060200201356119cd565b6118ce8161350f565b905061184e565b73ffffffffffffffffffffffffffffffffffffffff163b151590565b60405173ffffffffffffffffffffffffffffffffffffffff8085166024830152831660448201526064810182905261051a9085907f23b872dd00000000000000000000000000000000000000000000000000000000906084015b604080517fffffffffffffffffffffffffffffffffffffffffffffffffffffffffffffffe08184030181529190526020810180517bffffffffffffffffffffffffffffffffffffffffffffffffffffffff167fffffffff000000000000000000000000000000000000000000000000000000009093169290921790915261287a565b6040517fdd62ed3e00000000000000000000000000000000000000000000000000000000815230600482015273ffffffffffffffffffffffffffffffffffffffff83811660248301526000919085169063dd62ed3e90604401602060405180830381865afa158015611a43573d6000803e3d6000fd5b505050506040513d601f19601f82011682018060405250810190611a679190613665565b90508181108015611aa15750611a9e60027fffffffffffffffffffffffffffffffffffffffffffffffffffffffffffffffff613b6d565b81105b15611ad757611ad283611ab48385613ba8565b73ffffffffffffffffffffffffffffffffffffffff87169190612986565b61051a565b8181111561051a5761051a83611aed8484613ba8565b73ffffffffffffffffffffffffffffffffffffffff87169190612a84565b6000611b19868686866126fd565b604080513381526020810188905290810182905290915073ffffffffffffffffffffffffffffffffffffffff80841691888216918716907ff0abe475665c1088274490f21db8d3d3351d565d49d5222cc54656fba17f49119060600160405180910390a495945050505050565b60008073ffffffffffffffffffffffffffffffffffffffff1663d0e30db0346040518263ffffffff1660e01b81526004016000604051808303818588803b158015611bd057600080fd5b505af1158015611be4573d6000803e3d6000fd5b505050505034905090565b6000806040517f70a0823100000000000000000000000000000000000000000000000000000000815230600482015273ffffffffffffffffffffffffffffffffffffffff91909116906370a0823190602401602060405180830381865afa158015611c5e573d6000803e3d6000fd5b505050506040513d601f19601f82011682018060405250810190611c829190613665565b9050611c8e8184612c11565b8015611d09576040517f2e1a7d4d00000000000000000000000000000000000000000000000000000000815260048101829052600090632e1a7d4d90602401600060405180830381600087803b158015611ce757600080fd5b505af1158015611cfb573d6000803e3d6000fd5b50505050611d098282611dd3565b92915050565b6040517f70a0823100000000000000000000000000000000000000000000000000000000815230600482015260009073ffffffffffffffffffffffffffffffffffffffff8516906370a0823190602401602060405180830381865afa158015611d7c573d6000803e3d6000fd5b505050506040513d601f19601f82011682018060405250810190611da09190613665565b9050611dac8184612c11565b801561051a5761051a73ffffffffffffffffffffffffffffffffffffffff85168383612c4b565b600080600080600085875af1905080611722576040517f90b8ec1800000000000000000000000000000000000000000000000000000000815260040160405180910390fd5b60025460009073ffffffffffffffffffffffffffffffffffffffff16611e5f85827fffffffffffffffffffffffffffffffffffffffffffffffffffffffffffffffff6119cd565b6000808273ffffffffffffffffffffffffffffffffffffffff1685604051611e879190613bdf565b6000604051808303816000865af19150503d8060008114611ec4576040519150601f19603f3d011682016040523d82523d6000602084013e611ec9565b606091505b509150915081611edc57611edc81612ca1565b80806020019051810190611ef09190613665565b9350611efc8487612c11565b5050509392505050565b805160005b8181101561051a57828181518110611f2557611f256134b1565b60209081029190910101516040517f84e9bd7e00000000000000000000000000000000000000000000000000000000815273ffffffffffffffffffffffffffffffffffffffff8681166004830152909116906384e9bd7e90602401600060405180830381600087803b158015611f9a57600080fd5b505af1158015611fae573d6000803e3d6000fd5b5050505080611fbc9061350f565b9050611f0b565b835160609060008167ffffffffffffffff811115611fe357611fe3612fb4565b60405190808252806020026020018201604052801561200c578160200160208202803683370190505b5090506000806000805b858110156124de576000808c8381518110612033576120336134b1565b6020026020010151600781111561204c5761204c613564565b0361205b5760019450506124ce565b60028c838151811061206f5761206f6134b1565b6020026020010151600781111561208857612088613564565b0361219f5760008b83815181106120a1576120a16134b1565b60200260200101518060200190518101906120bc9190613bfb565b909250905060018101612198576040517f70a08231000000000000000000000000000000000000000000000000000000008152306004820152829073ffffffffffffffffffffffffffffffffffffffff8c16906370a0823190602401602060405180830381865afa158015612135573d6000803e3d6000fd5b505050506040513d601f19601f820116820180604052508101906121599190613665565b6040805160208101939093528201526060016040516020818303038152906040528c848151811061218c5761218c6134b1565b60200260200101819052505b50506124ce565b60038c83815181106121b3576121b36134b1565b602002602001015160078111156121cc576121cc613564565b1480612202575060058c83815181106121e7576121e76134b1565b6020026020010151600781111561220057612200613564565b145b1561223c578a8281518110612219576122196134b1565b60200260200101518060200190518101906122349190613bfb565b509050612313565b60018c8381518110612250576122506134b1565b6020026020010151600781111561226957612269613564565b036122a2578a8281518110612280576122806134b1565b602002602001015180602001905181019061229b9190613665565b9050612313565b60068c83815181106122b6576122b66134b1565b602002602001015160078111156122cf576122cf613564565b0361230d578a82815181106122e6576122e66134b1565b60200260200101518060200190518101906123019190613c1f565b50919250612313915050565b506124ce565b806000036123a457841561232757506124ce565b836000036123a1578973ffffffffffffffffffffffffffffffffffffffff16633c2e941b6040518163ffffffff1660e01b8152600401602060405180830381865afa15801561237a573d6000803e3d6000fd5b505050506040513d601f19601f8201168201806040525081019061239e9190613665565b93505b50825b60005b838110156123d557818782815181106123c2576123c26134b1565b5050506123ce8161350f565b90506123a7565b506040517f430c20810000000000000000000000000000000000000000000000000000000081523360048201526024810182905273ffffffffffffffffffffffffffffffffffffffff8b169063430c208190604401602060405180830381865afa158015612447573d6000803e3d6000fd5b505050506040513d601f19601f8201168201806040525081019061246b9190613547565b6124a1576040517fe433766c00000000000000000000000000000000000000000000000000000000815260040160405180910390fd5b808684815181106124b4576124b46134b1565b60209081029190910101526124ca600184613c5d565b9250505b6124d78161350f565b9050612016565b5088955050505050505b949350505050565b61251b6040518060800160405280600081526020016000815260200160008152602001600081525090565b6040517fde8fc69800000000000000000000000000000000000000000000000000000000815273ffffffffffffffffffffffffffffffffffffffff88169063de8fc69890612577908990899033908a908a908a90600401613d0f565b6080604051808303816000875af1158015612596573d6000803e3d6000fd5b505050506040513d601f19601f820116820180604052508101906102aa9190613e0f565b6040517fa5d4096b00000000000000000000000000000000000000000000000000000000815273ffffffffffffffffffffffffffffffffffffffff88169063a5d4096b9061261690899089908990899089908990600401613e75565b600060405180830381600087803b15801561263057600080fd5b505af1158015612644573d6000803e3d6000fd5b5050505050505050505050565b6040517f94bf804d0000000000000000000000000000000000000000000000000000000081526004810184905273ffffffffffffffffffffffffffffffffffffffff83811660248301526000916124e8918491908816906394bf804d906044015b6020604051808303816000875af11580156126d1573d6000803e3d6000fd5b505050506040513d601f19601f820116820180604052508101906126f59190613665565b925082612c11565b6040517f6e553f650000000000000000000000000000000000000000000000000000000081526004810184905273ffffffffffffffffffffffffffffffffffffffff83811660248301526000916124e891871690636e553f65906044015b6020604051808303816000875af115801561277a573d6000803e3d6000fd5b505050506040513d601f19601f8201168201806040525081019061279e9190613665565b91508183612c11565b6040517fba0876520000000000000000000000000000000000000000000000000000000081526004810184905273ffffffffffffffffffffffffffffffffffffffff83811660248301523360448301526000916124e89187169063ba0876529060640161275b565b6040517fb460af940000000000000000000000000000000000000000000000000000000081526004810184905273ffffffffffffffffffffffffffffffffffffffff83811660248301523360448301526000916124e89184919088169063b460af94906064016126b2565b60006128dc826040518060400160405280602081526020017f5361666545524332303a206c6f772d6c6576656c2063616c6c206661696c65648152508573ffffffffffffffffffffffffffffffffffffffff16612ce29092919063ffffffff16565b80519091501561172257808060200190518101906128fa9190613547565b611722576040517f08c379a000000000000000000000000000000000000000000000000000000000815260206004820152602a60248201527f5361666545524332303a204552433230206f7065726174696f6e20646964206e60448201527f6f742073756363656564000000000000000000000000000000000000000000006064820152608401610377565b6040517fdd62ed3e00000000000000000000000000000000000000000000000000000000815230600482015273ffffffffffffffffffffffffffffffffffffffff8381166024830152600091839186169063dd62ed3e90604401602060405180830381865afa1580156129fd573d6000803e3d6000fd5b505050506040513d601f19601f82011682018060405250810190612a219190613665565b612a2b9190613c5d565b60405173ffffffffffffffffffffffffffffffffffffffff851660248201526044810182905290915061051a9085907f095ea7b3000000000000000000000000000000000000000000000000000000009060640161194b565b6040517fdd62ed3e00000000000000000000000000000000000000000000000000000000815230600482015273ffffffffffffffffffffffffffffffffffffffff83811660248301526000919085169063dd62ed3e90604401602060405180830381865afa158015612afa573d6000803e3d6000fd5b505050506040513d601f19601f82011682018060405250810190612b1e9190613665565b905081811015612bb0576040517f08c379a000000000000000000000000000000000000000000000000000000000815260206004820152602960248201527f5361666545524332303a2064656372656173656420616c6c6f77616e6365206260448201527f656c6f77207a65726f00000000000000000000000000000000000000000000006064820152608401610377565b60405173ffffffffffffffffffffffffffffffffffffffff841660248201528282036044820181905290612c0a9086907f095ea7b3000000000000000000000000000000000000000000000000000000009060640161194b565b5050505050565b80821015610c1a576040517fa1aabbe100000000000000000000000000000000000000000000000000000000815260040160405180910390fd5b60405173ffffffffffffffffffffffffffffffffffffffff83166024820152604481018290526117229084907fa9059cbb000000000000000000000000000000000000000000000000000000009060640161194b565b805115612cb057805181602001fd5b6040517fee418e3700000000000000000000000000000000000000000000000000000000815260040160405180910390fd5b6060612cf18484600085612cfb565b90505b9392505050565b606082471015612d8d576040517f08c379a000000000000000000000000000000000000000000000000000000000815260206004820152602660248201527f416464726573733a20696e73756666696369656e742062616c616e636520666f60448201527f722063616c6c00000000000000000000000000000000000000000000000000006064820152608401610377565b73ffffffffffffffffffffffffffffffffffffffff85163b612e0b576040517f08c379a000000000000000000000000000000000000000000000000000000000815260206004820152601d60248201527f416464726573733a2063616c6c20746f206e6f6e2d636f6e74726163740000006044820152606401610377565b6000808673ffffffffffffffffffffffffffffffffffffffff168587604051612e349190613bdf565b60006040518083038185875af1925050503d8060008114612e71576040519150601f19603f3d011682016040523d82523d6000602084013e612e76565b606091505b50915091506102aa82828660608315612e90575081612cf4565b825115612ea05782518084602001fd5b816040517f08c379a00000000000000000000000000000000000000000000000000000000081526004016103779190613ece565b73ffffffffffffffffffffffffffffffffffffffff81168114612ef657600080fd5b50565b60008060008060008060c08789031215612f1257600080fd5b8635612f1d81612ed4565b95506020870135612f2d81612ed4565b9450604087013593506060870135612f4481612ed4565b92506080870135915060a0870135612f5b81612ed4565b809150509295509295509295565b600080600060608486031215612f7e57600080fd5b8335612f8981612ed4565b92506020840135612f9981612ed4565b91506040840135612fa981612ed4565b809150509250925092565b7f4e487b7100000000000000000000000000000000000000000000000000000000600052604160045260246000fd5b60405160e0810167ffffffffffffffff8111828210171561300657613006612fb4565b60405290565b604051601f82017fffffffffffffffffffffffffffffffffffffffffffffffffffffffffffffffe016810167ffffffffffffffff8111828210171561305357613053612fb4565b604052919050565b600067ffffffffffffffff82111561307557613075612fb4565b5060051b60200190565b8015158114612ef657600080fd5b803560ff8116811461309e57600080fd5b919050565b600082601f8301126130b457600080fd5b813560206130c96130c48361305b565b61300c565b82815260e092830285018201928282019190878511156130e857600080fd5b8387015b858110156131705781818a0312156131045760008081fd5b61310c612fe3565b813561311781612ed4565b81528186013561312681612ed4565b818701526040828101359082015260608083013590820152608061314b81840161308d565b9082015260a0828101359082015260c0808301359082015284529284019281016130ec565b5090979650505050505050565b60008083601f84011261318f57600080fd5b50813567ffffffffffffffff8111156131a757600080fd5b6020830191508360208260051b85010111156131c257600080fd5b9250929050565b600080600080600080608087890312156131e257600080fd5b863567ffffffffffffffff808211156131fa57600080fd5b818901915089601f83011261320e57600080fd5b8135602061321e6130c48361305b565b82815260e09092028401810191818101908d84111561323c57600080fd5b948201945b838610156132d35760e0868f03121561325a5760008081fd5b613262612fe3565b863561326d81612ed4565b81528684013561327c81612ed4565b8185015260408781013561328f8161307f565b90820152606087810135908201526132a96080880161308d565b608082015260a0878101359082015260c08088013590820152825260e09095019490820190613241565b9a50508a0135925050808211156132e957600080fd5b6132f58a838b016130a3565b9650604089013591508082111561330b57600080fd5b6133178a838b0161317d565b9096509450606089013591508082111561333057600080fd5b5061333d89828a0161317d565b979a9699509497509295939492505050565b60006020828403121561336157600080fd5b8135612cf481612ed4565b6000806040838503121561337f57600080fd5b823561338a81612ed4565b91506133986020840161308d565b90509250929050565b6000806000806000606086880312156133b957600080fd5b853567ffffffffffffffff808211156133d157600080fd5b6133dd89838a016130a3565b965060208801359150808211156133f357600080fd5b6133ff89838a0161317d565b9096509450604088013591508082111561341857600080fd5b506134258882890161317d565b969995985093965092949392505050565b6000806000806000806060878903121561344f57600080fd5b863567ffffffffffffffff8082111561346757600080fd5b6134738a838b0161317d565b9098509650602089013591508082111561348c57600080fd5b6134988a838b0161317d565b9096509450604089013591508082111561333057600080fd5b7f4e487b7100000000000000000000000000000000000000000000000000000000600052603260045260246000fd5b7f4e487b7100000000000000000000000000000000000000000000000000000000600052601160045260246000fd5b60007fffffffffffffffffffffffffffffffffffffffffffffffffffffffffffffffff8203613540576135406134e0565b5060010190565b60006020828403121561355957600080fd5b8151612cf48161307f565b7f4e487b7100000000000000000000000000000000000000000000000000000000600052602160045260246000fd5b6000602082840312156135a557600080fd5b8135601c8110612cf457600080fd5b60008083357fffffffffffffffffffffffffffffffffffffffffffffffffffffffffffffffe18436030181126135e957600080fd5b83018035915067ffffffffffffffff82111561360457600080fd5b6020019150368190038213156131c257600080fd5b803561309e81612ed4565b60008060006060848603121561363957600080fd5b833561364481612ed4565b9250602084013561365481612ed4565b929592945050506040919091013590565b60006020828403121561367757600080fd5b5051919050565b6000806040838503121561369157600080fd5b8235915060208301356136a381612ed4565b809150509250929050565b6000806000606084860312156136c357600080fd5b83356136ce81612ed4565b9250602084013591506040840135612fa981612ed4565b600082601f8301126136f657600080fd5b813567ffffffffffffffff81111561371057613710612fb4565b61374160207fffffffffffffffffffffffffffffffffffffffffffffffffffffffffffffffe0601f8401160161300c565b81815284602083860101111561375657600080fd5b816020850160208301376000918101602001919091529392505050565b60008060006060848603121561378857600080fd5b833561379381612ed4565b925060208401359150604084013567ffffffffffffffff8111156137b657600080fd5b6137c2868287016136e5565b9150509250925092565b600080604083850312156137df57600080fd5b82356137ea81612ed4565b915060208381013567ffffffffffffffff81111561380757600080fd5b8401601f8101861361381857600080fd5b80356138266130c48261305b565b81815260059190911b8201830190838101908883111561384557600080fd5b928401925b8284101561386c57833561385d81612ed4565b8252928401929084019061384a565b80955050505050509250929050565b600082601f83011261388c57600080fd5b8135602061389c6130c48361305b565b82815260059290921b840181019181810190868411156138bb57600080fd5b8286015b848110156138e4578035600881106138d75760008081fd5b83529183019183016138bf565b509695505050505050565b600082601f83011261390057600080fd5b813560206139106130c48361305b565b82815260059290921b8401810191818101908684111561392f57600080fd5b8286015b848110156138e457803567ffffffffffffffff8111156139535760008081fd5b6139618986838b01016136e5565b845250918301918301613933565b600080600080600080600060e0888a03121561398a57600080fd5b873561399581612ed4565b965060208801356139a581612ed4565b95506139b360408901613619565b94506139c160608901613619565b9350608088013567ffffffffffffffff808211156139de57600080fd5b6139ea8b838c0161387b565b945060a08a0135915080821115613a0057600080fd5b613a0c8b838c016138ef565b935060c08a0135915080821115613a2257600080fd5b50613a2f8a828b016136e5565b91505092959891949750929550565b600080600080600080600060e0888a031215613a5957600080fd5b8735613a6481612ed4565b96506020880135613a7481612ed4565b95506040880135613a8481612ed4565b94506060880135613a9481612ed4565b93506080880135925060a0880135915060c088013567ffffffffffffffff811115613abe57600080fd5b613a2f8a828b016136e5565b600080600080600060a08688031215613ae257600080fd5b8535613aed81612ed4565b94506020860135613afd81612ed4565b9350604086013592506060860135613b1481612ed4565b949793965091946080013592915050565b60008060008060808587031215613b3b57600080fd5b8435613b4681612ed4565b9350602085013592506040850135613b5d81612ed4565b9396929550929360600135925050565b600082613ba3577f4e487b7100000000000000000000000000000000000000000000000000000000600052601260045260246000fd5b500490565b81810381811115611d0957611d096134e0565b60005b83811015613bd6578181015183820152602001613bbe565b50506000910152565b60008251613bf1818460208701613bbb565b9190910192915050565b60008060408385031215613c0e57600080fd5b505080516020909101519092909150565b60008060008060808587031215613c3557600080fd5b845193506020850151613c4781612ed4565b6040860151606090960151949790965092505050565b80820180821115611d0957611d096134e0565b60008151808452613c88816020860160208601613bbb565b601f017fffffffffffffffffffffffffffffffffffffffffffffffffffffffffffffffe0169290920160200192915050565b600081518084526020808501808196508360051b8101915082860160005b85811015613d02578284038952613cf0848351613c70565b98850198935090840190600101613cd8565b5091979650505050505050565b60c0808252875190820181905260009060209060e0840190828b0184805b83811015613d7e57825160088110613d6c577f4e487b710000000000000000000000000000000000000000000000000000000083526021600452602483fd5b85529385019391850191600101613d2d565b5050505083810382850152613d93818a613cba565b915050613db8604084018873ffffffffffffffffffffffffffffffffffffffff169052565b73ffffffffffffffffffffffffffffffffffffffff8616606084015273ffffffffffffffffffffffffffffffffffffffff8516608084015282810360a0840152613e028185613c70565b9998505050505050505050565b600060808284031215613e2157600080fd5b6040516080810181811067ffffffffffffffff82111715613e4457613e44612fb4565b8060405250825181526020830151602082015260408301516040820152606083015160608201528091505092915050565b600073ffffffffffffffffffffffffffffffffffffffff8089168352808816602084015280871660408401525084606083015283608083015260c060a0830152613ec260c0830184613c70565b98975050505050505050565b602081526000612cf46020830184613c7056fea26469706673582212205658029a519003a8ee0f66e313233baa1bbca7b8eabd724e22422f76699d475364736f6c63430008110033",
  "devdoc": {
    "author": "Angle Core Team",
    "kind": "dev",
    "methods": {
      "changeAllowance(address[],address[],uint256[])": {
        "params": {
          "amounts": "Amounts to allow",
          "spenders": "Addresses to allow transfer",
          "tokens": "Addresses of the tokens to allow"
        }
      },
      "mixer((address,address,uint256,uint256,uint8,bytes32,bytes32)[],uint8[],bytes[])": {
        "details": "With this function, users can specify paths to swap tokens to the desired token of their choice. Yet the protocol does not verify the payload given and cannot check that the swap performed by users actually gives the desired out token: in this case funds may be made accessible to anyone on this contract if the concerned users do not perform a sweep action on these tokens",
        "params": {
          "actions": "List of actions to be performed by the router (in order of execution)",
          "data": "Array of encoded data for each of the actions performed in this mixer. This is where the bytes-encoded parameters for a given action are stored",
          "paramsPermit": "Array of params `PermitType` used to do a 1 tx to approve the router on each token (can be done once by setting high approved amounts) which supports the `permit` standard. Users willing to interact with the contract with tokens that do not support permit should approve the contract for these tokens prior to interacting with it"
        }
      },
      "mixerVaultManagerPermit((address,address,bool,uint256,uint8,bytes32,bytes32)[],(address,address,uint256,uint256,uint8,bytes32,bytes32)[],uint8[],bytes[])": {
        "details": "In `paramsPermitVaultManager`, the signatures for granting approvals must be given first before the signatures to revoke approvalsThe router contract has been built to be safe to keep approvals as you cannot take an action on a vault you are not approved for, but people wary about their approvals may want to grant it before immediately revoking it, although this is just an option",
        "params": {
          "paramsPermitVaultManager": "Parameters to sign permit to give allowance to the router for a `VaultManager` contract"
        }
      }
    },
    "title": "AngleRouterCelo",
    "version": 1
  },
  "userdoc": {
    "kind": "user",
    "methods": {
      "changeAllowance(address[],address[],uint256[])": {
        "notice": "Changes allowances for different tokens"
      },
      "core()": {
        "notice": "Core address handling access control"
      },
      "deposit4626Referral(address,address,uint256,address,uint256,address)": {
        "notice": "Wrapper built on top of the base `_deposit4626Referral` function to add a proxy enabling to track addresses depositing from a certain referring address into an ERC4626 contract"
      },
      "initializeRouter(address,address,address)": {
        "notice": "Deploys the router contract on a chain"
      },
      "mixer((address,address,uint256,uint256,uint8,bytes32,bytes32)[],uint8[],bytes[])": {
        "notice": "Allows composable calls to different functions within the protocol"
      },
      "mixerVaultManagerPermit((address,address,bool,uint256,uint8,bytes32,bytes32)[],(address,address,uint256,uint256,uint8,bytes32,bytes32)[],uint8[],bytes[])": {
        "notice": "Wrapper built on top of the base `mixer` function to grant approval to a `VaultManager` contract before performing actions and then revoking this approval after these actions"
      },
      "oneInch()": {
        "notice": "Address of 1Inch router used for swaps"
      },
      "setCore(address)": {
        "notice": "Sets a new `core` contract"
      },
      "setRouter(address,uint8)": {
        "notice": "Sets a new router variable"
      },
      "uniswapV3Router()": {
        "notice": "Address of the router used for swaps"
      }
    },
    "notice": "Router contract built specifially for Angle use cases on Celo",
    "version": 1
  },
  "storageLayout": {
    "storage": [
      {
        "astId": 6,
        "contract": "contracts/implementations/celo/AngleRouterCelo.sol:AngleRouterCelo",
        "label": "_initialized",
        "offset": 0,
        "slot": "0",
        "type": "t_uint8"
      },
      {
        "astId": 9,
        "contract": "contracts/implementations/celo/AngleRouterCelo.sol:AngleRouterCelo",
        "label": "_initializing",
        "offset": 1,
        "slot": "0",
        "type": "t_bool"
      },
      {
        "astId": 1478,
        "contract": "contracts/implementations/celo/AngleRouterCelo.sol:AngleRouterCelo",
        "label": "core",
        "offset": 2,
        "slot": "0",
        "type": "t_contract(ICoreBorrow)3793"
      },
      {
        "astId": 1482,
        "contract": "contracts/implementations/celo/AngleRouterCelo.sol:AngleRouterCelo",
        "label": "uniswapV3Router",
        "offset": 0,
        "slot": "1",
        "type": "t_contract(IUniswapV3Router)4262"
      },
      {
        "astId": 1485,
        "contract": "contracts/implementations/celo/AngleRouterCelo.sol:AngleRouterCelo",
        "label": "oneInch",
        "offset": 0,
        "slot": "2",
        "type": "t_address"
      },
      {
        "astId": 1489,
        "contract": "contracts/implementations/celo/AngleRouterCelo.sol:AngleRouterCelo",
        "label": "__gap",
        "offset": 0,
        "slot": "3",
        "type": "t_array(t_uint256)47_storage"
      }
    ],
    "types": {
      "t_address": {
        "encoding": "inplace",
        "label": "address",
        "numberOfBytes": "20"
      },
      "t_array(t_uint256)47_storage": {
        "base": "t_uint256",
        "encoding": "inplace",
        "label": "uint256[47]",
        "numberOfBytes": "1504"
      },
      "t_bool": {
        "encoding": "inplace",
        "label": "bool",
        "numberOfBytes": "1"
      },
      "t_contract(ICoreBorrow)3793": {
        "encoding": "inplace",
        "label": "contract ICoreBorrow",
        "numberOfBytes": "20"
      },
      "t_contract(IUniswapV3Router)4262": {
        "encoding": "inplace",
        "label": "contract IUniswapV3Router",
        "numberOfBytes": "20"
      },
      "t_uint256": {
        "encoding": "inplace",
        "label": "uint256",
        "numberOfBytes": "32"
      },
      "t_uint8": {
        "encoding": "inplace",
        "label": "uint8",
        "numberOfBytes": "1"
      }
    }
  }
}