{
  "address": "0xdb2Fd6a9f5138246C6dfa1b8A1D5f366cc638B46",
  "abi": [
    {
      "inputs": [],
      "name": "IncompatibleLengths",
      "type": "error"
    },
    {
      "inputs": [],
      "name": "InvalidReturnMessage",
      "type": "error"
    },
    {
      "inputs": [],
      "name": "NotApprovedOrOwner",
      "type": "error"
    },
    {
      "inputs": [],
      "name": "NotGovernor",
      "type": "error"
    },
    {
      "inputs": [],
      "name": "NotGovernorOrGuardian",
      "type": "error"
    },
    {
      "inputs": [],
      "name": "TooSmallAmountOut",
      "type": "error"
    },
    {
      "inputs": [],
      "name": "TransferFailed",
      "type": "error"
    },
    {
      "inputs": [],
      "name": "ZeroAddress",
      "type": "error"
    },
    {
      "anonymous": false,
      "inputs": [
        {
          "indexed": false,
          "internalType": "uint8",
          "name": "version",
          "type": "uint8"
        }
      ],
      "name": "Initialized",
      "type": "event"
    },
    {
      "inputs": [
        {
          "internalType": "contract IERC20[]",
          "name": "tokens",
          "type": "address[]"
        },
        {
          "internalType": "address[]",
          "name": "spenders",
          "type": "address[]"
        },
        {
          "internalType": "uint256[]",
          "name": "amounts",
          "type": "uint256[]"
        }
      ],
      "name": "changeAllowance",
      "outputs": [],
      "stateMutability": "nonpayable",
      "type": "function"
    },
    {
      "inputs": [
        {
          "internalType": "address",
          "name": "gaugeUser",
          "type": "address"
        },
        {
          "internalType": "address[]",
          "name": "liquidityGauges",
          "type": "address[]"
        }
      ],
      "name": "claimRewards",
      "outputs": [],
      "stateMutability": "nonpayable",
      "type": "function"
    },
    {
      "inputs": [],
      "name": "core",
      "outputs": [
        {
          "internalType": "contract ICoreBorrow",
          "name": "",
          "type": "address"
        }
      ],
      "stateMutability": "view",
      "type": "function"
    },
    {
      "inputs": [
        {
          "internalType": "address",
          "name": "_core",
          "type": "address"
        },
        {
          "internalType": "address",
          "name": "_uniswapRouter",
          "type": "address"
        },
        {
          "internalType": "address",
          "name": "_oneInch",
          "type": "address"
        }
      ],
      "name": "initializeRouter",
      "outputs": [],
      "stateMutability": "nonpayable",
      "type": "function"
    },
    {
      "inputs": [
        {
          "components": [
            {
              "internalType": "address",
              "name": "token",
              "type": "address"
            },
            {
              "internalType": "address",
              "name": "owner",
              "type": "address"
            },
            {
              "internalType": "uint256",
              "name": "value",
              "type": "uint256"
            },
            {
              "internalType": "uint256",
              "name": "deadline",
              "type": "uint256"
            },
            {
              "internalType": "uint8",
              "name": "v",
              "type": "uint8"
            },
            {
              "internalType": "bytes32",
              "name": "r",
              "type": "bytes32"
            },
            {
              "internalType": "bytes32",
              "name": "s",
              "type": "bytes32"
            }
          ],
          "internalType": "struct PermitType[]",
          "name": "paramsPermit",
          "type": "tuple[]"
        },
        {
          "internalType": "enum ActionType[]",
          "name": "actions",
          "type": "uint8[]"
        },
        {
          "internalType": "bytes[]",
          "name": "data",
          "type": "bytes[]"
        }
      ],
      "name": "mixer",
      "outputs": [],
      "stateMutability": "payable",
      "type": "function"
    },
    {
      "inputs": [
        {
          "components": [
            {
              "internalType": "address",
              "name": "vaultManager",
              "type": "address"
            },
            {
              "internalType": "address",
              "name": "owner",
              "type": "address"
            },
            {
              "internalType": "bool",
              "name": "approved",
              "type": "bool"
            },
            {
              "internalType": "uint256",
              "name": "deadline",
              "type": "uint256"
            },
            {
              "internalType": "uint8",
              "name": "v",
              "type": "uint8"
            },
            {
              "internalType": "bytes32",
              "name": "r",
              "type": "bytes32"
            },
            {
              "internalType": "bytes32",
              "name": "s",
              "type": "bytes32"
            }
          ],
          "internalType": "struct PermitVaultManagerType[]",
          "name": "paramsPermitVaultManager",
          "type": "tuple[]"
        },
        {
          "components": [
            {
              "internalType": "address",
              "name": "token",
              "type": "address"
            },
            {
              "internalType": "address",
              "name": "owner",
              "type": "address"
            },
            {
              "internalType": "uint256",
              "name": "value",
              "type": "uint256"
            },
            {
              "internalType": "uint256",
              "name": "deadline",
              "type": "uint256"
            },
            {
              "internalType": "uint8",
              "name": "v",
              "type": "uint8"
            },
            {
              "internalType": "bytes32",
              "name": "r",
              "type": "bytes32"
            },
            {
              "internalType": "bytes32",
              "name": "s",
              "type": "bytes32"
            }
          ],
          "internalType": "struct PermitType[]",
          "name": "paramsPermit",
          "type": "tuple[]"
        },
        {
          "internalType": "enum ActionType[]",
          "name": "actions",
          "type": "uint8[]"
        },
        {
          "internalType": "bytes[]",
          "name": "data",
          "type": "bytes[]"
        }
      ],
      "name": "mixerVaultManagerPermit",
      "outputs": [],
      "stateMutability": "payable",
      "type": "function"
    },
    {
      "inputs": [],
      "name": "oneInch",
      "outputs": [
        {
          "internalType": "address",
          "name": "",
          "type": "address"
        }
      ],
      "stateMutability": "view",
      "type": "function"
    },
    {
      "inputs": [
        {
          "internalType": "contract ICoreBorrow",
          "name": "_core",
          "type": "address"
        }
      ],
      "name": "setCore",
      "outputs": [],
      "stateMutability": "nonpayable",
      "type": "function"
    },
    {
      "inputs": [
        {
          "internalType": "address",
          "name": "router",
          "type": "address"
        },
        {
          "internalType": "uint8",
          "name": "who",
          "type": "uint8"
        }
      ],
      "name": "setRouter",
      "outputs": [],
      "stateMutability": "nonpayable",
      "type": "function"
    },
    {
      "inputs": [],
      "name": "uniswapV3Router",
      "outputs": [
        {
          "internalType": "contract IUniswapV3Router",
          "name": "",
          "type": "address"
        }
      ],
      "stateMutability": "view",
      "type": "function"
    },
    {
      "stateMutability": "payable",
      "type": "receive"
    }
  ],
  "transactionHash": "0x75e4a74bfe698e9a25bf9b43d448cd4ab65e0fe79638fd8c21dfbff3d04b76ec",
  "args": [],
  "numDeployments": 1,
  "solcInputHash": "d2039b63af7039fcdbc036f20229f89c",
  "bytecode": "0x60806040523480156200001157600080fd5b50600054610100900460ff1615808015620000335750600054600160ff909116105b8062000063575062000050306200013d60201b620018f81760201c565b15801562000063575060005460ff166001145b620000cb5760405162461bcd60e51b815260206004820152602e60248201527f496e697469616c697a61626c653a20636f6e747261637420697320616c72656160448201526d191e481a5b9a5d1a585b1a5e995960921b606482015260840160405180910390fd5b6000805460ff191660011790558015620000ef576000805461ff0019166101001790555b801562000136576000805461ff0019169055604051600181527f7f26b83ff96e1f2b6a682f133852f6798a09c465da95921460cefb38474024989060200160405180910390a15b506200014c565b6001600160a01b03163b151590565b614372806200015c6000396000f3fe6080604052600436106100b55760003560e01c80638000963011610069578063848c48da1161004e578063848c48da146101d9578063b82c4dc1146101ec578063f2f4eb261461020c57600080fd5b8063800096301461019957806383f1d681146101b957600080fd5b80632c76d7a61161009a5780632c76d7a61461013957806342860d4b1461016657806359856d561461018657600080fd5b8063045c08d5146100c15780632026ffa31461011757600080fd5b366100bc57005b600080fd5b3480156100cd57600080fd5b506002546100ee9073ffffffffffffffffffffffffffffffffffffffff1681565b60405173ffffffffffffffffffffffffffffffffffffffff909116815260200160405180910390f35b34801561012357600080fd5b50610137610132366004613240565b61023f565b005b34801561014557600080fd5b506001546100ee9073ffffffffffffffffffffffffffffffffffffffff1681565b34801561017257600080fd5b50610137610181366004613295565b610281565b6101376101943660046134a9565b6104ec565b3480156101a557600080fd5b506101376101b436600461362f565b610888565b3480156101c557600080fd5b506101376101d436600461364c565b610a3a565b6101376101e7366004613681565b610bea565b3480156101f857600080fd5b50610137610207366004613716565b61175a565b34801561021857600080fd5b506000546100ee9062010000900473ffffffffffffffffffffffffffffffffffffffff1681565b61027c8383838080602002602001604051908101604052809392919081815260200183836020028082843760009201919091525061191492505050565b505050565b600054610100900460ff16158080156102a15750600054600160ff909116105b806102bb5750303b1580156102bb575060005460ff166001145b61034c576040517f08c379a000000000000000000000000000000000000000000000000000000000815260206004820152602e60248201527f496e697469616c697a61626c653a20636f6e747261637420697320616c72656160448201527f647920696e697469616c697a656400000000000000000000000000000000000060648201526084015b60405180910390fd5b600080547fffffffffffffffffffffffffffffffffffffffffffffffffffffffffffffff0016600117905580156103aa57600080547fffffffffffffffffffffffffffffffffffffffffffffffffffffffffffff00ff166101001790555b73ffffffffffffffffffffffffffffffffffffffff84166103f7576040517fd92e233d00000000000000000000000000000000000000000000000000000000815260040160405180910390fd5b6000805473ffffffffffffffffffffffffffffffffffffffff80871662010000027fffffffffffffffffffff0000000000000000000000000000000000000000ffff90921691909117909155600180548583167fffffffffffffffffffffffff000000000000000000000000000000000000000091821617909155600280549285169290911691909117905580156104e657600080547fffffffffffffffffffffffffffffffffffffffffffffffffffffffffffff00ff169055604051600181527f7f26b83ff96e1f2b6a682f133852f6798a09c465da95921460cefb38474024989060200160405180910390a15b50505050565b855160005b818110156106b45787818151811061050b5761050b613791565b6020026020010151604001511561069f5787818151811061052e5761052e613791565b60200260200101516000015173ffffffffffffffffffffffffffffffffffffffff1663f51cc7dd89838151811061056757610567613791565b6020026020010151602001513060018c868151811061058857610588613791565b6020026020010151606001518d87815181106105a6576105a6613791565b6020026020010151608001518e88815181106105c4576105c4613791565b602002602001015160a001518f89815181106105e2576105e2613791565b602090810291909101015160c001516040517fffffffff0000000000000000000000000000000000000000000000000000000060e08a901b16815273ffffffffffffffffffffffffffffffffffffffff97881660048201529690951660248701529215156044860152606485019190915260ff16608484015260a483015260c482015260e401600060405180830381600087803b15801561068257600080fd5b505af1158015610696573d6000803e3d6000fd5b505050506106a4565b6106b4565b6106ad816137ef565b90506104f1565b506106c28686868686610bea565b60005b8181101561087e578781815181106106df576106df613791565b60200260200101516040015161086e5787818151811061070157610701613791565b60200260200101516000015173ffffffffffffffffffffffffffffffffffffffff1663f51cc7dd89838151811061073a5761073a613791565b6020026020010151602001513060008c868151811061075b5761075b613791565b6020026020010151606001518d878151811061077957610779613791565b6020026020010151608001518e888151811061079757610797613791565b602002602001015160a001518f89815181106107b5576107b5613791565b602090810291909101015160c001516040517fffffffff0000000000000000000000000000000000000000000000000000000060e08a901b16815273ffffffffffffffffffffffffffffffffffffffff97881660048201529690951660248701529215156044860152606485019190915260ff16608484015260a483015260c482015260e401600060405180830381600087803b15801561085557600080fd5b505af1158015610869573d6000803e3d6000fd5b505050505b610877816137ef565b90506106c5565b5050505050505050565b6000546040517fe43581b80000000000000000000000000000000000000000000000000000000081523360048201526201000090910473ffffffffffffffffffffffffffffffffffffffff169063e43581b890602401602060405180830381865afa1580156108fb573d6000803e3d6000fd5b505050506040513d601f19601f8201168201806040525081019061091f9190613827565b15806109b657506040517fe43581b800000000000000000000000000000000000000000000000000000000815233600482015273ffffffffffffffffffffffffffffffffffffffff82169063e43581b890602401602060405180830381865afa158015610990573d6000803e3d6000fd5b505050506040513d601f19601f820116820180604052508101906109b49190613827565b155b156109ed576040517fee3675d400000000000000000000000000000000000000000000000000000000815260040160405180910390fd5b6000805473ffffffffffffffffffffffffffffffffffffffff90921662010000027fffffffffffffffffffff0000000000000000000000000000000000000000ffff909216919091179055565b6000546040517f521d4de90000000000000000000000000000000000000000000000000000000081523360048201526201000090910473ffffffffffffffffffffffffffffffffffffffff169063521d4de990602401602060405180830381865afa158015610aad573d6000803e3d6000fd5b505050506040513d601f19601f82011682018060405250810190610ad19190613827565b610b07576040517f99e120bc00000000000000000000000000000000000000000000000000000000815260040160405180910390fd5b73ffffffffffffffffffffffffffffffffffffffff8216610b54576040517fd92e233d00000000000000000000000000000000000000000000000000000000815260040160405180910390fd5b8060ff16600003610ba5576001805473ffffffffffffffffffffffffffffffffffffffff84167fffffffffffffffffffffffff00000000000000000000000000000000000000009091161790555050565b600280547fffffffffffffffffffffffff00000000000000000000000000000000000000001673ffffffffffffffffffffffffffffffffffffffff84161790555b5050565b845160005b81811015610da257868181518110610c0957610c09613791565b60200260200101516000015173ffffffffffffffffffffffffffffffffffffffff1663d505accf888381518110610c4257610c42613791565b602002602001015160200151308a8581518110610c6157610c61613791565b6020026020010151604001518b8681518110610c7f57610c7f613791565b6020026020010151606001518c8781518110610c9d57610c9d613791565b6020026020010151608001518d8881518110610cbb57610cbb613791565b602002602001015160a001518e8981518110610cd957610cd9613791565b602090810291909101015160c001516040517fffffffff0000000000000000000000000000000000000000000000000000000060e08a901b16815273ffffffffffffffffffffffffffffffffffffffff97881660048201529690951660248701526044860193909352606485019190915260ff16608484015260a483015260c482015260e401600060405180830381600087803b158015610d7957600080fd5b505af1158015610d8d573d6000803e3d6000fd5b5050505080610d9b906137ef565b9050610bef565b508360005b8181101561087e576000878783818110610dc357610dc3613791565b9050602002016020810190610dd89190613873565b601a811115610de957610de9613844565b03610f0c576000806000878785818110610e0557610e05613791565b9050602002810190610e179190613894565b810190610e249190613904565b9250925092507fffffffffffffffffffffffffffffffffffffffffffffffffffffffffffffffff8103610ee2576040517f70a0823100000000000000000000000000000000000000000000000000000000815233600482015273ffffffffffffffffffffffffffffffffffffffff8416906370a0823190602401602060405180830381865afa158015610ebb573d6000803e3d6000fd5b505050506040513d601f19601f82011682018060405250810190610edf9190613945565b90505b610f0473ffffffffffffffffffffffffffffffffffffffff84163384846119d1565b50505061174a565b6001878783818110610f2057610f20613791565b9050602002016020810190610f359190613873565b601a811115610f4657610f46613844565b03610f5957610f53611aad565b5061174a565b6002878783818110610f6d57610f6d613791565b9050602002016020810190610f829190613873565b601a811115610f9357610f93613844565b03610fda57600080868684818110610fad57610fad613791565b9050602002810190610fbf9190613894565b810190610fcc919061395e565b91509150610f048282611b16565b6003878783818110610fee57610fee613791565b90506020020160208101906110039190613873565b601a81111561101457611014613844565b0361106057600080600087878581811061103057611030613791565b90506020028101906110429190613894565b81019061104f919061398e565b925092509250610f04838383611c36565b600487878381811061107457611074613791565b90506020020160208101906110899190613873565b601a81111561109a5761109a613844565b036110b057478015610f5357610f533382611cfa565b60058787838181106110c4576110c4613791565b90506020020160208101906110d99190613873565b601a8111156110ea576110ea613844565b036111445760008060008088888681811061110757611107613791565b90506020028101906111199190613894565b8101906111269190613a53565b935093509350935061113a84848484611d3f565b505050505061174a565b600687878381811061115857611158613791565b905060200201602081019061116d9190613873565b601a81111561117e5761117e613844565b036111d357600080600087878581811061119a5761119a613791565b90506020028101906111ac9190613894565b8101906111b99190613ab6565b9250925092506111ca838383611e49565b5050505061174a565b60078787838181106111e7576111e7613791565b90506020020160208101906111fc9190613873565b601a81111561120d5761120d613844565b0361125b5760008086868481811061122757611227613791565b90506020028101906112399190613894565b8101906112469190613b0f565b915091506112548282611914565b505061174a565b600887878381811061126f5761126f613791565b90506020020160208101906112849190613873565b601a81111561129557611295613844565b036112e5576000806000808888868181106112b2576112b2613791565b90506020028101906112c49190613894565b8101906112d19190613bbe565b93509350935093506111ca84848484611f37565b60098787838181106112f9576112f9613791565b905060200201602081019061130e9190613873565b601a81111561131f5761131f613844565b036113c25760008060008060008060008b8b8981811061134157611341613791565b90506020028101906113539190613894565b8101906113609190613d05565b965096509650965096509650965061137a8383888a611fc3565b91506113a787877fffffffffffffffffffffffffffffffffffffffffffffffffffffffffffffffff6124f0565b6113b586848488888661262e565b505050505050505061174a565b600a8787838181106113d6576113d6613791565b90506020020160208101906113eb9190613873565b601a8111156113fc576113fc613844565b036114665760008060008060008060008b8b8981811061141e5761141e613791565b90506020028101906114309190613894565b81019061143d9190613dd4565b965096509650965096509650965061145a87878787878787612703565b5050505050505061174a565b600b87878381811061147a5761147a613791565b905060200201602081019061148f9190613873565b601a8111156114a0576114a0613844565b0361152a5760008060008060008989878181106114bf576114bf613791565b90506020028101906114d19190613894565b8101906114de9190613e60565b9450945094509450945061151385857fffffffffffffffffffffffffffffffffffffffffffffffffffffffffffffffff6124f0565b61151f8484848461279a565b50505050505061174a565b600c87878381811061153e5761153e613791565b90506020020160208101906115539190613873565b601a81111561156457611564613844565b036115e357600080600080600089898781811061158357611583613791565b90506020028101906115959190613894565b8101906115a29190613e60565b945094509450945094506115d785857fffffffffffffffffffffffffffffffffffffffffffffffffffffffffffffffff6124f0565b61151f84848484612846565b600d8787838181106115f7576115f7613791565b905060200201602081019061160c9190613873565b601a81111561161d5761161d613844565b0361166d5760008060008088888681811061163a5761163a613791565b905060200281019061164c9190613894565b8101906116599190613ebb565b935093509350935061113a848484846128f0565b600e87878381811061168157611681613791565b90506020020160208101906116969190613873565b601a8111156116a7576116a7613844565b036116f7576000806000808888868181106116c4576116c4613791565b90506020028101906116d69190613894565b8101906116e39190613ebb565b935093509350935061113a84848484612958565b61174a87878381811061170c5761170c613791565b90506020020160208101906117219190613873565b86868481811061173357611733613791565b90506020028101906117459190613894565b6129c3565b611753816137ef565b9050610da7565b6000546040517f521d4de90000000000000000000000000000000000000000000000000000000081523360048201526201000090910473ffffffffffffffffffffffffffffffffffffffff169063521d4de990602401602060405180830381865afa1580156117cd573d6000803e3d6000fd5b505050506040513d601f19601f820116820180604052508101906117f19190613827565b611827576040517f99e120bc00000000000000000000000000000000000000000000000000000000815260040160405180910390fd5b8483811415806118375750808214155b1561186e576040517f46282e8d00000000000000000000000000000000000000000000000000000000815260040160405180910390fd5b60005b8181101561087e576118e888888381811061188e5761188e613791565b90506020020160208101906118a3919061362f565b8787848181106118b5576118b5613791565b90506020020160208101906118ca919061362f565b8686858181106118dc576118dc613791565b905060200201356124f0565b6118f1816137ef565b9050611871565b73ffffffffffffffffffffffffffffffffffffffff163b151590565b805160005b818110156104e65782818151811061193357611933613791565b60209081029190910101516040517f84e9bd7e00000000000000000000000000000000000000000000000000000000815273ffffffffffffffffffffffffffffffffffffffff8681166004830152909116906384e9bd7e90602401600060405180830381600087803b1580156119a857600080fd5b505af11580156119bc573d6000803e3d6000fd5b50505050806119ca906137ef565b9050611919565b60405173ffffffffffffffffffffffffffffffffffffffff808516602483015283166044820152606481018290526104e69085907f23b872dd00000000000000000000000000000000000000000000000000000000906084015b604080517fffffffffffffffffffffffffffffffffffffffffffffffffffffffffffffffe08184030181529190526020810180517bffffffffffffffffffffffffffffffffffffffffffffffffffffffff167fffffffff0000000000000000000000000000000000000000000000000000000090931692909217909152612a52565b60008073ffffffffffffffffffffffffffffffffffffffff1663d0e30db0346040518263ffffffff1660e01b81526004016000604051808303818588803b158015611af757600080fd5b505af1158015611b0b573d6000803e3d6000fd5b505050505034905090565b6000806040517f70a0823100000000000000000000000000000000000000000000000000000000815230600482015273ffffffffffffffffffffffffffffffffffffffff91909116906370a0823190602401602060405180830381865afa158015611b85573d6000803e3d6000fd5b505050506040513d601f19601f82011682018060405250810190611ba99190613945565b9050611bb58184612b5e565b8015611c30576040517f2e1a7d4d00000000000000000000000000000000000000000000000000000000815260048101829052600090632e1a7d4d90602401600060405180830381600087803b158015611c0e57600080fd5b505af1158015611c22573d6000803e3d6000fd5b50505050611c308282611cfa565b92915050565b6040517f70a0823100000000000000000000000000000000000000000000000000000000815230600482015260009073ffffffffffffffffffffffffffffffffffffffff8516906370a0823190602401602060405180830381865afa158015611ca3573d6000803e3d6000fd5b505050506040513d601f19601f82011682018060405250810190611cc79190613945565b9050611cd38184612b5e565b80156104e6576104e673ffffffffffffffffffffffffffffffffffffffff85168383612b98565b600080600080600085875af190508061027c576040517f90b8ec1800000000000000000000000000000000000000000000000000000000815260040160405180910390fd5b60015460009073ffffffffffffffffffffffffffffffffffffffff16611d8686827fffffffffffffffffffffffffffffffffffffffffffffffffffffffffffffffff6124f0565b6040805160a0810182528481523060208201524281830152606081018790526080810186905290517fc04b8d5900000000000000000000000000000000000000000000000000000000815273ffffffffffffffffffffffffffffffffffffffff83169163c04b8d5991611dfc9190600401613f71565b6020604051808303816000875af1158015611e1b573d6000803e3d6000fd5b505050506040513d601f19601f82011682018060405250810190611e3f9190613945565b9695505050505050565b60025460009073ffffffffffffffffffffffffffffffffffffffff16611e9085827fffffffffffffffffffffffffffffffffffffffffffffffffffffffffffffffff6124f0565b6000808273ffffffffffffffffffffffffffffffffffffffff1685604051611eb89190613fd7565b6000604051808303816000865af19150503d8060008114611ef5576040519150601f19603f3d011682016040523d82523d6000602084013e611efa565b606091505b509150915081611f0d57611f0d81612bee565b80806020019051810190611f219190613945565b9350611f2d8487612b5e565b5050509392505050565b6040517f83df67470000000000000000000000000000000000000000000000000000000081526004810184905273ffffffffffffffffffffffffffffffffffffffff858116602483015282151560448301528316906383df674790606401600060405180830381600087803b158015611faf57600080fd5b505af115801561087e573d6000803e3d6000fd5b835160609060008167ffffffffffffffff811115611fe357611fe36132e0565b60405190808252806020026020018201604052801561200c578160200160208202803683370190505b5090506000806000805b858110156124de576000808c838151811061203357612033613791565b6020026020010151600781111561204c5761204c613844565b0361205b5760019450506124ce565b60028c838151811061206f5761206f613791565b6020026020010151600781111561208857612088613844565b0361219f5760008b83815181106120a1576120a1613791565b60200260200101518060200190518101906120bc9190613ff3565b909250905060018101612198576040517f70a08231000000000000000000000000000000000000000000000000000000008152306004820152829073ffffffffffffffffffffffffffffffffffffffff8c16906370a0823190602401602060405180830381865afa158015612135573d6000803e3d6000fd5b505050506040513d601f19601f820116820180604052508101906121599190613945565b6040805160208101939093528201526060016040516020818303038152906040528c848151811061218c5761218c613791565b60200260200101819052505b50506124ce565b60038c83815181106121b3576121b3613791565b602002602001015160078111156121cc576121cc613844565b1480612202575060058c83815181106121e7576121e7613791565b6020026020010151600781111561220057612200613844565b145b1561223c578a828151811061221957612219613791565b60200260200101518060200190518101906122349190613ff3565b509050612313565b60018c838151811061225057612250613791565b6020026020010151600781111561226957612269613844565b036122a2578a828151811061228057612280613791565b602002602001015180602001905181019061229b9190613945565b9050612313565b60068c83815181106122b6576122b6613791565b602002602001015160078111156122cf576122cf613844565b0361230d578a82815181106122e6576122e6613791565b60200260200101518060200190518101906123019190614017565b50919250612313915050565b506124ce565b806000036123a457841561232757506124ce565b836000036123a1578973ffffffffffffffffffffffffffffffffffffffff16633c2e941b6040518163ffffffff1660e01b8152600401602060405180830381865afa15801561237a573d6000803e3d6000fd5b505050506040513d601f19601f8201168201806040525081019061239e9190613945565b93505b50825b60005b838110156123d557818782815181106123c2576123c2613791565b5050506123ce816137ef565b90506123a7565b506040517f430c20810000000000000000000000000000000000000000000000000000000081523360048201526024810182905273ffffffffffffffffffffffffffffffffffffffff8b169063430c208190604401602060405180830381865afa158015612447573d6000803e3d6000fd5b505050506040513d601f19601f8201168201806040525081019061246b9190613827565b6124a1576040517fe433766c00000000000000000000000000000000000000000000000000000000815260040160405180910390fd5b808684815181106124b4576124b4613791565b60209081029190910101526124ca600184614055565b9250505b6124d7816137ef565b9050612016565b5088955050505050505b949350505050565b6040517fdd62ed3e00000000000000000000000000000000000000000000000000000000815230600482015273ffffffffffffffffffffffffffffffffffffffff83811660248301526000919085169063dd62ed3e90604401602060405180830381865afa158015612566573d6000803e3d6000fd5b505050506040513d601f19601f8201168201806040525081019061258a9190613945565b905081811080156125c457506125c160027fffffffffffffffffffffffffffffffffffffffffffffffffffffffffffffffff614068565b81105b156125fa576125f5836125d783856140a3565b73ffffffffffffffffffffffffffffffffffffffff87169190612c2f565b6104e6565b818111156104e6576104e68361261084846140a3565b73ffffffffffffffffffffffffffffffffffffffff87169190612d2d565b6126596040518060800160405280600081526020016000815260200160008152602001600081525090565b6040517fde8fc69800000000000000000000000000000000000000000000000000000000815273ffffffffffffffffffffffffffffffffffffffff88169063de8fc698906126b5908990899033908a908a908a9060040161410b565b6080604051808303816000875af11580156126d4573d6000803e3d6000fd5b505050506040513d601f19601f820116820180604052508101906126f8919061420b565b979650505050505050565b6040517fa5d4096b00000000000000000000000000000000000000000000000000000000815273ffffffffffffffffffffffffffffffffffffffff88169063a5d4096b9061275f90899089908990899089908990600401614271565b600060405180830381600087803b15801561277957600080fd5b505af115801561278d573d6000803e3d6000fd5b5050505050505050505050565b6040517f94bf804d0000000000000000000000000000000000000000000000000000000081526004810184905273ffffffffffffffffffffffffffffffffffffffff83811660248301526000916124e8918491908816906394bf804d906044015b6020604051808303816000875af115801561281a573d6000803e3d6000fd5b505050506040513d601f19601f8201168201806040525081019061283e9190613945565b925082612b5e565b6040517f6e553f650000000000000000000000000000000000000000000000000000000081526004810184905273ffffffffffffffffffffffffffffffffffffffff83811660248301526000916124e891871690636e553f65906044015b6020604051808303816000875af11580156128c3573d6000803e3d6000fd5b505050506040513d601f19601f820116820180604052508101906128e79190613945565b91508183612b5e565b6040517fba0876520000000000000000000000000000000000000000000000000000000081526004810184905273ffffffffffffffffffffffffffffffffffffffff83811660248301523360448301526000916124e89187169063ba087652906064016128a4565b6040517fb460af940000000000000000000000000000000000000000000000000000000081526004810184905273ffffffffffffffffffffffffffffffffffffffff83811660248301523360448301526000916124e89184919088169063b460af94906064016127fb565b601183601a8111156129d7576129d7613844565b03612a10576000808080806129ee868801886142ca565b94509450945094509450612a058585858585612eba565b505050505050505050565b601283601a811115612a2457612a24613844565b0361027c57600080808080612a3b868801886142ca565b94509450945094509450612a058585858585612f76565b6000612ab4826040518060400160405280602081526020017f5361666545524332303a206c6f772d6c6576656c2063616c6c206661696c65648152508573ffffffffffffffffffffffffffffffffffffffff16612fdd9092919063ffffffff16565b80519091501561027c5780806020019051810190612ad29190613827565b61027c576040517f08c379a000000000000000000000000000000000000000000000000000000000815260206004820152602a60248201527f5361666545524332303a204552433230206f7065726174696f6e20646964206e60448201527f6f742073756363656564000000000000000000000000000000000000000000006064820152608401610343565b80821015610be6576040517fa1aabbe100000000000000000000000000000000000000000000000000000000815260040160405180910390fd5b60405173ffffffffffffffffffffffffffffffffffffffff831660248201526044810182905261027c9084907fa9059cbb0000000000000000000000000000000000000000000000000000000090606401611a2b565b805115612bfd57805181602001fd5b6040517fee418e3700000000000000000000000000000000000000000000000000000000815260040160405180910390fd5b6040517fdd62ed3e00000000000000000000000000000000000000000000000000000000815230600482015273ffffffffffffffffffffffffffffffffffffffff8381166024830152600091839186169063dd62ed3e90604401602060405180830381865afa158015612ca6573d6000803e3d6000fd5b505050506040513d601f19601f82011682018060405250810190612cca9190613945565b612cd49190614055565b60405173ffffffffffffffffffffffffffffffffffffffff85166024820152604481018290529091506104e69085907f095ea7b30000000000000000000000000000000000000000000000000000000090606401611a2b565b6040517fdd62ed3e00000000000000000000000000000000000000000000000000000000815230600482015273ffffffffffffffffffffffffffffffffffffffff83811660248301526000919085169063dd62ed3e90604401602060405180830381865afa158015612da3573d6000803e3d6000fd5b505050506040513d601f19601f82011682018060405250810190612dc79190613945565b905081811015612e59576040517f08c379a000000000000000000000000000000000000000000000000000000000815260206004820152602960248201527f5361666545524332303a2064656372656173656420616c6c6f77616e6365206260448201527f656c6f77207a65726f00000000000000000000000000000000000000000000006064820152608401610343565b60405173ffffffffffffffffffffffffffffffffffffffff841660248201528282036044820181905290612eb39086907f095ea7b30000000000000000000000000000000000000000000000000000000090606401611a2b565b5050505050565b6040517f151dd75500000000000000000000000000000000000000000000000000000000815273ffffffffffffffffffffffffffffffffffffffff85811660048301526024820185905282811660448301526000919087169063151dd755906064015b6020604051808303816000875af1158015612f3c573d6000803e3d6000fd5b505050506040513d601f19601f82011682018060405250810190612f609190613945565b9350612f6c8484612b5e565b5091949350505050565b6040517fd44ad63f00000000000000000000000000000000000000000000000000000000815273ffffffffffffffffffffffffffffffffffffffff85811660048301526024820185905282811660448301526000919087169063d44ad63f90606401612f1d565b6060612fec8484600085612ff6565b90505b9392505050565b606082471015613088576040517f08c379a000000000000000000000000000000000000000000000000000000000815260206004820152602660248201527f416464726573733a20696e73756666696369656e742062616c616e636520666f60448201527f722063616c6c00000000000000000000000000000000000000000000000000006064820152608401610343565b73ffffffffffffffffffffffffffffffffffffffff85163b613106576040517f08c379a000000000000000000000000000000000000000000000000000000000815260206004820152601d60248201527f416464726573733a2063616c6c20746f206e6f6e2d636f6e74726163740000006044820152606401610343565b6000808673ffffffffffffffffffffffffffffffffffffffff16858760405161312f9190613fd7565b60006040518083038185875af1925050503d806000811461316c576040519150601f19603f3d011682016040523d82523d6000602084013e613171565b606091505b50915091506126f88282866060831561318b575081612fef565b82511561319b5782518084602001fd5b816040517f08c379a00000000000000000000000000000000000000000000000000000000081526004016103439190614329565b73ffffffffffffffffffffffffffffffffffffffff811681146131f157600080fd5b50565b60008083601f84011261320657600080fd5b50813567ffffffffffffffff81111561321e57600080fd5b6020830191508360208260051b850101111561323957600080fd5b9250929050565b60008060006040848603121561325557600080fd5b8335613260816131cf565b9250602084013567ffffffffffffffff81111561327c57600080fd5b613288868287016131f4565b9497909650939450505050565b6000806000606084860312156132aa57600080fd5b83356132b5816131cf565b925060208401356132c5816131cf565b915060408401356132d5816131cf565b809150509250925092565b7f4e487b7100000000000000000000000000000000000000000000000000000000600052604160045260246000fd5b60405160e0810167ffffffffffffffff81118282101715613332576133326132e0565b60405290565b604051601f82017fffffffffffffffffffffffffffffffffffffffffffffffffffffffffffffffe016810167ffffffffffffffff8111828210171561337f5761337f6132e0565b604052919050565b600067ffffffffffffffff8211156133a1576133a16132e0565b5060051b60200190565b80151581146131f157600080fd5b803560ff811681146133ca57600080fd5b919050565b600082601f8301126133e057600080fd5b813560206133f56133f083613387565b613338565b82815260e0928302850182019282820191908785111561341457600080fd5b8387015b8581101561349c5781818a0312156134305760008081fd5b61343861330f565b8135613443816131cf565b815281860135613452816131cf565b81870152604082810135908201526060808301359082015260806134778184016133b9565b9082015260a0828101359082015260c080830135908201528452928401928101613418565b5090979650505050505050565b600080600080600080608087890312156134c257600080fd5b863567ffffffffffffffff808211156134da57600080fd5b818901915089601f8301126134ee57600080fd5b813560206134fe6133f083613387565b82815260e09092028401810191818101908d84111561351c57600080fd5b948201945b838610156135b35760e0868f03121561353a5760008081fd5b61354261330f565b863561354d816131cf565b81528684013561355c816131cf565b8185015260408781013561356f816133ab565b9082015260608781013590820152613589608088016133b9565b608082015260a0878101359082015260c08088013590820152825260e09095019490820190613521565b9a50508a0135925050808211156135c957600080fd5b6135d58a838b016133cf565b965060408901359150808211156135eb57600080fd5b6135f78a838b016131f4565b9096509450606089013591508082111561361057600080fd5b5061361d89828a016131f4565b979a9699509497509295939492505050565b60006020828403121561364157600080fd5b8135612fef816131cf565b6000806040838503121561365f57600080fd5b823561366a816131cf565b9150613678602084016133b9565b90509250929050565b60008060008060006060868803121561369957600080fd5b853567ffffffffffffffff808211156136b157600080fd5b6136bd89838a016133cf565b965060208801359150808211156136d357600080fd5b6136df89838a016131f4565b909650945060408801359150808211156136f857600080fd5b50613705888289016131f4565b969995985093965092949392505050565b6000806000806000806060878903121561372f57600080fd5b863567ffffffffffffffff8082111561374757600080fd5b6137538a838b016131f4565b9098509650602089013591508082111561376c57600080fd5b6137788a838b016131f4565b9096509450604089013591508082111561361057600080fd5b7f4e487b7100000000000000000000000000000000000000000000000000000000600052603260045260246000fd5b7f4e487b7100000000000000000000000000000000000000000000000000000000600052601160045260246000fd5b60007fffffffffffffffffffffffffffffffffffffffffffffffffffffffffffffffff8203613820576138206137c0565b5060010190565b60006020828403121561383957600080fd5b8151612fef816133ab565b7f4e487b7100000000000000000000000000000000000000000000000000000000600052602160045260246000fd5b60006020828403121561388557600080fd5b8135601b8110612fef57600080fd5b60008083357fffffffffffffffffffffffffffffffffffffffffffffffffffffffffffffffe18436030181126138c957600080fd5b83018035915067ffffffffffffffff8211156138e457600080fd5b60200191503681900382131561323957600080fd5b80356133ca816131cf565b60008060006060848603121561391957600080fd5b8335613924816131cf565b92506020840135613934816131cf565b929592945050506040919091013590565b60006020828403121561395757600080fd5b5051919050565b6000806040838503121561397157600080fd5b823591506020830135613983816131cf565b809150509250929050565b6000806000606084860312156139a357600080fd5b83356139ae816131cf565b92506020840135915060408401356132d5816131cf565b600082601f8301126139d657600080fd5b813567ffffffffffffffff8111156139f0576139f06132e0565b613a2160207fffffffffffffffffffffffffffffffffffffffffffffffffffffffffffffffe0601f84011601613338565b818152846020838601011115613a3657600080fd5b816020850160208301376000918101602001919091529392505050565b60008060008060808587031215613a6957600080fd5b8435613a74816131cf565b93506020850135925060408501359150606085013567ffffffffffffffff811115613a9e57600080fd5b613aaa878288016139c5565b91505092959194509250565b600080600060608486031215613acb57600080fd5b8335613ad6816131cf565b925060208401359150604084013567ffffffffffffffff811115613af957600080fd5b613b05868287016139c5565b9150509250925092565b60008060408385031215613b2257600080fd5b8235613b2d816131cf565b915060208381013567ffffffffffffffff811115613b4a57600080fd5b8401601f81018613613b5b57600080fd5b8035613b696133f082613387565b81815260059190911b82018301908381019088831115613b8857600080fd5b928401925b82841015613baf578335613ba0816131cf565b82529284019290840190613b8d565b80955050505050509250929050565b60008060008060808587031215613bd457600080fd5b8435613bdf816131cf565b9350602085013592506040850135613bf6816131cf565b91506060850135613c06816133ab565b939692955090935050565b600082601f830112613c2257600080fd5b81356020613c326133f083613387565b82815260059290921b84018101918181019086841115613c5157600080fd5b8286015b84811015613c7a57803560088110613c6d5760008081fd5b8352918301918301613c55565b509695505050505050565b600082601f830112613c9657600080fd5b81356020613ca66133f083613387565b82815260059290921b84018101918181019086841115613cc557600080fd5b8286015b84811015613c7a57803567ffffffffffffffff811115613ce95760008081fd5b613cf78986838b01016139c5565b845250918301918301613cc9565b600080600080600080600060e0888a031215613d2057600080fd5b8735613d2b816131cf565b96506020880135613d3b816131cf565b9550613d49604089016138f9565b9450613d57606089016138f9565b9350608088013567ffffffffffffffff80821115613d7457600080fd5b613d808b838c01613c11565b945060a08a0135915080821115613d9657600080fd5b613da28b838c01613c85565b935060c08a0135915080821115613db857600080fd5b50613dc58a828b016139c5565b91505092959891949750929550565b600080600080600080600060e0888a031215613def57600080fd5b8735613dfa816131cf565b96506020880135613e0a816131cf565b95506040880135613e1a816131cf565b94506060880135613e2a816131cf565b93506080880135925060a0880135915060c088013567ffffffffffffffff811115613e5457600080fd5b613dc58a828b016139c5565b600080600080600060a08688031215613e7857600080fd5b8535613e83816131cf565b94506020860135613e93816131cf565b9350604086013592506060860135613eaa816131cf565b949793965091946080013592915050565b60008060008060808587031215613ed157600080fd5b8435613edc816131cf565b9350602085013592506040850135613ef3816131cf565b9396929550929360600135925050565b60005b83811015613f1e578181015183820152602001613f06565b50506000910152565b60008151808452613f3f816020860160208601613f03565b601f017fffffffffffffffffffffffffffffffffffffffffffffffffffffffffffffffe0169290920160200192915050565b602081526000825160a06020840152613f8d60c0840182613f27565b905073ffffffffffffffffffffffffffffffffffffffff60208501511660408401526040840151606084015260608401516080840152608084015160a08401528091505092915050565b60008251613fe9818460208701613f03565b9190910192915050565b6000806040838503121561400657600080fd5b505080516020909101519092909150565b6000806000806080858703121561402d57600080fd5b84519350602085015161403f816131cf565b6040860151606090960151949790965092505050565b80820180821115611c3057611c306137c0565b60008261409e577f4e487b7100000000000000000000000000000000000000000000000000000000600052601260045260246000fd5b500490565b81810381811115611c3057611c306137c0565b600081518084526020808501808196508360051b8101915082860160005b858110156140fe5782840389526140ec848351613f27565b988501989350908401906001016140d4565b5091979650505050505050565b60c0808252875190820181905260009060209060e0840190828b0184805b8381101561417a57825160088110614168577f4e487b710000000000000000000000000000000000000000000000000000000083526021600452602483fd5b85529385019391850191600101614129565b505050508381038285015261418f818a6140b6565b9150506141b4604084018873ffffffffffffffffffffffffffffffffffffffff169052565b73ffffffffffffffffffffffffffffffffffffffff8616606084015273ffffffffffffffffffffffffffffffffffffffff8516608084015282810360a08401526141fe8185613f27565b9998505050505050505050565b60006080828403121561421d57600080fd5b6040516080810181811067ffffffffffffffff82111715614240576142406132e0565b8060405250825181526020830151602082015260408301516040820152606083015160608201528091505092915050565b600073ffffffffffffffffffffffffffffffffffffffff8089168352808816602084015280871660408401525084606083015283608083015260c060a08301526142be60c0830184613f27565b98975050505050505050565b600080600080600060a086880312156142e257600080fd5b85356142ed816131cf565b945060208601356142fd816131cf565b93506040860135925060608601359150608086013561431b816131cf565b809150509295509295909350565b602081526000612fef6020830184613f2756fea2646970667358221220613ea70d653995768ec4f8289d1bb4adef56514876bc5211c5819ef51cd59f4264736f6c63430008110033",
  "devdoc": {
    "author": "Angle Core Team",
    "kind": "dev",
    "methods": {
      "changeAllowance(address[],address[],uint256[])": {
        "params": {
          "amounts": "Amounts to allow",
          "spenders": "Addresses to allow transfer",
          "tokens": "Addresses of the tokens to allow"
        }
      },
      "claimRewards(address,address[])": {
        "details": "If the caller wants to send the rewards to another account it first needs to call `set_rewards_receiver(otherAccount)` on each `liquidityGauge`",
        "params": {
          "gaugeUser": "Address for which to fetch the rewards from the gauges",
          "liquidityGauges": "Gauges to claim on"
        }
      },
      "mixer((address,address,uint256,uint256,uint8,bytes32,bytes32)[],uint8[],bytes[])": {
        "details": "With this function, users can specify paths to swap tokens to the desired token of their choice. Yet the protocol does not verify the payload given and cannot check that the swap performed by users actually gives the desired out token: in this case funds may be made accessible to anyone on this contract if the concerned users do not perform a sweep action on these tokens",
        "params": {
          "actions": "List of actions to be performed by the router (in order of execution)",
          "data": "Array of encoded data for each of the actions performed in this mixer. This is where the bytes-encoded parameters for a given action are stored",
          "paramsPermit": "Array of params `PermitType` used to do a 1 tx to approve the router on each token (can be done once by setting high approved amounts) which supports the `permit` standard. Users willing to interact with the contract with tokens that do not support permit should approve the contract for these tokens prior to interacting with it"
        }
      },
      "mixerVaultManagerPermit((address,address,bool,uint256,uint8,bytes32,bytes32)[],(address,address,uint256,uint256,uint8,bytes32,bytes32)[],uint8[],bytes[])": {
        "details": "In `paramsPermitVaultManager`, the signatures for granting approvals must be given first before the signatures to revoke approvalsThe router contract has been built to be safe to keep approvals as you cannot take an action on a vault you are not approved for, but people wary about their approvals may want to grant it before immediately revoking it, although this is just an option",
        "params": {
          "paramsPermitVaultManager": "Parameters to sign permit to give allowance to the router for a `VaultManager` contract"
        }
      }
    },
    "title": "AngleRouterCelo",
    "version": 1
  },
  "userdoc": {
    "kind": "user",
    "methods": {
      "changeAllowance(address[],address[],uint256[])": {
        "notice": "Changes allowances for different tokens"
      },
      "claimRewards(address,address[])": {
        "notice": "Wrapper built on top of the `_claimRewards` function. It allows to claim rewards for multiple gauges at once"
      },
      "core()": {
        "notice": "Core address handling access control"
      },
      "initializeRouter(address,address,address)": {
        "notice": "Deploys the router contract on a chain"
      },
      "mixer((address,address,uint256,uint256,uint8,bytes32,bytes32)[],uint8[],bytes[])": {
        "notice": "Allows composable calls to different functions within the protocol"
      },
      "mixerVaultManagerPermit((address,address,bool,uint256,uint8,bytes32,bytes32)[],(address,address,uint256,uint256,uint8,bytes32,bytes32)[],uint8[],bytes[])": {
        "notice": "Wrapper built on top of the base `mixer` function to grant approval to a `VaultManager` contract before performing actions and then revoking this approval after these actions"
      },
      "oneInch()": {
        "notice": "Address of 1Inch router used for swaps"
      },
      "setCore(address)": {
        "notice": "Sets a new `core` contract"
      },
      "setRouter(address,uint8)": {
        "notice": "Sets a new router variable"
      },
      "uniswapV3Router()": {
        "notice": "Address of the router used for swaps"
      }
    },
    "notice": "Router contract built specifially for Angle use cases on Celo",
    "version": 1
  },
  "storageLayout": {
    "storage": [
      {
        "astId": 6,
        "contract": "contracts/implementations/celo/AngleRouterCelo.sol:AngleRouterCelo",
        "label": "_initialized",
        "offset": 0,
        "slot": "0",
        "type": "t_uint8"
      },
      {
        "astId": 9,
        "contract": "contracts/implementations/celo/AngleRouterCelo.sol:AngleRouterCelo",
        "label": "_initializing",
        "offset": 1,
        "slot": "0",
        "type": "t_bool"
      },
      {
        "astId": 1544,
        "contract": "contracts/implementations/celo/AngleRouterCelo.sol:AngleRouterCelo",
        "label": "core",
        "offset": 2,
        "slot": "0",
        "type": "t_contract(ICoreBorrow)3549"
      },
      {
        "astId": 1548,
        "contract": "contracts/implementations/celo/AngleRouterCelo.sol:AngleRouterCelo",
        "label": "uniswapV3Router",
        "offset": 0,
        "slot": "1",
        "type": "t_contract(IUniswapV3Router)3779"
      },
      {
        "astId": 1551,
        "contract": "contracts/implementations/celo/AngleRouterCelo.sol:AngleRouterCelo",
        "label": "oneInch",
        "offset": 0,
        "slot": "2",
        "type": "t_address"
      },
      {
        "astId": 1555,
        "contract": "contracts/implementations/celo/AngleRouterCelo.sol:AngleRouterCelo",
        "label": "__gap",
        "offset": 0,
        "slot": "3",
        "type": "t_array(t_uint256)47_storage"
      }
    ],
    "types": {
      "t_address": {
        "encoding": "inplace",
        "label": "address",
        "numberOfBytes": "20"
      },
      "t_array(t_uint256)47_storage": {
        "base": "t_uint256",
        "encoding": "inplace",
        "label": "uint256[47]",
        "numberOfBytes": "1504"
      },
      "t_bool": {
        "encoding": "inplace",
        "label": "bool",
        "numberOfBytes": "1"
      },
      "t_contract(ICoreBorrow)3549": {
        "encoding": "inplace",
        "label": "contract ICoreBorrow",
        "numberOfBytes": "20"
      },
      "t_contract(IUniswapV3Router)3779": {
        "encoding": "inplace",
        "label": "contract IUniswapV3Router",
        "numberOfBytes": "20"
      },
      "t_uint256": {
        "encoding": "inplace",
        "label": "uint256",
        "numberOfBytes": "32"
      },
      "t_uint8": {
        "encoding": "inplace",
        "label": "uint8",
        "numberOfBytes": "1"
      }
    }
  }
}