{
  "address": "0x2ea80c5a8944cf1461167EC4FD9ffAA3C94AF4E5",
  "abi": [
    {
      "inputs": [],
      "stateMutability": "nonpayable",
      "type": "constructor"
    },
    {
      "inputs": [],
      "name": "AlreadyAdded",
      "type": "error"
    },
    {
      "inputs": [],
      "name": "IncompatibleLengths",
      "type": "error"
    },
    {
      "inputs": [],
      "name": "InvalidAddress",
      "type": "error"
    },
    {
      "inputs": [],
      "name": "InvalidCall",
      "type": "error"
    },
    {
      "inputs": [],
      "name": "InvalidConditions",
      "type": "error"
    },
    {
      "inputs": [],
      "name": "InvalidReturnMessage",
      "type": "error"
    },
    {
      "inputs": [],
      "name": "InvalidToken",
      "type": "error"
    },
    {
      "inputs": [],
      "name": "NotApprovedOrOwner",
      "type": "error"
    },
    {
      "inputs": [],
      "name": "NotGovernorOrGuardian",
      "type": "error"
    },
    {
      "inputs": [],
      "name": "TooSmallAmountOut",
      "type": "error"
    },
    {
      "inputs": [],
      "name": "ZeroAddress",
      "type": "error"
    },
    {
      "anonymous": false,
      "inputs": [
        {
          "indexed": true,
          "internalType": "address",
          "name": "admin",
          "type": "address"
        },
        {
          "indexed": false,
          "internalType": "bool",
          "name": "setGovernor",
          "type": "bool"
        }
      ],
      "name": "AdminChanged",
      "type": "event"
    },
    {
      "anonymous": false,
      "inputs": [
        {
          "indexed": true,
          "internalType": "address",
          "name": "stableMaster",
          "type": "address"
        },
        {
          "indexed": true,
          "internalType": "address",
          "name": "poolManager",
          "type": "address"
        },
        {
          "indexed": true,
          "internalType": "address",
          "name": "liquidityGauge",
          "type": "address"
        }
      ],
      "name": "CollateralToggled",
      "type": "event"
    },
    {
      "anonymous": false,
      "inputs": [
        {
          "indexed": true,
          "internalType": "address",
          "name": "tokenAddress",
          "type": "address"
        },
        {
          "indexed": true,
          "internalType": "address",
          "name": "to",
          "type": "address"
        },
        {
          "indexed": false,
          "internalType": "uint256",
          "name": "amount",
          "type": "uint256"
        }
      ],
      "name": "Recovered",
      "type": "event"
    },
    {
      "anonymous": false,
      "inputs": [
        {
          "indexed": true,
          "internalType": "address",
          "name": "sanToken",
          "type": "address"
        },
        {
          "indexed": true,
          "internalType": "address",
          "name": "newLiquidityGauge",
          "type": "address"
        }
      ],
      "name": "SanTokenLiquidityGaugeUpdated",
      "type": "event"
    },
    {
      "anonymous": false,
      "inputs": [
        {
          "indexed": true,
          "internalType": "address",
          "name": "stableMaster",
          "type": "address"
        }
      ],
      "name": "StablecoinAdded",
      "type": "event"
    },
    {
      "anonymous": false,
      "inputs": [
        {
          "indexed": true,
          "internalType": "address",
          "name": "stableMaster",
          "type": "address"
        }
      ],
      "name": "StablecoinRemoved",
      "type": "event"
    },
    {
      "inputs": [],
      "name": "ANGLE",
      "outputs": [
        {
          "internalType": "contract IERC20",
          "name": "",
          "type": "address"
        }
      ],
      "stateMutability": "view",
      "type": "function"
    },
    {
      "inputs": [],
      "name": "BASE_PARAMS",
      "outputs": [
        {
          "internalType": "uint256",
          "name": "",
          "type": "uint256"
        }
      ],
      "stateMutability": "view",
      "type": "function"
    },
    {
      "inputs": [],
      "name": "STETH",
      "outputs": [
        {
          "internalType": "contract IStETH",
          "name": "",
          "type": "address"
        }
      ],
      "stateMutability": "view",
      "type": "function"
    },
    {
      "inputs": [],
      "name": "VEANGLE",
      "outputs": [
        {
          "internalType": "contract IVeANGLE",
          "name": "",
          "type": "address"
        }
      ],
      "stateMutability": "view",
      "type": "function"
    },
    {
      "inputs": [],
      "name": "WETH9",
      "outputs": [
        {
          "internalType": "contract IWETH9",
          "name": "",
          "type": "address"
        }
      ],
      "stateMutability": "view",
      "type": "function"
    },
    {
      "inputs": [],
      "name": "WSTETH",
      "outputs": [
        {
          "internalType": "contract IWStETH",
          "name": "",
          "type": "address"
        }
      ],
      "stateMutability": "view",
      "type": "function"
    },
    {
      "inputs": [
        {
          "internalType": "contract IERC20[]",
          "name": "stablecoins",
          "type": "address[]"
        },
        {
          "internalType": "contract IPoolManager[]",
          "name": "poolManagers",
          "type": "address[]"
        },
        {
          "internalType": "contract ILiquidityGauge[]",
          "name": "liquidityGauges",
          "type": "address[]"
        }
      ],
      "name": "addPairs",
      "outputs": [],
      "stateMutability": "nonpayable",
      "type": "function"
    },
    {
      "inputs": [
        {
          "internalType": "contract IERC20",
          "name": "stablecoin",
          "type": "address"
        },
        {
          "internalType": "contract IStableMasterFront",
          "name": "stableMaster",
          "type": "address"
        }
      ],
      "name": "addStableMaster",
      "outputs": [],
      "stateMutability": "nonpayable",
      "type": "function"
    },
    {
      "inputs": [
        {
          "internalType": "address",
          "name": "dest",
          "type": "address"
        },
        {
          "internalType": "uint256",
          "name": "amount",
          "type": "uint256"
        },
        {
          "internalType": "uint256",
          "name": "minCollatAmount",
          "type": "uint256"
        },
        {
          "internalType": "address",
          "name": "stablecoin",
          "type": "address"
        },
        {
          "internalType": "address",
          "name": "collateral",
          "type": "address"
        }
      ],
      "name": "burn",
      "outputs": [],
      "stateMutability": "nonpayable",
      "type": "function"
    },
    {
      "inputs": [
        {
          "internalType": "contract IERC20[]",
          "name": "tokens",
          "type": "address[]"
        },
        {
          "internalType": "address[]",
          "name": "spenders",
          "type": "address[]"
        },
        {
          "internalType": "uint256[]",
          "name": "amounts",
          "type": "uint256[]"
        }
      ],
      "name": "changeAllowance",
      "outputs": [],
      "stateMutability": "nonpayable",
      "type": "function"
    },
    {
      "inputs": [
        {
          "internalType": "address",
          "name": "user",
          "type": "address"
        },
        {
          "internalType": "address[]",
          "name": "liquidityGauges",
          "type": "address[]"
        },
        {
          "internalType": "uint256[]",
          "name": "perpetualIDs",
          "type": "uint256[]"
        },
        {
          "internalType": "address[]",
          "name": "perpetualManagers",
          "type": "address[]"
        }
      ],
      "name": "claimRewards",
      "outputs": [],
      "stateMutability": "nonpayable",
      "type": "function"
    },
    {
      "inputs": [
        {
          "internalType": "address",
          "name": "gaugeUser",
          "type": "address"
        },
        {
          "internalType": "address[]",
          "name": "liquidityGauges",
          "type": "address[]"
        },
        {
          "internalType": "uint256[]",
          "name": "perpetualIDs",
          "type": "uint256[]"
        },
        {
          "internalType": "address[]",
          "name": "stablecoins",
          "type": "address[]"
        },
        {
          "internalType": "address[]",
          "name": "collaterals",
          "type": "address[]"
        }
      ],
      "name": "claimRewards",
      "outputs": [],
      "stateMutability": "nonpayable",
      "type": "function"
    },
    {
      "inputs": [],
      "name": "governor",
      "outputs": [
        {
          "internalType": "address",
          "name": "",
          "type": "address"
        }
      ],
      "stateMutability": "view",
      "type": "function"
    },
    {
      "inputs": [],
      "name": "guardian",
      "outputs": [
        {
          "internalType": "address",
          "name": "",
          "type": "address"
        }
      ],
      "stateMutability": "view",
      "type": "function"
    },
    {
      "inputs": [
        {
          "internalType": "contract IStableMasterFront",
          "name": "",
          "type": "address"
        },
        {
          "internalType": "contract IERC20",
          "name": "",
          "type": "address"
        }
      ],
      "name": "mapPoolManagers",
      "outputs": [
        {
          "internalType": "contract IPoolManager",
          "name": "poolManager",
          "type": "address"
        },
        {
          "internalType": "contract IPerpetualManagerFrontWithClaim",
          "name": "perpetualManager",
          "type": "address"
        },
        {
          "internalType": "contract ISanToken",
          "name": "sanToken",
          "type": "address"
        },
        {
          "internalType": "contract ILiquidityGauge",
          "name": "gauge",
          "type": "address"
        }
      ],
      "stateMutability": "view",
      "type": "function"
    },
    {
      "inputs": [
        {
          "internalType": "contract IERC20",
          "name": "",
          "type": "address"
        }
      ],
      "name": "mapStableMasters",
      "outputs": [
        {
          "internalType": "contract IStableMasterFront",
          "name": "",
          "type": "address"
        }
      ],
      "stateMutability": "view",
      "type": "function"
    },
    {
      "inputs": [
        {
          "internalType": "address",
          "name": "user",
          "type": "address"
        },
        {
          "internalType": "uint256",
          "name": "amount",
          "type": "uint256"
        },
        {
          "internalType": "uint256",
          "name": "minStableAmount",
          "type": "uint256"
        },
        {
          "internalType": "address",
          "name": "stablecoin",
          "type": "address"
        },
        {
          "internalType": "address",
          "name": "collateral",
          "type": "address"
        }
      ],
      "name": "mint",
      "outputs": [],
      "stateMutability": "nonpayable",
      "type": "function"
    },
    {
      "inputs": [
        {
          "components": [
            {
              "internalType": "address",
              "name": "token",
              "type": "address"
            },
            {
              "internalType": "address",
              "name": "owner",
              "type": "address"
            },
            {
              "internalType": "uint256",
              "name": "value",
              "type": "uint256"
            },
            {
              "internalType": "uint256",
              "name": "deadline",
              "type": "uint256"
            },
            {
              "internalType": "uint8",
              "name": "v",
              "type": "uint8"
            },
            {
              "internalType": "bytes32",
              "name": "r",
              "type": "bytes32"
            },
            {
              "internalType": "bytes32",
              "name": "s",
              "type": "bytes32"
            }
          ],
          "internalType": "struct AngleRouter.PermitType[]",
          "name": "paramsPermit",
          "type": "tuple[]"
        },
        {
          "components": [
            {
              "internalType": "contract IERC20",
              "name": "inToken",
              "type": "address"
            },
            {
              "internalType": "uint256",
              "name": "amountIn",
              "type": "uint256"
            }
          ],
          "internalType": "struct AngleRouter.TransferType[]",
          "name": "paramsTransfer",
          "type": "tuple[]"
        },
        {
          "components": [
            {
              "internalType": "contract IERC20",
              "name": "inToken",
              "type": "address"
            },
            {
              "internalType": "address",
              "name": "collateral",
              "type": "address"
            },
            {
              "internalType": "uint256",
              "name": "amountIn",
              "type": "uint256"
            },
            {
              "internalType": "uint256",
              "name": "minAmountOut",
              "type": "uint256"
            },
            {
              "internalType": "bytes",
              "name": "args",
              "type": "bytes"
            },
            {
              "internalType": "enum AngleRouter.SwapType",
              "name": "swapType",
              "type": "uint8"
            }
          ],
          "internalType": "struct AngleRouter.ParamsSwapType[]",
          "name": "paramsSwap",
          "type": "tuple[]"
        },
        {
          "internalType": "enum AngleRouter.ActionType[]",
          "name": "actions",
          "type": "uint8[]"
        },
        {
          "internalType": "bytes[]",
          "name": "data",
          "type": "bytes[]"
        }
      ],
      "name": "mixer",
      "outputs": [],
      "stateMutability": "payable",
      "type": "function"
    },
    {
      "inputs": [
        {
          "components": [
            {
              "internalType": "address",
              "name": "vaultManager",
              "type": "address"
            },
            {
              "internalType": "address",
              "name": "owner",
              "type": "address"
            },
            {
              "internalType": "bool",
              "name": "approved",
              "type": "bool"
            },
            {
              "internalType": "uint256",
              "name": "deadline",
              "type": "uint256"
            },
            {
              "internalType": "uint8",
              "name": "v",
              "type": "uint8"
            },
            {
              "internalType": "bytes32",
              "name": "r",
              "type": "bytes32"
            },
            {
              "internalType": "bytes32",
              "name": "s",
              "type": "bytes32"
            }
          ],
          "internalType": "struct AngleRouter.PermitVaultManagerType[]",
          "name": "paramsPermitVaultManager",
          "type": "tuple[]"
        },
        {
          "components": [
            {
              "internalType": "address",
              "name": "token",
              "type": "address"
            },
            {
              "internalType": "address",
              "name": "owner",
              "type": "address"
            },
            {
              "internalType": "uint256",
              "name": "value",
              "type": "uint256"
            },
            {
              "internalType": "uint256",
              "name": "deadline",
              "type": "uint256"
            },
            {
              "internalType": "uint8",
              "name": "v",
              "type": "uint8"
            },
            {
              "internalType": "bytes32",
              "name": "r",
              "type": "bytes32"
            },
            {
              "internalType": "bytes32",
              "name": "s",
              "type": "bytes32"
            }
          ],
          "internalType": "struct AngleRouter.PermitType[]",
          "name": "paramsPermit",
          "type": "tuple[]"
        },
        {
          "components": [
            {
              "internalType": "contract IERC20",
              "name": "inToken",
              "type": "address"
            },
            {
              "internalType": "uint256",
              "name": "amountIn",
              "type": "uint256"
            }
          ],
          "internalType": "struct AngleRouter.TransferType[]",
          "name": "paramsTransfer",
          "type": "tuple[]"
        },
        {
          "components": [
            {
              "internalType": "contract IERC20",
              "name": "inToken",
              "type": "address"
            },
            {
              "internalType": "address",
              "name": "collateral",
              "type": "address"
            },
            {
              "internalType": "uint256",
              "name": "amountIn",
              "type": "uint256"
            },
            {
              "internalType": "uint256",
              "name": "minAmountOut",
              "type": "uint256"
            },
            {
              "internalType": "bytes",
              "name": "args",
              "type": "bytes"
            },
            {
              "internalType": "enum AngleRouter.SwapType",
              "name": "swapType",
              "type": "uint8"
            }
          ],
          "internalType": "struct AngleRouter.ParamsSwapType[]",
          "name": "paramsSwap",
          "type": "tuple[]"
        },
        {
          "internalType": "enum AngleRouter.ActionType[]",
          "name": "actions",
          "type": "uint8[]"
        },
        {
          "internalType": "bytes[]",
          "name": "data",
          "type": "bytes[]"
        }
      ],
      "name": "mixerVaultManagerPermit",
      "outputs": [],
      "stateMutability": "payable",
      "type": "function"
    },
    {
      "inputs": [],
      "name": "oneInch",
      "outputs": [
        {
          "internalType": "address",
          "name": "",
          "type": "address"
        }
      ],
      "stateMutability": "view",
      "type": "function"
    },
    {
      "inputs": [
        {
          "internalType": "contract IERC20",
          "name": "",
          "type": "address"
        }
      ],
      "name": "oneInchAllowedToken",
      "outputs": [
        {
          "internalType": "bool",
          "name": "",
          "type": "bool"
        }
      ],
      "stateMutability": "view",
      "type": "function"
    },
    {
      "inputs": [
        {
          "internalType": "address",
          "name": "tokenAddress",
          "type": "address"
        },
        {
          "internalType": "address",
          "name": "to",
          "type": "address"
        },
        {
          "internalType": "uint256",
          "name": "tokenAmount",
          "type": "uint256"
        }
      ],
      "name": "recoverERC20",
      "outputs": [],
      "stateMutability": "nonpayable",
      "type": "function"
    },
    {
      "inputs": [
        {
          "internalType": "contract IERC20[]",
          "name": "stablecoins",
          "type": "address[]"
        },
        {
          "internalType": "contract IERC20[]",
          "name": "collaterals",
          "type": "address[]"
        },
        {
          "internalType": "contract IStableMasterFront[]",
          "name": "stableMasters",
          "type": "address[]"
        }
      ],
      "name": "removePairs",
      "outputs": [],
      "stateMutability": "nonpayable",
      "type": "function"
    },
    {
      "inputs": [
        {
          "internalType": "contract IERC20",
          "name": "stablecoin",
          "type": "address"
        }
      ],
      "name": "removeStableMaster",
      "outputs": [],
      "stateMutability": "nonpayable",
      "type": "function"
    },
    {
      "inputs": [
        {
          "internalType": "address",
          "name": "admin",
          "type": "address"
        },
        {
          "internalType": "bool",
          "name": "setGovernor",
          "type": "bool"
        }
      ],
      "name": "setGovernorOrGuardian",
      "outputs": [],
      "stateMutability": "nonpayable",
      "type": "function"
    },
    {
      "inputs": [
        {
          "internalType": "contract IERC20[]",
          "name": "stablecoins",
          "type": "address[]"
        },
        {
          "internalType": "contract IERC20[]",
          "name": "collaterals",
          "type": "address[]"
        },
        {
          "internalType": "contract ILiquidityGauge[]",
          "name": "newLiquidityGauges",
          "type": "address[]"
        }
      ],
      "name": "setLiquidityGauges",
      "outputs": [],
      "stateMutability": "nonpayable",
      "type": "function"
    },
    {
      "inputs": [
        {
          "internalType": "contract IERC20",
          "name": "",
          "type": "address"
        }
      ],
      "name": "uniAllowedToken",
      "outputs": [
        {
          "internalType": "bool",
          "name": "",
          "type": "bool"
        }
      ],
      "stateMutability": "view",
      "type": "function"
    },
    {
      "inputs": [],
      "name": "uniswapV3Router",
      "outputs": [
        {
          "internalType": "contract IUniswapV3Router",
          "name": "",
          "type": "address"
        }
      ],
      "stateMutability": "view",
      "type": "function"
    },
    {
      "stateMutability": "payable",
      "type": "receive"
    }
  ],
  "transactionHash": "0xce6db58c55f59dce1dafa1654ef48167ea0b31a8e5f22ddefff56f94aca2f7c8",
  "args": [],
  "solcInputHash": "4c90ce44fc32cf477fd74b3443d45d27",
  "bytecode": "0x60806040523480156200001157600080fd5b50600054610100900460ff166200002f5760005460ff161562000039565b62000039620000de565b620000a15760405162461bcd60e51b815260206004820152602e60248201527f496e697469616c697a61626c653a20636f6e747261637420697320616c72656160448201526d191e481a5b9a5d1a585b1a5e995960921b606482015260840160405180910390fd5b600054610100900460ff16158015620000c4576000805461ffff19166101011790555b8015620000d7576000805461ff00191690555b5062000102565b6000620000f630620000fc60201b620025f31760201c565b15905090565b3b151590565b615d4780620001126000396000f3fe60806040526004361061014b5760003560e01c8063045c08d5146101575780630c340a241461018d5780630db3280f146101ad5780631171bda9146101ed57806322f2d5861461020f5780632c76d7a61461022f578063310fb5e71461024f578063313359b114610262578063452a93201461028a5780634aa4a4fc146102aa578063560a8b78146102d25780635cc6b2d4146102fa5780636fb8df051461031a5780637c295dfa1461033a5780639f48118f146103cb578063a11a233d146103f1578063aacdd99d14610411578063b044d1e014610431578063b803442414610451578063b82c4dc114610487578063cef5cd0a146104a7578063d0772c29146104ba578063d9fb643a146104da578063e00bfe5014610502578063e45e6f301461052a578063ee7b49501461054a578063f5a418bb1461056a578063f8a3a1111461059a57600080fd5b3661015257005b600080fd5b34801561016357600080fd5b50603a54610177906001600160a01b031681565b604051610184919061451a565b60405180910390f35b34801561019957600080fd5b50603754610177906001600160a01b031681565b3480156101b957600080fd5b506101dd6101c8366004614546565b60356020526000908152604090205460ff1681565b6040519015158152602001610184565b3480156101f957600080fd5b5061020d610208366004614563565b6105ba565b005b34801561021b57600080fd5b5061020d61022a3660046145e8565b610664565b34801561023b57600080fd5b50603954610177906001600160a01b031681565b61020d61025d366004614bd1565b610a9e565b34801561026e57600080fd5b506101777331429d1856ad1377a8a0079410b297e1a9e214c281565b34801561029657600080fd5b50603854610177906001600160a01b031681565b3480156102b657600080fd5b5061017773c02aaa39b223fe8d0a0e5c4f27ead9083c756cc281565b3480156102de57600080fd5b50610177730c462dbb9ec8cd1630f1728b2cfd2769d09f0dd581565b34801561030657600080fd5b5061020d6103153660046145e8565b610d75565b34801561032657600080fd5b5061020d610335366004614546565b61112e565b34801561034657600080fd5b50610398610355366004614ccd565b603460209081526000928352604080842090915290825290208054600182015460028301546003909301546001600160a01b039283169391831692918216911684565b604080516001600160a01b0395861681529385166020850152918416918301919091529091166060820152608001610184565b3480156103d757600080fd5b506103e3633b9aca0081565b604051908152602001610184565b3480156103fd57600080fd5b5061020d61040c366004614d06565b6111ca565b34801561041d57600080fd5b5061020d61042c3660046145e8565b611307565b34801561043d57600080fd5b5061020d61044c366004614d34565b611439565b34801561045d57600080fd5b5061017761046c366004614546565b6033602052600090815260409020546001600160a01b031681565b34801561049357600080fd5b5061020d6104a23660046145e8565b611466565b61020d6104b5366004614d93565b611563565b3480156104c657600080fd5b5061020d6104d5366004614f0a565b6123ec565b3480156104e657600080fd5b50610177737f39c581f595b53c5cb19bd0b3f8da6c935e2ca081565b34801561050e57600080fd5b5061017773ae7ab96520de3a18e5e111b5eaab095312d7fe8481565b34801561053657600080fd5b5061020d610545366004614ccd565b612443565b34801561055657600080fd5b5061020d610565366004614d34565b6125d3565b34801561057657600080fd5b506101dd610585366004614546565b60366020526000908152604090205460ff1681565b3480156105a657600080fd5b5061020d6105b5366004614fa4565b6125e4565b6037546001600160a01b031633148015906105e057506038546001600160a01b03163314155b156105fe57604051632678482f60e21b815260040160405180910390fd5b6106126001600160a01b03841683836125f9565b816001600160a01b0316836001600160a01b03167ffff3b3844276f57024e0b42afec1a37f75db36511e43819a4f2a63ab7862b6488360405161065791815260200190565b60405180910390a3505050565b6037546001600160a01b0316331480159061068a57506038546001600160a01b03163314155b156106a857604051632678482f60e21b815260040160405180910390fd5b82851415806106b75750808514155b156106d5576040516346282e8d60e01b815260040160405180910390fd5b60005b85811015610a95576000603360008989858181106106f8576106f8615063565b905060200201602081019061070d9190614546565b6001600160a01b03908116825260208083019390935260409182016000908120549091168082526034909352908120919250908188888681811061075357610753615063565b90506020020160208101906107689190614546565b6001600160a01b03908116825260208201929092526040016000206003810154600282015491935082169190811690841615806107ad575082546001600160a01b0316155b156107cb5760405163d92e233d60e01b815260040160405180910390fd5b8686868181106107dd576107dd615063565b90506020020160208101906107f29190614546565b6003840180546001600160a01b0319166001600160a01b0392831617905582161561088b5760405163095ea7b360e01b81526001600160a01b0382169063095ea7b390610846908590600090600401615079565b6020604051808303816000875af1158015610865573d6000803e3d6000fd5b505050506040513d601f19601f820116820180604052508101906108899190615092565b505b600087878781811061089f5761089f615063565b90506020020160208101906108b49190614546565b6001600160a01b031614610a1857806001600160a01b03168787878181106108de576108de615063565b90506020020160208101906108f39190614546565b6001600160a01b0316632dc7d74c6040518163ffffffff1660e01b81526004016020604051808303816000875af1158015610932573d6000803e3d6000fd5b505050506040513d601f19601f8201168201806040525081019061095691906150af565b6001600160a01b03161461097d5760405163c1ab6dc160e01b815260040160405180910390fd5b806001600160a01b031663095ea7b388888881811061099e5761099e615063565b90506020020160208101906109b39190614546565b6000196040518363ffffffff1660e01b81526004016109d3929190615079565b6020604051808303816000875af11580156109f2573d6000803e3d6000fd5b505050506040513d601f19601f82011682018060405250810190610a169190615092565b505b868686818110610a2a57610a2a615063565b9050602002016020810190610a3f9190614546565b6001600160a01b0316816001600160a01b03167f68bfc93bebf089f076e093803a9da9d10f6f78e2bde5f83b50b249ed5333442460405160405180910390a3505050508080610a8d906150e2565b9150506106d8565b50505050505050565b60005b8751811015610c0257878181518110610abc57610abc615063565b60200260200101516040015115610beb57878181518110610adf57610adf615063565b6020026020010151600001516001600160a01b031663f51cc7dd898381518110610b0b57610b0b615063565b6020026020010151602001513060018c8681518110610b2c57610b2c615063565b6020026020010151606001518d8781518110610b4a57610b4a615063565b6020026020010151608001518e8881518110610b6857610b68615063565b602002602001015160a001518f8981518110610b8657610b86615063565b602002602001015160c001516040518863ffffffff1660e01b8152600401610bb497969594939291906150fd565b600060405180830381600087803b158015610bce57600080fd5b505af1158015610be2573d6000803e3d6000fd5b50505050610bf0565b610c02565b80610bfa816150e2565b915050610aa1565b50610c11868686868686611563565b60005b8751811015610d6b57878181518110610c2f57610c2f615063565b602002602001015160400151610d5957878181518110610c5157610c51615063565b6020026020010151600001516001600160a01b031663f51cc7dd898381518110610c7d57610c7d615063565b6020026020010151602001513060008c8681518110610c9e57610c9e615063565b6020026020010151606001518d8781518110610cbc57610cbc615063565b6020026020010151608001518e8881518110610cda57610cda615063565b602002602001015160a001518f8981518110610cf857610cf8615063565b602002602001015160c001516040518863ffffffff1660e01b8152600401610d2697969594939291906150fd565b600060405180830381600087803b158015610d4057600080fd5b505af1158015610d54573d6000803e3d6000fd5b505050505b80610d63816150e2565b915050610c14565b5050505050505050565b6037546001600160a01b03163314801590610d9b57506038546001600160a01b03163314155b15610db957604051632678482f60e21b815260040160405180910390fd5b8285141580610dc85750808314155b15610de6576040516346282e8d60e01b815260040160405180910390fd5b610dee6144c7565b6000805b87811015611123576000858583818110610e0e57610e0e615063565b9050602002016020810190610e239190614546565b6001600160a01b03161415610e9157610e88898983818110610e4757610e47615063565b9050602002016020810190610e5c9190614546565b888884818110610e6e57610e6e615063565b9050602002016020810190610e839190614546565b612654565b93509150610f51565b848482818110610ea357610ea3615063565b9050602002016020810190610eb89190614546565b6001600160a01b0381166000908152603460205260408120919350888884818110610ee557610ee5615063565b9050602002016020810190610efa9190614546565b6001600160a01b039081168252602080830193909352604091820160002082516080810184528154831681526001820154831694810194909452600281015482169284019290925260039091015416606082015292505b6001600160a01b038216600090815260346020526040812090888884818110610f7c57610f7c615063565b9050602002016020810190610f919190614546565b6001600160a01b03168152602081019190915260400160002080546001600160a01b03199081168255600182018054821690556002820180548216905560039091018054909116905561100c878783818110610fef57610fef615063565b90506020020160208101906110049190614546565b836000612705565b61104287878381811061102157611021615063565b90506020020160208101906110369190614546565b84602001516000612705565b60608301516001600160a01b0316156110d15782604001516001600160a01b031663095ea7b3846060015160006040518363ffffffff1660e01b815260040161108c929190615079565b6020604051808303816000875af11580156110ab573d6000803e3d6000fd5b505050506040513d601f19601f820116820180604052508101906110cf9190615092565b505b82606001516001600160a01b031683600001516001600160a01b0316836001600160a01b0316600080516020615cf283398151915260405160405180910390a48061111b816150e2565b915050610df2565b505050505050505050565b6037546001600160a01b0316331480159061115457506038546001600160a01b03163314155b1561117257604051632678482f60e21b815260040160405180910390fd5b6001600160a01b0380821660009081526033602052604080822080546001600160a01b03198116909155905192169182917f3302a1b37f04242bb55603f5449e7ecd690a35eef08ba1353c48c20e2aae9cda91a25050565b6037546001600160a01b031633148015906111f057506038546001600160a01b03163314155b1561120e57604051632678482f60e21b815260040160405180910390fd5b6001600160a01b0382166112355760405163d92e233d60e01b815260040160405180910390fd5b6038546001600160a01b038381169116148061125e57506037546001600160a01b038381169116145b1561127c5760405163e6c4247b60e01b815260040160405180910390fd5b80156112a257603780546001600160a01b0319166001600160a01b0384161790556112be565b603880546001600160a01b0319166001600160a01b0384161790555b816001600160a01b03167f4526a942aaed9ea92b149506bb00ccf0f9267091de10444718cf9b09e05dc680826040516112fb911515815260200190565b60405180910390a25050565b6037546001600160a01b0316331480159061132d57506038546001600160a01b03163314155b1561134b57604051632678482f60e21b815260040160405180910390fd5b828514158061135a5750808514155b15611378576040516346282e8d60e01b815260040160405180910390fd5b60005b85811015610a955760006033600089898581811061139b5761139b615063565b90506020020160208101906113b09190614546565b6001600160a01b039081168252602082019290925260400160002054169050611426818787858181106113e5576113e5615063565b90506020020160208101906113fa9190614546565b86868681811061140c5761140c615063565b90506020020160208101906114219190614546565b6127cc565b5080611431816150e2565b91505061137b565b61144e6001600160a01b038216333087612a62565b61145f858585600086866000612a9a565b5050505050565b6037546001600160a01b0316331480159061148c57506038546001600160a01b03163314155b156114aa57604051632678482f60e21b815260040160405180910390fd5b84831415806114b95750848114155b156114d7576040516346282e8d60e01b815260040160405180910390fd5b60005b85811015610a95576115518787838181106114f7576114f7615063565b905060200201602081019061150c9190614546565b86868481811061151e5761151e615063565b90506020020160208101906115339190614546565b85858581811061154557611545615063565b90506020020135612705565b8061155b816150e2565b9150506114da565b60005b86518110156116ea5786818151811061158157611581615063565b6020026020010151600001516001600160a01b031663d505accf8883815181106115ad576115ad615063565b602002602001015160200151308a85815181106115cc576115cc615063565b6020026020010151604001518b86815181106115ea576115ea615063565b6020026020010151606001518c878151811061160857611608615063565b6020026020010151608001518d888151811061162657611626615063565b602002602001015160a001518e898151811061164457611644615063565b602090810291909101015160c001516040516001600160e01b031960e08a901b1681526001600160a01b0397881660048201529690951660248701526044860193909352606485019190915260ff16608484015260a483015260c482015260e401600060405180830381600087803b1580156116bf57600080fd5b505af11580156116d3573d6000803e3d6000fd5b5050505080806116e2906150e2565b915050611566565b506116f36144ee565b6116fb6144ee565b60005b87518110156117b95761176133308a848151811061171e5761171e615063565b6020026020010151602001518b858151811061173c5761173c615063565b6020026020010151600001516001600160a01b0316612a62909392919063ffffffff16565b6117a783838a848151811061177857611778615063565b6020026020010151600001518b858151811061179657611796615063565b602002602001015160200151612b2a565b806117b1816150e2565b9150506116fe565b5060005b86518110156118a45760006118668883815181106117dd576117dd615063565b6020026020010151600001518984815181106117fb576117fb615063565b6020026020010151604001518a858151811061181957611819615063565b6020026020010151606001518b868151811061183757611837615063565b602002602001015160a001518c878151811061185557611855615063565b602002602001015160800151612bb5565b905061189184848a858151811061187f5761187f615063565b60200260200101516020015184612b2a565b508061189c816150e2565b9150506117bd565b5060005b855181101561236c5760008682815181106118c5576118c5615063565b602002602001015160098111156118de576118de61513e565b1415611ab55760008060008060008060008b8b8981811061190157611901615063565b90506020028101906119139190615154565b81019061192091906151a5565b965096509650965096509650965060007331429d1856ad1377a8a0079410b297e1a9e214c26001600160a01b03166370a08231896040518263ffffffff1660e01b8152600401611970919061451a565b602060405180830381865afa15801561198d573d6000803e3d6000fd5b505050506040513d601f19601f820116820180604052508101906119b1919061527c565b90506119c1888787878787612da1565b8615611aa8576040516370a0823160e01b815281907331429d1856ad1377a8a0079410b297e1a9e214c2906370a0823190611a00908c9060040161451a565b602060405180830381865afa158015611a1d573d6000803e3d6000fd5b505050506040513d601f19601f82011682018060405250810190611a41919061527c565b611a4b9190615295565b9050633b9aca00611a5c88836152ac565b611a6691906152cb565b9050611a887331429d1856ad1377a8a0079410b297e1a9e214c2333084612a62565b611aa88b8b7331429d1856ad1377a8a0079410b297e1a9e214c284612b2a565b505050505050505061235a565b6001868281518110611ac957611ac9615063565b60200260200101516009811115611ae257611ae261513e565b1415611b5c576000806000878785818110611aff57611aff615063565b9050602002810190611b119190615154565b810190611b1e91906152ed565b925092509250600080611b32858585612f72565b90925090506001600160a01b03811615611b5257611b5288888385612b2a565b505050505061235a565b6008868281518110611b7057611b70615063565b60200260200101516009811115611b8957611b8961513e565b1415611bfa57600080868684818110611ba457611ba4615063565b9050602002810190611bb69190615154565b810190611bc39190615338565b91509150611be78186867331429d1856ad1377a8a0079410b297e1a9e214c2613079565b9050611bf3828261312c565b505061235a565b6002868281518110611c0e57611c0e615063565b60200260200101516009811115611c2757611c2761513e565b1415611c8a576000806000806000898987818110611c4757611c47615063565b9050602002810190611c599190615154565b810190611c669190615364565b94509450945094509450611c7c84898986613079565b9350611b528585848461319b565b6005868281518110611c9e57611c9e615063565b60200260200101516009811115611cb757611cb761513e565b1415611d475760008060008060008060008b8b89818110611cda57611cda615063565b9050602002810190611cec9190615154565b810190611cf991906153be565b9650965096509650965096509650611d13868b8b86613079565b9550611d2487878787878787613201565b90965090508515611d3b57611d3b8a8a8389612b2a565b5050505050505061235a565b6003868281518110611d5b57611d5b615063565b60200260200101516009811115611d7457611d7461513e565b1415611de8576000806000806000898987818110611d9457611d94615063565b9050602002810190611da69190615154565b810190611db3919061544b565b94509450945094509450611dc985898984613079565b9450611dd78585858561340c565b9095509150611b5288888488612b2a565b6004868281518110611dfc57611dfc615063565b60200260200101516009811115611e1557611e1561513e565b1415611e825760008060008060008060008b8b89818110611e3857611e38615063565b9050602002810190611e4a9190615154565b810190611e579190615495565b9650965096509650965096509650611e71868b8b85613079565b9550611d3b87878787878787612a9a565b6006868281518110611e9657611e96615063565b60200260200101516009811115611eaf57611eaf61513e565b1415611f2e576000806000806000806000808c8c8a818110611ed357611ed3615063565b9050602002810190611ee59190615154565b810190611ef291906154d9565b97509750975097509750975097509750611f0e878c8c84613079565b9650611f208888888888888888613608565b50505050505050505061235a565b6007868281518110611f4257611f42615063565b60200260200101516009811115611f5b57611f5b61513e565b1415611fbf576000806000806000898987818110611f7b57611f7b615063565b9050602002810190611f8d9190615154565b810190611f9a919061555e565b94509450945094509450611fb085898984613079565b9450611b5285858585856136b9565b6009868281518110611fd357611fd3615063565b60200260200101516009811115611fec57611fec61513e565b141561235a576000806000806000806000808c8c8a81811061201057612010615063565b90506020028101906120229190615154565b81019061202f9190615677565b9750975097509750975097509750975061204a838388613730565b6120578887600019612705565b600080600083511115612144576040516370a0823160e01b81526001600160a01b038a16906370a082319061209090309060040161451a565b602060405180830381865afa1580156120ad573d6000803e3d6000fd5b505050506040513d601f19601f820116820180604052508101906120d1919061527c565b6040516370a0823160e01b81529092506001600160a01b038b16906370a082319061210090309060040161451a565b602060405180830381865afa15801561211d573d6000803e3d6000fd5b505050506040513d601f19601f82011682018060405250810190612141919061527c565b90505b60006121548987878b8b89613a94565b90506121628b8a6000612705565b83511561225b576040516370a0823160e01b81526001600160a01b038c16906370a082319061219590309060040161451a565b602060405180830381865afa1580156121b2573d6000803e3d6000fd5b505050506040513d601f19601f820116820180604052508101906121d6919061527c565b604080830191909152516370a0823160e01b81526001600160a01b038b16906370a082319061220990309060040161451a565b602060405180830381865afa158015612226573d6000803e3d6000fd5b505050506040513d601f19601f8201168201806040525081019061224a919061527c565b815260608101829052602081018390525b8060400151816060015111156122ba5760006122778f8d613b43565b90508160400151826060015161228d9190615295565b8e82600a811061229f5761229f615063565b602002018181516122b09190615295565b9052506123089050565b806040015181606001511080156122e457506001600160a01b0388163014806122e4575060008451115b15612308576123088e8e8d846060015185604001516123039190615295565b612b2a565b8051602082015110801561232f57506001600160a01b03881630148061232f575060008451115b1561234e5761234e8e8e8c846020015185600001516123039190615295565b50505050505050505050505b80612364816150e2565b9150506118a8565b5060005b600a8110156111235760008282600a811061238d5761238d615063565b602002015111156123da576123da338383600a81106123ae576123ae615063565b60200201518584600a81106123c5576123c5615063565b60200201516001600160a01b031691906125f9565b806123e4816150e2565b915050612370565b61243d848484600186516001600160401b0381111561240d5761240d614681565b604051908082528060200260200182016040528015612436578160200160208202803683370190505b5086612da1565b50505050565b6037546001600160a01b0316331480159061246957506038546001600160a01b03163314155b1561248757604051632678482f60e21b815260040160405180910390fd5b6001600160a01b0382166124ae5760405163d92e233d60e01b815260040160405180910390fd5b6001600160a01b0382811660009081526033602052604090205416156124e75760405163f411c32760e01b815260040160405180910390fd5b816001600160a01b0316816001600160a01b031663ee565a636040518163ffffffff1660e01b81526004016020604051808303816000875af1158015612531573d6000803e3d6000fd5b505050506040513d601f19601f8201168201806040525081019061255591906150af565b6001600160a01b03161461257c5760405163c1ab6dc160e01b815260040160405180910390fd5b6001600160a01b0382811660009081526033602052604080822080546001600160a01b0319169385169384179055517f3db297c09c19972ba6a701ff373ab97e21ff1e4992e863c7abe44e9b2fed08479190a25050565b61145f858585600086866000613bce565b61145f85858560008686612da1565b3b151590565b61264f8363a9059cbb60e01b8484604051602401612618929190615079565b60408051601f198184030181529190526020810180516001600160e01b03166001600160e01b031990931692909217909152613c2c565b505050565b600061265e6144c7565b50506001600160a01b038083166000908152603360209081526040808320548416808452603483528184208686168552835292819020815160808101835281548616815260018201548616938101939093526002810154851691830191909152600301549092166060830152908115806126e0575080516001600160a01b0316155b156126fe5760405163d92e233d60e01b815260040160405180910390fd5b9250929050565b604051636eb1769f60e11b81526000906001600160a01b0385169063dd62ed3e906127369030908790600401615752565b602060405180830381865afa158015612753573d6000803e3d6000fd5b505050506040513d601f19601f82011682018060405250810190612777919061527c565b9050818110156127a5576127a08361278f8385615295565b6001600160a01b0387169190613d03565b61243d565b8181111561243d5761243d836127bb8484615295565b6001600160a01b0387169190613da0565b6000806000856001600160a01b031663ba8b7223866040518263ffffffff1660e01b81526004016127fd919061451a565b600060405180830381865afa15801561281a573d6000803e3d6000fd5b505050506040513d6000823e601f3d908101601f1916820160405261284291908101906158dc565b5050506001600160a01b03808d166000908152603460209081526040808320848b16845290915290208054979a50959850939650939490921615925061289e9150505760405163f411c32760e01b815260040160405180910390fd5b80546001600160a01b038088166001600160a01b0319928316178355600183018054858316908416179055600283018054868316931692909217909155851615612a0757846001600160a01b0316632dc7d74c6040518163ffffffff1660e01b81526004016020604051808303816000875af1158015612922573d6000803e3d6000fd5b505050506040513d601f19601f8201168201806040525081019061294691906150af565b6001600160a01b0316836001600160a01b0316146129775760405163c1ab6dc160e01b815260040160405180910390fd5b6003810180546001600160a01b0319166001600160a01b038781169190911790915560405163095ea7b360e01b81529084169063095ea7b3906129c290889060001990600401615079565b6020604051808303816000875af11580156129e1573d6000803e3d6000fd5b505050506040513d601f19601f82011682018060405250810190612a059190615092565b505b612a148488600019612705565b612a218483600019612705565b846001600160a01b0316866001600160a01b0316886001600160a01b0316600080516020615cf283398151915260405160405180910390a450505050505050565b6040516001600160a01b038085166024830152831660448201526064810182905261243d9085906323b872dd60e01b90608401612618565b6000612aa885858585613e9c565b6040516303a7722360e11b8152600481018a90526001600160a01b038b811660248301528083166044830152606482018a905291945091925082169063074ee446906084015b600060405180830381600087803b158015612b0857600080fd5b505af1158015612b1c573d6000803e3d6000fd5b505050505050505050505050565b6000612b368584613b43565b905060008582600a8110612b4c57612b4c615063565b60200201516001600160a01b03161415612b8757828582600a8110612b7357612b73615063565b6001600160a01b0390921660209290920201525b818482600a8110612b9a57612b9a615063565b60200201818151612bab9190615a18565b9052505050505050565b6000844710612d73576001600160a01b03861673c02aaa39b223fe8d0a0e5c4f27ead9083c756cc21415612c505773c02aaa39b223fe8d0a0e5c4f27ead9083c756cc26001600160a01b031663d0e30db0866040518263ffffffff1660e01b81526004016000604051808303818588803b158015612c3257600080fd5b505af1158015612c46573d6000803e3d6000fd5b5050505050612d88565b6001600160a01b038616737f39c581f595b53c5cb19bd0b3f8da6c935e2ca01415612d6e57604051631920845160e01b81526004810186905260009073ae7ab96520de3a18e5e111b5eaab095312d7fe8490631920845190602401602060405180830381865afa158015612cc8573d6000803e3d6000fd5b505050506040513d601f19601f82011682018060405250810190612cec919061527c565b9050600080737f39c581f595b53c5cb19bd0b3f8da6c935e2ca06001600160a01b03168860405160006040518083038185875af1925050503d8060008114612d50576040519150601f19603f3d011682016040523d82523d6000602084013e612d55565b606091505b509150915081612d6857612d6881613ed3565b50909550505b612d88565b612d886001600160a01b038716333088612a62565b612d958686868686613efb565b90505b95945050505050565b83518251141580612db457508351815114155b15612dd2576040516346282e8d60e01b815260040160405180910390fd5b60005b8551811015612e6857858181518110612df057612df0615063565b60200260200101516001600160a01b03166384e9bd7e886040518263ffffffff1660e01b8152600401612e23919061451a565b600060405180830381600087803b158015612e3d57600080fd5b505af1158015612e51573d6000803e3d6000fd5b505050508080612e60906150e2565b915050612dd5565b5060005b8451811015610a955760008415612e9e57828281518110612e8f57612e8f615063565b60200260200101519050612ee5565b6000612edc858481518110612eb557612eb5615063565b6020026020010151858581518110612ecf57612ecf615063565b6020026020010151612654565b60200151925050505b806001600160a01b0316631c4b774b878481518110612f0657612f06615063565b60200260200101516040518263ffffffff1660e01b8152600401612f2c91815260200190565b600060405180830381600087803b158015612f4657600080fd5b505af1158015612f5a573d6000803e3d6000fd5b50505050508080612f6a906150e2565b915050612e6c565b600080836001600160a01b0316631e83409a866040518263ffffffff1660e01b8152600401612fa1919061451a565b6020604051808303816000875af1158015612fc0573d6000803e3d6000fd5b505050506040513d601f19601f82011682018060405250810190612fe4919061527c565b9150821561306c57836001600160a01b031663fc0c546a6040518163ffffffff1660e01b81526004016020604051808303816000875af115801561302c573d6000803e3d6000fd5b505050506040513d601f19601f8201168201806040525081019061305091906150af565b90506130676001600160a01b038216333085612a62565b613071565b600091505b935093915050565b6000806130868584613b43565b905060008582600a811061309c5761309c615063565b60200201516001600160a01b031614156130c957604051631d79b70560e11b815260040160405180910390fd5b633b9aca008482600a81106130e0576130e0615063565b60200201516130ef90886152ac565b6130f991906152cb565b9150818482600a811061310e5761310e615063565b6020020181815161311f9190615295565b9052509095945050505050565b604051631d23139f60e11b8152730c462dbb9ec8cd1630f1728b2cfd2769d09f0dd590633a46273e906131659085908590600401615079565b600060405180830381600087803b15801561317f57600080fd5b505af1158015613193573d6000803e3d6000fd5b505050505050565b6040516383df674760e01b8152600481018490526001600160a01b03858116602483015282151560448301528316906383df674790606401600060405180830381600087803b1580156131ed57600080fd5b505af1158015610d6b573d6000803e3d6000fd5b60008060008715613213575085613236565b61321b6144c7565b6132258888612654565b805160409091015190975095509150505b6001600160a01b038a16301415613399576040516370a0823160e01b81526001600160a01b038516906370a082319061327390309060040161451a565b602060405180830381865afa158015613290573d6000803e3d6000fd5b505050506040513d601f19601f820116820180604052508101906132b4919061527c565b604051630b8b4a6160e21b81529093506001600160a01b03821690632e2d2984906132e7908c9030908a90600401615a30565b600060405180830381600087803b15801561330157600080fd5b505af1158015613315573d6000803e3d6000fd5b50506040516370a0823160e01b81528592506001600160a01b03871691506370a082319061334790309060040161451a565b602060405180830381865afa158015613364573d6000803e3d6000fd5b505050506040513d601f19601f82011682018060405250810190613388919061527c565b6133929190615295565b92506133fc565b604051630b8b4a6160e21b81526001600160a01b03821690632e2d2984906133c9908c908e908a90600401615a30565b600060405180830381600087803b1580156133e357600080fd5b505af11580156133f7573d6000803e3d6000fd5b505050505b5082905097509795505050505050565b600080600080861561348757859150849050806001600160a01b031663fc0c546a6040518163ffffffff1660e01b8152600401602060405180830381865afa15801561345c573d6000803e3d6000fd5b505050506040513d601f19601f8201168201806040525081019061348091906150af565b94506134a1565b61348f6144c7565b6134998787612654565b519093509150505b6040516370a0823160e01b81526001600160a01b038616906370a08231906134cd90309060040161451a565b602060405180830381865afa1580156134ea573d6000803e3d6000fd5b505050506040513d601f19601f8201168201806040525081019061350e919061527c565b60405163047c207560e31b8152600481018a9052306024820181905260448201526001600160a01b038381166064830152919550908316906323e103a890608401600060405180830381600087803b15801561356957600080fd5b505af115801561357d573d6000803e3d6000fd5b50506040516370a0823160e01b81528692506001600160a01b03881691506370a08231906135af90309060040161451a565b602060405180830381865afa1580156135cc573d6000803e3d6000fd5b505050506040513d601f19601f820116820180604052508101906135f0919061527c565b6135fa9190615295565b989497509395505050505050565b60008361362457600061361b8484612654565b60200151945050505b60405163a62b2a3d60e01b81526001600160a01b038a81166004830152602482018a905260448201899052606482018890526084820187905284169063a62b2a3d9060a4016020604051808303816000875af1158015613688573d6000803e3d6000fd5b505050506040513d601f19601f820116820180604052508101906136ac919061527c565b9998505050505050505050565b826136d35760006136ca8383612654565b60200151935050505b6040516324d83b7960e01b815260048101859052602481018690526001600160a01b038316906324d83b7990604401600060405180830381600087803b15801561371c57600080fd5b505af1158015611123573d6000803e3d6000fd5b600a835110613752576040516346282e8d60e01b815260040160405180910390fd5b61375a6144ee565b60008080805b8751811015610d6b5760008089838151811061377e5761377e615063565b602002602001015160078111156137975761379761513e565b14156137a7576001945050613a82565b60038983815181106137bb576137bb615063565b602002602001015160078111156137d4576137d461513e565b148061380a575060058983815181106137ef576137ef615063565b602002602001015160078111156138085761380861513e565b145b156138445787828151811061382157613821615063565b602002602001015180602001905181019061383c9190615a4f565b50905061391d565b600189838151811061385857613858615063565b602002602001015160078111156138715761387161513e565b14156138ab5787828151811061388957613889615063565b60200260200101518060200190518101906138a4919061527c565b905061391d565b60068983815181106138bf576138bf615063565b602002602001015160078111156138d8576138d861513e565b1415613917578782815181106138f0576138f0615063565b602002602001015180602001905181019061390b9190615a73565b5091925061391d915050565b50613a82565b8061399b57841561392e5750613a82565b8361399857866001600160a01b0316633c2e941b6040518163ffffffff1660e01b8152600401602060405180830381865afa158015613971573d6000803e3d6000fd5b505050506040513d601f19601f82011682018060405250810190613995919061527c565b93505b50825b60005b838110156139ce57818782600a81106139b9576139b9615063565b505050806139c6816150e2565b91505061399e565b5060405163430c208160e01b81526001600160a01b0388169063430c2081906139fd9033908590600401615079565b602060405180830381865afa158015613a1a573d6000803e3d6000fd5b505050506040513d601f19601f82011682018060405250810190613a3e9190615092565b613a5b5760405163390cdd9b60e21b815260040160405180910390fd5b808684600a8110613a6e57613a6e615063565b6020020152613a7e600184615a18565b9250505b80613a8c816150e2565b915050613760565b613abf6040518060800160405280600081526020016000815260200160008152602001600081525090565b604051631bd1f8d360e31b81526001600160a01b0388169063de8fc69890613af5908990899033908a908a908a90600401615b5e565b6080604051808303816000875af1158015613b14573d6000803e3d6000fd5b505050506040513d601f19601f82011682018060405250810190613b389190615c05565b979650505050505050565b6000805b600a81108015613b77575060008482600a8110613b6657613b66615063565b60200201516001600160a01b031614155b15613bc557826001600160a01b03168482600a8110613b9857613b98615063565b60200201516001600160a01b03161415613bb3579050613bc8565b80613bbd816150e2565b915050613b47565b90505b92915050565b6000613bdc85858585613e9c565b604051633688210b60e11b8152600481018a90523360248201526001600160a01b038b811660448301528083166064830152608482018a9052919450919250821690636d1042169060a401612aee565b6000613c81826040518060400160405280602081526020017f5361666545524332303a206c6f772d6c6576656c2063616c6c206661696c6564815250856001600160a01b0316613fac9092919063ffffffff16565b80519091501561264f5780806020019051810190613c9f9190615092565b61264f5760405162461bcd60e51b815260206004820152602a60248201527f5361666545524332303a204552433230206f7065726174696f6e20646964206e6044820152691bdd081cdd58d8d9595960b21b60648201526084015b60405180910390fd5b600081846001600160a01b031663dd62ed3e30866040518363ffffffff1660e01b8152600401613d34929190615752565b602060405180830381865afa158015613d51573d6000803e3d6000fd5b505050506040513d601f19601f82011682018060405250810190613d75919061527c565b613d7f9190615a18565b905061243d8463095ea7b360e01b8584604051602401612618929190615079565b604051636eb1769f60e11b81526000906001600160a01b0385169063dd62ed3e90613dd19030908790600401615752565b602060405180830381865afa158015613dee573d6000803e3d6000fd5b505050506040513d601f19601f82011682018060405250810190613e12919061527c565b905081811015613e765760405162461bcd60e51b815260206004820152602960248201527f5361666545524332303a2064656372656173656420616c6c6f77616e63652062604482015268656c6f77207a65726f60b81b6064820152608401613cfa565b6040518282039061145f90869063095ea7b360e01b906126189088908690602401615079565b60008060008615613eae575084613ec7565b613eb66144c7565b613ec08787612654565b5195509150505b96929550919350505050565b805115613ee257805181602001fd5b60405163ee418e3760e01b815260040160405180910390fd5b600080836003811115613f1057613f1061513e565b1415613f2957613f2286868685613fc5565b9050612d98565b6001836003811115613f3d57613f3d61513e565b1415613f4e57613f228685846140bb565b6002836003811115613f6257613f6261513e565b1415613f7257613f2285856141d2565b6003836003811115613f8657613f8661513e565b1415613f93575083612d98565b60405163574b16a760e11b815260040160405180910390fd5b6060613fbb848460008561426e565b90505b9392505050565b6001600160a01b03841660009081526035602052604081205460ff1661402557603954614001906001600160a01b03878116911660001961438b565b6001600160a01b0385166000908152603560205260409020805460ff191660011790555b6039546040805160a08101825284815230602082015242818301526060810187905260808101869052905163c04b8d5960e01b81526001600160a01b039092169163c04b8d599161407891600401615c6a565b6020604051808303816000875af1158015614097573d6000803e3d6000fd5b505050506040513d601f19601f82011682018060405250810190612d98919061527c565b6001600160a01b03831660009081526036602052604081205460ff1661411b57603a546140f7906001600160a01b03868116911660001961438b565b6001600160a01b0384166000908152603660205260409020805460ff191660011790555b603a5460405160009182916001600160a01b039091169061413d908690615cc2565b6000604051808303816000865af19150503d806000811461417a576040519150601f19603f3d011682016040523d82523d6000602084013e61417f565b606091505b5091509150816141925761419281613ed3565b808060200190518101906141a6919061527c565b9250848310156141c95760405163a1aabbe160e01b815260040160405180910390fd5b50509392505050565b604051630ea598cb60e41b815260048101839052600090737f39c581f595b53c5cb19bd0b3f8da6c935e2ca09063ea598cb0906024016020604051808303816000875af1158015614227573d6000803e3d6000fd5b505050506040513d601f19601f8201168201806040525081019061424b919061527c565b905081811015613bc85760405163a1aabbe160e01b815260040160405180910390fd5b6060824710156142cf5760405162461bcd60e51b815260206004820152602660248201527f416464726573733a20696e73756666696369656e742062616c616e636520666f6044820152651c8818d85b1b60d21b6064820152608401613cfa565b843b61431d5760405162461bcd60e51b815260206004820152601d60248201527f416464726573733a2063616c6c20746f206e6f6e2d636f6e74726163740000006044820152606401613cfa565b600080866001600160a01b031685876040516143399190615cc2565b60006040518083038185875af1925050503d8060008114614376576040519150601f19603f3d011682016040523d82523d6000602084013e61437b565b606091505b5091509150613b3882828661448e565b8015806144045750604051636eb1769f60e11b81526001600160a01b0384169063dd62ed3e906143c19030908690600401615752565b602060405180830381865afa1580156143de573d6000803e3d6000fd5b505050506040513d601f19601f82011682018060405250810190614402919061527c565b155b61446f5760405162461bcd60e51b815260206004820152603660248201527f5361666545524332303a20617070726f76652066726f6d206e6f6e2d7a65726f60448201527520746f206e6f6e2d7a65726f20616c6c6f77616e636560501b6064820152608401613cfa565b61264f8363095ea7b360e01b8484604051602401612618929190615079565b6060831561449d575081613fbe565b8251156144ad5782518084602001fd5b8160405162461bcd60e51b8152600401613cfa9190615cde565b60408051608081018252600080825260208201819052918101829052606081019190915290565b604051806101400160405280600a906020820280368337509192915050565b6001600160a01b03169052565b6001600160a01b0391909116815260200190565b6001600160a01b038116811461454357600080fd5b50565b60006020828403121561455857600080fd5b8135613bc58161452e565b60008060006060848603121561457857600080fd5b83356145838161452e565b925060208401356145938161452e565b929592945050506040919091013590565b60008083601f8401126145b657600080fd5b5081356001600160401b038111156145cd57600080fd5b6020830191508360208260051b85010111156126fe57600080fd5b6000806000806000806060878903121561460157600080fd5b86356001600160401b038082111561461857600080fd5b6146248a838b016145a4565b9098509650602089013591508082111561463d57600080fd5b6146498a838b016145a4565b9096509450604089013591508082111561466257600080fd5b5061466f89828a016145a4565b979a9699509497509295939492505050565b634e487b7160e01b600052604160045260246000fd5b60405160e081016001600160401b03811182821017156146b9576146b9614681565b60405290565b604080519081016001600160401b03811182821017156146b9576146b9614681565b60405160c081016001600160401b03811182821017156146b9576146b9614681565b60405161010081016001600160401b03811182821017156146b9576146b9614681565b604051601f8201601f191681016001600160401b038111828210171561474e5761474e614681565b604052919050565b60006001600160401b0382111561476f5761476f614681565b5060051b60200190565b801515811461454357600080fd5b803561479281614779565b919050565b803560ff8116811461479257600080fd5b600082601f8301126147b957600080fd5b813560206147ce6147c983614756565b614726565b82815260e092830285018201928282019190878511156147ed57600080fd5b8387015b8581101561487e5781818a0312156148095760008081fd5b614811614697565b813561481c8161452e565b81528186013561482b8161452e565b8187015260408281013561483e81614779565b90820152606082810135908201526080614859818401614797565b9082015260a0828101359082015260c0808301359082015284529284019281016147f1565b5090979650505050505050565b600082601f83011261489c57600080fd5b813560206148ac6147c983614756565b82815260e092830285018201928282019190878511156148cb57600080fd5b8387015b8581101561487e5781818a0312156148e75760008081fd5b6148ef614697565b81356148fa8161452e565b8152818601356149098161452e565b818701526040828101359082015260608083013590820152608061492e818401614797565b9082015260a0828101359082015260c0808301359082015284529284019281016148cf565b600082601f83011261496457600080fd5b813560206149746147c983614756565b82815260069290921b8401810191818101908684111561499357600080fd5b8286015b848110156149db57604081890312156149b05760008081fd5b6149b86146bf565b81356149c38161452e565b81528185013585820152835291830191604001614997565b509695505050505050565b600082601f8301126149f757600080fd5b81356001600160401b03811115614a1057614a10614681565b614a23601f8201601f1916602001614726565b818152846020838601011115614a3857600080fd5b816020850160208301376000918101602001919091529392505050565b600082601f830112614a6657600080fd5b81356020614a766147c983614756565b82815260059290921b84018101918181019086841115614a9557600080fd5b8286015b848110156149db5780356001600160401b0380821115614ab95760008081fd5b9088019060c0828b03601f1901811315614ad35760008081fd5b614adb6146e1565b87840135614ae88161452e565b8152604084810135614af98161452e565b808a84015250606080860135828401526080915081860135818401525060a08086013585811115614b2a5760008081fd5b614b388f8c838a01016149e6565b8484015250948301359460048610614b5257600094508485fd5b8201949094528652505050918301918301614a99565b600082601f830112614b7957600080fd5b81356020614b896147c983614756565b82815260059290921b84018101918181019086841115614ba857600080fd5b8286015b848110156149db578035600a8110614bc45760008081fd5b8352918301918301614bac565b600080600080600080600060c0888a031215614bec57600080fd5b87356001600160401b0380821115614c0357600080fd5b614c0f8b838c016147a8565b985060208a0135915080821115614c2557600080fd5b614c318b838c0161488b565b975060408a0135915080821115614c4757600080fd5b614c538b838c01614953565b965060608a0135915080821115614c6957600080fd5b614c758b838c01614a55565b955060808a0135915080821115614c8b57600080fd5b614c978b838c01614b68565b945060a08a0135915080821115614cad57600080fd5b50614cba8a828b016145a4565b989b979a50959850939692959293505050565b60008060408385031215614ce057600080fd5b8235614ceb8161452e565b91506020830135614cfb8161452e565b809150509250929050565b60008060408385031215614d1957600080fd5b8235614d248161452e565b91506020830135614cfb81614779565b600080600080600060a08688031215614d4c57600080fd5b8535614d578161452e565b945060208601359350604086013592506060860135614d758161452e565b91506080860135614d858161452e565b809150509295509295909350565b60008060008060008060a08789031215614dac57600080fd5b86356001600160401b0380821115614dc357600080fd5b614dcf8a838b0161488b565b97506020890135915080821115614de557600080fd5b614df18a838b01614953565b96506040890135915080821115614e0757600080fd5b614e138a838b01614a55565b95506060890135915080821115614e2957600080fd5b614e358a838b01614b68565b9450608089013591508082111561466257600080fd5b600082601f830112614e5c57600080fd5b81356020614e6c6147c983614756565b82815260059290921b84018101918181019086841115614e8b57600080fd5b8286015b848110156149db578035614ea28161452e565b8352918301918301614e8f565b600082601f830112614ec057600080fd5b81356020614ed06147c983614756565b82815260059290921b84018101918181019086841115614eef57600080fd5b8286015b848110156149db5780358352918301918301614ef3565b60008060008060808587031215614f2057600080fd5b8435614f2b8161452e565b935060208501356001600160401b0380821115614f4757600080fd5b614f5388838901614e4b565b94506040870135915080821115614f6957600080fd5b614f7588838901614eaf565b93506060870135915080821115614f8b57600080fd5b50614f9887828801614e4b565b91505092959194509250565b600080600080600060a08688031215614fbc57600080fd5b8535614fc78161452e565b945060208601356001600160401b0380821115614fe357600080fd5b614fef89838a01614e4b565b9550604088013591508082111561500557600080fd5b61501189838a01614eaf565b9450606088013591508082111561502757600080fd5b61503389838a01614e4b565b9350608088013591508082111561504957600080fd5b5061505688828901614e4b565b9150509295509295909350565b634e487b7160e01b600052603260045260246000fd5b6001600160a01b03929092168252602082015260400190565b6000602082840312156150a457600080fd5b8151613bc581614779565b6000602082840312156150c157600080fd5b8151613bc58161452e565b634e487b7160e01b600052601160045260246000fd5b60006000198214156150f6576150f66150cc565b5060010190565b6001600160a01b0397881681529590961660208601529215156040850152606084019190915260ff16608083015260a082015260c081019190915260e00190565b634e487b7160e01b600052602160045260246000fd5b6000808335601e1984360301811261516b57600080fd5b8301803591506001600160401b0382111561518557600080fd5b6020019150368190038213156126fe57600080fd5b80356147928161452e565b600080600080600080600060e0888a0312156151c057600080fd5b6151c98861519a565b96506020880135955060408801356001600160401b03808211156151ec57600080fd5b6151f88b838c01614e4b565b965060608a013591508082111561520e57600080fd5b61521a8b838c01614eaf565b955061522860808b01614787565b945060a08a013591508082111561523e57600080fd5b61524a8b838c01614e4b565b935060c08a013591508082111561526057600080fd5b5061526d8a828b01614e4b565b91505092959891949750929550565b60006020828403121561528e57600080fd5b5051919050565b6000828210156152a7576152a76150cc565b500390565b60008160001904831182151516156152c6576152c66150cc565b500290565b6000826152e857634e487b7160e01b600052601260045260246000fd5b500490565b60008060006060848603121561530257600080fd5b833561530d8161452e565b9250602084013561531d8161452e565b9150604084013561532d81614779565b809150509250925092565b6000806040838503121561534b57600080fd5b82356153568161452e565b946020939093013593505050565b600080600080600060a0868803121561537c57600080fd5b85356153878161452e565b945060208601359350604086013561539e8161452e565b925060608601356153ae8161452e565b91506080860135614d8581614779565b600080600080600080600060e0888a0312156153d957600080fd5b87356153e48161452e565b96506020880135955060408801356153fb81614779565b9450606088013561540b8161452e565b9350608088013561541b8161452e565b925060a088013561542b8161452e565b915060c088013561543b8161452e565b8091505092959891949750929550565b600080600080600060a0868803121561546357600080fd5b85359450602086013561547581614779565b935060408601356154858161452e565b92506060860135614d758161452e565b600080600080600080600060e0888a0312156154b057600080fd5b87356154bb8161452e565b96506020880135955060408801359450606088013561540b81614779565b600080600080600080600080610100898b0312156154f657600080fd5b88356155018161452e565b97506020890135965060408901359550606089013594506080890135935060a089013561552d81614779565b925060c089013561553d8161452e565b915060e089013561554d8161452e565b809150509295985092959890939650565b600080600080600060a0868803121561557657600080fd5b8535945060208601359350604086013561548581614779565b600082601f8301126155a057600080fd5b813560206155b06147c983614756565b82815260059290921b840181019181810190868411156155cf57600080fd5b8286015b848110156149db578035600881106155eb5760008081fd5b83529183019183016155d3565b600082601f83011261560957600080fd5b813560206156196147c983614756565b82815260059290921b8401810191818101908684111561563857600080fd5b8286015b848110156149db5780356001600160401b0381111561565b5760008081fd5b6156698986838b01016149e6565b84525091830191830161563c565b600080600080600080600080610100898b03121561569457600080fd5b61569d8961519a565b97506156ab60208a0161519a565b96506156b960408a0161519a565b95506156c760608a0161519a565b94506156d560808a0161519a565b935060a08901356001600160401b03808211156156f157600080fd5b6156fd8c838d0161558f565b945060c08b013591508082111561571357600080fd5b61571f8c838d016155f8565b935060e08b013591508082111561573557600080fd5b506157428b828c016149e6565b9150509295985092959890939650565b6001600160a01b0392831681529116602082015260400190565b80516001600160401b038116811461479257600080fd5b600082601f83011261579457600080fd5b815160206157a46147c983614756565b82815260059290921b840181019181810190868411156157c357600080fd5b8286015b848110156149db576157d88161576c565b83529183019183016157c7565b600061010082840312156157f857600080fd5b615800614703565b82519091506001600160401b038082111561581a57600080fd5b61582685838601615783565b8352602084015191508082111561583c57600080fd5b61584885838601615783565b6020840152604084015191508082111561586157600080fd5b61586d85838601615783565b6040840152606084015191508082111561588657600080fd5b5061589384828501615783565b6060830152506158a56080830161576c565b60808201526158b660a0830161576c565b60a08201526158c760c0830161576c565b60c082015260e082015160e082015292915050565b6000806000806000806000806000898b036102008112156158fc57600080fd5b8a516159078161452e565b60208c0151909a506159188161452e565b60408c01519099506159298161452e565b60608c015190985061593a8161452e565b8097505060808b0151955060a08b0151945060c08b015193506101008060df198301121561596757600080fd5b61596f614703565b60e08d01518152908c015160208201526101208c015160408201526101408c0151606082015290506159a46101608c0161576c565b60808201526159b66101808c0161576c565b60a08201526159c86101a08c0161576c565b60c08201526159da6101c08c0161576c565b60e08201526101e08b01519092506001600160401b038111156159fc57600080fd5b615a088c828d016157e5565b9150509295985092959850929598565b60008219821115615a2b57615a2b6150cc565b500190565b9283526001600160a01b03918216602084015216604082015260600190565b60008060408385031215615a6257600080fd5b505080516020909101519092909150565b60008060008060808587031215615a8957600080fd5b845193506020850151615a9b8161452e565b6040860151606090960151949790965092505050565b60005b83811015615acc578181015183820152602001615ab4565b8381111561243d5750506000910152565b60008151808452615af5816020860160208601615ab1565b601f01601f19169290920160200192915050565b600081518084526020808501808196508360051b8101915082860160005b85811015615b51578284038952615b3f848351615add565b98850198935090840190600101615b27565b5091979650505050505050565b60c0808252875190820181905260009060209060e0840190828b0184805b83811015615bb457825160088110615ba257634e487b7160e01b83526021600452602483fd5b85529385019391850191600101615b7c565b5050505083810382850152615bc9818a615b09565b915050615bd9604084018861450d565b615be6606084018761450d565b615bf3608084018661450d565b82810360a08401526136ac8185615add565b600060808284031215615c1757600080fd5b604051608081016001600160401b0381118282101715615c3957615c39614681565b8060405250825181526020830151602082015260408301516040820152606083015160608201528091505092915050565b602081526000825160a06020840152615c8660c0840182615add565b905060018060a01b0360208501511660408401526040840151606084015260608401516080840152608084015160a08401528091505092915050565b60008251615cd4818460208701615ab1565b9190910192915050565b602081526000613fbe6020830184615add56feb3c6ea40376b764923443dc6ded6f0af1b34f1109e2d22c4f499855d960eeeaea2646970667358221220addbfe3d55a3366735709b10a8d00405fe105a55704fa1412758512018727c0464736f6c634300080c0033",
  "devdoc": {
    "author": "Angle Core Team",
    "details": "Interfaces were designed for both advanced users which know the addresses of the protocol's contract, but most of the time users which only know addresses of the stablecoins and collateral types of the protocol can perform the actions they want without needing to understand what's happening under the hood",
    "kind": "dev",
    "methods": {
      "addPairs(address[],address[],address[])": {
        "params": {
          "liquidityGauges": "Addresses of liquidity gauges contract associated to sanToken",
          "poolManagers": "Addresses of the `PoolManager` contracts associated to the pair (stablecoin,collateral)",
          "stablecoins": "Addresses of the stablecoins associated to the `StableMaster` of interest"
        }
      },
      "addStableMaster(address,address)": {
        "params": {
          "stableMaster": "Address of the new `StableMaster`",
          "stablecoin": "Address of the new stablecoin"
        }
      },
      "burn(address,uint256,uint256,address,address)": {
        "params": {
          "amount": "Amount of stablecoins to use for the burn",
          "collateral": "Collateral to mint from",
          "dest": "Address to send the collateral to",
          "minCollatAmount": "Minimum collateral amount received for the tx not to revert",
          "stablecoin": "Address of the stablecoin to mint"
        }
      },
      "changeAllowance(address[],address[],uint256[])": {
        "details": "Approvals are normally given in the `addGauges` method, in the initializer and in the internal functions to process swaps with Uniswap and 1Inch",
        "params": {
          "amounts": "Amounts to allow",
          "spenders": "Addresses to allow transfer",
          "tokens": "Addresses of the tokens to allow"
        }
      },
      "claimRewards(address,address[],uint256[],address[])": {
        "details": "If the caller wants to send the rewards to another account it first needs to call `set_rewards_receiver(otherAccount)` on each `liquidityGauge`",
        "params": {
          "liquidityGauges": "Contracts to claim for",
          "perpetualIDs": "Perpetual IDs to claim rewards for",
          "perpetualManagers": "`perpetualManager` contracts for every perp to claim",
          "user": "Address to which the contract should send the rewards from gauges (not perpetuals)"
        }
      },
      "claimRewards(address,address[],uint256[],address[],address[])": {
        "details": "If the caller wants to send the rewards to another account it first needs to call `set_rewards_receiver(otherAccount)` on each `liquidityGauge`",
        "params": {
          "collaterals": "Collateral contracts linked to the perpetualsIDs or `perpetualManager`",
          "gaugeUser": "Address for which to fetch the rewards from the gauges",
          "liquidityGauges": "Gauges to claim on",
          "perpetualIDs": "Perpetual IDs to claim rewards for",
          "stablecoins": "Stablecoin contracts linked to the perpetualsIDs"
        }
      },
      "mint(address,uint256,uint256,address,address)": {
        "params": {
          "amount": "Amount of collateral to use for the mint",
          "collateral": "Collateral to mint from",
          "minStableAmount": "Minimum stablecoin minted for the tx not to revert",
          "stablecoin": "Address of the stablecoin to mint",
          "user": "Address to send the stablecoins to"
        }
      },
      "mixer((address,address,uint256,uint256,uint8,bytes32,bytes32)[],(address,uint256)[],(address,address,uint256,uint256,bytes,uint8)[],uint8[],bytes[])": {
        "details": "This function first fills the router balances via transfers and swaps. It then proceeds with each action in the order at which they are givenWith this function, users can specify paths to swap tokens to the desired token of their choice. Yet the protocol does not verify the payload given and cannot check that the swap performed by users actually gives the desired out token: in this case funds will be lost by the userFor some actions (`mint`, `deposit`, `openPerpetual`, `addToPerpetual`, `withdraw`), users are required to give a proportion of the amount of token they have brought to the router within the transaction (through a direct transfer or a swap) they want to use for the operation. If you want to use all the USDC you have brought (through an ETH -> USDC) swap to mint stablecoins for instance, you should use `BASE_PARAMS` as a proportion.The proportion that is specified for an action is a proportion of what is left. If you want to use 50% of your USDC for a `mint` and the rest for an `openPerpetual`, proportion used for the `mint` should be 50% (that is `BASE_PARAMS/2`), and proportion for the `openPerpetual` should be all that is left that is 100% (= `BASE_PARAMS`).For each action here, make sure to read the documentation of the associated internal function to know how to correctly specify parameters",
        "params": {
          "actions": "List of actions to be performed by the router (in order of execution): make sure to read for each action the associated internal function",
          "data": "Array of encoded data for each of the actions performed in this mixer. This is where the bytes-encoded parameters for a given action are stored",
          "paramsPermit": "Array of params `PermitType` used to do a 1 tx to approve the router on each token (can be done once by setting high approved amounts) which supports the `permit` standard. Users willing to interact with the contract with tokens that do not support permit should approve the contract for these tokens prior to interacting with it",
          "paramsSwap": "Array of params `ParamsSwapType` used to swap tokens",
          "paramsTransfer": "Array of params `TransferType` used to transfer tokens to the router"
        }
      },
      "mixerVaultManagerPermit((address,address,bool,uint256,uint8,bytes32,bytes32)[],(address,address,uint256,uint256,uint8,bytes32,bytes32)[],(address,uint256)[],(address,address,uint256,uint256,bytes,uint8)[],uint8[],bytes[])": {
        "details": "In `paramsPermitVaultManager`, the signatures for granting approvals must be given first before the signatures to revoke approvals",
        "params": {
          "paramsPermitVaultManager": "Parameters to sign permit to give allowance to the router for a `VaultManager` contract"
        }
      },
      "recoverERC20(address,address,uint256)": {
        "details": "If tokens are mistakenly sent to this contract, any address can take advantage of the `mixer` function below to get the funds back",
        "params": {
          "to": "Address to give tokens to",
          "tokenAddress": "Address of the token to transfer",
          "tokenAmount": "Amount of tokens to transfer"
        }
      },
      "removePairs(address[],address[],address[])": {
        "details": "In the lists, if a `stableMaster` address is null in `stableMasters` then this means that the associated `stablecoins` address (at the same index) should be non null",
        "params": {
          "collaterals": "Addresses of the collaterals",
          "stableMasters": "List of the associated `StableMaster` contracts",
          "stablecoins": "Addresses of the stablecoins"
        }
      },
      "removeStableMaster(address)": {
        "details": "Before calling this function, governor or guardian should remove first all pairs from the `mapPoolManagers[stableMaster]`. It is assumed that the governor or guardian calling this function will act correctly here, it indeed avoids storing a list of all pairs for each `StableMaster`",
        "params": {
          "stablecoin": "Address of the associated stablecoin"
        }
      },
      "setGovernorOrGuardian(address,bool)": {
        "details": "There can only be one guardian and one governor address in the router and both need to be different",
        "params": {
          "admin": "New guardian or guardian address",
          "setGovernor": "Whether to set Governor if true, or Guardian if false"
        }
      },
      "setLiquidityGauges(address[],address[],address[])": {
        "details": "If `newLiquidityGauge` is null, this means that there is no liquidity gauge for this pairThis function could be used to simply revoke the approval to a liquidity gauge",
        "params": {
          "collaterals": "Addresses of the collaterals",
          "newLiquidityGauges": "Addresses of the new liquidity gauges contract",
          "stablecoins": "Addresses of the stablecoins"
        }
      }
    },
    "title": "Angle Router",
    "version": 1
  },
  "userdoc": {
    "kind": "user",
    "methods": {
      "BASE_PARAMS()": {
        "notice": "Base used for params"
      },
      "STETH()": {
        "notice": "StETH contract"
      },
      "WSTETH()": {
        "notice": "Wrapped StETH contract"
      },
      "addPairs(address[],address[],address[])": {
        "notice": "Adds new collateral types to specific stablecoins"
      },
      "addStableMaster(address,address)": {
        "notice": "Adds a new `StableMaster`"
      },
      "burn(address,uint256,uint256,address,address)": {
        "notice": "Wrapper built on top of the `_burn` method to burn stablecoins"
      },
      "changeAllowance(address[],address[],uint256[])": {
        "notice": "Change allowance for a contract."
      },
      "claimRewards(address,address[],uint256[],address[])": {
        "notice": "Wrapper n2 (a little more gas efficient than n1) built on top of the _claimRewards function Allows to claim rewards for multiple gauges and perpetuals at once"
      },
      "claimRewards(address,address[],uint256[],address[],address[])": {
        "notice": "Wrapper n1 built on top of the _claimRewards function Allows to claim rewards for multiple gauges and perpetuals at once"
      },
      "governor()": {
        "notice": "Governor address"
      },
      "guardian()": {
        "notice": "Guardian address"
      },
      "mapPoolManagers(address,address)": {
        "notice": "Maps a `StableMaster` to a mapping of collateral token to its counterpart `PoolManager`"
      },
      "mapStableMasters(address)": {
        "notice": "Maps an agToken to its counterpart `StableMaster`"
      },
      "mint(address,uint256,uint256,address,address)": {
        "notice": "Wrapper built on top of the `_mint` method to mint stablecoins"
      },
      "mixer((address,address,uint256,uint256,uint8,bytes32,bytes32)[],(address,uint256)[],(address,address,uint256,uint256,bytes,uint8)[],uint8[],bytes[])": {
        "notice": "Allows composable calls to different functions within the protocol"
      },
      "mixerVaultManagerPermit((address,address,bool,uint256,uint8,bytes32,bytes32)[],(address,address,uint256,uint256,uint8,bytes32,bytes32)[],(address,uint256)[],(address,address,uint256,uint256,bytes,uint8)[],uint8[],bytes[])": {
        "notice": "Wrapper built on top of the mixer function to grant approval to a VaultManager contract before performing actions and then revoking this approval after these actions"
      },
      "oneInch()": {
        "notice": "Address of 1Inch router used for swaps"
      },
      "oneInchAllowedToken(address)": {
        "notice": "Whether the token was already approved on 1Inch"
      },
      "recoverERC20(address,address,uint256)": {
        "notice": "Supports recovering any tokens as the router does not own any other tokens than the one mistakenly sent"
      },
      "removePairs(address[],address[],address[])": {
        "notice": "Removes collateral types from specific `StableMaster` contracts using the address of the associated stablecoins"
      },
      "removeStableMaster(address)": {
        "notice": "Removes a `StableMaster`"
      },
      "setGovernorOrGuardian(address,bool)": {
        "notice": "Changes the guardian or the governor address"
      },
      "setLiquidityGauges(address[],address[],address[])": {
        "notice": "Sets new `liquidityGauge` contract for the associated sanTokens"
      },
      "uniAllowedToken(address)": {
        "notice": "Whether the token was already approved on Uniswap router"
      },
      "uniswapV3Router()": {
        "notice": "Address of the router used for swaps"
      }
    },
    "notice": "The `AngleRouter` contract facilitates interactions for users with the protocol. It was built to reduce the number of approvals required to users and the number of transactions needed to perform some complex actions: like deposit and stake in just one transaction",
    "version": 1
  },
  "storageLayout": {
    "storage": [
      {
        "astId": 6,
        "contract": "contracts/AngleRouter01.sol:AngleRouter",
        "label": "_initialized",
        "offset": 0,
        "slot": "0",
        "type": "t_bool"
      },
      {
        "astId": 9,
        "contract": "contracts/AngleRouter01.sol:AngleRouter",
        "label": "_initializing",
        "offset": 1,
        "slot": "0",
        "type": "t_bool"
      },
      {
        "astId": 87,
        "contract": "contracts/AngleRouter01.sol:AngleRouter",
        "label": "_status",
        "offset": 0,
        "slot": "1",
        "type": "t_uint256"
      },
      {
        "astId": 130,
        "contract": "contracts/AngleRouter01.sol:AngleRouter",
        "label": "__gap",
        "offset": 0,
        "slot": "2",
        "type": "t_array(t_uint256)49_storage"
      },
      {
        "astId": 5166,
        "contract": "contracts/AngleRouter01.sol:AngleRouter",
        "label": "mapStableMasters",
        "offset": 0,
        "slot": "51",
        "type": "t_mapping(t_contract(IERC20)3338,t_contract(IStableMasterFront)10750)"
      },
      {
        "astId": 5176,
        "contract": "contracts/AngleRouter01.sol:AngleRouter",
        "label": "mapPoolManagers",
        "offset": 0,
        "slot": "52",
        "type": "t_mapping(t_contract(IStableMasterFront)10750,t_mapping(t_contract(IERC20)3338,t_struct(Pairs)5108_storage))"
      },
      {
        "astId": 5182,
        "contract": "contracts/AngleRouter01.sol:AngleRouter",
        "label": "uniAllowedToken",
        "offset": 0,
        "slot": "53",
        "type": "t_mapping(t_contract(IERC20)3338,t_bool)"
      },
      {
        "astId": 5188,
        "contract": "contracts/AngleRouter01.sol:AngleRouter",
        "label": "oneInchAllowedToken",
        "offset": 0,
        "slot": "54",
        "type": "t_mapping(t_contract(IERC20)3338,t_bool)"
      },
      {
        "astId": 5191,
        "contract": "contracts/AngleRouter01.sol:AngleRouter",
        "label": "governor",
        "offset": 0,
        "slot": "55",
        "type": "t_address"
      },
      {
        "astId": 5194,
        "contract": "contracts/AngleRouter01.sol:AngleRouter",
        "label": "guardian",
        "offset": 0,
        "slot": "56",
        "type": "t_address"
      },
      {
        "astId": 5198,
        "contract": "contracts/AngleRouter01.sol:AngleRouter",
        "label": "uniswapV3Router",
        "offset": 0,
        "slot": "57",
        "type": "t_contract(IUniswapV3Router)11363"
      },
      {
        "astId": 5201,
        "contract": "contracts/AngleRouter01.sol:AngleRouter",
        "label": "oneInch",
        "offset": 0,
        "slot": "58",
        "type": "t_address"
      },
      {
        "astId": 5205,
        "contract": "contracts/AngleRouter01.sol:AngleRouter",
        "label": "__gap",
        "offset": 0,
        "slot": "59",
        "type": "t_array(t_uint256)50_storage"
      }
    ],
    "types": {
      "t_address": {
        "encoding": "inplace",
        "label": "address",
        "numberOfBytes": "20"
      },
      "t_array(t_uint256)49_storage": {
        "base": "t_uint256",
        "encoding": "inplace",
        "label": "uint256[49]",
        "numberOfBytes": "1568"
      },
      "t_array(t_uint256)50_storage": {
        "base": "t_uint256",
        "encoding": "inplace",
        "label": "uint256[50]",
        "numberOfBytes": "1600"
      },
      "t_bool": {
        "encoding": "inplace",
        "label": "bool",
        "numberOfBytes": "1"
      },
      "t_contract(IERC20)3338": {
        "encoding": "inplace",
        "label": "contract IERC20",
        "numberOfBytes": "20"
      },
      "t_contract(ILiquidityGauge)9783": {
        "encoding": "inplace",
        "label": "contract ILiquidityGauge",
        "numberOfBytes": "20"
      },
      "t_contract(IPerpetualManagerFrontWithClaim)10039": {
        "encoding": "inplace",
        "label": "contract IPerpetualManagerFrontWithClaim",
        "numberOfBytes": "20"
      },
      "t_contract(IPoolManager)10164": {
        "encoding": "inplace",
        "label": "contract IPoolManager",
        "numberOfBytes": "20"
      },
      "t_contract(ISanToken)10469": {
        "encoding": "inplace",
        "label": "contract ISanToken",
        "numberOfBytes": "20"
      },
      "t_contract(IStableMasterFront)10750": {
        "encoding": "inplace",
        "label": "contract IStableMasterFront",
        "numberOfBytes": "20"
      },
      "t_contract(IUniswapV3Router)11363": {
        "encoding": "inplace",
        "label": "contract IUniswapV3Router",
        "numberOfBytes": "20"
      },
      "t_mapping(t_contract(IERC20)3338,t_bool)": {
        "encoding": "mapping",
        "key": "t_contract(IERC20)3338",
        "label": "mapping(contract IERC20 => bool)",
        "numberOfBytes": "32",
        "value": "t_bool"
      },
      "t_mapping(t_contract(IERC20)3338,t_contract(IStableMasterFront)10750)": {
        "encoding": "mapping",
        "key": "t_contract(IERC20)3338",
        "label": "mapping(contract IERC20 => contract IStableMasterFront)",
        "numberOfBytes": "32",
        "value": "t_contract(IStableMasterFront)10750"
      },
      "t_mapping(t_contract(IERC20)3338,t_struct(Pairs)5108_storage)": {
        "encoding": "mapping",
        "key": "t_contract(IERC20)3338",
        "label": "mapping(contract IERC20 => struct AngleRouter.Pairs)",
        "numberOfBytes": "32",
        "value": "t_struct(Pairs)5108_storage"
      },
      "t_mapping(t_contract(IStableMasterFront)10750,t_mapping(t_contract(IERC20)3338,t_struct(Pairs)5108_storage))": {
        "encoding": "mapping",
        "key": "t_contract(IStableMasterFront)10750",
        "label": "mapping(contract IStableMasterFront => mapping(contract IERC20 => struct AngleRouter.Pairs))",
        "numberOfBytes": "32",
        "value": "t_mapping(t_contract(IERC20)3338,t_struct(Pairs)5108_storage)"
      },
      "t_struct(Pairs)5108_storage": {
        "encoding": "inplace",
        "label": "struct AngleRouter.Pairs",
        "members": [
          {
            "astId": 5098,
            "contract": "contracts/AngleRouter01.sol:AngleRouter",
            "label": "poolManager",
            "offset": 0,
            "slot": "0",
            "type": "t_contract(IPoolManager)10164"
          },
          {
            "astId": 5101,
            "contract": "contracts/AngleRouter01.sol:AngleRouter",
            "label": "perpetualManager",
            "offset": 0,
            "slot": "1",
            "type": "t_contract(IPerpetualManagerFrontWithClaim)10039"
          },
          {
            "astId": 5104,
            "contract": "contracts/AngleRouter01.sol:AngleRouter",
            "label": "sanToken",
            "offset": 0,
            "slot": "2",
            "type": "t_contract(ISanToken)10469"
          },
          {
            "astId": 5107,
            "contract": "contracts/AngleRouter01.sol:AngleRouter",
            "label": "gauge",
            "offset": 0,
            "slot": "3",
            "type": "t_contract(ILiquidityGauge)9783"
          }
        ],
        "numberOfBytes": "128"
      },
      "t_uint256": {
        "encoding": "inplace",
        "label": "uint256",
        "numberOfBytes": "32"
      }
    }
  }
}