{
  "address": "0x57BC376f632a352337B73F987AA00CF209BF00eC",
  "abi": [
    {
      "inputs": [],
      "name": "IncompatibleLengths",
      "type": "error"
    },
    {
      "inputs": [],
      "name": "InvalidParams",
      "type": "error"
    },
    {
      "inputs": [],
      "name": "InvalidReturnMessage",
      "type": "error"
    },
    {
      "inputs": [],
      "name": "NotApprovedOrOwner",
      "type": "error"
    },
    {
      "inputs": [],
      "name": "NotGovernor",
      "type": "error"
    },
    {
      "inputs": [],
      "name": "NotGovernorOrGuardian",
      "type": "error"
    },
    {
      "inputs": [],
      "name": "TooSmallAmountOut",
      "type": "error"
    },
    {
      "inputs": [],
      "name": "TransferFailed",
      "type": "error"
    },
    {
      "inputs": [],
      "name": "ZeroAddress",
      "type": "error"
    },
    {
      "anonymous": false,
      "inputs": [
        {
          "indexed": false,
          "internalType": "uint8",
          "name": "version",
          "type": "uint8"
        }
      ],
      "name": "Initialized",
      "type": "event"
    },
    {
      "inputs": [
        {
          "internalType": "contract IERC20[]",
          "name": "stablecoins",
          "type": "address[]"
        },
        {
          "internalType": "contract IPoolManager[]",
          "name": "poolManagers",
          "type": "address[]"
        },
        {
          "internalType": "contract ILiquidityGauge[]",
          "name": "liquidityGauges",
          "type": "address[]"
        },
        {
          "internalType": "bool[]",
          "name": "justLiquidityGauges",
          "type": "bool[]"
        }
      ],
      "name": "addPairs",
      "outputs": [],
      "stateMutability": "nonpayable",
      "type": "function"
    },
    {
      "inputs": [
        {
          "internalType": "contract IERC20",
          "name": "stablecoin",
          "type": "address"
        },
        {
          "internalType": "contract IStableMasterFront",
          "name": "stableMaster",
          "type": "address"
        }
      ],
      "name": "addStableMaster",
      "outputs": [],
      "stateMutability": "nonpayable",
      "type": "function"
    },
    {
      "inputs": [
        {
          "internalType": "contract IERC20[]",
          "name": "tokens",
          "type": "address[]"
        },
        {
          "internalType": "address[]",
          "name": "spenders",
          "type": "address[]"
        },
        {
          "internalType": "uint256[]",
          "name": "amounts",
          "type": "uint256[]"
        }
      ],
      "name": "changeAllowance",
      "outputs": [],
      "stateMutability": "nonpayable",
      "type": "function"
    },
    {
      "inputs": [],
      "name": "core",
      "outputs": [
        {
          "internalType": "contract ICoreBorrow",
          "name": "",
          "type": "address"
        }
      ],
      "stateMutability": "view",
      "type": "function"
    },
    {
      "inputs": [
        {
          "internalType": "address",
          "name": "_core",
          "type": "address"
        },
        {
          "internalType": "address",
          "name": "_uniswapRouter",
          "type": "address"
        },
        {
          "internalType": "address",
          "name": "_oneInch",
          "type": "address"
        },
        {
          "internalType": "contract IERC20",
          "name": "angleAddress",
          "type": "address"
        },
        {
          "internalType": "contract IERC20[]",
          "name": "stablecoins",
          "type": "address[]"
        },
        {
          "internalType": "contract IPoolManager[]",
          "name": "poolManagers",
          "type": "address[]"
        },
        {
          "internalType": "contract ILiquidityGauge[]",
          "name": "liquidityGauges",
          "type": "address[]"
        },
        {
          "internalType": "bool[]",
          "name": "justLiquidityGauges",
          "type": "bool[]"
        }
      ],
      "name": "initialize",
      "outputs": [],
      "stateMutability": "nonpayable",
      "type": "function"
    },
    {
      "inputs": [
        {
          "internalType": "address",
          "name": "_core",
          "type": "address"
        },
        {
          "internalType": "address",
          "name": "_uniswapRouter",
          "type": "address"
        },
        {
          "internalType": "address",
          "name": "_oneInch",
          "type": "address"
        }
      ],
      "name": "initializeRouter",
      "outputs": [],
      "stateMutability": "nonpayable",
      "type": "function"
    },
    {
      "inputs": [
        {
          "internalType": "contract IStableMasterFront",
          "name": "",
          "type": "address"
        },
        {
          "internalType": "contract IERC20",
          "name": "",
          "type": "address"
        }
      ],
      "name": "mapPoolManagers",
      "outputs": [
        {
          "internalType": "contract IPoolManager",
          "name": "poolManager",
          "type": "address"
        },
        {
          "internalType": "contract IPerpetualManagerFrontWithClaim",
          "name": "perpetualManager",
          "type": "address"
        },
        {
          "internalType": "contract ISanToken",
          "name": "sanToken",
          "type": "address"
        },
        {
          "internalType": "contract ILiquidityGauge",
          "name": "gauge",
          "type": "address"
        }
      ],
      "stateMutability": "view",
      "type": "function"
    },
    {
      "inputs": [
        {
          "internalType": "contract IERC20",
          "name": "",
          "type": "address"
        }
      ],
      "name": "mapStableMasters",
      "outputs": [
        {
          "internalType": "contract IStableMasterFront",
          "name": "",
          "type": "address"
        }
      ],
      "stateMutability": "view",
      "type": "function"
    },
    {
      "inputs": [
        {
          "components": [
            {
              "internalType": "address",
              "name": "token",
              "type": "address"
            },
            {
              "internalType": "address",
              "name": "owner",
              "type": "address"
            },
            {
              "internalType": "uint256",
              "name": "value",
              "type": "uint256"
            },
            {
              "internalType": "uint256",
              "name": "deadline",
              "type": "uint256"
            },
            {
              "internalType": "uint8",
              "name": "v",
              "type": "uint8"
            },
            {
              "internalType": "bytes32",
              "name": "r",
              "type": "bytes32"
            },
            {
              "internalType": "bytes32",
              "name": "s",
              "type": "bytes32"
            }
          ],
          "internalType": "struct PermitType[]",
          "name": "paramsPermit",
          "type": "tuple[]"
        },
        {
          "internalType": "enum ActionType[]",
          "name": "actions",
          "type": "uint8[]"
        },
        {
          "internalType": "bytes[]",
          "name": "data",
          "type": "bytes[]"
        }
      ],
      "name": "mixer",
      "outputs": [],
      "stateMutability": "payable",
      "type": "function"
    },
    {
      "inputs": [
        {
          "components": [
            {
              "internalType": "address",
              "name": "vaultManager",
              "type": "address"
            },
            {
              "internalType": "address",
              "name": "owner",
              "type": "address"
            },
            {
              "internalType": "bool",
              "name": "approved",
              "type": "bool"
            },
            {
              "internalType": "uint256",
              "name": "deadline",
              "type": "uint256"
            },
            {
              "internalType": "uint8",
              "name": "v",
              "type": "uint8"
            },
            {
              "internalType": "bytes32",
              "name": "r",
              "type": "bytes32"
            },
            {
              "internalType": "bytes32",
              "name": "s",
              "type": "bytes32"
            }
          ],
          "internalType": "struct PermitVaultManagerType[]",
          "name": "paramsPermitVaultManager",
          "type": "tuple[]"
        },
        {
          "components": [
            {
              "internalType": "address",
              "name": "token",
              "type": "address"
            },
            {
              "internalType": "address",
              "name": "owner",
              "type": "address"
            },
            {
              "internalType": "uint256",
              "name": "value",
              "type": "uint256"
            },
            {
              "internalType": "uint256",
              "name": "deadline",
              "type": "uint256"
            },
            {
              "internalType": "uint8",
              "name": "v",
              "type": "uint8"
            },
            {
              "internalType": "bytes32",
              "name": "r",
              "type": "bytes32"
            },
            {
              "internalType": "bytes32",
              "name": "s",
              "type": "bytes32"
            }
          ],
          "internalType": "struct PermitType[]",
          "name": "paramsPermit",
          "type": "tuple[]"
        },
        {
          "internalType": "enum ActionType[]",
          "name": "actions",
          "type": "uint8[]"
        },
        {
          "internalType": "bytes[]",
          "name": "data",
          "type": "bytes[]"
        }
      ],
      "name": "mixerVaultManagerPermit",
      "outputs": [],
      "stateMutability": "payable",
      "type": "function"
    },
    {
      "inputs": [],
      "name": "oneInch",
      "outputs": [
        {
          "internalType": "address",
          "name": "",
          "type": "address"
        }
      ],
      "stateMutability": "view",
      "type": "function"
    },
    {
      "inputs": [
        {
          "internalType": "contract ICoreBorrow",
          "name": "_core",
          "type": "address"
        }
      ],
      "name": "setCore",
      "outputs": [],
      "stateMutability": "nonpayable",
      "type": "function"
    },
    {
      "inputs": [
        {
          "internalType": "address",
          "name": "router",
          "type": "address"
        },
        {
          "internalType": "uint8",
          "name": "who",
          "type": "uint8"
        }
      ],
      "name": "setRouter",
      "outputs": [],
      "stateMutability": "nonpayable",
      "type": "function"
    },
    {
      "inputs": [],
      "name": "uniswapV3Router",
      "outputs": [
        {
          "internalType": "contract IUniswapV3Router",
          "name": "",
          "type": "address"
        }
      ],
      "stateMutability": "view",
      "type": "function"
    },
    {
      "stateMutability": "payable",
      "type": "receive"
    }
  ],
  "transactionHash": "0xe4f4b404fd7375e6e8a83bd15a967f3f5688f29e5d40f141ab97fcaf9fa15a17",
  "args": [],
  "numDeployments": 1,
  "solcInputHash": "e076f3f557b6f04e599f9c5fd497f1c8",
  "bytecode": "0x60806040523480156200001157600080fd5b50600054610100900460ff1615808015620000335750600054600160ff909116105b8062000063575062000050306200013d60201b620019771760201c565b15801562000063575060005460ff166001145b620000cb5760405162461bcd60e51b815260206004820152602e60248201527f496e697469616c697a61626c653a20636f6e747261637420697320616c72656160448201526d191e481a5b9a5d1a585b1a5e995960921b606482015260840160405180910390fd5b6000805460ff191660011790558015620000ef576000805461ff0019166101001790555b801562000136576000805461ff0019169055604051600181527f7f26b83ff96e1f2b6a682f133852f6798a09c465da95921460cefb38474024989060200160405180910390a15b506200014c565b6001600160a01b03163b151590565b615172806200015c6000396000f3fe6080604052600436106100b15760003560e01c8063045c08d5146100bd5780631420b9c6146100f35780632c76d7a61461011557806342860d4b1461013557806359856d56146101555780637c295dfa1461016857806380009630146101f957806383f1d68114610219578063848c48da14610239578063a6c01f961461024c578063b80344241461026c578063b82c4dc1146102a2578063e45e6f30146102c2578063f2f4eb26146102e257600080fd5b366100b857005b600080fd5b3480156100c957600080fd5b506002546100dd906001600160a01b031681565b6040516100ea9190613807565b60405180910390f35b3480156100ff57600080fd5b5061011361010e36600461385f565b610308565b005b34801561012157600080fd5b506001546100dd906001600160a01b031681565b34801561014157600080fd5b5061011361015036600461394a565b6103b5565b610113610163366004613b4d565b610545565b34801561017457600080fd5b506101c6610183366004613cd2565b603360209081526000928352604080842090915290825290208054600182015460028301546003909301546001600160a01b039283169391831692918216911684565b604080516001600160a01b03958616815293851660208501529184169183019190915290911660608201526080016100ea565b34801561020557600080fd5b50610113610214366004613d0b565b61080d565b34801561022557600080fd5b50610113610234366004613d28565b610941565b610113610247366004613d5d565b610a47565b34801561025857600080fd5b50610113610267366004613df1565b6115f5565b34801561027857600080fd5b506100dd610287366004613d0b565b6032602052600090815260409020546001600160a01b031681565b3480156102ae57600080fd5b506101136102bd366004613f10565b61169e565b3480156102ce57600080fd5b506101136102dd366004613cd2565b6117e9565b3480156102ee57600080fd5b506000546100dd906201000090046001600160a01b031681565b60005460405163521d4de960e01b8152620100009091046001600160a01b03169063521d4de99061033d903390600401613807565b602060405180830381865afa15801561035a573d6000803e3d6000fd5b505050506040513d601f19601f8201168201806040525081019061037e9190613f8a565b61039b57604051632678482f60e21b815260040160405180910390fd5b6103ab8888888888888888611986565b5050505050505050565b600054610100900460ff16158080156103d55750600054600160ff909116105b806103f657506103e430611977565b1580156103f6575060005460ff166001145b61045e5760405162461bcd60e51b815260206004820152602e60248201527f496e697469616c697a61626c653a20636f6e747261637420697320616c72656160448201526d191e481a5b9a5d1a585b1a5e995960921b60648201526084015b60405180910390fd5b6000805460ff191660011790558015610481576000805461ff0019166101001790555b6001600160a01b0384166104a85760405163d92e233d60e01b815260040160405180910390fd5b600080546001600160a01b03808716620100000262010000600160b01b031990921691909117909155600180548583166001600160a01b0319918216179091556002805492851692909116919091179055801561053f576000805461ff0019169055604051600181527f7f26b83ff96e1f2b6a682f133852f6798a09c465da95921460cefb38474024989060200160405180910390a15b50505050565b855160005b818110156106a85787818151811061056457610564613fa7565b602002602001015160400151156106935787818151811061058757610587613fa7565b6020026020010151600001516001600160a01b031663f51cc7dd8983815181106105b3576105b3613fa7565b6020026020010151602001513060018c86815181106105d4576105d4613fa7565b6020026020010151606001518d87815181106105f2576105f2613fa7565b6020026020010151608001518e888151811061061057610610613fa7565b602002602001015160a001518f898151811061062e5761062e613fa7565b602002602001015160c001516040518863ffffffff1660e01b815260040161065c9796959493929190613fbd565b600060405180830381600087803b15801561067657600080fd5b505af115801561068a573d6000803e3d6000fd5b50505050610698565b6106a8565b6106a181614014565b905061054a565b506106b68686868686610a47565b60005b818110156103ab578781815181106106d3576106d3613fa7565b6020026020010151604001516107fd578781815181106106f5576106f5613fa7565b6020026020010151600001516001600160a01b031663f51cc7dd89838151811061072157610721613fa7565b6020026020010151602001513060008c868151811061074257610742613fa7565b6020026020010151606001518d878151811061076057610760613fa7565b6020026020010151608001518e888151811061077e5761077e613fa7565b602002602001015160a001518f898151811061079c5761079c613fa7565b602002602001015160c001516040518863ffffffff1660e01b81526004016107ca9796959493929190613fbd565b600060405180830381600087803b1580156107e457600080fd5b505af11580156107f8573d6000803e3d6000fd5b505050505b61080681614014565b90506106b9565b600054604051631c86b03760e31b8152620100009091046001600160a01b03169063e43581b890610842903390600401613807565b602060405180830381865afa15801561085f573d6000803e3d6000fd5b505050506040513d601f19601f820116820180604052508101906108839190613f8a565b15806108f95750604051631c86b03760e31b81526001600160a01b0382169063e43581b8906108b6903390600401613807565b602060405180830381865afa1580156108d3573d6000803e3d6000fd5b505050506040513d601f19601f820116820180604052508101906108f79190613f8a565b155b1561091757604051633b8d9d7560e21b815260040160405180910390fd5b600080546001600160a01b03909216620100000262010000600160b01b0319909216919091179055565b60005460405163521d4de960e01b8152620100009091046001600160a01b03169063521d4de990610976903390600401613807565b602060405180830381865afa158015610993573d6000803e3d6000fd5b505050506040513d601f19601f820116820180604052508101906109b79190613f8a565b6109d457604051632678482f60e21b815260040160405180910390fd5b6001600160a01b0382166109fb5760405163d92e233d60e01b815260040160405180910390fd5b8060ff16600003610a2757600180546001600160a01b0384166001600160a01b03199091161790555050565b600280546001600160a01b0319166001600160a01b0384161790555b5050565b845160005b81811015610bcd57868181518110610a6657610a66613fa7565b6020026020010151600001516001600160a01b031663d505accf888381518110610a9257610a92613fa7565b602002602001015160200151308a8581518110610ab157610ab1613fa7565b6020026020010151604001518b8681518110610acf57610acf613fa7565b6020026020010151606001518c8781518110610aed57610aed613fa7565b6020026020010151608001518d8881518110610b0b57610b0b613fa7565b602002602001015160a001518e8981518110610b2957610b29613fa7565b602090810291909101015160c001516040516001600160e01b031960e08a901b1681526001600160a01b0397881660048201529690951660248701526044860193909352606485019190915260ff16608484015260a483015260c482015260e401600060405180830381600087803b158015610ba457600080fd5b505af1158015610bb8573d6000803e3d6000fd5b5050505080610bc690614014565b9050610a4c565b508360005b818110156103ab576000878783818110610bee57610bee613fa7565b9050602002016020810190610c039190614043565b601a811115610c1457610c1461402d565b03610ceb576000806000878785818110610c3057610c30613fa7565b9050602002810190610c429190614064565b810190610c4f91906140aa565b9250925092506000198103610cce576040516370a0823160e01b81526001600160a01b038416906370a0823190610c8a903390600401613807565b602060405180830381865afa158015610ca7573d6000803e3d6000fd5b505050506040513d601f19601f82011682018060405250810190610ccb91906140eb565b90505b610ce36001600160a01b038416338484611ab1565b5050506115e5565b6001878783818110610cff57610cff613fa7565b9050602002016020810190610d149190614043565b601a811115610d2557610d2561402d565b03610d3857610d32611b1c565b506115e5565b6002878783818110610d4c57610d4c613fa7565b9050602002016020810190610d619190614043565b601a811115610d7257610d7261402d565b03610db957600080868684818110610d8c57610d8c613fa7565b9050602002810190610d9e9190614064565b810190610dab9190614104565b91509150610ce38282611b7f565b6003878783818110610dcd57610dcd613fa7565b9050602002016020810190610de29190614043565b601a811115610df357610df361402d565b03610e3f576000806000878785818110610e0f57610e0f613fa7565b9050602002810190610e219190614064565b810190610e2e9190614129565b925092509250610ce3838383611c7e565b6004878783818110610e5357610e53613fa7565b9050602002016020810190610e689190614043565b601a811115610e7957610e7961402d565b03610e8f57478015610d3257610d323382611d14565b6005878783818110610ea357610ea3613fa7565b9050602002016020810190610eb89190614043565b601a811115610ec957610ec961402d565b03610f2357600080600080888886818110610ee657610ee6613fa7565b9050602002810190610ef89190614064565b810190610f0591906141cf565b9350935093509350610f1984848484611d45565b50505050506115e5565b6006878783818110610f3757610f37613fa7565b9050602002016020810190610f4c9190614043565b601a811115610f5d57610f5d61402d565b03610fb2576000806000878785818110610f7957610f79613fa7565b9050602002810190610f8b9190614064565b810190610f989190614231565b925092509250610fa9838383611e89565b505050506115e5565b6007878783818110610fc657610fc6613fa7565b9050602002016020810190610fdb9190614043565b601a811115610fec57610fec61402d565b0361103a5760008086868481811061100657611006613fa7565b90506020028101906110189190614064565b81019061102591906142f8565b915091506110338282611f3f565b50506115e5565b600887878381811061104e5761104e613fa7565b90506020020160208101906110639190614043565b601a8111156110745761107461402d565b036110c45760008060008088888681811061109157611091613fa7565b90506020028101906110a39190614064565b8101906110b09190614347565b9350935093509350610fa984848484611fd4565b60098787838181106110d8576110d8613fa7565b90506020020160208101906110ed9190614043565b601a8111156110fe576110fe61402d565b0361118c5760008060008060008060008b8b8981811061112057611120613fa7565b90506020028101906111329190614064565b81019061113f9190614482565b965096509650965096509650965061115883838861203a565b61116587876000196123a9565b611173868484888886612470565b50611180878760006123a9565b505050505050506115e5565b600a8787838181106111a0576111a0613fa7565b90506020020160208101906111b59190614043565b601a8111156111c6576111c661402d565b036112245760008060008060008060008b8b898181106111e8576111e8613fa7565b90506020028101906111fa9190614064565b8101906112079190614550565b965096509650965096509650965061118087878787878787612514565b600b87878381811061123857611238613fa7565b905060200201602081019061124d9190614043565b601a81111561125e5761125e61402d565b036112ca57600080600080600089898781811061127d5761127d613fa7565b905060200281019061128f9190614064565b81019061129c91906145db565b945094509450945094506112b18585836123a9565b6112bd84848484612585565b50610f19858560006123a9565b600c8787838181106112de576112de613fa7565b90506020020160208101906112f39190614043565b601a8111156113045761130461402d565b0361136e57600080600080600089898781811061132357611323613fa7565b90506020028101906113359190614064565b81019061134291906145db565b945094509450945094506113578585856123a9565b6113638484848461260c565b5050505050506115e5565b600d87878381811061138257611382613fa7565b90506020020160208101906113979190614043565b601a8111156113a8576113a861402d565b036113f8576000806000808888868181106113c5576113c5613fa7565b90506020028101906113d79190614064565b8101906113e49190614636565b9350935093509350610f198484848461268b565b600e87878381811061140c5761140c613fa7565b90506020020160208101906114219190614043565b601a8111156114325761143261402d565b036114825760008060008088888681811061144f5761144f613fa7565b90506020028101906114619190614064565b81019061146e9190614636565b9350935093509350610f19848484846126c0565b600f87878381811061149657611496613fa7565b90506020020160208101906114ab9190614043565b601a8111156114bc576114bc61402d565b0361150c576000806000808888868181106114d9576114d9613fa7565b90506020028101906114eb9190614064565b8101906114f89190614636565b9350935093509350610f19848484846126f6565b601087878381811061152057611520613fa7565b90506020020160208101906115359190614043565b601a8111156115465761154661402d565b0361159257600080600087878581811061156257611562613fa7565b90506020028101906115749190614064565b810190611581919061467e565b925092509250610fa983838361272b565b6115e58787838181106115a7576115a7613fa7565b90506020020160208101906115bc9190614043565b8686848181106115ce576115ce613fa7565b90506020028101906115e09190614064565b6127a9565b6115ee81614014565b9050610bd2565b6116008c8c8c6103b5565b61161e61160b612a48565b6001600160a01b038b1690600019612a60565b731a7e4e63778b4f12a199c062f3efdd288afcbce860005260326020527f4c3b7032ddf9b5c5574c4f57351deb5caa0122f2fd08929d224774d778d4e20d80546001600160a01b031916735addc89785d75c86ab939e9e15bfbbb7fc086a871790556116908888888888888888611986565b505050505050505050505050565b60005460405163521d4de960e01b8152620100009091046001600160a01b03169063521d4de9906116d3903390600401613807565b602060405180830381865afa1580156116f0573d6000803e3d6000fd5b505050506040513d601f19601f820116820180604052508101906117149190613f8a565b61173157604051632678482f60e21b815260040160405180910390fd5b8483811415806117415750808214155b1561175f576040516346282e8d60e01b815260040160405180910390fd5b60005b818110156103ab576117d988888381811061177f5761177f613fa7565b90506020020160208101906117949190613d0b565b8787848181106117a6576117a6613fa7565b90506020020160208101906117bb9190613d0b565b8686858181106117cd576117cd613fa7565b905060200201356123a9565b6117e281614014565b9050611762565b60005460405163521d4de960e01b8152620100009091046001600160a01b03169063521d4de99061181e903390600401613807565b602060405180830381865afa15801561183b573d6000803e3d6000fd5b505050506040513d601f19601f8201168201806040525081019061185f9190613f8a565b61187c57604051632678482f60e21b815260040160405180910390fd5b6001600160a01b03821615806118ab57506001600160a01b038281166000908152603260205260409020541615155b8061192b5750816001600160a01b0316816001600160a01b031663ee565a636040518163ffffffff1660e01b81526004016020604051808303816000875af11580156118fb573d6000803e3d6000fd5b505050506040513d601f19601f8201168201806040525081019061191f91906146d5565b6001600160a01b031614155b1561194957604051635435b28960e11b815260040160405180910390fd5b6001600160a01b03918216600090815260326020526040902080546001600160a01b03191691909216179055565b6001600160a01b03163b151590565b8685811415806119965750838114155b806119a15750818114155b156119bf576040516346282e8d60e01b815260040160405180910390fd5b60005b81811015611aa5576000603260008c8c858181106119e2576119e2613fa7565b90506020020160208101906119f79190613d0b565b6001600160a01b039081168252602082019290925260400160002054169050611a94818a8a85818110611a2c57611a2c613fa7565b9050602002016020810190611a419190613d0b565b898986818110611a5357611a53613fa7565b9050602002016020810190611a689190613d0b565b888887818110611a7a57611a7a613fa7565b9050602002016020810190611a8f91906146f2565b612afd565b50611a9e81614014565b90506119c2565b50505050505050505050565b6040516001600160a01b038085166024830152831660448201526064810182905261053f9085906323b872dd60e01b906084015b60408051601f198184030181529190526020810180516001600160e01b03166001600160e01b031990931692909217909152612d70565b6000611b26612e42565b6001600160a01b031663d0e30db0346040518263ffffffff1660e01b81526004016000604051808303818588803b158015611b6057600080fd5b505af1158015611b74573d6000803e3d6000fd5b505050505034905090565b6000611b89612e42565b6001600160a01b03166370a08231306040518263ffffffff1660e01b8152600401611bb49190613807565b602060405180830381865afa158015611bd1573d6000803e3d6000fd5b505050506040513d601f19601f82011682018060405250810190611bf591906140eb565b9050611c018184612e5a565b8015611c7857611c0f612e42565b6001600160a01b0316632e1a7d4d826040518263ffffffff1660e01b8152600401611c3c91815260200190565b600060405180830381600087803b158015611c5657600080fd5b505af1158015611c6a573d6000803e3d6000fd5b50505050611c788282611d14565b92915050565b6040516370a0823160e01b81526000906001600160a01b038516906370a0823190611cad903090600401613807565b602060405180830381865afa158015611cca573d6000803e3d6000fd5b505050506040513d601f19601f82011682018060405250810190611cee91906140eb565b9050611cfa8184612e5a565b801561053f5761053f6001600160a01b0385168383612e7b565b600080600080600085875af1905080611d40576040516312171d8360e31b815260040160405180910390fd5b505050565b600154604051636eb1769f60e11b81526000916001600160a01b0390811691839188169063dd62ed3e90611d7f903090869060040161470f565b602060405180830381865afa158015611d9c573d6000803e3d6000fd5b505050506040513d601f19601f82011682018060405250810190611dc091906140eb565b905085811015611deb57611deb82611dda83600019614729565b6001600160a01b038a169190612a60565b6040805160a08101825285815230602082015242818301526060810188905260808101879052905163c04b8d5960e01b81526001600160a01b0384169163c04b8d5991611e3b919060040161478c565b6020604051808303816000875af1158015611e5a573d6000803e3d6000fd5b505050506040513d601f19601f82011682018060405250810190611e7e91906140eb565b979650505050505050565b6002546000906001600160a01b0316611ea585826000196123a9565b600080826001600160a01b031685604051611ec091906147e4565b6000604051808303816000865af19150503d8060008114611efd576040519150601f19603f3d011682016040523d82523d6000602084013e611f02565b606091505b509150915081611f1557611f1581612e9a565b80806020019051810190611f2991906140eb565b9350611f358487612e5a565b5050509392505050565b805160005b8181101561053f57828181518110611f5e57611f5e613fa7565b60200260200101516001600160a01b03166384e9bd7e856040518263ffffffff1660e01b8152600401611f919190613807565b600060405180830381600087803b158015611fab57600080fd5b505af1158015611fbf573d6000803e3d6000fd5b5050505080611fcd90614014565b9050611f44565b6040516383df674760e01b8152600481018490526001600160a01b03858116602483015282151560448301528316906383df674790606401600060405180830381600087803b15801561202657600080fd5b505af11580156103ab573d6000803e3d6000fd5b8251600a811061205d576040516346282e8d60e01b815260040160405180910390fd5b6120656137b4565b6000806000805b8581101561239e576000808a838151811061208957612089613fa7565b602002602001015160078111156120a2576120a261402d565b036120b157600194505061238e565b60038a83815181106120c5576120c5613fa7565b602002602001015160078111156120de576120de61402d565b1480612114575060058a83815181106120f9576120f9613fa7565b602002602001015160078111156121125761211261402d565b145b1561214e5788828151811061212b5761212b613fa7565b60200260200101518060200190518101906121469190614800565b509050612225565b60018a838151811061216257612162613fa7565b6020026020010151600781111561217b5761217b61402d565b036121b45788828151811061219257612192613fa7565b60200260200101518060200190518101906121ad91906140eb565b9050612225565b60068a83815181106121c8576121c8613fa7565b602002602001015160078111156121e1576121e161402d565b0361221f578882815181106121f8576121f8613fa7565b60200260200101518060200190518101906122139190614824565b50919250612225915050565b5061238e565b806000036122a9578415612239575061238e565b836000036122a657876001600160a01b0316633c2e941b6040518163ffffffff1660e01b8152600401602060405180830381865afa15801561227f573d6000803e3d6000fd5b505050506040513d601f19601f820116820180604052508101906122a391906140eb565b93505b50825b60005b838110156122da57818782600a81106122c7576122c7613fa7565b5050506122d381614014565b90506122ac565b5060405163430c208160e01b81526001600160a01b0389169063430c2081906123099033908590600401614862565b602060405180830381865afa158015612326573d6000803e3d6000fd5b505050506040513d601f19601f8201168201806040525081019061234a9190613f8a565b6123675760405163390cdd9b60e21b815260040160405180910390fd5b808684600a811061237a5761237a613fa7565b602002015261238a60018461487b565b9250505b61239781614014565b905061206c565b505050505050505050565b604051636eb1769f60e11b81526000906001600160a01b0385169063dd62ed3e906123da903090879060040161470f565b602060405180830381865afa1580156123f7573d6000803e3d6000fd5b505050506040513d601f19601f8201168201806040525081019061241b91906140eb565b90508181101561244957612444836124338385614729565b6001600160a01b0387169190612a60565b61053f565b8181111561053f5761053f8361245f8484614729565b6001600160a01b0387169190612ec2565b61249b6040518060800160405280600081526020016000815260200160008152602001600081525090565b604051631bd1f8d360e31b81526001600160a01b0388169063de8fc698906124d1908990899033908a908a908a906004016148e3565b6080604051808303816000875af11580156124f0573d6000803e3d6000fd5b505050506040513d601f19601f82011682018060405250810190611e7e919061498a565b60405163a5d4096b60e01b81526001600160a01b0388169063a5d4096b9061254a908990899089908990899089906004016149ef565b600060405180830381600087803b15801561256457600080fd5b505af1158015612578573d6000803e3d6000fd5b5050505050505050505050565b600061260482866001600160a01b03166394bf804d87876040518363ffffffff1660e01b81526004016125b9929190614a3d565b6020604051808303816000875af11580156125d8573d6000803e3d6000fd5b505050506040513d601f19601f820116820180604052508101906125fc91906140eb565b925082612e5a565b949350505050565b6000612604856001600160a01b0316636e553f6586866040518363ffffffff1660e01b815260040161263f929190614a3d565b6020604051808303816000875af115801561265e573d6000803e3d6000fd5b505050506040513d601f19601f8201168201806040525081019061268291906140eb565b91508183612e5a565b6000612604856001600160a01b031663ba0876528686336040518463ffffffff1660e01b815260040161263f93929190614a54565b600061260482866001600160a01b031663b460af948787336040518463ffffffff1660e01b81526004016125b993929190614a54565b6000612604856001600160a01b031663fbcc01ae8686336040518463ffffffff1660e01b815260040161263f93929190614a54565b6040516329a6132760e01b81526000906001600160a01b038516906329a613279061275c9086908690600401614a73565b6020604051808303816000875af115801561277b573d6000803e3d6000fd5b505050506040513d601f19601f8201168201806040525081019061279f91906140eb565b90505b9392505050565b601a83601a8111156127bd576127bd61402d565b036127ef57600080808080806127d587890189614b2a565b95509550955095509550955061239e868686868686612fbe565b601383601a8111156128035761280361402d565b03612831576000808061281884860186614bf6565b925092509250612829838383613195565b505050505050565b601983601a8111156128455761284561402d565b0361286e5760008061285983850185614c36565b91509150612867828261328c565b5050505050565b601683601a8111156128825761288261402d565b036128b4576000808080808061289a87890189614c62565b95509550955095509550955061239e8686868686866132ef565b601483601a8111156128c8576128c861402d565b0361296e576000808080806128df86880188614cdb565b945094509450945094506000198503612962576040516370a0823160e01b81526001600160a01b038216906370a082319061291e903090600401613807565b602060405180830381865afa15801561293b573d6000803e3d6000fd5b505050506040513d601f19601f8201168201806040525081019061295f91906140eb565b94505b6103ab85858585613347565b601583601a8111156129825761298261402d565b036129b857600080808080808061299b888a018a614d43565b9650965096509650965096509650611aa5878787878787876133df565b601783601a8111156129cc576129cc61402d565b03612a06576000808080808080806129e6898b018b614dc7565b975097509750975097509750975097506116908888888888888888613474565b601883601a811115612a1a57612a1a61402d565b03611d4057600080808080612a3186880188614e4c565b945094509450945094506103ab8585858585613525565b730c462dbb9ec8cd1630f1728b2cfd2769d09f0dd590565b600081846001600160a01b031663dd62ed3e30866040518363ffffffff1660e01b8152600401612a9192919061470f565b602060405180830381865afa158015612aae573d6000803e3d6000fd5b505050506040513d601f19601f82011682018060405250810190612ad291906140eb565b612adc919061487b565b905061053f8463095ea7b360e01b8584604051602401611ae5929190614862565b6000806000866001600160a01b031663ba8b7223876040518263ffffffff1660e01b8152600401612b2e9190613807565b600060405180830381865afa158015612b4b573d6000803e3d6000fd5b505050506040513d6000823e601f3d908101601f19168201604052612b739190810190614fed565b50505050505092509250925060006001600160a01b0316836001600160a01b031603612bb257604051635435b28960e11b815260040160405180910390fd5b6001600160a01b0380881660009081526033602090815260408083209387168352929052208415612c2b5780546001600160a01b0316612c055760405163d92e233d60e01b815260040160405180910390fd5b60038101546001600160a01b03168015612c2557612c25848260006123a9565b50612ca9565b80546001600160a01b031615612c5457604051635435b28960e11b815260040160405180910390fd5b80546001600160a01b038089166001600160a01b031992831617835560018301805485831690841617905560028301805491861691909216179055612c9c84896000196123a9565b612ca984836000196123a9565b6003810180546001600160a01b0319166001600160a01b038816908117909155156103ab57856001600160a01b0316632dc7d74c6040518163ffffffff1660e01b81526004016020604051808303816000875af1158015612d0e573d6000803e3d6000fd5b505050506040513d601f19601f82011682018060405250810190612d3291906146d5565b6001600160a01b0316836001600160a01b031614612d6357604051635435b28960e11b815260040160405180910390fd5b6103ab83876000196123a9565b6000612dc5826040518060400160405280602081526020017f5361666545524332303a206c6f772d6c6576656c2063616c6c206661696c6564815250856001600160a01b031661359c9092919063ffffffff16565b805190915015611d405780806020019051810190612de39190613f8a565b611d405760405162461bcd60e51b815260206004820152602a60248201527f5361666545524332303a204552433230206f7065726174696f6e20646964206e6044820152691bdd081cdd58d8d9595960b21b6064820152608401610455565b73c02aaa39b223fe8d0a0e5c4f27ead9083c756cc290565b80821015610a435760405163a1aabbe160e01b815260040160405180910390fd5b611d408363a9059cbb60e01b8484604051602401611ae5929190614862565b805115612ea957805181602001fd5b60405163ee418e3760e01b815260040160405180910390fd5b604051636eb1769f60e11b81526000906001600160a01b0385169063dd62ed3e90612ef3903090879060040161470f565b602060405180830381865afa158015612f10573d6000803e3d6000fd5b505050506040513d601f19601f82011682018060405250810190612f3491906140eb565b905081811015612f985760405162461bcd60e51b815260206004820152602960248201527f5361666545524332303a2064656372656173656420616c6c6f77616e63652062604482015268656c6f77207a65726f60b81b6064820152608401610455565b6040518282039061286790869063095ea7b360e01b90611ae59088908690602401614862565b83518015801590612fdb5750808351141580612fdb575080825114155b15612ff9576040516346282e8d60e01b815260040160405180910390fd5b855160005b8181101561308e5787818151811061301857613018613fa7565b60200260200101516001600160a01b03166384e9bd7e8a6040518263ffffffff1660e01b815260040161304b9190613807565b600060405180830381600087803b15801561306557600080fd5b505af1158015613079573d6000803e3d6000fd5b505050508061308790614014565b9050612ffe565b5060005b8281101561239e57600086156130c3578482815181106130b4576130b4613fa7565b6020026020010151905061310a565b60006131018784815181106130da576130da613fa7565b60200260200101518785815181106130f4576130f4613fa7565b60200260200101516135ab565b60200151925050505b806001600160a01b0316631c4b774b89848151811061312b5761312b613fa7565b60200260200101516040518263ffffffff1660e01b815260040161315191815260200190565b600060405180830381600087803b15801561316b57600080fd5b505af115801561317f573d6000803e3d6000fd5b50505050508061318e90614014565b9050613092565b604051630f41a04d60e11b81526000906001600160a01b03841690631e83409a906131c4908790600401613807565b6020604051808303816000875af11580156131e3573d6000803e3d6000fd5b505050506040513d601f19601f8201168201806040525081019061320791906140eb565b9050811561053f576000836001600160a01b031663fc0c546a6040518163ffffffff1660e01b81526004016020604051808303816000875af1158015613251573d6000803e3d6000fd5b505050506040513d601f19601f8201168201806040525081019061327591906146d5565b90506128676001600160a01b038216333085611ab1565b613294612a48565b6001600160a01b0316633a46273e83836040518363ffffffff1660e01b81526004016132c1929190614862565b600060405180830381600087803b1580156132db57600080fd5b505af1158015612829573d6000803e3d6000fd5b600084156132fe575082613317565b6133066137d3565b61331085856135ab565b5193509150505b604051630b8b4a6160e21b81526001600160a01b03821690632e2d29849061254a9089908b908790600401614a54565b600080841561335a575082905081613374565b6133626137d3565b61336c85856135ab565b519093509150505b60405163047c207560e31b815260048101879052306024820181905260448201526001600160a01b0382811660648301528316906323e103a890608401600060405180830381600087803b1580156133cb57600080fd5b505af1158015611aa5573d6000803e3d6000fd5b600084156133ee575082613407565b6133f66137d3565b61340085856135ab565b5193509150505b6040516303a7722360e11b8152600481018890526001600160a01b03898116602483015283811660448301526064820188905282169063074ee44690608401600060405180830381600087803b15801561346057600080fd5b505af1158015611690573d6000803e3d6000fd5b60008361349057600061348784846135ab565b60200151945050505b60405163a62b2a3d60e01b81526001600160a01b038a81166004830152602482018a905260448201899052606482018890526084820187905284169063a62b2a3d9060a4016020604051808303816000875af11580156134f4573d6000803e3d6000fd5b505050506040513d601f19601f8201168201806040525081019061351891906140eb565b9998505050505050505050565b8261353f57600061353683836135ab565b60200151935050505b6040516324d83b7960e01b815260048101859052602481018690526001600160a01b038316906324d83b7990604401600060405180830381600087803b15801561358857600080fd5b505af115801561239e573d6000803e3d6000fd5b606061279f848460008561365c565b60006135b56137d3565b50506001600160a01b03808316600090815260326020908152604080832054841680845260338352818420868616855283529281902081516080810183528154861681526001820154861693810193909352600281015485169183019190915260030154909216606083015290811580613637575080516001600160a01b0316155b156136555760405163d92e233d60e01b815260040160405180910390fd5b9250929050565b6060824710156136bd5760405162461bcd60e51b815260206004820152602660248201527f416464726573733a20696e73756666696369656e742062616c616e636520666f6044820152651c8818d85b1b60d21b6064820152608401610455565b6136c685611977565b6137125760405162461bcd60e51b815260206004820152601d60248201527f416464726573733a2063616c6c20746f206e6f6e2d636f6e74726163740000006044820152606401610455565b600080866001600160a01b0316858760405161372e91906147e4565b60006040518083038185875af1925050503d806000811461376b576040519150601f19603f3d011682016040523d82523d6000602084013e613770565b606091505b5091509150611e7e8282866060831561378a5750816127a2565b82511561379a5782518084602001fd5b8160405162461bcd60e51b81526004016104559190615129565b604051806101400160405280600a906020820280368337509192915050565b60408051608081018252600080825260208201819052918101829052606081019190915290565b6001600160a01b03169052565b6001600160a01b0391909116815260200190565b60008083601f84011261382d57600080fd5b5081356001600160401b0381111561384457600080fd5b6020830191508360208260051b850101111561365557600080fd5b6000806000806000806000806080898b03121561387b57600080fd5b88356001600160401b038082111561389257600080fd5b61389e8c838d0161381b565b909a50985060208b01359150808211156138b757600080fd5b6138c38c838d0161381b565b909850965060408b01359150808211156138dc57600080fd5b6138e88c838d0161381b565b909650945060608b013591508082111561390157600080fd5b5061390e8b828c0161381b565b999c989b5096995094979396929594505050565b6001600160a01b038116811461393757600080fd5b50565b803561394581613922565b919050565b60008060006060848603121561395f57600080fd5b833561396a81613922565b9250602084013561397a81613922565b9150604084013561398a81613922565b809150509250925092565b634e487b7160e01b600052604160045260246000fd5b60405160e081016001600160401b03811182821017156139cd576139cd613995565b60405290565b60405161010081016001600160401b03811182821017156139cd576139cd613995565b604051601f8201601f191681016001600160401b0381118282101715613a1e57613a1e613995565b604052919050565b60006001600160401b03821115613a3f57613a3f613995565b5060051b60200190565b801515811461393757600080fd5b803561394581613a49565b803560ff8116811461394557600080fd5b600082601f830112613a8457600080fd5b81356020613a99613a9483613a26565b6139f6565b82815260e09283028501820192828201919087851115613ab857600080fd5b8387015b85811015613b405781818a031215613ad45760008081fd5b613adc6139ab565b8135613ae781613922565b815281860135613af681613922565b8187015260408281013590820152606080830135908201526080613b1b818401613a62565b9082015260a0828101359082015260c080830135908201528452928401928101613abc565b5090979650505050505050565b60008060008060008060808789031215613b6657600080fd5b86356001600160401b0380821115613b7d57600080fd5b818901915089601f830112613b9157600080fd5b81356020613ba1613a9483613a26565b82815260e09092028401810191818101908d841115613bbf57600080fd5b948201945b83861015613c565760e0868f031215613bdd5760008081fd5b613be56139ab565b8635613bf081613922565b815286840135613bff81613922565b81850152604087810135613c1281613a49565b9082015260608781013590820152613c2c60808801613a62565b608082015260a0878101359082015260c08088013590820152825260e09095019490820190613bc4565b9a50508a013592505080821115613c6c57600080fd5b613c788a838b01613a73565b96506040890135915080821115613c8e57600080fd5b613c9a8a838b0161381b565b90965094506060890135915080821115613cb357600080fd5b50613cc089828a0161381b565b979a9699509497509295939492505050565b60008060408385031215613ce557600080fd5b8235613cf081613922565b91506020830135613d0081613922565b809150509250929050565b600060208284031215613d1d57600080fd5b81356127a281613922565b60008060408385031215613d3b57600080fd5b8235613d4681613922565b9150613d5460208401613a62565b90509250929050565b600080600080600060608688031215613d7557600080fd5b85356001600160401b0380821115613d8c57600080fd5b613d9889838a01613a73565b96506020880135915080821115613dae57600080fd5b613dba89838a0161381b565b90965094506040880135915080821115613dd357600080fd5b50613de08882890161381b565b969995985093965092949392505050565b6000806000806000806000806000806000806101008d8f031215613e1457600080fd5b613e1d8d61393a565b9b50613e2b60208e0161393a565b9a50613e3960408e0161393a565b9950613e4760608e0161393a565b98506001600160401b0360808e01351115613e6157600080fd5b613e718e60808f01358f0161381b565b90985096506001600160401b0360a08e01351115613e8e57600080fd5b613e9e8e60a08f01358f0161381b565b90965094506001600160401b0360c08e01351115613ebb57600080fd5b613ecb8e60c08f01358f0161381b565b90945092506001600160401b0360e08e01351115613ee857600080fd5b613ef88e60e08f01358f0161381b565b81935080925050509295989b509295989b509295989b565b60008060008060008060608789031215613f2957600080fd5b86356001600160401b0380821115613f4057600080fd5b613f4c8a838b0161381b565b90985096506020890135915080821115613f6557600080fd5b613f718a838b0161381b565b90965094506040890135915080821115613cb357600080fd5b600060208284031215613f9c57600080fd5b81516127a281613a49565b634e487b7160e01b600052603260045260246000fd5b6001600160a01b0397881681529590961660208601529215156040850152606084019190915260ff16608083015260a082015260c081019190915260e00190565b634e487b7160e01b600052601160045260246000fd5b60006001820161402657614026613ffe565b5060010190565b634e487b7160e01b600052602160045260246000fd5b60006020828403121561405557600080fd5b8135601b81106127a257600080fd5b6000808335601e1984360301811261407b57600080fd5b8301803591506001600160401b0382111561409557600080fd5b60200191503681900382131561365557600080fd5b6000806000606084860312156140bf57600080fd5b83356140ca81613922565b925060208401356140da81613922565b929592945050506040919091013590565b6000602082840312156140fd57600080fd5b5051919050565b6000806040838503121561411757600080fd5b823591506020830135613d0081613922565b60008060006060848603121561413e57600080fd5b833561414981613922565b925060208401359150604084013561398a81613922565b600082601f83011261417157600080fd5b81356001600160401b0381111561418a5761418a613995565b61419d601f8201601f19166020016139f6565b8181528460208386010111156141b257600080fd5b816020850160208301376000918101602001919091529392505050565b600080600080608085870312156141e557600080fd5b84356141f081613922565b9350602085013592506040850135915060608501356001600160401b0381111561421957600080fd5b61422587828801614160565b91505092959194509250565b60008060006060848603121561424657600080fd5b833561425181613922565b92506020840135915060408401356001600160401b0381111561427357600080fd5b61427f86828701614160565b9150509250925092565b600082601f83011261429a57600080fd5b813560206142aa613a9483613a26565b82815260059290921b840181019181810190868411156142c957600080fd5b8286015b848110156142ed5780356142e081613922565b83529183019183016142cd565b509695505050505050565b6000806040838503121561430b57600080fd5b823561431681613922565b915060208301356001600160401b0381111561433157600080fd5b61433d85828601614289565b9150509250929050565b6000806000806080858703121561435d57600080fd5b843561436881613922565b935060208501359250604085013561437f81613922565b9150606085013561438f81613a49565b939692955090935050565b600082601f8301126143ab57600080fd5b813560206143bb613a9483613a26565b82815260059290921b840181019181810190868411156143da57600080fd5b8286015b848110156142ed578035600881106143f65760008081fd5b83529183019183016143de565b600082601f83011261441457600080fd5b81356020614424613a9483613a26565b82815260059290921b8401810191818101908684111561444357600080fd5b8286015b848110156142ed5780356001600160401b038111156144665760008081fd5b6144748986838b0101614160565b845250918301918301614447565b600080600080600080600060e0888a03121561449d57600080fd5b87356144a881613922565b965060208801356144b881613922565b95506144c66040890161393a565b94506144d46060890161393a565b935060808801356001600160401b03808211156144f057600080fd5b6144fc8b838c0161439a565b945060a08a013591508082111561451257600080fd5b61451e8b838c01614403565b935060c08a013591508082111561453457600080fd5b506145418a828b01614160565b91505092959891949750929550565b600080600080600080600060e0888a03121561456b57600080fd5b873561457681613922565b9650602088013561458681613922565b9550604088013561459681613922565b945060608801356145a681613922565b93506080880135925060a0880135915060c08801356001600160401b038111156145cf57600080fd5b6145418a828b01614160565b600080600080600060a086880312156145f357600080fd5b85356145fe81613922565b9450602086013561460e81613922565b935060408601359250606086013561462581613922565b949793965091946080013592915050565b6000806000806080858703121561464c57600080fd5b843561465781613922565b935060208501359250604085013561466e81613922565b9396929550929360600135925050565b60008060006060848603121561469357600080fd5b833561469e81613922565b925060208401356146ae81613922565b915060408401356001600160401b038111156146c957600080fd5b61427f86828701614289565b6000602082840312156146e757600080fd5b81516127a281613922565b60006020828403121561470457600080fd5b81356127a281613a49565b6001600160a01b0392831681529116602082015260400190565b81810381811115611c7857611c78613ffe565b60005b8381101561475757818101518382015260200161473f565b50506000910152565b6000815180845261477881602086016020860161473c565b601f01601f19169290920160200192915050565b602081526000825160a060208401526147a860c0840182614760565b905060018060a01b0360208501511660408401526040840151606084015260608401516080840152608084015160a08401528091505092915050565b600082516147f681846020870161473c565b9190910192915050565b6000806040838503121561481357600080fd5b505080516020909101519092909150565b6000806000806080858703121561483a57600080fd5b84519350602085015161484c81613922565b6040860151606090960151949790965092505050565b6001600160a01b03929092168252602082015260400190565b80820180821115611c7857611c78613ffe565b600081518084526020808501808196508360051b8101915082860160005b858110156148d65782840389526148c4848351614760565b988501989350908401906001016148ac565b5091979650505050505050565b60c0808252875190820181905260009060209060e0840190828b0184805b838110156149395782516008811061492757634e487b7160e01b83526021600452602483fd5b85529385019391850191600101614901565b505050508381038285015261494e818a61488e565b91505061495e60408401886137fa565b61496b60608401876137fa565b61497860808401866137fa565b82810360a08401526135188185614760565b60006080828403121561499c57600080fd5b604051608081016001600160401b03811182821017156149be576149be613995565b8060405250825181526020830151602082015260408301516040820152606083015160608201528091505092915050565b6001600160a01b038781168252868116602083015285166040820152606081018490526080810183905260c060a08201819052600090614a3190830184614760565b98975050505050505050565b9182526001600160a01b0316602082015260400190565b9283526001600160a01b03918216602084015216604082015260600190565b6001600160a01b038381168252604060208084018290528451918401829052600092858201929091906060860190855b81811015614ac1578551851683529483019491830191600101614aa3565b509098975050505050505050565b600082601f830112614ae057600080fd5b81356020614af0613a9483613a26565b82815260059290921b84018101918181019086841115614b0f57600080fd5b8286015b848110156142ed5780358352918301918301614b13565b60008060008060008060c08789031215614b4357600080fd5b614b4c8761393a565b955060208701356001600160401b0380821115614b6857600080fd5b614b748a838b01614289565b96506040890135915080821115614b8a57600080fd5b614b968a838b01614acf565b9550614ba460608a01613a57565b94506080890135915080821115614bba57600080fd5b614bc68a838b01614289565b935060a0890135915080821115614bdc57600080fd5b50614be989828a01614289565b9150509295509295509295565b600080600060608486031215614c0b57600080fd5b8335614c1681613922565b92506020840135614c2681613922565b9150604084013561398a81613a49565b60008060408385031215614c4957600080fd5b8235614c5481613922565b946020939093013593505050565b60008060008060008060c08789031215614c7b57600080fd5b8635614c8681613922565b9550602087013594506040870135614c9d81613a49565b93506060870135614cad81613922565b92506080870135614cbd81613922565b915060a0870135614ccd81613922565b809150509295509295509295565b600080600080600060a08688031215614cf357600080fd5b853594506020860135614d0581613a49565b93506040860135614d1581613922565b92506060860135614d2581613922565b91506080860135614d3581613922565b809150509295509295909350565b600080600080600080600060e0888a031215614d5e57600080fd5b8735614d6981613922565b965060208801359550604088013594506060880135614d8781613a49565b93506080880135614d9781613922565b925060a0880135614da781613922565b915060c0880135614db781613922565b8091505092959891949750929550565b600080600080600080600080610100898b031215614de457600080fd5b8835614def81613922565b97506020890135965060408901359550606089013594506080890135935060a0890135614e1b81613a49565b925060c0890135614e2b81613922565b915060e0890135614e3b81613922565b809150509295985092959890939650565b600080600080600060a08688031215614e6457600080fd5b85359450602086013593506040860135614d1581613a49565b80516001600160401b038116811461394557600080fd5b600082601f830112614ea557600080fd5b81516020614eb5613a9483613a26565b82815260059290921b84018101918181019086841115614ed457600080fd5b8286015b848110156142ed57614ee981614e7d565b8352918301918301614ed8565b60006101008284031215614f0957600080fd5b614f116139d3565b82519091506001600160401b0380821115614f2b57600080fd5b614f3785838601614e94565b83526020840151915080821115614f4d57600080fd5b614f5985838601614e94565b60208401526040840151915080821115614f7257600080fd5b614f7e85838601614e94565b60408401526060840151915080821115614f9757600080fd5b50614fa484828501614e94565b606083015250614fb660808301614e7d565b6080820152614fc760a08301614e7d565b60a0820152614fd860c08301614e7d565b60c082015260e082015160e082015292915050565b6000806000806000806000806000898b0361020081121561500d57600080fd5b8a5161501881613922565b60208c0151909a5061502981613922565b60408c015190995061503a81613922565b60608c015190985061504b81613922565b8097505060808b0151955060a08b0151945060c08b015193506101008060df198301121561507857600080fd5b6150806139d3565b60e08d01518152908c015160208201526101208c015160408201526101408c0151606082015290506150b56101608c01614e7d565b60808201526150c76101808c01614e7d565b60a08201526150d96101a08c01614e7d565b60c08201526150eb6101c08c01614e7d565b60e08201526101e08b01519092506001600160401b0381111561510d57600080fd5b6151198c828d01614ef6565b9150509295985092959850929598565b6020815260006127a2602083018461476056fea2646970667358221220c2794fec9428e60123f4552d004484cd576d1614d8a209bd2705038a0f1eb2e364736f6c63430008110033"
}