{
  "address": "0xe5a3cE0Ba4E656f68BB6fC32509565e7564d3B76",
  "abi": [
    {
      "inputs": [],
      "name": "IncompatibleLengths",
      "type": "error"
    },
    {
      "inputs": [],
      "name": "InvalidParams",
      "type": "error"
    },
    {
      "inputs": [],
      "name": "InvalidReturnMessage",
      "type": "error"
    },
    {
      "inputs": [],
      "name": "NotApprovedOrOwner",
      "type": "error"
    },
    {
      "inputs": [],
      "name": "NotGovernor",
      "type": "error"
    },
    {
      "inputs": [],
      "name": "NotGovernorOrGuardian",
      "type": "error"
    },
    {
      "inputs": [],
      "name": "TooSmallAmountOut",
      "type": "error"
    },
    {
      "inputs": [],
      "name": "TransferFailed",
      "type": "error"
    },
    {
      "inputs": [],
      "name": "ZeroAddress",
      "type": "error"
    },
    {
      "anonymous": false,
      "inputs": [
        {
          "indexed": false,
          "internalType": "uint8",
          "name": "version",
          "type": "uint8"
        }
      ],
      "name": "Initialized",
      "type": "event"
    },
    {
      "anonymous": false,
      "inputs": [
        {
          "indexed": false,
          "internalType": "address",
          "name": "caller",
          "type": "address"
        },
        {
          "indexed": true,
          "internalType": "address",
          "name": "owner",
          "type": "address"
        },
        {
          "indexed": false,
          "internalType": "uint256",
          "name": "assets",
          "type": "uint256"
        },
        {
          "indexed": false,
          "internalType": "uint256",
          "name": "shares",
          "type": "uint256"
        },
        {
          "indexed": true,
          "internalType": "address",
          "name": "savings",
          "type": "address"
        },
        {
          "indexed": true,
          "internalType": "address",
          "name": "referrer",
          "type": "address"
        }
      ],
      "name": "ReferredDeposit",
      "type": "event"
    },
    {
      "inputs": [
        {
          "internalType": "contract IERC20[]",
          "name": "tokens",
          "type": "address[]"
        },
        {
          "internalType": "address[]",
          "name": "spenders",
          "type": "address[]"
        },
        {
          "internalType": "uint256[]",
          "name": "amounts",
          "type": "uint256[]"
        }
      ],
      "name": "changeAllowance",
      "outputs": [],
      "stateMutability": "nonpayable",
      "type": "function"
    },
    {
      "inputs": [],
      "name": "core",
      "outputs": [
        {
          "internalType": "contract ICoreBorrow",
          "name": "",
          "type": "address"
        }
      ],
      "stateMutability": "view",
      "type": "function"
    },
    {
      "inputs": [
        {
          "internalType": "address",
          "name": "token",
          "type": "address"
        },
        {
          "internalType": "address",
          "name": "savings",
          "type": "address"
        },
        {
          "internalType": "uint256",
          "name": "amount",
          "type": "uint256"
        },
        {
          "internalType": "address",
          "name": "to",
          "type": "address"
        },
        {
          "internalType": "uint256",
          "name": "minSharesOut",
          "type": "uint256"
        },
        {
          "internalType": "address",
          "name": "referrer",
          "type": "address"
        }
      ],
      "name": "deposit4626Referral",
      "outputs": [
        {
          "internalType": "uint256",
          "name": "sharesOut",
          "type": "uint256"
        }
      ],
      "stateMutability": "nonpayable",
      "type": "function"
    },
    {
      "inputs": [
        {
          "internalType": "address",
          "name": "_core",
          "type": "address"
        },
        {
          "internalType": "address",
          "name": "_uniswapRouter",
          "type": "address"
        },
        {
          "internalType": "address",
          "name": "_oneInch",
          "type": "address"
        }
      ],
      "name": "initializeRouter",
      "outputs": [],
      "stateMutability": "nonpayable",
      "type": "function"
    },
    {
      "inputs": [
        {
          "internalType": "contract IStableMasterFront",
          "name": "",
          "type": "address"
        },
        {
          "internalType": "contract IERC20",
          "name": "",
          "type": "address"
        }
      ],
      "name": "mapPoolManagers",
      "outputs": [
        {
          "internalType": "contract IPoolManager",
          "name": "poolManager",
          "type": "address"
        },
        {
          "internalType": "contract IPerpetualManagerFrontWithClaim",
          "name": "perpetualManager",
          "type": "address"
        },
        {
          "internalType": "contract ISanToken",
          "name": "sanToken",
          "type": "address"
        },
        {
          "internalType": "contract ILiquidityGauge",
          "name": "gauge",
          "type": "address"
        }
      ],
      "stateMutability": "view",
      "type": "function"
    },
    {
      "inputs": [
        {
          "internalType": "contract IERC20",
          "name": "",
          "type": "address"
        }
      ],
      "name": "mapStableMasters",
      "outputs": [
        {
          "internalType": "contract IStableMasterFront",
          "name": "",
          "type": "address"
        }
      ],
      "stateMutability": "view",
      "type": "function"
    },
    {
      "inputs": [
        {
          "components": [
            {
              "internalType": "address",
              "name": "token",
              "type": "address"
            },
            {
              "internalType": "address",
              "name": "owner",
              "type": "address"
            },
            {
              "internalType": "uint256",
              "name": "value",
              "type": "uint256"
            },
            {
              "internalType": "uint256",
              "name": "deadline",
              "type": "uint256"
            },
            {
              "internalType": "uint8",
              "name": "v",
              "type": "uint8"
            },
            {
              "internalType": "bytes32",
              "name": "r",
              "type": "bytes32"
            },
            {
              "internalType": "bytes32",
              "name": "s",
              "type": "bytes32"
            }
          ],
          "internalType": "struct PermitType[]",
          "name": "paramsPermit",
          "type": "tuple[]"
        },
        {
          "internalType": "enum ActionType[]",
          "name": "actions",
          "type": "uint8[]"
        },
        {
          "internalType": "bytes[]",
          "name": "data",
          "type": "bytes[]"
        }
      ],
      "name": "mixer",
      "outputs": [],
      "stateMutability": "payable",
      "type": "function"
    },
    {
      "inputs": [
        {
          "components": [
            {
              "internalType": "address",
              "name": "vaultManager",
              "type": "address"
            },
            {
              "internalType": "address",
              "name": "owner",
              "type": "address"
            },
            {
              "internalType": "bool",
              "name": "approved",
              "type": "bool"
            },
            {
              "internalType": "uint256",
              "name": "deadline",
              "type": "uint256"
            },
            {
              "internalType": "uint8",
              "name": "v",
              "type": "uint8"
            },
            {
              "internalType": "bytes32",
              "name": "r",
              "type": "bytes32"
            },
            {
              "internalType": "bytes32",
              "name": "s",
              "type": "bytes32"
            }
          ],
          "internalType": "struct PermitVaultManagerType[]",
          "name": "paramsPermitVaultManager",
          "type": "tuple[]"
        },
        {
          "components": [
            {
              "internalType": "address",
              "name": "token",
              "type": "address"
            },
            {
              "internalType": "address",
              "name": "owner",
              "type": "address"
            },
            {
              "internalType": "uint256",
              "name": "value",
              "type": "uint256"
            },
            {
              "internalType": "uint256",
              "name": "deadline",
              "type": "uint256"
            },
            {
              "internalType": "uint8",
              "name": "v",
              "type": "uint8"
            },
            {
              "internalType": "bytes32",
              "name": "r",
              "type": "bytes32"
            },
            {
              "internalType": "bytes32",
              "name": "s",
              "type": "bytes32"
            }
          ],
          "internalType": "struct PermitType[]",
          "name": "paramsPermit",
          "type": "tuple[]"
        },
        {
          "internalType": "enum ActionType[]",
          "name": "actions",
          "type": "uint8[]"
        },
        {
          "internalType": "bytes[]",
          "name": "data",
          "type": "bytes[]"
        }
      ],
      "name": "mixerVaultManagerPermit",
      "outputs": [],
      "stateMutability": "payable",
      "type": "function"
    },
    {
      "inputs": [],
      "name": "oneInch",
      "outputs": [
        {
          "internalType": "address",
          "name": "",
          "type": "address"
        }
      ],
      "stateMutability": "view",
      "type": "function"
    },
    {
      "inputs": [
        {
          "internalType": "contract ICoreBorrow",
          "name": "_core",
          "type": "address"
        }
      ],
      "name": "setCore",
      "outputs": [],
      "stateMutability": "nonpayable",
      "type": "function"
    },
    {
      "inputs": [
        {
          "internalType": "address",
          "name": "router",
          "type": "address"
        },
        {
          "internalType": "uint8",
          "name": "who",
          "type": "uint8"
        }
      ],
      "name": "setRouter",
      "outputs": [],
      "stateMutability": "nonpayable",
      "type": "function"
    },
    {
      "inputs": [],
      "name": "uniswapV3Router",
      "outputs": [
        {
          "internalType": "contract IUniswapV3Router",
          "name": "",
          "type": "address"
        }
      ],
      "stateMutability": "view",
      "type": "function"
    },
    {
      "stateMutability": "payable",
      "type": "receive"
    }
  ],
  "transactionHash": "0x6cd5f7735eb461ae635b2707ab258a3d250788cdce2d52b04d7e1458edbfd4ba",
  "args": [],
  "numDeployments": 1,
  "solcInputHash": "0d1b1c94fd2e1964436c8b9a0e25c545",
  "bytecode": "0x60806040523480156200001157600080fd5b50600054610100900460ff1615808015620000335750600054600160ff909116105b8062000063575062000050306200013d60201b620019d91760201c565b15801562000063575060005460ff166001145b620000cb5760405162461bcd60e51b815260206004820152602e60248201527f496e697469616c697a61626c653a20636f6e747261637420697320616c72656160448201526d191e481a5b9a5d1a585b1a5e995960921b606482015260840160405180910390fd5b6000805460ff191660011790558015620000ef576000805461ff0019166101001790555b801562000136576000805461ff0019169055604051600181527f7f26b83ff96e1f2b6a682f133852f6798a09c465da95921460cefb38474024989060200160405180910390a15b506200014c565b6001600160a01b03163b151590565b61434a806200015c6000396000f3fe6080604052600436106100cb5760003560e01c80638000963011610074578063b80344241161004e578063b8034424146102bc578063b82c4dc1146102ff578063f2f4eb261461031f57600080fd5b8063800096301461026957806383f1d68114610289578063848c48da146102a957600080fd5b806342860d4b116100a557806342860d4b1461018957806359856d56146101ab5780637c295dfa146101be57600080fd5b8063045c08d5146100d75780632c76d7a61461012e57806340c7c4ed1461015b57600080fd5b366100d257005b600080fd5b3480156100e357600080fd5b506002546101049073ffffffffffffffffffffffffffffffffffffffff1681565b60405173ffffffffffffffffffffffffffffffffffffffff90911681526020015b60405180910390f35b34801561013a57600080fd5b506001546101049073ffffffffffffffffffffffffffffffffffffffff1681565b34801561016757600080fd5b5061017b610176366004613285565b610352565b604051908152602001610125565b34801561019557600080fd5b506101a96101a43660046132f5565b6103b9565b005b6101a96101b9366004613555565b610624565b3480156101ca57600080fd5b506102296101d93660046136db565b6033602090815260009283526040808420909152908252902080546001820154600283015460039093015473ffffffffffffffffffffffffffffffffffffffff9283169391831692918216911684565b6040805173ffffffffffffffffffffffffffffffffffffffff95861681529385166020850152918416918301919091529091166060820152608001610125565b34801561027557600080fd5b506101a9610284366004613714565b6109c0565b34801561029557600080fd5b506101a96102a4366004613731565b610b72565b6101a96102b7366004613766565b610d22565b3480156102c857600080fd5b506101046102d7366004613714565b60326020526000908152604090205473ffffffffffffffffffffffffffffffffffffffff1681565b34801561030b57600080fd5b506101a961031a3660046137fb565b61183b565b34801561032b57600080fd5b506000546101049062010000900473ffffffffffffffffffffffffffffffffffffffff1681565b600061037673ffffffffffffffffffffffffffffffffffffffff88163330886119f5565b6103a187877fffffffffffffffffffffffffffffffffffffffffffffffffffffffffffffffff611ad1565b6103ae8686868686611c0f565b979650505050505050565b600054610100900460ff16158080156103d95750600054600160ff909116105b806103f35750303b1580156103f3575060005460ff166001145b610484576040517f08c379a000000000000000000000000000000000000000000000000000000000815260206004820152602e60248201527f496e697469616c697a61626c653a20636f6e747261637420697320616c72656160448201527f647920696e697469616c697a656400000000000000000000000000000000000060648201526084015b60405180910390fd5b600080547fffffffffffffffffffffffffffffffffffffffffffffffffffffffffffffff0016600117905580156104e257600080547fffffffffffffffffffffffffffffffffffffffffffffffffffffffffffff00ff166101001790555b73ffffffffffffffffffffffffffffffffffffffff841661052f576040517fd92e233d00000000000000000000000000000000000000000000000000000000815260040160405180910390fd5b6000805473ffffffffffffffffffffffffffffffffffffffff80871662010000027fffffffffffffffffffff0000000000000000000000000000000000000000ffff90921691909117909155600180548583167fffffffffffffffffffffffff0000000000000000000000000000000000000000918216179091556002805492851692909116919091179055801561061e57600080547fffffffffffffffffffffffffffffffffffffffffffffffffffffffffffff00ff169055604051600181527f7f26b83ff96e1f2b6a682f133852f6798a09c465da95921460cefb38474024989060200160405180910390a15b50505050565b855160005b818110156107ec5787818151811061064357610643613876565b602002602001015160400151156107d75787818151811061066657610666613876565b60200260200101516000015173ffffffffffffffffffffffffffffffffffffffff1663f51cc7dd89838151811061069f5761069f613876565b6020026020010151602001513060018c86815181106106c0576106c0613876565b6020026020010151606001518d87815181106106de576106de613876565b6020026020010151608001518e88815181106106fc576106fc613876565b602002602001015160a001518f898151811061071a5761071a613876565b602090810291909101015160c001516040517fffffffff0000000000000000000000000000000000000000000000000000000060e08a901b16815273ffffffffffffffffffffffffffffffffffffffff97881660048201529690951660248701529215156044860152606485019190915260ff16608484015260a483015260c482015260e401600060405180830381600087803b1580156107ba57600080fd5b505af11580156107ce573d6000803e3d6000fd5b505050506107dc565b6107ec565b6107e5816138d4565b9050610629565b506107fa8686868686610d22565b60005b818110156109b65787818151811061081757610817613876565b6020026020010151604001516109a65787818151811061083957610839613876565b60200260200101516000015173ffffffffffffffffffffffffffffffffffffffff1663f51cc7dd89838151811061087257610872613876565b6020026020010151602001513060008c868151811061089357610893613876565b6020026020010151606001518d87815181106108b1576108b1613876565b6020026020010151608001518e88815181106108cf576108cf613876565b602002602001015160a001518f89815181106108ed576108ed613876565b602090810291909101015160c001516040517fffffffff0000000000000000000000000000000000000000000000000000000060e08a901b16815273ffffffffffffffffffffffffffffffffffffffff97881660048201529690951660248701529215156044860152606485019190915260ff16608484015260a483015260c482015260e401600060405180830381600087803b15801561098d57600080fd5b505af11580156109a1573d6000803e3d6000fd5b505050505b6109af816138d4565b90506107fd565b5050505050505050565b6000546040517fe43581b80000000000000000000000000000000000000000000000000000000081523360048201526201000090910473ffffffffffffffffffffffffffffffffffffffff169063e43581b890602401602060405180830381865afa158015610a33573d6000803e3d6000fd5b505050506040513d601f19601f82011682018060405250810190610a57919061390c565b1580610aee57506040517fe43581b800000000000000000000000000000000000000000000000000000000815233600482015273ffffffffffffffffffffffffffffffffffffffff82169063e43581b890602401602060405180830381865afa158015610ac8573d6000803e3d6000fd5b505050506040513d601f19601f82011682018060405250810190610aec919061390c565b155b15610b25576040517fee3675d400000000000000000000000000000000000000000000000000000000815260040160405180910390fd5b6000805473ffffffffffffffffffffffffffffffffffffffff90921662010000027fffffffffffffffffffff0000000000000000000000000000000000000000ffff909216919091179055565b6000546040517f521d4de90000000000000000000000000000000000000000000000000000000081523360048201526201000090910473ffffffffffffffffffffffffffffffffffffffff169063521d4de990602401602060405180830381865afa158015610be5573d6000803e3d6000fd5b505050506040513d601f19601f82011682018060405250810190610c09919061390c565b610c3f576040517f99e120bc00000000000000000000000000000000000000000000000000000000815260040160405180910390fd5b73ffffffffffffffffffffffffffffffffffffffff8216610c8c576040517fd92e233d00000000000000000000000000000000000000000000000000000000815260040160405180910390fd5b8060ff16600003610cdd576001805473ffffffffffffffffffffffffffffffffffffffff84167fffffffffffffffffffffffff00000000000000000000000000000000000000009091161790555050565b600280547fffffffffffffffffffffffff00000000000000000000000000000000000000001673ffffffffffffffffffffffffffffffffffffffff84161790555b5050565b845160005b81811015610eda57868181518110610d4157610d41613876565b60200260200101516000015173ffffffffffffffffffffffffffffffffffffffff1663d505accf888381518110610d7a57610d7a613876565b602002602001015160200151308a8581518110610d9957610d99613876565b6020026020010151604001518b8681518110610db757610db7613876565b6020026020010151606001518c8781518110610dd557610dd5613876565b6020026020010151608001518d8881518110610df357610df3613876565b602002602001015160a001518e8981518110610e1157610e11613876565b602090810291909101015160c001516040517fffffffff0000000000000000000000000000000000000000000000000000000060e08a901b16815273ffffffffffffffffffffffffffffffffffffffff97881660048201529690951660248701526044860193909352606485019190915260ff16608484015260a483015260c482015260e401600060405180830381600087803b158015610eb157600080fd5b505af1158015610ec5573d6000803e3d6000fd5b5050505080610ed3906138d4565b9050610d27565b508360005b818110156109b6576000878783818110610efb57610efb613876565b9050602002016020810190610f109190613958565b601b811115610f2157610f21613929565b03611044576000806000878785818110610f3d57610f3d613876565b9050602002810190610f4f9190613979565b810190610f5c91906139e9565b9250925092507fffffffffffffffffffffffffffffffffffffffffffffffffffffffffffffffff810361101a576040517f70a0823100000000000000000000000000000000000000000000000000000000815233600482015273ffffffffffffffffffffffffffffffffffffffff8416906370a0823190602401602060405180830381865afa158015610ff3573d6000803e3d6000fd5b505050506040513d601f19601f820116820180604052508101906110179190613a2a565b90505b61103c73ffffffffffffffffffffffffffffffffffffffff84163384846119f5565b50505061182b565b600187878381811061105857611058613876565b905060200201602081019061106d9190613958565b601b81111561107e5761107e613929565b036110915761108b611c8a565b5061182b565b60028787838181106110a5576110a5613876565b90506020020160208101906110ba9190613958565b601b8111156110cb576110cb613929565b03611112576000808686848181106110e5576110e5613876565b90506020028101906110f79190613979565b8101906111049190613a43565b9150915061103c8282611d07565b600387878381811061112657611126613876565b905060200201602081019061113b9190613958565b601b81111561114c5761114c613929565b0361119857600080600087878581811061116857611168613876565b905060200281019061117a9190613979565b8101906111879190613a68565b92509250925061103c838383611e4e565b60048787838181106111ac576111ac613876565b90506020020160208101906111c19190613958565b601b8111156111d2576111d2613929565b036111e85747801561108b5761108b3382611f12565b60068787838181106111fc576111fc613876565b90506020020160208101906112119190613958565b601b81111561122257611222613929565b0361127757600080600087878581811061123e5761123e613876565b90506020028101906112509190613979565b81019061125d9190613b2d565b92509250925061126e838383611f5c565b5050505061182b565b600787878381811061128b5761128b613876565b90506020020160208101906112a09190613958565b601b8111156112b1576112b1613929565b036112ff576000808686848181106112cb576112cb613876565b90506020028101906112dd9190613979565b8101906112ea9190613b86565b915091506112f8828261204a565b505061182b565b600987878381811061131357611313613876565b90506020020160208101906113289190613958565b601b81111561133957611339613929565b036113dc5760008060008060008060008b8b8981811061135b5761135b613876565b905060200281019061136d9190613979565b81019061137a9190613d29565b96509650965096509650965096506113948383888a612107565b91506113c187877fffffffffffffffffffffffffffffffffffffffffffffffffffffffffffffffff611ad1565b6113cf868484888886612634565b505050505050505061182b565b600a8787838181106113f0576113f0613876565b90506020020160208101906114059190613958565b601b81111561141657611416613929565b036114805760008060008060008060008b8b8981811061143857611438613876565b905060200281019061144a9190613979565b8101906114579190613df8565b9650965096509650965096509650611474878787878787876126fe565b5050505050505061182b565b600b87878381811061149457611494613876565b90506020020160208101906114a99190613958565b601b8111156114ba576114ba613929565b036115445760008060008060008989878181106114d9576114d9613876565b90506020028101906114eb9190613979565b8101906114f89190613e84565b9450945094509450945061152d85857fffffffffffffffffffffffffffffffffffffffffffffffffffffffffffffffff611ad1565b61153984848484612795565b50505050505061182b565b600c87878381811061155857611558613876565b905060200201602081019061156d9190613958565b601b81111561157e5761157e613929565b036115fd57600080600080600089898781811061159d5761159d613876565b90506020028101906115af9190613979565b8101906115bc9190613e84565b945094509450945094506115f185857fffffffffffffffffffffffffffffffffffffffffffffffffffffffffffffffff611ad1565b61153984848484612841565b601b87878381811061161157611611613876565b90506020020160208101906116269190613958565b601b81111561163757611637613929565b036116ba576000806000806000808a8a8881811061165757611657613876565b90506020028101906116699190613979565b8101906116769190613285565b9550955095509550955095506116ad86867fffffffffffffffffffffffffffffffffffffffffffffffffffffffffffffffff611ad1565b6114748585858585611c0f565b600d8787838181106116ce576116ce613876565b90506020020160208101906116e39190613958565b601b8111156116f4576116f4613929565b0361174e5760008060008088888681811061171157611711613876565b90506020028101906117239190613979565b8101906117309190613edf565b9350935093509350611744848484846128eb565b505050505061182b565b600e87878381811061176257611762613876565b90506020020160208101906117779190613958565b601b81111561178857611788613929565b036117d8576000806000808888868181106117a5576117a5613876565b90506020028101906117b79190613979565b8101906117c49190613edf565b935093509350935061174484848484612953565b61182b8787838181106117ed576117ed613876565b90506020020160208101906118029190613958565b86868481811061181457611814613876565b90506020028101906118269190613979565b6129be565b611834816138d4565b9050610edf565b6000546040517f521d4de90000000000000000000000000000000000000000000000000000000081523360048201526201000090910473ffffffffffffffffffffffffffffffffffffffff169063521d4de990602401602060405180830381865afa1580156118ae573d6000803e3d6000fd5b505050506040513d601f19601f820116820180604052508101906118d2919061390c565b611908576040517f99e120bc00000000000000000000000000000000000000000000000000000000815260040160405180910390fd5b8483811415806119185750808214155b1561194f576040517f46282e8d00000000000000000000000000000000000000000000000000000000815260040160405180910390fd5b60005b818110156109b6576119c988888381811061196f5761196f613876565b90506020020160208101906119849190613714565b87878481811061199657611996613876565b90506020020160208101906119ab9190613714565b8686858181106119bd576119bd613876565b90506020020135611ad1565b6119d2816138d4565b9050611952565b73ffffffffffffffffffffffffffffffffffffffff163b151590565b60405173ffffffffffffffffffffffffffffffffffffffff8085166024830152831660448201526064810182905261061e9085907f23b872dd00000000000000000000000000000000000000000000000000000000906084015b604080517fffffffffffffffffffffffffffffffffffffffffffffffffffffffffffffffe08184030181529190526020810180517bffffffffffffffffffffffffffffffffffffffffffffffffffffffff167fffffffff0000000000000000000000000000000000000000000000000000000090931692909217909152612a3d565b6040517fdd62ed3e00000000000000000000000000000000000000000000000000000000815230600482015273ffffffffffffffffffffffffffffffffffffffff83811660248301526000919085169063dd62ed3e90604401602060405180830381865afa158015611b47573d6000803e3d6000fd5b505050506040513d601f19601f82011682018060405250810190611b6b9190613a2a565b90508181108015611ba55750611ba260027fffffffffffffffffffffffffffffffffffffffffffffffffffffffffffffffff613f27565b81105b15611bdb57611bd683611bb88385613f62565b73ffffffffffffffffffffffffffffffffffffffff87169190612b49565b61061e565b8181111561061e5761061e83611bf18484613f62565b73ffffffffffffffffffffffffffffffffffffffff87169190612c47565b6000611c1d86868686612841565b604080513381526020810188905290810182905290915073ffffffffffffffffffffffffffffffffffffffff80841691888216918716907ff0abe475665c1088274490f21db8d3d3351d565d49d5222cc54656fba17f49119060600160405180910390a495945050505050565b600073c02aaa39b223fe8d0a0e5c4f27ead9083c756cc273ffffffffffffffffffffffffffffffffffffffff1663d0e30db0346040518263ffffffff1660e01b81526004016000604051808303818588803b158015611ce857600080fd5b505af1158015611cfc573d6000803e3d6000fd5b505050505034905090565b600073c02aaa39b223fe8d0a0e5c4f27ead9083c756cc26040517f70a0823100000000000000000000000000000000000000000000000000000000815230600482015273ffffffffffffffffffffffffffffffffffffffff91909116906370a0823190602401602060405180830381865afa158015611d8a573d6000803e3d6000fd5b505050506040513d601f19601f82011682018060405250810190611dae9190613a2a565b9050611dba8184612dcd565b8015611e48576040517f2e1a7d4d0000000000000000000000000000000000000000000000000000000081526004810182905273c02aaa39b223fe8d0a0e5c4f27ead9083c756cc290632e1a7d4d90602401600060405180830381600087803b158015611e2657600080fd5b505af1158015611e3a573d6000803e3d6000fd5b50505050611e488282611f12565b92915050565b6040517f70a0823100000000000000000000000000000000000000000000000000000000815230600482015260009073ffffffffffffffffffffffffffffffffffffffff8516906370a0823190602401602060405180830381865afa158015611ebb573d6000803e3d6000fd5b505050506040513d601f19601f82011682018060405250810190611edf9190613a2a565b9050611eeb8184612dcd565b801561061e5761061e73ffffffffffffffffffffffffffffffffffffffff85168383612e07565b600080600080600085875af1905080611f57576040517f90b8ec1800000000000000000000000000000000000000000000000000000000815260040160405180910390fd5b505050565b60025460009073ffffffffffffffffffffffffffffffffffffffff16611fa385827fffffffffffffffffffffffffffffffffffffffffffffffffffffffffffffffff611ad1565b6000808273ffffffffffffffffffffffffffffffffffffffff1685604051611fcb9190613f99565b6000604051808303816000865af19150503d8060008114612008576040519150601f19603f3d011682016040523d82523d6000602084013e61200d565b606091505b5091509150816120205761202081612e5d565b808060200190518101906120349190613a2a565b93506120408487612dcd565b5050509392505050565b805160005b8181101561061e5782818151811061206957612069613876565b60209081029190910101516040517f84e9bd7e00000000000000000000000000000000000000000000000000000000815273ffffffffffffffffffffffffffffffffffffffff8681166004830152909116906384e9bd7e90602401600060405180830381600087803b1580156120de57600080fd5b505af11580156120f2573d6000803e3d6000fd5b5050505080612100906138d4565b905061204f565b835160609060008167ffffffffffffffff81111561212757612127613340565b604051908082528060200260200182016040528015612150578160200160208202803683370190505b5090506000806000805b85811015612622576000808c838151811061217757612177613876565b6020026020010151600781111561219057612190613929565b0361219f576001945050612612565b60028c83815181106121b3576121b3613876565b602002602001015160078111156121cc576121cc613929565b036122e35760008b83815181106121e5576121e5613876565b60200260200101518060200190518101906122009190613fb5565b9092509050600181016122dc576040517f70a08231000000000000000000000000000000000000000000000000000000008152306004820152829073ffffffffffffffffffffffffffffffffffffffff8c16906370a0823190602401602060405180830381865afa158015612279573d6000803e3d6000fd5b505050506040513d601f19601f8201168201806040525081019061229d9190613a2a565b6040805160208101939093528201526060016040516020818303038152906040528c84815181106122d0576122d0613876565b60200260200101819052505b5050612612565b60038c83815181106122f7576122f7613876565b6020026020010151600781111561231057612310613929565b1480612346575060058c838151811061232b5761232b613876565b6020026020010151600781111561234457612344613929565b145b15612380578a828151811061235d5761235d613876565b60200260200101518060200190518101906123789190613fb5565b509050612457565b60018c838151811061239457612394613876565b602002602001015160078111156123ad576123ad613929565b036123e6578a82815181106123c4576123c4613876565b60200260200101518060200190518101906123df9190613a2a565b9050612457565b60068c83815181106123fa576123fa613876565b6020026020010151600781111561241357612413613929565b03612451578a828151811061242a5761242a613876565b60200260200101518060200190518101906124459190613fd9565b50919250612457915050565b50612612565b806000036124e857841561246b5750612612565b836000036124e5578973ffffffffffffffffffffffffffffffffffffffff16633c2e941b6040518163ffffffff1660e01b8152600401602060405180830381865afa1580156124be573d6000803e3d6000fd5b505050506040513d601f19601f820116820180604052508101906124e29190613a2a565b93505b50825b60005b83811015612519578187828151811061250657612506613876565b505050612512816138d4565b90506124eb565b506040517f430c20810000000000000000000000000000000000000000000000000000000081523360048201526024810182905273ffffffffffffffffffffffffffffffffffffffff8b169063430c208190604401602060405180830381865afa15801561258b573d6000803e3d6000fd5b505050506040513d601f19601f820116820180604052508101906125af919061390c565b6125e5576040517fe433766c00000000000000000000000000000000000000000000000000000000815260040160405180910390fd5b808684815181106125f8576125f8613876565b602090810291909101015261260e600184614017565b9250505b61261b816138d4565b905061215a565b5088955050505050505b949350505050565b61265f6040518060800160405280600081526020016000815260200160008152602001600081525090565b6040517fde8fc69800000000000000000000000000000000000000000000000000000000815273ffffffffffffffffffffffffffffffffffffffff88169063de8fc698906126bb908990899033908a908a908a906004016140b9565b6080604051808303816000875af11580156126da573d6000803e3d6000fd5b505050506040513d601f19601f820116820180604052508101906103ae91906141b9565b6040517fa5d4096b00000000000000000000000000000000000000000000000000000000815273ffffffffffffffffffffffffffffffffffffffff88169063a5d4096b9061275a9089908990899089908990899060040161421f565b600060405180830381600087803b15801561277457600080fd5b505af1158015612788573d6000803e3d6000fd5b5050505050505050505050565b6040517f94bf804d0000000000000000000000000000000000000000000000000000000081526004810184905273ffffffffffffffffffffffffffffffffffffffff838116602483015260009161262c918491908816906394bf804d906044015b6020604051808303816000875af1158015612815573d6000803e3d6000fd5b505050506040513d601f19601f820116820180604052508101906128399190613a2a565b925082612dcd565b6040517f6e553f650000000000000000000000000000000000000000000000000000000081526004810184905273ffffffffffffffffffffffffffffffffffffffff838116602483015260009161262c91871690636e553f65906044015b6020604051808303816000875af11580156128be573d6000803e3d6000fd5b505050506040513d601f19601f820116820180604052508101906128e29190613a2a565b91508183612dcd565b6040517fba0876520000000000000000000000000000000000000000000000000000000081526004810184905273ffffffffffffffffffffffffffffffffffffffff838116602483015233604483015260009161262c9187169063ba0876529060640161289f565b6040517fb460af940000000000000000000000000000000000000000000000000000000081526004810184905273ffffffffffffffffffffffffffffffffffffffff838116602483015233604483015260009161262c9184919088169063b460af94906064016127f6565b601383601b8111156129d2576129d2613929565b03612a0057600080806129e784860186614278565b9250925092506129f8838383612e9e565b505050505050565b601983601b811115612a1457612a14613929565b03611f5757600080612a28838501856142b8565b91509150612a368282612fd3565b5050505050565b6000612a9f826040518060400160405280602081526020017f5361666545524332303a206c6f772d6c6576656c2063616c6c206661696c65648152508573ffffffffffffffffffffffffffffffffffffffff1661306e9092919063ffffffff16565b805190915015611f575780806020019051810190612abd919061390c565b611f57576040517f08c379a000000000000000000000000000000000000000000000000000000000815260206004820152602a60248201527f5361666545524332303a204552433230206f7065726174696f6e20646964206e60448201527f6f74207375636365656400000000000000000000000000000000000000000000606482015260840161047b565b6040517fdd62ed3e00000000000000000000000000000000000000000000000000000000815230600482015273ffffffffffffffffffffffffffffffffffffffff8381166024830152600091839186169063dd62ed3e90604401602060405180830381865afa158015612bc0573d6000803e3d6000fd5b505050506040513d601f19601f82011682018060405250810190612be49190613a2a565b612bee9190614017565b60405173ffffffffffffffffffffffffffffffffffffffff851660248201526044810182905290915061061e9085907f095ea7b30000000000000000000000000000000000000000000000000000000090606401611a4f565b6040517fdd62ed3e00000000000000000000000000000000000000000000000000000000815230600482015273ffffffffffffffffffffffffffffffffffffffff83811660248301526000919085169063dd62ed3e90604401602060405180830381865afa158015612cbd573d6000803e3d6000fd5b505050506040513d601f19601f82011682018060405250810190612ce19190613a2a565b905081811015612d73576040517f08c379a000000000000000000000000000000000000000000000000000000000815260206004820152602960248201527f5361666545524332303a2064656372656173656420616c6c6f77616e6365206260448201527f656c6f77207a65726f0000000000000000000000000000000000000000000000606482015260840161047b565b60405173ffffffffffffffffffffffffffffffffffffffff841660248201528282036044820181905290612a369086907f095ea7b30000000000000000000000000000000000000000000000000000000090606401611a4f565b80821015610d1e576040517fa1aabbe100000000000000000000000000000000000000000000000000000000815260040160405180910390fd5b60405173ffffffffffffffffffffffffffffffffffffffff8316602482015260448101829052611f579084907fa9059cbb0000000000000000000000000000000000000000000000000000000090606401611a4f565b805115612e6c57805181602001fd5b6040517fee418e3700000000000000000000000000000000000000000000000000000000815260040160405180910390fd5b6040517f1e83409a00000000000000000000000000000000000000000000000000000000815273ffffffffffffffffffffffffffffffffffffffff848116600483015260009190841690631e83409a906024016020604051808303816000875af1158015612f10573d6000803e3d6000fd5b505050506040513d601f19601f82011682018060405250810190612f349190613a2a565b9050811561061e5760008373ffffffffffffffffffffffffffffffffffffffff1663fc0c546a6040518163ffffffff1660e01b81526004016020604051808303816000875af1158015612f8b573d6000803e3d6000fd5b505050506040513d601f19601f82011682018060405250810190612faf91906142e4565b9050612a3673ffffffffffffffffffffffffffffffffffffffff82163330856119f5565b730c462dbb9ec8cd1630f1728b2cfd2769d09f0dd56040517f3a46273e00000000000000000000000000000000000000000000000000000000815273ffffffffffffffffffffffffffffffffffffffff8481166004830152602482018490529190911690633a46273e90604401600060405180830381600087803b15801561305a57600080fd5b505af11580156129f8573d6000803e3d6000fd5b606061307d8484600085613087565b90505b9392505050565b606082471015613119576040517f08c379a000000000000000000000000000000000000000000000000000000000815260206004820152602660248201527f416464726573733a20696e73756666696369656e742062616c616e636520666f60448201527f722063616c6c0000000000000000000000000000000000000000000000000000606482015260840161047b565b73ffffffffffffffffffffffffffffffffffffffff85163b613197576040517f08c379a000000000000000000000000000000000000000000000000000000000815260206004820152601d60248201527f416464726573733a2063616c6c20746f206e6f6e2d636f6e7472616374000000604482015260640161047b565b6000808673ffffffffffffffffffffffffffffffffffffffff1685876040516131c09190613f99565b60006040518083038185875af1925050503d80600081146131fd576040519150601f19603f3d011682016040523d82523d6000602084013e613202565b606091505b50915091506103ae8282866060831561321c575081613080565b82511561322c5782518084602001fd5b816040517f08c379a000000000000000000000000000000000000000000000000000000000815260040161047b9190614301565b73ffffffffffffffffffffffffffffffffffffffff8116811461328257600080fd5b50565b60008060008060008060c0878903121561329e57600080fd5b86356132a981613260565b955060208701356132b981613260565b94506040870135935060608701356132d081613260565b92506080870135915060a08701356132e781613260565b809150509295509295509295565b60008060006060848603121561330a57600080fd5b833561331581613260565b9250602084013561332581613260565b9150604084013561333581613260565b809150509250925092565b7f4e487b7100000000000000000000000000000000000000000000000000000000600052604160045260246000fd5b60405160e0810167ffffffffffffffff8111828210171561339257613392613340565b60405290565b604051601f82017fffffffffffffffffffffffffffffffffffffffffffffffffffffffffffffffe016810167ffffffffffffffff811182821017156133df576133df613340565b604052919050565b600067ffffffffffffffff82111561340157613401613340565b5060051b60200190565b801515811461328257600080fd5b803560ff8116811461342a57600080fd5b919050565b600082601f83011261344057600080fd5b81356020613455613450836133e7565b613398565b82815260e0928302850182019282820191908785111561347457600080fd5b8387015b858110156134fc5781818a0312156134905760008081fd5b61349861336f565b81356134a381613260565b8152818601356134b281613260565b81870152604082810135908201526060808301359082015260806134d7818401613419565b9082015260a0828101359082015260c080830135908201528452928401928101613478565b5090979650505050505050565b60008083601f84011261351b57600080fd5b50813567ffffffffffffffff81111561353357600080fd5b6020830191508360208260051b850101111561354e57600080fd5b9250929050565b6000806000806000806080878903121561356e57600080fd5b863567ffffffffffffffff8082111561358657600080fd5b818901915089601f83011261359a57600080fd5b813560206135aa613450836133e7565b82815260e09092028401810191818101908d8411156135c857600080fd5b948201945b8386101561365f5760e0868f0312156135e65760008081fd5b6135ee61336f565b86356135f981613260565b81528684013561360881613260565b8185015260408781013561361b8161340b565b908201526060878101359082015261363560808801613419565b608082015260a0878101359082015260c08088013590820152825260e090950194908201906135cd565b9a50508a01359250508082111561367557600080fd5b6136818a838b0161342f565b9650604089013591508082111561369757600080fd5b6136a38a838b01613509565b909650945060608901359150808211156136bc57600080fd5b506136c989828a01613509565b979a9699509497509295939492505050565b600080604083850312156136ee57600080fd5b82356136f981613260565b9150602083013561370981613260565b809150509250929050565b60006020828403121561372657600080fd5b813561308081613260565b6000806040838503121561374457600080fd5b823561374f81613260565b915061375d60208401613419565b90509250929050565b60008060008060006060868803121561377e57600080fd5b853567ffffffffffffffff8082111561379657600080fd5b6137a289838a0161342f565b965060208801359150808211156137b857600080fd5b6137c489838a01613509565b909650945060408801359150808211156137dd57600080fd5b506137ea88828901613509565b969995985093965092949392505050565b6000806000806000806060878903121561381457600080fd5b863567ffffffffffffffff8082111561382c57600080fd5b6138388a838b01613509565b9098509650602089013591508082111561385157600080fd5b61385d8a838b01613509565b909650945060408901359150808211156136bc57600080fd5b7f4e487b7100000000000000000000000000000000000000000000000000000000600052603260045260246000fd5b7f4e487b7100000000000000000000000000000000000000000000000000000000600052601160045260246000fd5b60007fffffffffffffffffffffffffffffffffffffffffffffffffffffffffffffffff8203613905576139056138a5565b5060010190565b60006020828403121561391e57600080fd5b81516130808161340b565b7f4e487b7100000000000000000000000000000000000000000000000000000000600052602160045260246000fd5b60006020828403121561396a57600080fd5b8135601c811061308057600080fd5b60008083357fffffffffffffffffffffffffffffffffffffffffffffffffffffffffffffffe18436030181126139ae57600080fd5b83018035915067ffffffffffffffff8211156139c957600080fd5b60200191503681900382131561354e57600080fd5b803561342a81613260565b6000806000606084860312156139fe57600080fd5b8335613a0981613260565b92506020840135613a1981613260565b929592945050506040919091013590565b600060208284031215613a3c57600080fd5b5051919050565b60008060408385031215613a5657600080fd5b82359150602083013561370981613260565b600080600060608486031215613a7d57600080fd5b8335613a8881613260565b925060208401359150604084013561333581613260565b600082601f830112613ab057600080fd5b813567ffffffffffffffff811115613aca57613aca613340565b613afb60207fffffffffffffffffffffffffffffffffffffffffffffffffffffffffffffffe0601f84011601613398565b818152846020838601011115613b1057600080fd5b816020850160208301376000918101602001919091529392505050565b600080600060608486031215613b4257600080fd5b8335613b4d81613260565b925060208401359150604084013567ffffffffffffffff811115613b7057600080fd5b613b7c86828701613a9f565b9150509250925092565b60008060408385031215613b9957600080fd5b8235613ba481613260565b915060208381013567ffffffffffffffff811115613bc157600080fd5b8401601f81018613613bd257600080fd5b8035613be0613450826133e7565b81815260059190911b82018301908381019088831115613bff57600080fd5b928401925b82841015613c26578335613c1781613260565b82529284019290840190613c04565b80955050505050509250929050565b600082601f830112613c4657600080fd5b81356020613c56613450836133e7565b82815260059290921b84018101918181019086841115613c7557600080fd5b8286015b84811015613c9e57803560088110613c915760008081fd5b8352918301918301613c79565b509695505050505050565b600082601f830112613cba57600080fd5b81356020613cca613450836133e7565b82815260059290921b84018101918181019086841115613ce957600080fd5b8286015b84811015613c9e57803567ffffffffffffffff811115613d0d5760008081fd5b613d1b8986838b0101613a9f565b845250918301918301613ced565b600080600080600080600060e0888a031215613d4457600080fd5b8735613d4f81613260565b96506020880135613d5f81613260565b9550613d6d604089016139de565b9450613d7b606089016139de565b9350608088013567ffffffffffffffff80821115613d9857600080fd5b613da48b838c01613c35565b945060a08a0135915080821115613dba57600080fd5b613dc68b838c01613ca9565b935060c08a0135915080821115613ddc57600080fd5b50613de98a828b01613a9f565b91505092959891949750929550565b600080600080600080600060e0888a031215613e1357600080fd5b8735613e1e81613260565b96506020880135613e2e81613260565b95506040880135613e3e81613260565b94506060880135613e4e81613260565b93506080880135925060a0880135915060c088013567ffffffffffffffff811115613e7857600080fd5b613de98a828b01613a9f565b600080600080600060a08688031215613e9c57600080fd5b8535613ea781613260565b94506020860135613eb781613260565b9350604086013592506060860135613ece81613260565b949793965091946080013592915050565b60008060008060808587031215613ef557600080fd5b8435613f0081613260565b9350602085013592506040850135613f1781613260565b9396929550929360600135925050565b600082613f5d577f4e487b7100000000000000000000000000000000000000000000000000000000600052601260045260246000fd5b500490565b81810381811115611e4857611e486138a5565b60005b83811015613f90578181015183820152602001613f78565b50506000910152565b60008251613fab818460208701613f75565b9190910192915050565b60008060408385031215613fc857600080fd5b505080516020909101519092909150565b60008060008060808587031215613fef57600080fd5b84519350602085015161400181613260565b6040860151606090960151949790965092505050565b80820180821115611e4857611e486138a5565b60008151808452614042816020860160208601613f75565b601f017fffffffffffffffffffffffffffffffffffffffffffffffffffffffffffffffe0169290920160200192915050565b6000815180845260208085019450848260051b860182860160005b858110156134fc5783830389526140a783835161402a565b9885019892509084019060010161408f565b60c0808252875190820181905260009060209060e0840190828b0184805b8381101561412857825160088110614116577f4e487b710000000000000000000000000000000000000000000000000000000083526021600452602483fd5b855293850193918501916001016140d7565b505050508381038285015261413d818a614074565b915050614162604084018873ffffffffffffffffffffffffffffffffffffffff169052565b73ffffffffffffffffffffffffffffffffffffffff8616606084015273ffffffffffffffffffffffffffffffffffffffff8516608084015282810360a08401526141ac818561402a565b9998505050505050505050565b6000608082840312156141cb57600080fd5b6040516080810181811067ffffffffffffffff821117156141ee576141ee613340565b8060405250825181526020830151602082015260408301516040820152606083015160608201528091505092915050565b600073ffffffffffffffffffffffffffffffffffffffff8089168352808816602084015280871660408401525084606083015283608083015260c060a083015261426c60c083018461402a565b98975050505050505050565b60008060006060848603121561428d57600080fd5b833561429881613260565b925060208401356142a881613260565b915060408401356133358161340b565b600080604083850312156142cb57600080fd5b82356142d681613260565b946020939093013593505050565b6000602082840312156142f657600080fd5b815161308081613260565b602081526000613080602083018461402a56fea2646970667358221220c3a78ab9ffbbdabd4f0ad18a672ac65a721280c80797004fdec97bbebfdc5d7f64736f6c63430008110033",
  "devdoc": {
    "author": "Angle Core Team",
    "details": "Previous implementation with an initialization function can be found here: https://etherscan.io/address/0x1b2ffdad478d8770ea0e085bdd4e31120736fcd7#code",
    "kind": "dev",
    "methods": {
      "changeAllowance(address[],address[],uint256[])": {
        "params": {
          "amounts": "Amounts to allow",
          "spenders": "Addresses to allow transfer",
          "tokens": "Addresses of the tokens to allow"
        }
      },
      "mixer((address,address,uint256,uint256,uint8,bytes32,bytes32)[],uint8[],bytes[])": {
        "details": "With this function, users can specify paths to swap tokens to the desired token of their choice. Yet the protocol does not verify the payload given and cannot check that the swap performed by users actually gives the desired out token: in this case funds may be made accessible to anyone on this contract if the concerned users do not perform a sweep action on these tokens",
        "params": {
          "actions": "List of actions to be performed by the router (in order of execution)",
          "data": "Array of encoded data for each of the actions performed in this mixer. This is where the bytes-encoded parameters for a given action are stored",
          "paramsPermit": "Array of params `PermitType` used to do a 1 tx to approve the router on each token (can be done once by setting high approved amounts) which supports the `permit` standard. Users willing to interact with the contract with tokens that do not support permit should approve the contract for these tokens prior to interacting with it"
        }
      },
      "mixerVaultManagerPermit((address,address,bool,uint256,uint8,bytes32,bytes32)[],(address,address,uint256,uint256,uint8,bytes32,bytes32)[],uint8[],bytes[])": {
        "details": "In `paramsPermitVaultManager`, the signatures for granting approvals must be given first before the signatures to revoke approvalsThe router contract has been built to be safe to keep approvals as you cannot take an action on a vault you are not approved for, but people wary about their approvals may want to grant it before immediately revoking it, although this is just an option",
        "params": {
          "paramsPermitVaultManager": "Parameters to sign permit to give allowance to the router for a `VaultManager` contract"
        }
      }
    },
    "title": "AngleRouterMainnet",
    "version": 1
  },
  "userdoc": {
    "kind": "user",
    "methods": {
      "changeAllowance(address[],address[],uint256[])": {
        "notice": "Changes allowances for different tokens"
      },
      "core()": {
        "notice": "Core address handling access control"
      },
      "deposit4626Referral(address,address,uint256,address,uint256,address)": {
        "notice": "Wrapper built on top of the base `_deposit4626Referral` function to add a proxy enabling to track addresses depositing from a certain referring address into an ERC4626 contract"
      },
      "initializeRouter(address,address,address)": {
        "notice": "Deploys the router contract on a chain"
      },
      "mapPoolManagers(address,address)": {
        "notice": "Maps a `StableMaster` to a mapping of collateral token to its counterpart `PoolManager`"
      },
      "mapStableMasters(address)": {
        "notice": "Maps an agToken to its counterpart `StableMaster`"
      },
      "mixer((address,address,uint256,uint256,uint8,bytes32,bytes32)[],uint8[],bytes[])": {
        "notice": "Allows composable calls to different functions within the protocol"
      },
      "mixerVaultManagerPermit((address,address,bool,uint256,uint8,bytes32,bytes32)[],(address,address,uint256,uint256,uint8,bytes32,bytes32)[],uint8[],bytes[])": {
        "notice": "Wrapper built on top of the base `mixer` function to grant approval to a `VaultManager` contract before performing actions and then revoking this approval after these actions"
      },
      "oneInch()": {
        "notice": "Address of 1Inch router used for swaps"
      },
      "setCore(address)": {
        "notice": "Sets a new `core` contract"
      },
      "setRouter(address,uint8)": {
        "notice": "Sets a new router variable"
      },
      "uniswapV3Router()": {
        "notice": "Address of the router used for swaps"
      }
    },
    "notice": "Router contract built specifially for Angle use cases on Ethereum",
    "version": 1
  },
  "storageLayout": {
    "storage": [
      {
        "astId": 6,
        "contract": "contracts/implementations/mainnet/AngleRouterMainnet.sol:AngleRouterMainnet",
        "label": "_initialized",
        "offset": 0,
        "slot": "0",
        "type": "t_uint8"
      },
      {
        "astId": 9,
        "contract": "contracts/implementations/mainnet/AngleRouterMainnet.sol:AngleRouterMainnet",
        "label": "_initializing",
        "offset": 1,
        "slot": "0",
        "type": "t_bool"
      },
      {
        "astId": 1478,
        "contract": "contracts/implementations/mainnet/AngleRouterMainnet.sol:AngleRouterMainnet",
        "label": "core",
        "offset": 2,
        "slot": "0",
        "type": "t_contract(ICoreBorrow)3793"
      },
      {
        "astId": 1482,
        "contract": "contracts/implementations/mainnet/AngleRouterMainnet.sol:AngleRouterMainnet",
        "label": "uniswapV3Router",
        "offset": 0,
        "slot": "1",
        "type": "t_contract(IUniswapV3Router)4262"
      },
      {
        "astId": 1485,
        "contract": "contracts/implementations/mainnet/AngleRouterMainnet.sol:AngleRouterMainnet",
        "label": "oneInch",
        "offset": 0,
        "slot": "2",
        "type": "t_address"
      },
      {
        "astId": 1489,
        "contract": "contracts/implementations/mainnet/AngleRouterMainnet.sol:AngleRouterMainnet",
        "label": "__gap",
        "offset": 0,
        "slot": "3",
        "type": "t_array(t_uint256)47_storage"
      },
      {
        "astId": 3566,
        "contract": "contracts/implementations/mainnet/AngleRouterMainnet.sol:AngleRouterMainnet",
        "label": "mapStableMasters",
        "offset": 0,
        "slot": "50",
        "type": "t_mapping(t_contract(IERC20)756,t_contract(IStableMasterFront)4056)"
      },
      {
        "astId": 3576,
        "contract": "contracts/implementations/mainnet/AngleRouterMainnet.sol:AngleRouterMainnet",
        "label": "mapPoolManagers",
        "offset": 0,
        "slot": "51",
        "type": "t_mapping(t_contract(IStableMasterFront)4056,t_mapping(t_contract(IERC20)756,t_struct(Pairs)3550_storage))"
      },
      {
        "astId": 3580,
        "contract": "contracts/implementations/mainnet/AngleRouterMainnet.sol:AngleRouterMainnet",
        "label": "__gapMainnet",
        "offset": 0,
        "slot": "52",
        "type": "t_array(t_uint256)48_storage"
      }
    ],
    "types": {
      "t_address": {
        "encoding": "inplace",
        "label": "address",
        "numberOfBytes": "20"
      },
      "t_array(t_uint256)47_storage": {
        "base": "t_uint256",
        "encoding": "inplace",
        "label": "uint256[47]",
        "numberOfBytes": "1504"
      },
      "t_array(t_uint256)48_storage": {
        "base": "t_uint256",
        "encoding": "inplace",
        "label": "uint256[48]",
        "numberOfBytes": "1536"
      },
      "t_bool": {
        "encoding": "inplace",
        "label": "bool",
        "numberOfBytes": "1"
      },
      "t_contract(ICoreBorrow)3793": {
        "encoding": "inplace",
        "label": "contract ICoreBorrow",
        "numberOfBytes": "20"
      },
      "t_contract(IERC20)756": {
        "encoding": "inplace",
        "label": "contract IERC20",
        "numberOfBytes": "20"
      },
      "t_contract(ILiquidityGauge)3876": {
        "encoding": "inplace",
        "label": "contract ILiquidityGauge",
        "numberOfBytes": "20"
      },
      "t_contract(IPerpetualManagerFrontWithClaim)3907": {
        "encoding": "inplace",
        "label": "contract IPerpetualManagerFrontWithClaim",
        "numberOfBytes": "20"
      },
      "t_contract(IPoolManager)3915": {
        "encoding": "inplace",
        "label": "contract IPoolManager",
        "numberOfBytes": "20"
      },
      "t_contract(ISanToken)3921": {
        "encoding": "inplace",
        "label": "contract ISanToken",
        "numberOfBytes": "20"
      },
      "t_contract(IStableMasterFront)4056": {
        "encoding": "inplace",
        "label": "contract IStableMasterFront",
        "numberOfBytes": "20"
      },
      "t_contract(IUniswapV3Router)4262": {
        "encoding": "inplace",
        "label": "contract IUniswapV3Router",
        "numberOfBytes": "20"
      },
      "t_mapping(t_contract(IERC20)756,t_contract(IStableMasterFront)4056)": {
        "encoding": "mapping",
        "key": "t_contract(IERC20)756",
        "label": "mapping(contract IERC20 => contract IStableMasterFront)",
        "numberOfBytes": "32",
        "value": "t_contract(IStableMasterFront)4056"
      },
      "t_mapping(t_contract(IERC20)756,t_struct(Pairs)3550_storage)": {
        "encoding": "mapping",
        "key": "t_contract(IERC20)756",
        "label": "mapping(contract IERC20 => struct Pairs)",
        "numberOfBytes": "32",
        "value": "t_struct(Pairs)3550_storage"
      },
      "t_mapping(t_contract(IStableMasterFront)4056,t_mapping(t_contract(IERC20)756,t_struct(Pairs)3550_storage))": {
        "encoding": "mapping",
        "key": "t_contract(IStableMasterFront)4056",
        "label": "mapping(contract IStableMasterFront => mapping(contract IERC20 => struct Pairs))",
        "numberOfBytes": "32",
        "value": "t_mapping(t_contract(IERC20)756,t_struct(Pairs)3550_storage)"
      },
      "t_struct(Pairs)3550_storage": {
        "encoding": "inplace",
        "label": "struct Pairs",
        "members": [
          {
            "astId": 3540,
            "contract": "contracts/implementations/mainnet/AngleRouterMainnet.sol:AngleRouterMainnet",
            "label": "poolManager",
            "offset": 0,
            "slot": "0",
            "type": "t_contract(IPoolManager)3915"
          },
          {
            "astId": 3543,
            "contract": "contracts/implementations/mainnet/AngleRouterMainnet.sol:AngleRouterMainnet",
            "label": "perpetualManager",
            "offset": 0,
            "slot": "1",
            "type": "t_contract(IPerpetualManagerFrontWithClaim)3907"
          },
          {
            "astId": 3546,
            "contract": "contracts/implementations/mainnet/AngleRouterMainnet.sol:AngleRouterMainnet",
            "label": "sanToken",
            "offset": 0,
            "slot": "2",
            "type": "t_contract(ISanToken)3921"
          },
          {
            "astId": 3549,
            "contract": "contracts/implementations/mainnet/AngleRouterMainnet.sol:AngleRouterMainnet",
            "label": "gauge",
            "offset": 0,
            "slot": "3",
            "type": "t_contract(ILiquidityGauge)3876"
          }
        ],
        "numberOfBytes": "128"
      },
      "t_uint256": {
        "encoding": "inplace",
        "label": "uint256",
        "numberOfBytes": "32"
      },
      "t_uint8": {
        "encoding": "inplace",
        "label": "uint8",
        "numberOfBytes": "1"
      }
    }
  }
}