{
  "address": "0xb3036ca920d7526cb1b95e60f4dba2ddac1830aa",
  "abi": [
    {
      "inputs": [],
      "name": "IncompatibleLengths",
      "type": "error"
    },
    {
      "inputs": [],
      "name": "InvalidParams",
      "type": "error"
    },
    {
      "inputs": [],
      "name": "InvalidReturnMessage",
      "type": "error"
    },
    {
      "inputs": [],
      "name": "NotApprovedOrOwner",
      "type": "error"
    },
    {
      "inputs": [],
      "name": "NotGovernor",
      "type": "error"
    },
    {
      "inputs": [],
      "name": "NotGovernorOrGuardian",
      "type": "error"
    },
    {
      "inputs": [],
      "name": "TooSmallAmountOut",
      "type": "error"
    },
    {
      "inputs": [],
      "name": "TransferFailed",
      "type": "error"
    },
    {
      "inputs": [],
      "name": "ZeroAddress",
      "type": "error"
    },
    {
      "anonymous": false,
      "inputs": [
        {
          "indexed": false,
          "internalType": "uint8",
          "name": "version",
          "type": "uint8"
        }
      ],
      "name": "Initialized",
      "type": "event"
    },
    {
      "inputs": [
        {
          "internalType": "contract IERC20[]",
          "name": "tokens",
          "type": "address[]"
        },
        {
          "internalType": "address[]",
          "name": "spenders",
          "type": "address[]"
        },
        {
          "internalType": "uint256[]",
          "name": "amounts",
          "type": "uint256[]"
        }
      ],
      "name": "changeAllowance",
      "outputs": [],
      "stateMutability": "nonpayable",
      "type": "function"
    },
    {
      "inputs": [],
      "name": "core",
      "outputs": [
        {
          "internalType": "contract ICoreBorrow",
          "name": "",
          "type": "address"
        }
      ],
      "stateMutability": "view",
      "type": "function"
    },
    {
      "inputs": [
        {
          "internalType": "address",
          "name": "_core",
          "type": "address"
        },
        {
          "internalType": "address",
          "name": "_uniswapRouter",
          "type": "address"
        },
        {
          "internalType": "address",
          "name": "_oneInch",
          "type": "address"
        }
      ],
      "name": "initializeRouter",
      "outputs": [],
      "stateMutability": "nonpayable",
      "type": "function"
    },
    {
      "inputs": [
        {
          "internalType": "contract IStableMasterFront",
          "name": "",
          "type": "address"
        },
        {
          "internalType": "contract IERC20",
          "name": "",
          "type": "address"
        }
      ],
      "name": "mapPoolManagers",
      "outputs": [
        {
          "internalType": "contract IPoolManager",
          "name": "poolManager",
          "type": "address"
        },
        {
          "internalType": "contract IPerpetualManagerFrontWithClaim",
          "name": "perpetualManager",
          "type": "address"
        },
        {
          "internalType": "contract ISanToken",
          "name": "sanToken",
          "type": "address"
        },
        {
          "internalType": "contract ILiquidityGauge",
          "name": "gauge",
          "type": "address"
        }
      ],
      "stateMutability": "view",
      "type": "function"
    },
    {
      "inputs": [
        {
          "internalType": "contract IERC20",
          "name": "",
          "type": "address"
        }
      ],
      "name": "mapStableMasters",
      "outputs": [
        {
          "internalType": "contract IStableMasterFront",
          "name": "",
          "type": "address"
        }
      ],
      "stateMutability": "view",
      "type": "function"
    },
    {
      "inputs": [
        {
          "components": [
            {
              "internalType": "address",
              "name": "token",
              "type": "address"
            },
            {
              "internalType": "address",
              "name": "owner",
              "type": "address"
            },
            {
              "internalType": "uint256",
              "name": "value",
              "type": "uint256"
            },
            {
              "internalType": "uint256",
              "name": "deadline",
              "type": "uint256"
            },
            {
              "internalType": "uint8",
              "name": "v",
              "type": "uint8"
            },
            {
              "internalType": "bytes32",
              "name": "r",
              "type": "bytes32"
            },
            {
              "internalType": "bytes32",
              "name": "s",
              "type": "bytes32"
            }
          ],
          "internalType": "struct PermitType[]",
          "name": "paramsPermit",
          "type": "tuple[]"
        },
        {
          "internalType": "enum ActionType[]",
          "name": "actions",
          "type": "uint8[]"
        },
        {
          "internalType": "bytes[]",
          "name": "data",
          "type": "bytes[]"
        }
      ],
      "name": "mixer",
      "outputs": [],
      "stateMutability": "payable",
      "type": "function"
    },
    {
      "inputs": [
        {
          "components": [
            {
              "internalType": "address",
              "name": "vaultManager",
              "type": "address"
            },
            {
              "internalType": "address",
              "name": "owner",
              "type": "address"
            },
            {
              "internalType": "bool",
              "name": "approved",
              "type": "bool"
            },
            {
              "internalType": "uint256",
              "name": "deadline",
              "type": "uint256"
            },
            {
              "internalType": "uint8",
              "name": "v",
              "type": "uint8"
            },
            {
              "internalType": "bytes32",
              "name": "r",
              "type": "bytes32"
            },
            {
              "internalType": "bytes32",
              "name": "s",
              "type": "bytes32"
            }
          ],
          "internalType": "struct PermitVaultManagerType[]",
          "name": "paramsPermitVaultManager",
          "type": "tuple[]"
        },
        {
          "components": [
            {
              "internalType": "address",
              "name": "token",
              "type": "address"
            },
            {
              "internalType": "address",
              "name": "owner",
              "type": "address"
            },
            {
              "internalType": "uint256",
              "name": "value",
              "type": "uint256"
            },
            {
              "internalType": "uint256",
              "name": "deadline",
              "type": "uint256"
            },
            {
              "internalType": "uint8",
              "name": "v",
              "type": "uint8"
            },
            {
              "internalType": "bytes32",
              "name": "r",
              "type": "bytes32"
            },
            {
              "internalType": "bytes32",
              "name": "s",
              "type": "bytes32"
            }
          ],
          "internalType": "struct PermitType[]",
          "name": "paramsPermit",
          "type": "tuple[]"
        },
        {
          "internalType": "enum ActionType[]",
          "name": "actions",
          "type": "uint8[]"
        },
        {
          "internalType": "bytes[]",
          "name": "data",
          "type": "bytes[]"
        }
      ],
      "name": "mixerVaultManagerPermit",
      "outputs": [],
      "stateMutability": "payable",
      "type": "function"
    },
    {
      "inputs": [],
      "name": "oneInch",
      "outputs": [
        {
          "internalType": "address",
          "name": "",
          "type": "address"
        }
      ],
      "stateMutability": "view",
      "type": "function"
    },
    {
      "inputs": [
        {
          "internalType": "contract ICoreBorrow",
          "name": "_core",
          "type": "address"
        }
      ],
      "name": "setCore",
      "outputs": [],
      "stateMutability": "nonpayable",
      "type": "function"
    },
    {
      "inputs": [
        {
          "internalType": "address",
          "name": "router",
          "type": "address"
        },
        {
          "internalType": "uint8",
          "name": "who",
          "type": "uint8"
        }
      ],
      "name": "setRouter",
      "outputs": [],
      "stateMutability": "nonpayable",
      "type": "function"
    },
    {
      "inputs": [],
      "name": "uniswapV3Router",
      "outputs": [
        {
          "internalType": "contract IUniswapV3Router",
          "name": "",
          "type": "address"
        }
      ],
      "stateMutability": "view",
      "type": "function"
    },
    {
      "stateMutability": "payable",
      "type": "receive"
    }
  ],
  "transactionHash": "0x3b34e0a4380cc18e28fee5e3f6990db9e7db74d0a1a7df851b3ab325c71ea4e0",
  "args": [],
  "numDeployments": 1,
  "solcInputHash": "60e4a46fe40986afe989de080020ba89",
  "bytecode": "0x60806040523480156200001157600080fd5b50600054610100900460ff1615808015620000335750600054600160ff909116105b8062000063575062000050306200013d60201b620019901760201c565b15801562000063575060005460ff166001145b620000cb5760405162461bcd60e51b815260206004820152602e60248201527f496e697469616c697a61626c653a20636f6e747261637420697320616c72656160448201526d191e481a5b9a5d1a585b1a5e995960921b606482015260840160405180910390fd5b6000805460ff191660011790558015620000ef576000805461ff0019166101001790555b801562000136576000805461ff0019169055604051600181527f7f26b83ff96e1f2b6a682f133852f6798a09c465da95921460cefb38474024989060200160405180910390a15b506200014c565b6001600160a01b03163b151590565b614d2d806200015c6000396000f3fe6080604052600436106100c05760003560e01c80638000963011610074578063b80344241161004e578063b803442414610283578063b82c4dc1146102c6578063f2f4eb26146102e657600080fd5b8063800096301461023057806383f1d68114610250578063848c48da1461027057600080fd5b806342860d4b116100a557806342860d4b1461015057806359856d56146101725780637c295dfa1461018557600080fd5b8063045c08d5146100cc5780632c76d7a61461012357600080fd5b366100c757005b600080fd5b3480156100d857600080fd5b506002546100f99073ffffffffffffffffffffffffffffffffffffffff1681565b60405173ffffffffffffffffffffffffffffffffffffffff90911681526020015b60405180910390f35b34801561012f57600080fd5b506001546100f99073ffffffffffffffffffffffffffffffffffffffff1681565b34801561015c57600080fd5b5061017061016b36600461399a565b610319565b005b610170610180366004613bfe565b610584565b34801561019157600080fd5b506101f06101a0366004613d84565b6033602090815260009283526040808420909152908252902080546001820154600283015460039093015473ffffffffffffffffffffffffffffffffffffffff9283169391831692918216911684565b6040805173ffffffffffffffffffffffffffffffffffffffff9586168152938516602085015291841691830191909152909116606082015260800161011a565b34801561023c57600080fd5b5061017061024b366004613dbd565b610920565b34801561025c57600080fd5b5061017061026b366004613dda565b610ad2565b61017061027e366004613e0f565b610c82565b34801561028f57600080fd5b506100f961029e366004613dbd565b60326020526000908152604090205473ffffffffffffffffffffffffffffffffffffffff1681565b3480156102d257600080fd5b506101706102e1366004613ea4565b6117f2565b3480156102f257600080fd5b506000546100f99062010000900473ffffffffffffffffffffffffffffffffffffffff1681565b600054610100900460ff16158080156103395750600054600160ff909116105b806103535750303b158015610353575060005460ff166001145b6103e4576040517f08c379a000000000000000000000000000000000000000000000000000000000815260206004820152602e60248201527f496e697469616c697a61626c653a20636f6e747261637420697320616c72656160448201527f647920696e697469616c697a656400000000000000000000000000000000000060648201526084015b60405180910390fd5b600080547fffffffffffffffffffffffffffffffffffffffffffffffffffffffffffffff00166001179055801561044257600080547fffffffffffffffffffffffffffffffffffffffffffffffffffffffffffff00ff166101001790555b73ffffffffffffffffffffffffffffffffffffffff841661048f576040517fd92e233d00000000000000000000000000000000000000000000000000000000815260040160405180910390fd5b6000805473ffffffffffffffffffffffffffffffffffffffff80871662010000027fffffffffffffffffffff0000000000000000000000000000000000000000ffff90921691909117909155600180548583167fffffffffffffffffffffffff0000000000000000000000000000000000000000918216179091556002805492851692909116919091179055801561057e57600080547fffffffffffffffffffffffffffffffffffffffffffffffffffffffffffff00ff169055604051600181527f7f26b83ff96e1f2b6a682f133852f6798a09c465da95921460cefb38474024989060200160405180910390a15b50505050565b855160005b8181101561074c578781815181106105a3576105a3613f1f565b60200260200101516040015115610737578781815181106105c6576105c6613f1f565b60200260200101516000015173ffffffffffffffffffffffffffffffffffffffff1663f51cc7dd8983815181106105ff576105ff613f1f565b6020026020010151602001513060018c868151811061062057610620613f1f565b6020026020010151606001518d878151811061063e5761063e613f1f565b6020026020010151608001518e888151811061065c5761065c613f1f565b602002602001015160a001518f898151811061067a5761067a613f1f565b602090810291909101015160c001516040517fffffffff0000000000000000000000000000000000000000000000000000000060e08a901b16815273ffffffffffffffffffffffffffffffffffffffff97881660048201529690951660248701529215156044860152606485019190915260ff16608484015260a483015260c482015260e401600060405180830381600087803b15801561071a57600080fd5b505af115801561072e573d6000803e3d6000fd5b5050505061073c565b61074c565b61074581613f7d565b9050610589565b5061075a8686868686610c82565b60005b818110156109165787818151811061077757610777613f1f565b6020026020010151604001516109065787818151811061079957610799613f1f565b60200260200101516000015173ffffffffffffffffffffffffffffffffffffffff1663f51cc7dd8983815181106107d2576107d2613f1f565b6020026020010151602001513060008c86815181106107f3576107f3613f1f565b6020026020010151606001518d878151811061081157610811613f1f565b6020026020010151608001518e888151811061082f5761082f613f1f565b602002602001015160a001518f898151811061084d5761084d613f1f565b602090810291909101015160c001516040517fffffffff0000000000000000000000000000000000000000000000000000000060e08a901b16815273ffffffffffffffffffffffffffffffffffffffff97881660048201529690951660248701529215156044860152606485019190915260ff16608484015260a483015260c482015260e401600060405180830381600087803b1580156108ed57600080fd5b505af1158015610901573d6000803e3d6000fd5b505050505b61090f81613f7d565b905061075d565b5050505050505050565b6000546040517fe43581b80000000000000000000000000000000000000000000000000000000081523360048201526201000090910473ffffffffffffffffffffffffffffffffffffffff169063e43581b890602401602060405180830381865afa158015610993573d6000803e3d6000fd5b505050506040513d601f19601f820116820180604052508101906109b79190613fb5565b1580610a4e57506040517fe43581b800000000000000000000000000000000000000000000000000000000815233600482015273ffffffffffffffffffffffffffffffffffffffff82169063e43581b890602401602060405180830381865afa158015610a28573d6000803e3d6000fd5b505050506040513d601f19601f82011682018060405250810190610a4c9190613fb5565b155b15610a85576040517fee3675d400000000000000000000000000000000000000000000000000000000815260040160405180910390fd5b6000805473ffffffffffffffffffffffffffffffffffffffff90921662010000027fffffffffffffffffffff0000000000000000000000000000000000000000ffff909216919091179055565b6000546040517f521d4de90000000000000000000000000000000000000000000000000000000081523360048201526201000090910473ffffffffffffffffffffffffffffffffffffffff169063521d4de990602401602060405180830381865afa158015610b45573d6000803e3d6000fd5b505050506040513d601f19601f82011682018060405250810190610b699190613fb5565b610b9f576040517f99e120bc00000000000000000000000000000000000000000000000000000000815260040160405180910390fd5b73ffffffffffffffffffffffffffffffffffffffff8216610bec576040517fd92e233d00000000000000000000000000000000000000000000000000000000815260040160405180910390fd5b8060ff16600003610c3d576001805473ffffffffffffffffffffffffffffffffffffffff84167fffffffffffffffffffffffff00000000000000000000000000000000000000009091161790555050565b600280547fffffffffffffffffffffffff00000000000000000000000000000000000000001673ffffffffffffffffffffffffffffffffffffffff84161790555b5050565b845160005b81811015610e3a57868181518110610ca157610ca1613f1f565b60200260200101516000015173ffffffffffffffffffffffffffffffffffffffff1663d505accf888381518110610cda57610cda613f1f565b602002602001015160200151308a8581518110610cf957610cf9613f1f565b6020026020010151604001518b8681518110610d1757610d17613f1f565b6020026020010151606001518c8781518110610d3557610d35613f1f565b6020026020010151608001518d8881518110610d5357610d53613f1f565b602002602001015160a001518e8981518110610d7157610d71613f1f565b602090810291909101015160c001516040517fffffffff0000000000000000000000000000000000000000000000000000000060e08a901b16815273ffffffffffffffffffffffffffffffffffffffff97881660048201529690951660248701526044860193909352606485019190915260ff16608484015260a483015260c482015260e401600060405180830381600087803b158015610e1157600080fd5b505af1158015610e25573d6000803e3d6000fd5b5050505080610e3390613f7d565b9050610c87565b508360005b81811015610916576000878783818110610e5b57610e5b613f1f565b9050602002016020810190610e709190614001565b601a811115610e8157610e81613fd2565b03610fa4576000806000878785818110610e9d57610e9d613f1f565b9050602002810190610eaf9190614022565b810190610ebc9190614092565b9250925092507fffffffffffffffffffffffffffffffffffffffffffffffffffffffffffffffff8103610f7a576040517f70a0823100000000000000000000000000000000000000000000000000000000815233600482015273ffffffffffffffffffffffffffffffffffffffff8416906370a0823190602401602060405180830381865afa158015610f53573d6000803e3d6000fd5b505050506040513d601f19601f82011682018060405250810190610f7791906140d3565b90505b610f9c73ffffffffffffffffffffffffffffffffffffffff84163384846119ac565b5050506117e2565b6001878783818110610fb857610fb8613f1f565b9050602002016020810190610fcd9190614001565b601a811115610fde57610fde613fd2565b03610ff157610feb611a88565b506117e2565b600287878381811061100557611005613f1f565b905060200201602081019061101a9190614001565b601a81111561102b5761102b613fd2565b036110725760008086868481811061104557611045613f1f565b90506020028101906110579190614022565b81019061106491906140ec565b91509150610f9c8282611b05565b600387878381811061108657611086613f1f565b905060200201602081019061109b9190614001565b601a8111156110ac576110ac613fd2565b036110f85760008060008787858181106110c8576110c8613f1f565b90506020028101906110da9190614022565b8101906110e79190614111565b925092509250610f9c838383611c4c565b600487878381811061110c5761110c613f1f565b90506020020160208101906111219190614001565b601a81111561113257611132613fd2565b0361114857478015610feb57610feb3382611d10565b600587878381811061115c5761115c613f1f565b90506020020160208101906111719190614001565b601a81111561118257611182613fd2565b036111dc5760008060008088888681811061119f5761119f613f1f565b90506020028101906111b19190614022565b8101906111be91906141d6565b93509350935093506111d284848484611d5a565b50505050506117e2565b60068787838181106111f0576111f0613f1f565b90506020020160208101906112059190614001565b601a81111561121657611216613fd2565b0361126b57600080600087878581811061123257611232613f1f565b90506020028101906112449190614022565b8101906112519190614239565b925092509250611262838383611e64565b505050506117e2565b600787878381811061127f5761127f613f1f565b90506020020160208101906112949190614001565b601a8111156112a5576112a5613fd2565b036112f3576000808686848181106112bf576112bf613f1f565b90506020028101906112d19190614022565b8101906112de9190614301565b915091506112ec8282611f52565b50506117e2565b600887878381811061130757611307613f1f565b905060200201602081019061131c9190614001565b601a81111561132d5761132d613fd2565b0361137d5760008060008088888681811061134a5761134a613f1f565b905060200281019061135c9190614022565b8101906113699190614351565b93509350935093506112628484848461200f565b600987878381811061139157611391613f1f565b90506020020160208101906113a69190614001565b601a8111156113b7576113b7613fd2565b0361145a5760008060008060008060008b8b898181106113d9576113d9613f1f565b90506020028101906113eb9190614022565b8101906113f8919061448d565b96509650965096509650965096506114128383888a61209b565b915061143f87877fffffffffffffffffffffffffffffffffffffffffffffffffffffffffffffffff6125c8565b61144d868484888886612706565b50505050505050506117e2565b600a87878381811061146e5761146e613f1f565b90506020020160208101906114839190614001565b601a81111561149457611494613fd2565b036114fe5760008060008060008060008b8b898181106114b6576114b6613f1f565b90506020028101906114c89190614022565b8101906114d5919061455c565b96509650965096509650965096506114f2878787878787876127db565b505050505050506117e2565b600b87878381811061151257611512613f1f565b90506020020160208101906115279190614001565b601a81111561153857611538613fd2565b036115c257600080600080600089898781811061155757611557613f1f565b90506020028101906115699190614022565b81019061157691906145e8565b945094509450945094506115ab85857fffffffffffffffffffffffffffffffffffffffffffffffffffffffffffffffff6125c8565b6115b784848484612872565b5050505050506117e2565b600c8787838181106115d6576115d6613f1f565b90506020020160208101906115eb9190614001565b601a8111156115fc576115fc613fd2565b0361167b57600080600080600089898781811061161b5761161b613f1f565b905060200281019061162d9190614022565b81019061163a91906145e8565b9450945094509450945061166f85857fffffffffffffffffffffffffffffffffffffffffffffffffffffffffffffffff6125c8565b6115b78484848461291e565b600d87878381811061168f5761168f613f1f565b90506020020160208101906116a49190614001565b601a8111156116b5576116b5613fd2565b03611705576000806000808888868181106116d2576116d2613f1f565b90506020028101906116e49190614022565b8101906116f19190614643565b93509350935093506111d2848484846129c8565b600e87878381811061171957611719613f1f565b905060200201602081019061172e9190614001565b601a81111561173f5761173f613fd2565b0361178f5760008060008088888681811061175c5761175c613f1f565b905060200281019061176e9190614022565b81019061177b9190614643565b93509350935093506111d284848484612a30565b6117e28787838181106117a4576117a4613f1f565b90506020020160208101906117b99190614001565b8686848181106117cb576117cb613f1f565b90506020028101906117dd9190614022565b612a9b565b6117eb81613f7d565b9050610e3f565b6000546040517f521d4de90000000000000000000000000000000000000000000000000000000081523360048201526201000090910473ffffffffffffffffffffffffffffffffffffffff169063521d4de990602401602060405180830381865afa158015611865573d6000803e3d6000fd5b505050506040513d601f19601f820116820180604052508101906118899190613fb5565b6118bf576040517f99e120bc00000000000000000000000000000000000000000000000000000000815260040160405180910390fd5b8483811415806118cf5750808214155b15611906576040517f46282e8d00000000000000000000000000000000000000000000000000000000815260040160405180910390fd5b60005b818110156109165761198088888381811061192657611926613f1f565b905060200201602081019061193b9190613dbd565b87878481811061194d5761194d613f1f565b90506020020160208101906119629190613dbd565b86868581811061197457611974613f1f565b905060200201356125c8565b61198981613f7d565b9050611909565b73ffffffffffffffffffffffffffffffffffffffff163b151590565b60405173ffffffffffffffffffffffffffffffffffffffff8085166024830152831660448201526064810182905261057e9085907f23b872dd00000000000000000000000000000000000000000000000000000000906084015b604080517fffffffffffffffffffffffffffffffffffffffffffffffffffffffffffffffe08184030181529190526020810180517bffffffffffffffffffffffffffffffffffffffffffffffffffffffff167fffffffff0000000000000000000000000000000000000000000000000000000090931692909217909152612caa565b600073c02aaa39b223fe8d0a0e5c4f27ead9083c756cc273ffffffffffffffffffffffffffffffffffffffff1663d0e30db0346040518263ffffffff1660e01b81526004016000604051808303818588803b158015611ae657600080fd5b505af1158015611afa573d6000803e3d6000fd5b505050505034905090565b600073c02aaa39b223fe8d0a0e5c4f27ead9083c756cc26040517f70a0823100000000000000000000000000000000000000000000000000000000815230600482015273ffffffffffffffffffffffffffffffffffffffff91909116906370a0823190602401602060405180830381865afa158015611b88573d6000803e3d6000fd5b505050506040513d601f19601f82011682018060405250810190611bac91906140d3565b9050611bb88184612db6565b8015611c46576040517f2e1a7d4d0000000000000000000000000000000000000000000000000000000081526004810182905273c02aaa39b223fe8d0a0e5c4f27ead9083c756cc290632e1a7d4d90602401600060405180830381600087803b158015611c2457600080fd5b505af1158015611c38573d6000803e3d6000fd5b50505050611c468282611d10565b92915050565b6040517f70a0823100000000000000000000000000000000000000000000000000000000815230600482015260009073ffffffffffffffffffffffffffffffffffffffff8516906370a0823190602401602060405180830381865afa158015611cb9573d6000803e3d6000fd5b505050506040513d601f19601f82011682018060405250810190611cdd91906140d3565b9050611ce98184612db6565b801561057e5761057e73ffffffffffffffffffffffffffffffffffffffff85168383612df0565b600080600080600085875af1905080611d55576040517f90b8ec1800000000000000000000000000000000000000000000000000000000815260040160405180910390fd5b505050565b60015460009073ffffffffffffffffffffffffffffffffffffffff16611da186827fffffffffffffffffffffffffffffffffffffffffffffffffffffffffffffffff6125c8565b6040805160a0810182528481523060208201524281830152606081018790526080810186905290517fc04b8d5900000000000000000000000000000000000000000000000000000000815273ffffffffffffffffffffffffffffffffffffffff83169163c04b8d5991611e1791906004016146f9565b6020604051808303816000875af1158015611e36573d6000803e3d6000fd5b505050506040513d601f19601f82011682018060405250810190611e5a91906140d3565b9695505050505050565b60025460009073ffffffffffffffffffffffffffffffffffffffff16611eab85827fffffffffffffffffffffffffffffffffffffffffffffffffffffffffffffffff6125c8565b6000808273ffffffffffffffffffffffffffffffffffffffff1685604051611ed3919061475f565b6000604051808303816000865af19150503d8060008114611f10576040519150601f19603f3d011682016040523d82523d6000602084013e611f15565b606091505b509150915081611f2857611f2881612e46565b80806020019051810190611f3c91906140d3565b9350611f488487612db6565b5050509392505050565b805160005b8181101561057e57828181518110611f7157611f71613f1f565b60209081029190910101516040517f84e9bd7e00000000000000000000000000000000000000000000000000000000815273ffffffffffffffffffffffffffffffffffffffff8681166004830152909116906384e9bd7e90602401600060405180830381600087803b158015611fe657600080fd5b505af1158015611ffa573d6000803e3d6000fd5b505050508061200890613f7d565b9050611f57565b6040517f83df67470000000000000000000000000000000000000000000000000000000081526004810184905273ffffffffffffffffffffffffffffffffffffffff858116602483015282151560448301528316906383df674790606401600060405180830381600087803b15801561208757600080fd5b505af1158015610916573d6000803e3d6000fd5b835160609060008167ffffffffffffffff8111156120bb576120bb6139e5565b6040519080825280602002602001820160405280156120e4578160200160208202803683370190505b5090506000806000805b858110156125b6576000808c838151811061210b5761210b613f1f565b6020026020010151600781111561212457612124613fd2565b036121335760019450506125a6565b60028c838151811061214757612147613f1f565b6020026020010151600781111561216057612160613fd2565b036122775760008b838151811061217957612179613f1f565b6020026020010151806020019051810190612194919061477b565b909250905060018101612270576040517f70a08231000000000000000000000000000000000000000000000000000000008152306004820152829073ffffffffffffffffffffffffffffffffffffffff8c16906370a0823190602401602060405180830381865afa15801561220d573d6000803e3d6000fd5b505050506040513d601f19601f8201168201806040525081019061223191906140d3565b6040805160208101939093528201526060016040516020818303038152906040528c848151811061226457612264613f1f565b60200260200101819052505b50506125a6565b60038c838151811061228b5761228b613f1f565b602002602001015160078111156122a4576122a4613fd2565b14806122da575060058c83815181106122bf576122bf613f1f565b602002602001015160078111156122d8576122d8613fd2565b145b15612314578a82815181106122f1576122f1613f1f565b602002602001015180602001905181019061230c919061477b565b5090506123eb565b60018c838151811061232857612328613f1f565b6020026020010151600781111561234157612341613fd2565b0361237a578a828151811061235857612358613f1f565b602002602001015180602001905181019061237391906140d3565b90506123eb565b60068c838151811061238e5761238e613f1f565b602002602001015160078111156123a7576123a7613fd2565b036123e5578a82815181106123be576123be613f1f565b60200260200101518060200190518101906123d9919061479f565b509192506123eb915050565b506125a6565b8060000361247c5784156123ff57506125a6565b83600003612479578973ffffffffffffffffffffffffffffffffffffffff16633c2e941b6040518163ffffffff1660e01b8152600401602060405180830381865afa158015612452573d6000803e3d6000fd5b505050506040513d601f19601f8201168201806040525081019061247691906140d3565b93505b50825b60005b838110156124ad578187828151811061249a5761249a613f1f565b5050506124a681613f7d565b905061247f565b506040517f430c20810000000000000000000000000000000000000000000000000000000081523360048201526024810182905273ffffffffffffffffffffffffffffffffffffffff8b169063430c208190604401602060405180830381865afa15801561251f573d6000803e3d6000fd5b505050506040513d601f19601f820116820180604052508101906125439190613fb5565b612579576040517fe433766c00000000000000000000000000000000000000000000000000000000815260040160405180910390fd5b8086848151811061258c5761258c613f1f565b60209081029190910101526125a26001846147dd565b9250505b6125af81613f7d565b90506120ee565b5088955050505050505b949350505050565b6040517fdd62ed3e00000000000000000000000000000000000000000000000000000000815230600482015273ffffffffffffffffffffffffffffffffffffffff83811660248301526000919085169063dd62ed3e90604401602060405180830381865afa15801561263e573d6000803e3d6000fd5b505050506040513d601f19601f8201168201806040525081019061266291906140d3565b9050818110801561269c575061269960027fffffffffffffffffffffffffffffffffffffffffffffffffffffffffffffffff6147f0565b81105b156126d2576126cd836126af838561482b565b73ffffffffffffffffffffffffffffffffffffffff87169190612e87565b61057e565b8181111561057e5761057e836126e8848461482b565b73ffffffffffffffffffffffffffffffffffffffff87169190612f85565b6127316040518060800160405280600081526020016000815260200160008152602001600081525090565b6040517fde8fc69800000000000000000000000000000000000000000000000000000000815273ffffffffffffffffffffffffffffffffffffffff88169063de8fc6989061278d908990899033908a908a908a90600401614893565b6080604051808303816000875af11580156127ac573d6000803e3d6000fd5b505050506040513d601f19601f820116820180604052508101906127d09190614993565b979650505050505050565b6040517fa5d4096b00000000000000000000000000000000000000000000000000000000815273ffffffffffffffffffffffffffffffffffffffff88169063a5d4096b90612837908990899089908990899089906004016149f9565b600060405180830381600087803b15801561285157600080fd5b505af1158015612865573d6000803e3d6000fd5b5050505050505050505050565b6040517f94bf804d0000000000000000000000000000000000000000000000000000000081526004810184905273ffffffffffffffffffffffffffffffffffffffff83811660248301526000916125c0918491908816906394bf804d906044015b6020604051808303816000875af11580156128f2573d6000803e3d6000fd5b505050506040513d601f19601f8201168201806040525081019061291691906140d3565b925082612db6565b6040517f6e553f650000000000000000000000000000000000000000000000000000000081526004810184905273ffffffffffffffffffffffffffffffffffffffff83811660248301526000916125c091871690636e553f65906044015b6020604051808303816000875af115801561299b573d6000803e3d6000fd5b505050506040513d601f19601f820116820180604052508101906129bf91906140d3565b91508183612db6565b6040517fba0876520000000000000000000000000000000000000000000000000000000081526004810184905273ffffffffffffffffffffffffffffffffffffffff83811660248301523360448301526000916125c09187169063ba0876529060640161297c565b6040517fb460af940000000000000000000000000000000000000000000000000000000081526004810184905273ffffffffffffffffffffffffffffffffffffffff83811660248301523360448301526000916125c09184919088169063b460af94906064016128d3565b601a83601a811115612aaf57612aaf613fd2565b03612aec5760008080808080612ac787890189614aad565b955095509550955095509550612ae186868686868661310b565b505050505050505050565b601383601a811115612b0057612b00613fd2565b03612b2e5760008080612b1584860186614b7a565b925092509250612b26838383613330565b505050505050565b601983601a811115612b4257612b42613fd2565b03612b6b57600080612b5683850185614bba565b91509150612b648282613465565b5050505050565b601683601a811115612b7f57612b7f613fd2565b03612bb15760008080808080612b9787890189614be6565b955095509550955095509550612ae1868686868686613500565b601483601a811115612bc557612bc5613fd2565b03611d5557600080808080612bdc86880188614c5f565b945094509450945094507fffffffffffffffffffffffffffffffffffffffffffffffffffffffffffffffff8503612c9e576040517f70a0823100000000000000000000000000000000000000000000000000000000815230600482015273ffffffffffffffffffffffffffffffffffffffff8216906370a0823190602401602060405180830381865afa158015612c77573d6000803e3d6000fd5b505050506040513d601f19601f82011682018060405250810190612c9b91906140d3565b94505b610916858585856135a7565b6000612d0c826040518060400160405280602081526020017f5361666545524332303a206c6f772d6c6576656c2063616c6c206661696c65648152508573ffffffffffffffffffffffffffffffffffffffff1661368d9092919063ffffffff16565b805190915015611d555780806020019051810190612d2a9190613fb5565b611d55576040517f08c379a000000000000000000000000000000000000000000000000000000000815260206004820152602a60248201527f5361666545524332303a204552433230206f7065726174696f6e20646964206e60448201527f6f7420737563636565640000000000000000000000000000000000000000000060648201526084016103db565b80821015610c7e576040517fa1aabbe100000000000000000000000000000000000000000000000000000000815260040160405180910390fd5b60405173ffffffffffffffffffffffffffffffffffffffff8316602482015260448101829052611d559084907fa9059cbb0000000000000000000000000000000000000000000000000000000090606401611a06565b805115612e5557805181602001fd5b6040517fee418e3700000000000000000000000000000000000000000000000000000000815260040160405180910390fd5b6040517fdd62ed3e00000000000000000000000000000000000000000000000000000000815230600482015273ffffffffffffffffffffffffffffffffffffffff8381166024830152600091839186169063dd62ed3e90604401602060405180830381865afa158015612efe573d6000803e3d6000fd5b505050506040513d601f19601f82011682018060405250810190612f2291906140d3565b612f2c91906147dd565b60405173ffffffffffffffffffffffffffffffffffffffff851660248201526044810182905290915061057e9085907f095ea7b30000000000000000000000000000000000000000000000000000000090606401611a06565b6040517fdd62ed3e00000000000000000000000000000000000000000000000000000000815230600482015273ffffffffffffffffffffffffffffffffffffffff83811660248301526000919085169063dd62ed3e90604401602060405180830381865afa158015612ffb573d6000803e3d6000fd5b505050506040513d601f19601f8201168201806040525081019061301f91906140d3565b9050818110156130b1576040517f08c379a000000000000000000000000000000000000000000000000000000000815260206004820152602960248201527f5361666545524332303a2064656372656173656420616c6c6f77616e6365206260448201527f656c6f77207a65726f000000000000000000000000000000000000000000000060648201526084016103db565b60405173ffffffffffffffffffffffffffffffffffffffff841660248201528282036044820181905290612b649086907f095ea7b30000000000000000000000000000000000000000000000000000000090606401611a06565b835180158015906131285750808351141580613128575080825114155b1561315f576040517f46282e8d00000000000000000000000000000000000000000000000000000000815260040160405180910390fd5b855160005b8181101561321c5787818151811061317e5761317e613f1f565b60209081029190910101516040517f84e9bd7e00000000000000000000000000000000000000000000000000000000815273ffffffffffffffffffffffffffffffffffffffff8b81166004830152909116906384e9bd7e90602401600060405180830381600087803b1580156131f357600080fd5b505af1158015613207573d6000803e3d6000fd5b505050508061321590613f7d565b9050613164565b5060005b82811015612ae157600086156132515784828151811061324257613242613f1f565b60200260200101519050613298565b600061328f87848151811061326857613268613f1f565b602002602001015187858151811061328257613282613f1f565b60200260200101516136a6565b60200151925050505b8073ffffffffffffffffffffffffffffffffffffffff16631c4b774b8984815181106132c6576132c6613f1f565b60200260200101516040518263ffffffff1660e01b81526004016132ec91815260200190565b600060405180830381600087803b15801561330657600080fd5b505af115801561331a573d6000803e3d6000fd5b50505050508061332990613f7d565b9050613220565b6040517f1e83409a00000000000000000000000000000000000000000000000000000000815273ffffffffffffffffffffffffffffffffffffffff848116600483015260009190841690631e83409a906024016020604051808303816000875af11580156133a2573d6000803e3d6000fd5b505050506040513d601f19601f820116820180604052508101906133c691906140d3565b9050811561057e5760008373ffffffffffffffffffffffffffffffffffffffff1663fc0c546a6040518163ffffffff1660e01b81526004016020604051808303816000875af115801561341d573d6000803e3d6000fd5b505050506040513d601f19601f820116820180604052508101906134419190614cc7565b9050612b6473ffffffffffffffffffffffffffffffffffffffff82163330856119ac565b730c462dbb9ec8cd1630f1728b2cfd2769d09f0dd56040517f3a46273e00000000000000000000000000000000000000000000000000000000815273ffffffffffffffffffffffffffffffffffffffff8481166004830152602482018490529190911690633a46273e90604401600060405180830381600087803b1580156134ec57600080fd5b505af1158015612b26573d6000803e3d6000fd5b6000841561350f575082613544565b60408051608081018252600080825260208201819052918101829052606081019190915261353d85856136a6565b5193509150505b6040517f2e2d29840000000000000000000000000000000000000000000000000000000081526004810187905273ffffffffffffffffffffffffffffffffffffffff88811660248301528381166044830152821690632e2d298490606401612837565b60008084156135ba5750829050816135f0565b6040805160808101825260008082526020820181905291810182905260608101919091526135e885856136a6565b519093509150505b6040517f23e103a8000000000000000000000000000000000000000000000000000000008152600481018790523060248201819052604482015273ffffffffffffffffffffffffffffffffffffffff82811660648301528316906323e103a890608401600060405180830381600087803b15801561366d57600080fd5b505af1158015613681573d6000803e3d6000fd5b50505050505050505050565b606061369c848460008561379c565b90505b9392505050565b604080516080808201835260008083526020808401829052838501829052606093840182905273ffffffffffffffffffffffffffffffffffffffff8781168352603282528583205481168084526033835286842088831685528352928690208651948501875280548216855260018101548216928501929092526002820154811695840195909552600301549093169181019190915281158061375e5750805173ffffffffffffffffffffffffffffffffffffffff16155b15613795576040517fd92e233d00000000000000000000000000000000000000000000000000000000815260040160405180910390fd5b9250929050565b60608247101561382e576040517f08c379a000000000000000000000000000000000000000000000000000000000815260206004820152602660248201527f416464726573733a20696e73756666696369656e742062616c616e636520666f60448201527f722063616c6c000000000000000000000000000000000000000000000000000060648201526084016103db565b73ffffffffffffffffffffffffffffffffffffffff85163b6138ac576040517f08c379a000000000000000000000000000000000000000000000000000000000815260206004820152601d60248201527f416464726573733a2063616c6c20746f206e6f6e2d636f6e747261637400000060448201526064016103db565b6000808673ffffffffffffffffffffffffffffffffffffffff1685876040516138d5919061475f565b60006040518083038185875af1925050503d8060008114613912576040519150601f19603f3d011682016040523d82523d6000602084013e613917565b606091505b50915091506127d08282866060831561393157508161369f565b8251156139415782518084602001fd5b816040517f08c379a00000000000000000000000000000000000000000000000000000000081526004016103db9190614ce4565b73ffffffffffffffffffffffffffffffffffffffff8116811461399757600080fd5b50565b6000806000606084860312156139af57600080fd5b83356139ba81613975565b925060208401356139ca81613975565b915060408401356139da81613975565b809150509250925092565b7f4e487b7100000000000000000000000000000000000000000000000000000000600052604160045260246000fd5b60405160e0810167ffffffffffffffff81118282101715613a3757613a376139e5565b60405290565b604051601f82017fffffffffffffffffffffffffffffffffffffffffffffffffffffffffffffffe016810167ffffffffffffffff81118282101715613a8457613a846139e5565b604052919050565b600067ffffffffffffffff821115613aa657613aa66139e5565b5060051b60200190565b801515811461399757600080fd5b8035613ac981613ab0565b919050565b803560ff81168114613ac957600080fd5b600082601f830112613af057600080fd5b81356020613b05613b0083613a8c565b613a3d565b82815260e09283028501820192828201919087851115613b2457600080fd5b8387015b85811015613bac5781818a031215613b405760008081fd5b613b48613a14565b8135613b5381613975565b815281860135613b6281613975565b8187015260408281013590820152606080830135908201526080613b87818401613ace565b9082015260a0828101359082015260c080830135908201528452928401928101613b28565b5090979650505050505050565b60008083601f840112613bcb57600080fd5b50813567ffffffffffffffff811115613be357600080fd5b6020830191508360208260051b850101111561379557600080fd5b60008060008060008060808789031215613c1757600080fd5b863567ffffffffffffffff80821115613c2f57600080fd5b818901915089601f830112613c4357600080fd5b81356020613c53613b0083613a8c565b82815260e09092028401810191818101908d841115613c7157600080fd5b948201945b83861015613d085760e0868f031215613c8f5760008081fd5b613c97613a14565b8635613ca281613975565b815286840135613cb181613975565b81850152604087810135613cc481613ab0565b9082015260608781013590820152613cde60808801613ace565b608082015260a0878101359082015260c08088013590820152825260e09095019490820190613c76565b9a50508a013592505080821115613d1e57600080fd5b613d2a8a838b01613adf565b96506040890135915080821115613d4057600080fd5b613d4c8a838b01613bb9565b90965094506060890135915080821115613d6557600080fd5b50613d7289828a01613bb9565b979a9699509497509295939492505050565b60008060408385031215613d9757600080fd5b8235613da281613975565b91506020830135613db281613975565b809150509250929050565b600060208284031215613dcf57600080fd5b813561369f81613975565b60008060408385031215613ded57600080fd5b8235613df881613975565b9150613e0660208401613ace565b90509250929050565b600080600080600060608688031215613e2757600080fd5b853567ffffffffffffffff80821115613e3f57600080fd5b613e4b89838a01613adf565b96506020880135915080821115613e6157600080fd5b613e6d89838a01613bb9565b90965094506040880135915080821115613e8657600080fd5b50613e9388828901613bb9565b969995985093965092949392505050565b60008060008060008060608789031215613ebd57600080fd5b863567ffffffffffffffff80821115613ed557600080fd5b613ee18a838b01613bb9565b90985096506020890135915080821115613efa57600080fd5b613f068a838b01613bb9565b90965094506040890135915080821115613d6557600080fd5b7f4e487b7100000000000000000000000000000000000000000000000000000000600052603260045260246000fd5b7f4e487b7100000000000000000000000000000000000000000000000000000000600052601160045260246000fd5b60007fffffffffffffffffffffffffffffffffffffffffffffffffffffffffffffffff8203613fae57613fae613f4e565b5060010190565b600060208284031215613fc757600080fd5b815161369f81613ab0565b7f4e487b7100000000000000000000000000000000000000000000000000000000600052602160045260246000fd5b60006020828403121561401357600080fd5b8135601b811061369f57600080fd5b60008083357fffffffffffffffffffffffffffffffffffffffffffffffffffffffffffffffe184360301811261405757600080fd5b83018035915067ffffffffffffffff82111561407257600080fd5b60200191503681900382131561379557600080fd5b8035613ac981613975565b6000806000606084860312156140a757600080fd5b83356140b281613975565b925060208401356140c281613975565b929592945050506040919091013590565b6000602082840312156140e557600080fd5b5051919050565b600080604083850312156140ff57600080fd5b823591506020830135613db281613975565b60008060006060848603121561412657600080fd5b833561413181613975565b92506020840135915060408401356139da81613975565b600082601f83011261415957600080fd5b813567ffffffffffffffff811115614173576141736139e5565b6141a460207fffffffffffffffffffffffffffffffffffffffffffffffffffffffffffffffe0601f84011601613a3d565b8181528460208386010111156141b957600080fd5b816020850160208301376000918101602001919091529392505050565b600080600080608085870312156141ec57600080fd5b84356141f781613975565b93506020850135925060408501359150606085013567ffffffffffffffff81111561422157600080fd5b61422d87828801614148565b91505092959194509250565b60008060006060848603121561424e57600080fd5b833561425981613975565b925060208401359150604084013567ffffffffffffffff81111561427c57600080fd5b61428886828701614148565b9150509250925092565b600082601f8301126142a357600080fd5b813560206142b3613b0083613a8c565b82815260059290921b840181019181810190868411156142d257600080fd5b8286015b848110156142f65780356142e981613975565b83529183019183016142d6565b509695505050505050565b6000806040838503121561431457600080fd5b823561431f81613975565b9150602083013567ffffffffffffffff81111561433b57600080fd5b61434785828601614292565b9150509250929050565b6000806000806080858703121561436757600080fd5b843561437281613975565b935060208501359250604085013561438981613975565b9150606085013561439981613ab0565b939692955090935050565b600082601f8301126143b557600080fd5b813560206143c5613b0083613a8c565b82815260059290921b840181019181810190868411156143e457600080fd5b8286015b848110156142f6578035600881106144005760008081fd5b83529183019183016143e8565b600082601f83011261441e57600080fd5b8135602061442e613b0083613a8c565b82815260059290921b8401810191818101908684111561444d57600080fd5b8286015b848110156142f657803567ffffffffffffffff8111156144715760008081fd5b61447f8986838b0101614148565b845250918301918301614451565b600080600080600080600060e0888a0312156144a857600080fd5b87356144b381613975565b965060208801356144c381613975565b95506144d160408901614087565b94506144df60608901614087565b9350608088013567ffffffffffffffff808211156144fc57600080fd5b6145088b838c016143a4565b945060a08a013591508082111561451e57600080fd5b61452a8b838c0161440d565b935060c08a013591508082111561454057600080fd5b5061454d8a828b01614148565b91505092959891949750929550565b600080600080600080600060e0888a03121561457757600080fd5b873561458281613975565b9650602088013561459281613975565b955060408801356145a281613975565b945060608801356145b281613975565b93506080880135925060a0880135915060c088013567ffffffffffffffff8111156145dc57600080fd5b61454d8a828b01614148565b600080600080600060a0868803121561460057600080fd5b853561460b81613975565b9450602086013561461b81613975565b935060408601359250606086013561463281613975565b949793965091946080013592915050565b6000806000806080858703121561465957600080fd5b843561466481613975565b935060208501359250604085013561467b81613975565b9396929550929360600135925050565b60005b838110156146a657818101518382015260200161468e565b50506000910152565b600081518084526146c781602086016020860161468b565b601f017fffffffffffffffffffffffffffffffffffffffffffffffffffffffffffffffe0169290920160200192915050565b602081526000825160a0602084015261471560c08401826146af565b905073ffffffffffffffffffffffffffffffffffffffff60208501511660408401526040840151606084015260608401516080840152608084015160a08401528091505092915050565b6000825161477181846020870161468b565b9190910192915050565b6000806040838503121561478e57600080fd5b505080516020909101519092909150565b600080600080608085870312156147b557600080fd5b8451935060208501516147c781613975565b6040860151606090960151949790965092505050565b80820180821115611c4657611c46613f4e565b600082614826577f4e487b7100000000000000000000000000000000000000000000000000000000600052601260045260246000fd5b500490565b81810381811115611c4657611c46613f4e565b600081518084526020808501808196508360051b8101915082860160005b858110156148865782840389526148748483516146af565b9885019893509084019060010161485c565b5091979650505050505050565b60c0808252875190820181905260009060209060e0840190828b0184805b83811015614902578251600881106148f0577f4e487b710000000000000000000000000000000000000000000000000000000083526021600452602483fd5b855293850193918501916001016148b1565b5050505083810382850152614917818a61483e565b91505061493c604084018873ffffffffffffffffffffffffffffffffffffffff169052565b73ffffffffffffffffffffffffffffffffffffffff8616606084015273ffffffffffffffffffffffffffffffffffffffff8516608084015282810360a084015261498681856146af565b9998505050505050505050565b6000608082840312156149a557600080fd5b6040516080810181811067ffffffffffffffff821117156149c8576149c86139e5565b8060405250825181526020830151602082015260408301516040820152606083015160608201528091505092915050565b600073ffffffffffffffffffffffffffffffffffffffff8089168352808816602084015280871660408401525084606083015283608083015260c060a0830152614a4660c08301846146af565b98975050505050505050565b600082601f830112614a6357600080fd5b81356020614a73613b0083613a8c565b82815260059290921b84018101918181019086841115614a9257600080fd5b8286015b848110156142f65780358352918301918301614a96565b60008060008060008060c08789031215614ac657600080fd5b614acf87614087565b9550602087013567ffffffffffffffff80821115614aec57600080fd5b614af88a838b01614292565b96506040890135915080821115614b0e57600080fd5b614b1a8a838b01614a52565b9550614b2860608a01613abe565b94506080890135915080821115614b3e57600080fd5b614b4a8a838b01614292565b935060a0890135915080821115614b6057600080fd5b50614b6d89828a01614292565b9150509295509295509295565b600080600060608486031215614b8f57600080fd5b8335614b9a81613975565b92506020840135614baa81613975565b915060408401356139da81613ab0565b60008060408385031215614bcd57600080fd5b8235614bd881613975565b946020939093013593505050565b60008060008060008060c08789031215614bff57600080fd5b8635614c0a81613975565b9550602087013594506040870135614c2181613ab0565b93506060870135614c3181613975565b92506080870135614c4181613975565b915060a0870135614c5181613975565b809150509295509295509295565b600080600080600060a08688031215614c7757600080fd5b853594506020860135614c8981613ab0565b93506040860135614c9981613975565b92506060860135614ca981613975565b91506080860135614cb981613975565b809150509295509295909350565b600060208284031215614cd957600080fd5b815161369f81613975565b60208152600061369f60208301846146af56fea2646970667358221220a01fa6ebc56726f7a72b1f9da78eb652de0de2baa84fb09fde363a4ca4ab25a564736f6c63430008110033",
  "devdoc": {
    "author": "Angle Core Team",
    "details": "Previous implementation with an initialization function can be found here: https://etherscan.io/address/0x1b2ffdad478d8770ea0e085bdd4e31120736fcd7#code",
    "kind": "dev",
    "methods": {
      "changeAllowance(address[],address[],uint256[])": {
        "params": {
          "amounts": "Amounts to allow",
          "spenders": "Addresses to allow transfer",
          "tokens": "Addresses of the tokens to allow"
        }
      },
      "mixer((address,address,uint256,uint256,uint8,bytes32,bytes32)[],uint8[],bytes[])": {
        "details": "With this function, users can specify paths to swap tokens to the desired token of their choice. Yet the protocol does not verify the payload given and cannot check that the swap performed by users actually gives the desired out token: in this case funds may be made accessible to anyone on this contract if the concerned users do not perform a sweep action on these tokens",
        "params": {
          "actions": "List of actions to be performed by the router (in order of execution)",
          "data": "Array of encoded data for each of the actions performed in this mixer. This is where the bytes-encoded parameters for a given action are stored",
          "paramsPermit": "Array of params `PermitType` used to do a 1 tx to approve the router on each token (can be done once by setting high approved amounts) which supports the `permit` standard. Users willing to interact with the contract with tokens that do not support permit should approve the contract for these tokens prior to interacting with it"
        }
      },
      "mixerVaultManagerPermit((address,address,bool,uint256,uint8,bytes32,bytes32)[],(address,address,uint256,uint256,uint8,bytes32,bytes32)[],uint8[],bytes[])": {
        "details": "In `paramsPermitVaultManager`, the signatures for granting approvals must be given first before the signatures to revoke approvalsThe router contract has been built to be safe to keep approvals as you cannot take an action on a vault you are not approved for, but people wary about their approvals may want to grant it before immediately revoking it, although this is just an option",
        "params": {
          "paramsPermitVaultManager": "Parameters to sign permit to give allowance to the router for a `VaultManager` contract"
        }
      }
    },
    "title": "AngleRouterMainnet",
    "version": 1
  },
  "userdoc": {
    "kind": "user",
    "methods": {
      "changeAllowance(address[],address[],uint256[])": {
        "notice": "Changes allowances for different tokens"
      },
      "core()": {
        "notice": "Core address handling access control"
      },
      "initializeRouter(address,address,address)": {
        "notice": "Deploys the router contract on a chain"
      },
      "mapPoolManagers(address,address)": {
        "notice": "Maps a `StableMaster` to a mapping of collateral token to its counterpart `PoolManager`"
      },
      "mapStableMasters(address)": {
        "notice": "Maps an agToken to its counterpart `StableMaster`"
      },
      "mixer((address,address,uint256,uint256,uint8,bytes32,bytes32)[],uint8[],bytes[])": {
        "notice": "Allows composable calls to different functions within the protocol"
      },
      "mixerVaultManagerPermit((address,address,bool,uint256,uint8,bytes32,bytes32)[],(address,address,uint256,uint256,uint8,bytes32,bytes32)[],uint8[],bytes[])": {
        "notice": "Wrapper built on top of the base `mixer` function to grant approval to a `VaultManager` contract before performing actions and then revoking this approval after these actions"
      },
      "oneInch()": {
        "notice": "Address of 1Inch router used for swaps"
      },
      "setCore(address)": {
        "notice": "Sets a new `core` contract"
      },
      "setRouter(address,uint8)": {
        "notice": "Sets a new router variable"
      },
      "uniswapV3Router()": {
        "notice": "Address of the router used for swaps"
      }
    },
    "notice": "Router contract built specifially for Angle use cases on Ethereum",
    "version": 1
  },
  "storageLayout": {
    "storage": [
      {
        "astId": 6,
        "contract": "contracts/implementations/mainnet/AngleRouterMainnet.sol:AngleRouterMainnet",
        "label": "_initialized",
        "offset": 0,
        "slot": "0",
        "type": "t_uint8"
      },
      {
        "astId": 9,
        "contract": "contracts/implementations/mainnet/AngleRouterMainnet.sol:AngleRouterMainnet",
        "label": "_initializing",
        "offset": 1,
        "slot": "0",
        "type": "t_bool"
      },
      {
        "astId": 1658,
        "contract": "contracts/implementations/mainnet/AngleRouterMainnet.sol:AngleRouterMainnet",
        "label": "core",
        "offset": 2,
        "slot": "0",
        "type": "t_contract(ICoreBorrow)4404"
      },
      {
        "astId": 1662,
        "contract": "contracts/implementations/mainnet/AngleRouterMainnet.sol:AngleRouterMainnet",
        "label": "uniswapV3Router",
        "offset": 0,
        "slot": "1",
        "type": "t_contract(IUniswapV3Router)4851"
      },
      {
        "astId": 1665,
        "contract": "contracts/implementations/mainnet/AngleRouterMainnet.sol:AngleRouterMainnet",
        "label": "oneInch",
        "offset": 0,
        "slot": "2",
        "type": "t_address"
      },
      {
        "astId": 1669,
        "contract": "contracts/implementations/mainnet/AngleRouterMainnet.sol:AngleRouterMainnet",
        "label": "__gap",
        "offset": 0,
        "slot": "3",
        "type": "t_array(t_uint256)47_storage"
      },
      {
        "astId": 3673,
        "contract": "contracts/implementations/mainnet/AngleRouterMainnet.sol:AngleRouterMainnet",
        "label": "mapStableMasters",
        "offset": 0,
        "slot": "50",
        "type": "t_mapping(t_contract(IERC20)756,t_contract(IStableMasterFront)4645)"
      },
      {
        "astId": 3683,
        "contract": "contracts/implementations/mainnet/AngleRouterMainnet.sol:AngleRouterMainnet",
        "label": "mapPoolManagers",
        "offset": 0,
        "slot": "51",
        "type": "t_mapping(t_contract(IStableMasterFront)4645,t_mapping(t_contract(IERC20)756,t_struct(Pairs)3657_storage))"
      },
      {
        "astId": 3687,
        "contract": "contracts/implementations/mainnet/AngleRouterMainnet.sol:AngleRouterMainnet",
        "label": "__gapMainnet",
        "offset": 0,
        "slot": "52",
        "type": "t_array(t_uint256)48_storage"
      }
    ],
    "types": {
      "t_address": {
        "encoding": "inplace",
        "label": "address",
        "numberOfBytes": "20"
      },
      "t_array(t_uint256)47_storage": {
        "base": "t_uint256",
        "encoding": "inplace",
        "label": "uint256[47]",
        "numberOfBytes": "1504"
      },
      "t_array(t_uint256)48_storage": {
        "base": "t_uint256",
        "encoding": "inplace",
        "label": "uint256[48]",
        "numberOfBytes": "1536"
      },
      "t_bool": {
        "encoding": "inplace",
        "label": "bool",
        "numberOfBytes": "1"
      },
      "t_contract(ICoreBorrow)4404": {
        "encoding": "inplace",
        "label": "contract ICoreBorrow",
        "numberOfBytes": "20"
      },
      "t_contract(IERC20)756": {
        "encoding": "inplace",
        "label": "contract IERC20",
        "numberOfBytes": "20"
      },
      "t_contract(ILiquidityGauge)4465": {
        "encoding": "inplace",
        "label": "contract ILiquidityGauge",
        "numberOfBytes": "20"
      },
      "t_contract(IPerpetualManagerFrontWithClaim)4496": {
        "encoding": "inplace",
        "label": "contract IPerpetualManagerFrontWithClaim",
        "numberOfBytes": "20"
      },
      "t_contract(IPoolManager)4504": {
        "encoding": "inplace",
        "label": "contract IPoolManager",
        "numberOfBytes": "20"
      },
      "t_contract(ISanToken)4510": {
        "encoding": "inplace",
        "label": "contract ISanToken",
        "numberOfBytes": "20"
      },
      "t_contract(IStableMasterFront)4645": {
        "encoding": "inplace",
        "label": "contract IStableMasterFront",
        "numberOfBytes": "20"
      },
      "t_contract(IUniswapV3Router)4851": {
        "encoding": "inplace",
        "label": "contract IUniswapV3Router",
        "numberOfBytes": "20"
      },
      "t_mapping(t_contract(IERC20)756,t_contract(IStableMasterFront)4645)": {
        "encoding": "mapping",
        "key": "t_contract(IERC20)756",
        "label": "mapping(contract IERC20 => contract IStableMasterFront)",
        "numberOfBytes": "32",
        "value": "t_contract(IStableMasterFront)4645"
      },
      "t_mapping(t_contract(IERC20)756,t_struct(Pairs)3657_storage)": {
        "encoding": "mapping",
        "key": "t_contract(IERC20)756",
        "label": "mapping(contract IERC20 => struct Pairs)",
        "numberOfBytes": "32",
        "value": "t_struct(Pairs)3657_storage"
      },
      "t_mapping(t_contract(IStableMasterFront)4645,t_mapping(t_contract(IERC20)756,t_struct(Pairs)3657_storage))": {
        "encoding": "mapping",
        "key": "t_contract(IStableMasterFront)4645",
        "label": "mapping(contract IStableMasterFront => mapping(contract IERC20 => struct Pairs))",
        "numberOfBytes": "32",
        "value": "t_mapping(t_contract(IERC20)756,t_struct(Pairs)3657_storage)"
      },
      "t_struct(Pairs)3657_storage": {
        "encoding": "inplace",
        "label": "struct Pairs",
        "members": [
          {
            "astId": 3647,
            "contract": "contracts/implementations/mainnet/AngleRouterMainnet.sol:AngleRouterMainnet",
            "label": "poolManager",
            "offset": 0,
            "slot": "0",
            "type": "t_contract(IPoolManager)4504"
          },
          {
            "astId": 3650,
            "contract": "contracts/implementations/mainnet/AngleRouterMainnet.sol:AngleRouterMainnet",
            "label": "perpetualManager",
            "offset": 0,
            "slot": "1",
            "type": "t_contract(IPerpetualManagerFrontWithClaim)4496"
          },
          {
            "astId": 3653,
            "contract": "contracts/implementations/mainnet/AngleRouterMainnet.sol:AngleRouterMainnet",
            "label": "sanToken",
            "offset": 0,
            "slot": "2",
            "type": "t_contract(ISanToken)4510"
          },
          {
            "astId": 3656,
            "contract": "contracts/implementations/mainnet/AngleRouterMainnet.sol:AngleRouterMainnet",
            "label": "gauge",
            "offset": 0,
            "slot": "3",
            "type": "t_contract(ILiquidityGauge)4465"
          }
        ],
        "numberOfBytes": "128"
      },
      "t_uint256": {
        "encoding": "inplace",
        "label": "uint256",
        "numberOfBytes": "32"
      },
      "t_uint8": {
        "encoding": "inplace",
        "label": "uint8",
        "numberOfBytes": "1"
      }
    }
  }
}