{
  "address": "0x4b1E2c2762667331Bc91648052F646d1b0d35984",
  "abi": [
    {
      "inputs": [],
      "name": "IncompatibleLengths",
      "type": "error"
    },
    {
      "inputs": [],
      "name": "InvalidReturnMessage",
      "type": "error"
    },
    {
      "inputs": [],
      "name": "NotApprovedOrOwner",
      "type": "error"
    },
    {
      "inputs": [],
      "name": "NotGovernor",
      "type": "error"
    },
    {
      "inputs": [],
      "name": "NotGovernorOrGuardian",
      "type": "error"
    },
    {
      "inputs": [],
      "name": "TooSmallAmountOut",
      "type": "error"
    },
    {
      "inputs": [],
      "name": "TransferFailed",
      "type": "error"
    },
    {
      "inputs": [],
      "name": "ZeroAddress",
      "type": "error"
    },
    {
      "anonymous": false,
      "inputs": [
        {
          "indexed": true,
          "internalType": "address",
          "name": "_core",
          "type": "address"
        }
      ],
      "name": "CoreUpdated",
      "type": "event"
    },
    {
      "inputs": [],
      "name": "WETH9",
      "outputs": [
        {
          "internalType": "contract IWETH9",
          "name": "",
          "type": "address"
        }
      ],
      "stateMutability": "view",
      "type": "function"
    },
    {
      "inputs": [
        {
          "internalType": "contract IERC20[]",
          "name": "tokens",
          "type": "address[]"
        },
        {
          "internalType": "address[]",
          "name": "spenders",
          "type": "address[]"
        },
        {
          "internalType": "uint256[]",
          "name": "amounts",
          "type": "uint256[]"
        }
      ],
      "name": "changeAllowance",
      "outputs": [],
      "stateMutability": "nonpayable",
      "type": "function"
    },
    {
      "inputs": [
        {
          "internalType": "address",
          "name": "gaugeUser",
          "type": "address"
        },
        {
          "internalType": "address[]",
          "name": "liquidityGauges",
          "type": "address[]"
        }
      ],
      "name": "claimRewards",
      "outputs": [],
      "stateMutability": "nonpayable",
      "type": "function"
    },
    {
      "inputs": [],
      "name": "core",
      "outputs": [
        {
          "internalType": "contract ICoreBorrow",
          "name": "",
          "type": "address"
        }
      ],
      "stateMutability": "view",
      "type": "function"
    },
    {
      "inputs": [
        {
          "internalType": "address",
          "name": "_core",
          "type": "address"
        },
        {
          "internalType": "address",
          "name": "_uniswapRouter",
          "type": "address"
        },
        {
          "internalType": "address",
          "name": "_oneInch",
          "type": "address"
        }
      ],
      "name": "initializeRouter",
      "outputs": [],
      "stateMutability": "nonpayable",
      "type": "function"
    },
    {
      "inputs": [
        {
          "components": [
            {
              "internalType": "address",
              "name": "token",
              "type": "address"
            },
            {
              "internalType": "address",
              "name": "owner",
              "type": "address"
            },
            {
              "internalType": "uint256",
              "name": "value",
              "type": "uint256"
            },
            {
              "internalType": "uint256",
              "name": "deadline",
              "type": "uint256"
            },
            {
              "internalType": "uint8",
              "name": "v",
              "type": "uint8"
            },
            {
              "internalType": "bytes32",
              "name": "r",
              "type": "bytes32"
            },
            {
              "internalType": "bytes32",
              "name": "s",
              "type": "bytes32"
            }
          ],
          "internalType": "struct BaseAngleRouterSidechain.PermitType[]",
          "name": "paramsPermit",
          "type": "tuple[]"
        },
        {
          "internalType": "enum BaseAngleRouterSidechain.ActionType[]",
          "name": "actions",
          "type": "uint8[]"
        },
        {
          "internalType": "bytes[]",
          "name": "data",
          "type": "bytes[]"
        }
      ],
      "name": "mixer",
      "outputs": [],
      "stateMutability": "payable",
      "type": "function"
    },
    {
      "inputs": [
        {
          "components": [
            {
              "internalType": "address",
              "name": "vaultManager",
              "type": "address"
            },
            {
              "internalType": "address",
              "name": "owner",
              "type": "address"
            },
            {
              "internalType": "bool",
              "name": "approved",
              "type": "bool"
            },
            {
              "internalType": "uint256",
              "name": "deadline",
              "type": "uint256"
            },
            {
              "internalType": "uint8",
              "name": "v",
              "type": "uint8"
            },
            {
              "internalType": "bytes32",
              "name": "r",
              "type": "bytes32"
            },
            {
              "internalType": "bytes32",
              "name": "s",
              "type": "bytes32"
            }
          ],
          "internalType": "struct BaseAngleRouterSidechain.PermitVaultManagerType[]",
          "name": "paramsPermitVaultManager",
          "type": "tuple[]"
        },
        {
          "components": [
            {
              "internalType": "address",
              "name": "token",
              "type": "address"
            },
            {
              "internalType": "address",
              "name": "owner",
              "type": "address"
            },
            {
              "internalType": "uint256",
              "name": "value",
              "type": "uint256"
            },
            {
              "internalType": "uint256",
              "name": "deadline",
              "type": "uint256"
            },
            {
              "internalType": "uint8",
              "name": "v",
              "type": "uint8"
            },
            {
              "internalType": "bytes32",
              "name": "r",
              "type": "bytes32"
            },
            {
              "internalType": "bytes32",
              "name": "s",
              "type": "bytes32"
            }
          ],
          "internalType": "struct BaseAngleRouterSidechain.PermitType[]",
          "name": "paramsPermit",
          "type": "tuple[]"
        },
        {
          "internalType": "enum BaseAngleRouterSidechain.ActionType[]",
          "name": "actions",
          "type": "uint8[]"
        },
        {
          "internalType": "bytes[]",
          "name": "data",
          "type": "bytes[]"
        }
      ],
      "name": "mixerVaultManagerPermit",
      "outputs": [],
      "stateMutability": "payable",
      "type": "function"
    },
    {
      "inputs": [],
      "name": "oneInch",
      "outputs": [
        {
          "internalType": "address",
          "name": "",
          "type": "address"
        }
      ],
      "stateMutability": "view",
      "type": "function"
    },
    {
      "inputs": [
        {
          "internalType": "contract ICoreBorrow",
          "name": "_core",
          "type": "address"
        }
      ],
      "name": "setCore",
      "outputs": [],
      "stateMutability": "nonpayable",
      "type": "function"
    },
    {
      "inputs": [],
      "name": "uniswapV3Router",
      "outputs": [
        {
          "internalType": "contract IUniswapV3Router",
          "name": "",
          "type": "address"
        }
      ],
      "stateMutability": "view",
      "type": "function"
    },
    {
      "stateMutability": "payable",
      "type": "receive"
    }
  ],
  "transactionHash": "0x33f8291b290dfc4eb90d3a091da91315a51e96596924b5c247eadcc523328150",
  "args": [],
  "solcInputHash": "2ac48a80ea0ce2df9ed53b96920c0f36",
  "bytecode": "0x60806040523480156200001157600080fd5b50600054610100900460ff166200002f5760005460ff161562000039565b62000039620000de565b620000a15760405162461bcd60e51b815260206004820152602e60248201527f496e697469616c697a61626c653a20636f6e747261637420697320616c72656160448201526d191e481a5b9a5d1a585b1a5e995960921b606482015260840160405180910390fd5b600054610100900460ff16158015620000c4576000805461ffff19166101011790555b8015620000d7576000805461ff00191690555b5062000102565b6000620000f630620000fc60201b620012c51760201c565b15905090565b3b151590565b61395280620001126000396000f3fe6080604052600436106100b55760003560e01c806359856d5611610069578063848c48da1161004e578063848c48da146101e1578063b82c4dc1146101f4578063f2f4eb261461021457600080fd5b806359856d56146101ae57806380009630146101c157600080fd5b80632c76d7a61161009a5780632c76d7a61461013957806342860d4b146101665780634aa4a4fc1461018657600080fd5b8063045c08d5146100c15780632026ffa31461011757600080fd5b366100bc57005b600080fd5b3480156100cd57600080fd5b506002546100ee9073ffffffffffffffffffffffffffffffffffffffff1681565b60405173ffffffffffffffffffffffffffffffffffffffff909116815260200160405180910390f35b34801561012357600080fd5b50610137610132366004612ab7565b610247565b005b34801561014557600080fd5b506001546100ee9073ffffffffffffffffffffffffffffffffffffffff1681565b34801561017257600080fd5b50610137610181366004612b07565b610255565b34801561019257600080fd5b506100ee7382af49447d8a07e3bd95bd0d56f35241523fbab181565b6101376101bc366004612d00565b6102b2565b3480156101cd57600080fd5b506101376101dc366004612e80565b61064f565b6101376101ef366004612e9d565b610855565b34801561020057600080fd5b5061013761020f366004612f28565b61111d565b34801561022057600080fd5b506000546100ee9062010000900473ffffffffffffffffffffffffffffffffffffffff1681565b61025182826112cb565b5050565b61025e8361138e565b6001805473ffffffffffffffffffffffffffffffffffffffff9384167fffffffffffffffffffffffff0000000000000000000000000000000000000000918216179091556002805492909316911617905550565b60005b855181101561047b578581815181106102d0576102d0612fc2565b60200260200101516040015115610464578581815181106102f3576102f3612fc2565b60200260200101516000015173ffffffffffffffffffffffffffffffffffffffff1663f51cc7dd87838151811061032c5761032c612fc2565b6020026020010151602001513060018a868151811061034d5761034d612fc2565b6020026020010151606001518b878151811061036b5761036b612fc2565b6020026020010151608001518c888151811061038957610389612fc2565b602002602001015160a001518d89815181106103a7576103a7612fc2565b602090810291909101015160c001516040517fffffffff0000000000000000000000000000000000000000000000000000000060e08a901b16815273ffffffffffffffffffffffffffffffffffffffff97881660048201529690951660248701529215156044860152606485019190915260ff16608484015260a483015260c482015260e401600060405180830381600087803b15801561044757600080fd5b505af115801561045b573d6000803e3d6000fd5b50505050610469565b61047b565b8061047381613020565b9150506102b5565b5061048884848484610855565b60005b8551811015610647578581815181106104a6576104a6612fc2565b602002602001015160400151610635578581815181106104c8576104c8612fc2565b60200260200101516000015173ffffffffffffffffffffffffffffffffffffffff1663f51cc7dd87838151811061050157610501612fc2565b6020026020010151602001513060008a868151811061052257610522612fc2565b6020026020010151606001518b878151811061054057610540612fc2565b6020026020010151608001518c888151811061055e5761055e612fc2565b602002602001015160a001518d898151811061057c5761057c612fc2565b602090810291909101015160c001516040517fffffffff0000000000000000000000000000000000000000000000000000000060e08a901b16815273ffffffffffffffffffffffffffffffffffffffff97881660048201529690951660248701529215156044860152606485019190915260ff16608484015260a483015260c482015260e401600060405180830381600087803b15801561061c57600080fd5b505af1158015610630573d6000803e3d6000fd5b505050505b8061063f81613020565b91505061048b565b505050505050565b6000546040517fe43581b80000000000000000000000000000000000000000000000000000000081523360048201526201000090910473ffffffffffffffffffffffffffffffffffffffff169063e43581b890602401602060405180830381865afa1580156106c2573d6000803e3d6000fd5b505050506040513d601f19601f820116820180604052508101906106e69190613059565b61071c576040517fee3675d400000000000000000000000000000000000000000000000000000000815260040160405180910390fd5b6040517fe43581b800000000000000000000000000000000000000000000000000000000815233600482015273ffffffffffffffffffffffffffffffffffffffff82169063e43581b890602401602060405180830381865afa158015610786573d6000803e3d6000fd5b505050506040513d601f19601f820116820180604052508101906107aa9190613059565b6107e0576040517fee3675d400000000000000000000000000000000000000000000000000000000815260040160405180910390fd5b600080547fffffffffffffffffffff0000000000000000000000000000000000000000ffff166201000073ffffffffffffffffffffffffffffffffffffffff841690810291909117825560405190917f0c9c0f914e121785e2cd2269d6698bc11f59a50b85ef9aa1197fb4ddb96c4e5691a250565b60005b8451811015610a0e5784818151811061087357610873612fc2565b60200260200101516000015173ffffffffffffffffffffffffffffffffffffffff1663d505accf8683815181106108ac576108ac612fc2565b602002602001015160200151308885815181106108cb576108cb612fc2565b6020026020010151604001518986815181106108e9576108e9612fc2565b6020026020010151606001518a878151811061090757610907612fc2565b6020026020010151608001518b888151811061092557610925612fc2565b602002602001015160a001518c898151811061094357610943612fc2565b602090810291909101015160c001516040517fffffffff0000000000000000000000000000000000000000000000000000000060e08a901b16815273ffffffffffffffffffffffffffffffffffffffff97881660048201529690951660248701526044860193909352606485019190915260ff16608484015260a483015260c482015260e401600060405180830381600087803b1580156109e357600080fd5b505af11580156109f7573d6000803e3d6000fd5b505050508080610a0690613020565b915050610858565b5060005b8351811015611116576000848281518110610a2f57610a2f612fc2565b6020026020010151600d811115610a4857610a48613076565b1415610ab057600080848484818110610a6357610a63612fc2565b9050602002810190610a7591906130a5565b810190610a829190613115565b9092509050610aa973ffffffffffffffffffffffffffffffffffffffff8316333084611541565b5050611104565b6001848281518110610ac457610ac4612fc2565b6020026020010151600d811115610add57610add613076565b1415610b2d57600080848484818110610af857610af8612fc2565b9050602002810190610b0a91906130a5565b810190610b179190613141565b91509150610b258282611623565b505050611104565b6002848281518110610b4157610b41612fc2565b6020026020010151600d811115610b5a57610b5a613076565b1415610b6e57610b6861162c565b50611104565b6005848281518110610b8257610b82612fc2565b6020026020010151600d811115610b9b57610b9b613076565b1415610bf1576000806000858585818110610bb857610bb8612fc2565b9050602002810190610bca91906130a5565b810190610bd79190613163565b925092509250610be88383836116a9565b50505050611104565b6006848281518110610c0557610c05612fc2565b6020026020010151600d811115610c1e57610c1e613076565b1415610c6657600080848484818110610c3957610c39612fc2565b9050602002810190610c4b91906130a5565b810190610c589190613191565b91509150610b2582826116b3565b6003848281518110610c7a57610c7a612fc2565b6020026020010151600d811115610c9357610c93613076565b1415610ce0576000806000858585818110610cb057610cb0612fc2565b9050602002810190610cc291906130a5565b810190610ccf91906131c1565b925092509250610b258383836117dc565b6004848281518110610cf457610cf4612fc2565b6020026020010151600d811115610d0d57610d0d613076565b1415610d28574715610d2357610d2333476118a0565b611104565b6007848281518110610d3c57610d3c612fc2565b6020026020010151600d811115610d5557610d55613076565b1415610db6576000806000806000878787818110610d7557610d75612fc2565b9050602002810190610d8791906130a5565b810190610d9491906131f8565b94509450945094509450610dab85858585856118e5565b505050505050611104565b6008848281518110610dca57610dca612fc2565b6020026020010151600d811115610de357610de3613076565b1415610e39576000806000806000878787818110610e0357610e03612fc2565b9050602002810190610e1591906130a5565b810190610e2291906131f8565b94509450945094509450610dab85858585856119a1565b6009848281518110610e4d57610e4d612fc2565b6020026020010151600d811115610e6657610e66613076565b1415610ec157600080600080868686818110610e8457610e84612fc2565b9050602002810190610e9691906130a5565b810190610ea391906132e5565b9350935093509350610eb784848484611a08565b5050505050611104565b600a848281518110610ed557610ed5612fc2565b6020026020010151600d811115610eee57610eee613076565b1415610f3b576000806000858585818110610f0b57610f0b612fc2565b9050602002810190610f1d91906130a5565b810190610f2a9190613348565b925092509250610be8838383611af5565b600b848281518110610f4f57610f4f612fc2565b6020026020010151600d811115610f6857610f68613076565b1415610fb057600080848484818110610f8357610f83612fc2565b9050602002810190610f9591906130a5565b810190610fa29190612ab7565b91509150610aa982826112cb565b600c848281518110610fc457610fc4612fc2565b6020026020010151600d811115610fdd57610fdd613076565b141561102e57600080600080868686818110610ffb57610ffb612fc2565b905060200281019061100d91906130a5565b81019061101a91906133a1565b9350935093509350610be884848484611bea565b600d84828151811061104257611042612fc2565b6020026020010151600d81111561105b5761105b613076565b141561110457600080600080600080600089898981811061107e5761107e612fc2565b905060200281019061109091906130a5565b81019061109d91906134dd565b96509650965096509650965096506110b6838388611c80565b6110e187877fffffffffffffffffffffffffffffffffffffffffffffffffffffffffffffffff612049565b6110ef868484888886612152565b506110fc87876000612049565b505050505050505b8061110e81613020565b915050610a12565b5050505050565b6000546040517f521d4de90000000000000000000000000000000000000000000000000000000081523360048201526201000090910473ffffffffffffffffffffffffffffffffffffffff169063521d4de990602401602060405180830381865afa158015611190573d6000803e3d6000fd5b505050506040513d601f19601f820116820180604052508101906111b49190613059565b6111ea576040517f99e120bc00000000000000000000000000000000000000000000000000000000815260040160405180910390fd5b84831415806111f95750848114155b15611230576040517f46282e8d00000000000000000000000000000000000000000000000000000000815260040160405180910390fd5b60005b858110156112bc576112aa87878381811061125057611250612fc2565b90506020020160208101906112659190612e80565b86868481811061127757611277612fc2565b905060200201602081019061128c9190612e80565b85858581811061129e5761129e612fc2565b90506020020135612049565b806112b481613020565b915050611233565b50505050505050565b3b151590565b60005b8151811015611389578181815181106112e9576112e9612fc2565b60209081029190910101516040517f84e9bd7e00000000000000000000000000000000000000000000000000000000815273ffffffffffffffffffffffffffffffffffffffff8581166004830152909116906384e9bd7e90602401600060405180830381600087803b15801561135e57600080fd5b505af1158015611372573d6000803e3d6000fd5b50505050808061138190613020565b9150506112ce565b505050565b600054610100900460ff166113a95760005460ff16156113ad565b303b155b61143e576040517f08c379a000000000000000000000000000000000000000000000000000000000815260206004820152602e60248201527f496e697469616c697a61626c653a20636f6e747261637420697320616c72656160448201527f647920696e697469616c697a656400000000000000000000000000000000000060648201526084015b60405180910390fd5b600054610100900460ff1615801561147d57600080547fffffffffffffffffffffffffffffffffffffffffffffffffffffffffffff0000166101011790555b73ffffffffffffffffffffffffffffffffffffffff82166114ca576040517fd92e233d00000000000000000000000000000000000000000000000000000000815260040160405180910390fd5b600080547fffffffffffffffffffff0000000000000000000000000000000000000000ffff166201000073ffffffffffffffffffffffffffffffffffffffff851602179055801561025157600080547fffffffffffffffffffffffffffffffffffffffffffffffffffffffffffff00ff1690555050565b60405173ffffffffffffffffffffffffffffffffffffffff8085166024830152831660448201526064810182905261161d9085907f23b872dd00000000000000000000000000000000000000000000000000000000906084015b604080517fffffffffffffffffffffffffffffffffffffffffffffffffffffffffffffffe08184030181529190526020810180517bffffffffffffffffffffffffffffffffffffffffffffffffffffffff167fffffffff0000000000000000000000000000000000000000000000000000000090931692909217909152612227565b50505050565b60005b92915050565b60007382af49447d8a07e3bd95bd0d56f35241523fbab173ffffffffffffffffffffffffffffffffffffffff1663d0e30db0346040518263ffffffff1660e01b81526004016000604051808303818588803b15801561168a57600080fd5b505af115801561169e573d6000803e3d6000fd5b505050505034905090565b60005b9392505050565b6040517f70a082310000000000000000000000000000000000000000000000000000000081523060048201526000907382af49447d8a07e3bd95bd0d56f35241523fbab1906370a0823190602401602060405180830381865afa15801561171e573d6000803e3d6000fd5b505050506040513d601f19601f8201168201806040525081019061174291906135ac565b905061174e8184612333565b8015611626576040517f2e1a7d4d000000000000000000000000000000000000000000000000000000008152600481018290527382af49447d8a07e3bd95bd0d56f35241523fbab190632e1a7d4d90602401600060405180830381600087803b1580156117ba57600080fd5b505af11580156117ce573d6000803e3d6000fd5b5050505061162682826118a0565b6040517f70a0823100000000000000000000000000000000000000000000000000000000815230600482015260009073ffffffffffffffffffffffffffffffffffffffff8516906370a0823190602401602060405180830381865afa158015611849573d6000803e3d6000fd5b505050506040513d601f19601f8201168201806040525081019061186d91906135ac565b90506118798184612333565b801561161d5761161d73ffffffffffffffffffffffffffffffffffffffff8516838361236d565b600080600080600085875af1905080611389576040517f90b8ec1800000000000000000000000000000000000000000000000000000000815260040160405180910390fd5b6040517f151dd75500000000000000000000000000000000000000000000000000000000815273ffffffffffffffffffffffffffffffffffffffff85811660048301526024820185905282811660448301526000919087169063151dd755906064015b6020604051808303816000875af1158015611967573d6000803e3d6000fd5b505050506040513d601f19601f8201168201806040525081019061198b91906135ac565b93506119978484612333565b5091949350505050565b6040517fd44ad63f00000000000000000000000000000000000000000000000000000000815273ffffffffffffffffffffffffffffffffffffffff85811660048301526024820185905282811660448301526000919087169063d44ad63f90606401611948565b600154600090611a3090869073ffffffffffffffffffffffffffffffffffffffff16866123c3565b6001546040805160a0810182528481523060208201524281830152606081018790526080810186905290517fc04b8d5900000000000000000000000000000000000000000000000000000000815273ffffffffffffffffffffffffffffffffffffffff9092169163c04b8d5991611aa99160040161363b565b6020604051808303816000875af1158015611ac8573d6000803e3d6000fd5b505050506040513d601f19601f82011682018060405250810190611aec91906135ac565b95945050505050565b600254600090611b3d90859073ffffffffffffffffffffffffffffffffffffffff167fffffffffffffffffffffffffffffffffffffffffffffffffffffffffffffffff612049565b600254604051600091829173ffffffffffffffffffffffffffffffffffffffff90911690611b6c9086906136a1565b6000604051808303816000865af19150503d8060008114611ba9576040519150601f19603f3d011682016040523d82523d6000602084013e611bae565b606091505b509150915081611bc157611bc181612495565b80806020019051810190611bd591906135ac565b9250611be18386612333565b50509392505050565b6040517f83df67470000000000000000000000000000000000000000000000000000000081526004810184905273ffffffffffffffffffffffffffffffffffffffff858116602483015282151560448301528316906383df674790606401600060405180830381600087803b158015611c6257600080fd5b505af1158015611c76573d6000803e3d6000fd5b5050505050505050565b600a835110611cbb576040517f46282e8d00000000000000000000000000000000000000000000000000000000815260040160405180910390fd5b611cc3612934565b60008080805b8751811015611c7657600080898381518110611ce757611ce7612fc2565b60200260200101516007811115611d0057611d00613076565b1415611d10576001945050612037565b6003898381518110611d2457611d24612fc2565b60200260200101516007811115611d3d57611d3d613076565b1480611d7357506005898381518110611d5857611d58612fc2565b60200260200101516007811115611d7157611d71613076565b145b15611dad57878281518110611d8a57611d8a612fc2565b6020026020010151806020019051810190611da591906136bd565b509050611e86565b6001898381518110611dc157611dc1612fc2565b60200260200101516007811115611dda57611dda613076565b1415611e1457878281518110611df257611df2612fc2565b6020026020010151806020019051810190611e0d91906135ac565b9050611e86565b6006898381518110611e2857611e28612fc2565b60200260200101516007811115611e4157611e41613076565b1415611e8057878281518110611e5957611e59612fc2565b6020026020010151806020019051810190611e7491906136e1565b50919250611e86915050565b50612037565b80611f11578415611e975750612037565b83611f0e578673ffffffffffffffffffffffffffffffffffffffff16633c2e941b6040518163ffffffff1660e01b8152600401602060405180830381865afa158015611ee7573d6000803e3d6000fd5b505050506040513d601f19601f82011682018060405250810190611f0b91906135ac565b93505b50825b60005b83811015611f4457818782600a8110611f2f57611f2f612fc2565b50505080611f3c81613020565b915050611f14565b506040517f430c20810000000000000000000000000000000000000000000000000000000081523360048201526024810182905273ffffffffffffffffffffffffffffffffffffffff88169063430c208190604401602060405180830381865afa158015611fb6573d6000803e3d6000fd5b505050506040513d601f19601f82011682018060405250810190611fda9190613059565b612010576040517fe433766c00000000000000000000000000000000000000000000000000000000815260040160405180910390fd5b808684600a811061202357612023612fc2565b602002015261203360018461371f565b9250505b8061204181613020565b915050611cc9565b6040517fdd62ed3e00000000000000000000000000000000000000000000000000000000815230600482015273ffffffffffffffffffffffffffffffffffffffff83811660248301526000919085169063dd62ed3e90604401602060405180830381865afa1580156120bf573d6000803e3d6000fd5b505050506040513d601f19601f820116820180604052508101906120e391906135ac565b90508181101561211e57612119836120fb8385613737565b73ffffffffffffffffffffffffffffffffffffffff871691906124d6565b61161d565b8181111561161d5761161d836121348484613737565b73ffffffffffffffffffffffffffffffffffffffff871691906125d4565b61217d6040518060800160405280600081526020016000815260200160008152602001600081525090565b6040517fde8fc69800000000000000000000000000000000000000000000000000000000815273ffffffffffffffffffffffffffffffffffffffff88169063de8fc698906121d9908990899033908a908a908a906004016137a3565b6080604051808303816000875af11580156121f8573d6000803e3d6000fd5b505050506040513d601f19601f8201168201806040525081019061221c91906138a3565b979650505050505050565b6000612289826040518060400160405280602081526020017f5361666545524332303a206c6f772d6c6576656c2063616c6c206661696c65648152508573ffffffffffffffffffffffffffffffffffffffff1661275a9092919063ffffffff16565b80519091501561138957808060200190518101906122a79190613059565b611389576040517f08c379a000000000000000000000000000000000000000000000000000000000815260206004820152602a60248201527f5361666545524332303a204552433230206f7065726174696f6e20646964206e60448201527f6f742073756363656564000000000000000000000000000000000000000000006064820152608401611435565b80821015610251576040517fa1aabbe100000000000000000000000000000000000000000000000000000000815260040160405180910390fd5b60405173ffffffffffffffffffffffffffffffffffffffff83166024820152604481018290526113899084907fa9059cbb000000000000000000000000000000000000000000000000000000009060640161159b565b6040517fdd62ed3e00000000000000000000000000000000000000000000000000000000815230600482015273ffffffffffffffffffffffffffffffffffffffff83811660248301526000919085169063dd62ed3e90604401602060405180830381865afa158015612439573d6000803e3d6000fd5b505050506040513d601f19601f8201168201806040525081019061245d91906135ac565b90508181101561161d5761161d836120fb837fffffffffffffffffffffffffffffffffffffffffffffffffffffffffffffffff613737565b8051156124a457805181602001fd5b6040517fee418e3700000000000000000000000000000000000000000000000000000000815260040160405180910390fd5b6040517fdd62ed3e00000000000000000000000000000000000000000000000000000000815230600482015273ffffffffffffffffffffffffffffffffffffffff8381166024830152600091839186169063dd62ed3e90604401602060405180830381865afa15801561254d573d6000803e3d6000fd5b505050506040513d601f19601f8201168201806040525081019061257191906135ac565b61257b919061371f565b60405173ffffffffffffffffffffffffffffffffffffffff851660248201526044810182905290915061161d9085907f095ea7b3000000000000000000000000000000000000000000000000000000009060640161159b565b6040517fdd62ed3e00000000000000000000000000000000000000000000000000000000815230600482015273ffffffffffffffffffffffffffffffffffffffff83811660248301526000919085169063dd62ed3e90604401602060405180830381865afa15801561264a573d6000803e3d6000fd5b505050506040513d601f19601f8201168201806040525081019061266e91906135ac565b905081811015612700576040517f08c379a000000000000000000000000000000000000000000000000000000000815260206004820152602960248201527f5361666545524332303a2064656372656173656420616c6c6f77616e6365206260448201527f656c6f77207a65726f00000000000000000000000000000000000000000000006064820152608401611435565b60405173ffffffffffffffffffffffffffffffffffffffff8416602482015282820360448201819052906111169086907f095ea7b3000000000000000000000000000000000000000000000000000000009060640161159b565b60606127698484600085612771565b949350505050565b606082471015612803576040517f08c379a000000000000000000000000000000000000000000000000000000000815260206004820152602660248201527f416464726573733a20696e73756666696369656e742062616c616e636520666f60448201527f722063616c6c00000000000000000000000000000000000000000000000000006064820152608401611435565b843b61286b576040517f08c379a000000000000000000000000000000000000000000000000000000000815260206004820152601d60248201527f416464726573733a2063616c6c20746f206e6f6e2d636f6e74726163740000006044820152606401611435565b6000808673ffffffffffffffffffffffffffffffffffffffff16858760405161289491906136a1565b60006040518083038185875af1925050503d80600081146128d1576040519150601f19603f3d011682016040523d82523d6000602084013e6128d6565b606091505b509150915061221c828286606083156128f05750816116ac565b8251156129005782518084602001fd5b816040517f08c379a00000000000000000000000000000000000000000000000000000000081526004016114359190613909565b604051806101400160405280600a906020820280368337509192915050565b73ffffffffffffffffffffffffffffffffffffffff8116811461297557600080fd5b50565b7f4e487b7100000000000000000000000000000000000000000000000000000000600052604160045260246000fd5b60405160e0810167ffffffffffffffff811182821017156129ca576129ca612978565b60405290565b604051601f82017fffffffffffffffffffffffffffffffffffffffffffffffffffffffffffffffe016810167ffffffffffffffff81118282101715612a1757612a17612978565b604052919050565b600067ffffffffffffffff821115612a3957612a39612978565b5060051b60200190565b600082601f830112612a5457600080fd5b81356020612a69612a6483612a1f565b6129d0565b82815260059290921b84018101918181019086841115612a8857600080fd5b8286015b84811015612aac578035612a9f81612953565b8352918301918301612a8c565b509695505050505050565b60008060408385031215612aca57600080fd5b8235612ad581612953565b9150602083013567ffffffffffffffff811115612af157600080fd5b612afd85828601612a43565b9150509250929050565b600080600060608486031215612b1c57600080fd5b8335612b2781612953565b92506020840135612b3781612953565b91506040840135612b4781612953565b809150509250925092565b801515811461297557600080fd5b803560ff81168114612b7157600080fd5b919050565b600082601f830112612b8757600080fd5b81356020612b97612a6483612a1f565b82815260e09283028501820192828201919087851115612bb657600080fd5b8387015b85811015612c3e5781818a031215612bd25760008081fd5b612bda6129a7565b8135612be581612953565b815281860135612bf481612953565b8187015260408281013590820152606080830135908201526080612c19818401612b60565b9082015260a0828101359082015260c080830135908201528452928401928101612bba565b5090979650505050505050565b600082601f830112612c5c57600080fd5b81356020612c6c612a6483612a1f565b82815260059290921b84018101918181019086841115612c8b57600080fd5b8286015b84811015612aac578035600e8110612ca75760008081fd5b8352918301918301612c8f565b60008083601f840112612cc657600080fd5b50813567ffffffffffffffff811115612cde57600080fd5b6020830191508360208260051b8501011115612cf957600080fd5b9250929050565b600080600080600060808688031215612d1857600080fd5b853567ffffffffffffffff80821115612d3057600080fd5b818801915088601f830112612d4457600080fd5b81356020612d54612a6483612a1f565b82815260e0928302850182019282820191908d851115612d7357600080fd5b958301955b84871015612e075780878f031215612d905760008081fd5b612d986129a7565b8735612da381612953565b815287850135612db281612953565b81860152604088810135612dc581612b52565b9082015260608881013590820152612ddf60808901612b60565b608082015260a0888101359082015260c0808901359082015283529586019591830191612d78565b5099505089013592505080821115612e1e57600080fd5b612e2a89838a01612b76565b95506040880135915080821115612e4057600080fd5b612e4c89838a01612c4b565b94506060880135915080821115612e6257600080fd5b50612e6f88828901612cb4565b969995985093965092949392505050565b600060208284031215612e9257600080fd5b81356116ac81612953565b60008060008060608587031215612eb357600080fd5b843567ffffffffffffffff80821115612ecb57600080fd5b612ed788838901612b76565b95506020870135915080821115612eed57600080fd5b612ef988838901612c4b565b94506040870135915080821115612f0f57600080fd5b50612f1c87828801612cb4565b95989497509550505050565b60008060008060008060608789031215612f4157600080fd5b863567ffffffffffffffff80821115612f5957600080fd5b612f658a838b01612cb4565b90985096506020890135915080821115612f7e57600080fd5b612f8a8a838b01612cb4565b90965094506040890135915080821115612fa357600080fd5b50612fb089828a01612cb4565b979a9699509497509295939492505050565b7f4e487b7100000000000000000000000000000000000000000000000000000000600052603260045260246000fd5b7f4e487b7100000000000000000000000000000000000000000000000000000000600052601160045260246000fd5b60007fffffffffffffffffffffffffffffffffffffffffffffffffffffffffffffffff82141561305257613052612ff1565b5060010190565b60006020828403121561306b57600080fd5b81516116ac81612b52565b7f4e487b7100000000000000000000000000000000000000000000000000000000600052602160045260246000fd5b60008083357fffffffffffffffffffffffffffffffffffffffffffffffffffffffffffffffe18436030181126130da57600080fd5b83018035915067ffffffffffffffff8211156130f557600080fd5b602001915036819003821315612cf957600080fd5b8035612b7181612953565b6000806040838503121561312857600080fd5b823561313381612953565b946020939093013593505050565b6000806040838503121561315457600080fd5b50508035926020909101359150565b60008060006060848603121561317857600080fd5b83359250602084013591506040840135612b4781612953565b600080604083850312156131a457600080fd5b8235915060208301356131b681612953565b809150509250929050565b6000806000606084860312156131d657600080fd5b83356131e181612953565b9250602084013591506040840135612b4781612953565b600080600080600060a0868803121561321057600080fd5b853561321b81612953565b9450602086013561322b81612953565b93506040860135925060608601359150608086013561324981612953565b809150509295509295909350565b600082601f83011261326857600080fd5b813567ffffffffffffffff81111561328257613282612978565b6132b360207fffffffffffffffffffffffffffffffffffffffffffffffffffffffffffffffe0601f840116016129d0565b8181528460208386010111156132c857600080fd5b816020850160208301376000918101602001919091529392505050565b600080600080608085870312156132fb57600080fd5b843561330681612953565b93506020850135925060408501359150606085013567ffffffffffffffff81111561333057600080fd5b61333c87828801613257565b91505092959194509250565b60008060006060848603121561335d57600080fd5b833561336881612953565b925060208401359150604084013567ffffffffffffffff81111561338b57600080fd5b61339786828701613257565b9150509250925092565b600080600080608085870312156133b757600080fd5b84356133c281612953565b93506020850135925060408501356133d981612953565b915060608501356133e981612b52565b939692955090935050565b600082601f83011261340557600080fd5b81356020613415612a6483612a1f565b82815260059290921b8401810191818101908684111561343457600080fd5b8286015b84811015612aac578035600881106134505760008081fd5b8352918301918301613438565b600082601f83011261346e57600080fd5b8135602061347e612a6483612a1f565b82815260059290921b8401810191818101908684111561349d57600080fd5b8286015b84811015612aac57803567ffffffffffffffff8111156134c15760008081fd5b6134cf8986838b0101613257565b8452509183019183016134a1565b600080600080600080600060e0888a0312156134f857600080fd5b873561350381612953565b9650602088013561351381612953565b95506135216040890161310a565b945061352f6060890161310a565b9350608088013567ffffffffffffffff8082111561354c57600080fd5b6135588b838c016133f4565b945060a08a013591508082111561356e57600080fd5b61357a8b838c0161345d565b935060c08a013591508082111561359057600080fd5b5061359d8a828b01613257565b91505092959891949750929550565b6000602082840312156135be57600080fd5b5051919050565b60005b838110156135e05781810151838201526020016135c8565b8381111561161d5750506000910152565b600081518084526136098160208601602086016135c5565b601f017fffffffffffffffffffffffffffffffffffffffffffffffffffffffffffffffe0169290920160200192915050565b602081526000825160a0602084015261365760c08401826135f1565b905073ffffffffffffffffffffffffffffffffffffffff60208501511660408401526040840151606084015260608401516080840152608084015160a08401528091505092915050565b600082516136b38184602087016135c5565b9190910192915050565b600080604083850312156136d057600080fd5b505080516020909101519092909150565b600080600080608085870312156136f757600080fd5b84519350602085015161370981612953565b6040860151606090960151949790965092505050565b6000821982111561373257613732612ff1565b500190565b60008282101561374957613749612ff1565b500390565b600081518084526020808501808196508360051b8101915082860160005b858110156137965782840389526137848483516135f1565b9885019893509084019060010161376c565b5091979650505050505050565b60c0808252875190820181905260009060209060e0840190828b0184805b8381101561381257825160088110613800577f4e487b710000000000000000000000000000000000000000000000000000000083526021600452602483fd5b855293850193918501916001016137c1565b5050505083810382850152613827818a61374e565b91505061384c604084018873ffffffffffffffffffffffffffffffffffffffff169052565b73ffffffffffffffffffffffffffffffffffffffff8616606084015273ffffffffffffffffffffffffffffffffffffffff8516608084015282810360a084015261389681856135f1565b9998505050505050505050565b6000608082840312156138b557600080fd5b6040516080810181811067ffffffffffffffff821117156138d8576138d8612978565b8060405250825181526020830151602082015260408301516040820152606083015160608201528091505092915050565b6020815260006116ac60208301846135f156fea2646970667358221220a2d02eac524b3ec3d1f1207ef3ee15e969393bb898e00911c9083cffbb89d09364736f6c634300080c0033",
  "devdoc": {
    "author": "Angle Core Team",
    "kind": "dev",
    "methods": {
      "changeAllowance(address[],address[],uint256[])": {
        "details": "Approvals are normally given in the `addGauges` method, in the initializer and in the internal functions to process swaps with Uniswap and 1Inch",
        "params": {
          "amounts": "Amounts to allow",
          "spenders": "Addresses to allow transfer",
          "tokens": "Addresses of the tokens to allow"
        }
      },
      "claimRewards(address,address[])": {
        "details": "If the caller wants to send the rewards to another account it first needs to call `set_rewards_receiver(otherAccount)` on each `liquidityGauge`",
        "params": {
          "gaugeUser": "Address for which to fetch the rewards from the gauges",
          "liquidityGauges": "Gauges to claim on"
        }
      },
      "mixer((address,address,uint256,uint256,uint8,bytes32,bytes32)[],uint8[],bytes[])": {
        "details": "With this function, users can specify paths to swap tokens to the desired token of their choice. Yet the protocol does not verify the payload given and cannot check that the swap performed by users actually gives the desired out token: in this case funds may be lost by the user if they don't perform a sweep action on these tokens",
        "params": {
          "actions": "List of actions to be performed by the router (in order of execution): make sure to understand what each action performs",
          "data": "Array of encoded data for each of the actions performed in this mixer. This is where the bytes-encoded parameters for a given action are stored",
          "paramsPermit": "Array of params `PermitType` used to do a 1 tx to approve the router on each token (can be done once by setting high approved amounts) which supports the `permit` standard. Users willing to interact with the contract with tokens that do not support permit should approve the contract for these tokens prior to interacting with it"
        }
      },
      "mixerVaultManagerPermit((address,address,bool,uint256,uint8,bytes32,bytes32)[],(address,address,uint256,uint256,uint8,bytes32,bytes32)[],uint8[],bytes[])": {
        "details": "In `paramsPermitVaultManager`, the signatures for granting approvals must be given first before the signatures to revoke approvalsThe router contract has been built to be safe to keep approvals as you cannot take an action on a vault you are not approved for, but people wary about their approvals may want to grant it before immediately revoking it, although this is just an option",
        "params": {
          "paramsPermitVaultManager": "Parameters to sign permit to give allowance to the router for a `VaultManager` contract"
        }
      },
      "setCore(address)": {
        "details": "This function should typically be called on all treasury contracts after the `setCore` function has been called on the `CoreBorrow` contractOne sanity check that can be performed here is to verify whether at least the governor calling the contract is still a governor in the new core"
      }
    },
    "title": "AngleRouterArbitrum",
    "version": 1
  },
  "userdoc": {
    "kind": "user",
    "methods": {
      "changeAllowance(address[],address[],uint256[])": {
        "notice": "Change allowance for a contract."
      },
      "claimRewards(address,address[])": {
        "notice": "Wrapper built on top of the _claimRewards function. It allows to claim rewards for multiple gauges and perpetuals at once"
      },
      "core()": {
        "notice": "Core Borrow address"
      },
      "mixer((address,address,uint256,uint256,uint8,bytes32,bytes32)[],uint8[],bytes[])": {
        "notice": "Allows composable calls to different functions within the protocol"
      },
      "mixerVaultManagerPermit((address,address,bool,uint256,uint8,bytes32,bytes32)[],(address,address,uint256,uint256,uint8,bytes32,bytes32)[],uint8[],bytes[])": {
        "notice": "Wrapper built on top of the base `mixer` function to grant approval to a `VaultManager` contract before performing actions and then revoking this approval after these actions"
      },
      "oneInch()": {
        "notice": "Address of the 1Inch router potentially used for swaps"
      },
      "setCore(address)": {
        "notice": "Sets a new `core` contract"
      },
      "uniswapV3Router()": {
        "notice": "Address of the Uniswap V3 router potentially used for swaps"
      }
    },
    "notice": "Router contract built specifially for Angle use cases on Arbitrum",
    "version": 1
  },
  "storageLayout": {
    "storage": [
      {
        "astId": 6,
        "contract": "contracts/sidechains/arbitrum/AngleRouterArbitrum.sol:AngleRouterArbitrum",
        "label": "_initialized",
        "offset": 0,
        "slot": "0",
        "type": "t_bool"
      },
      {
        "astId": 9,
        "contract": "contracts/sidechains/arbitrum/AngleRouterArbitrum.sol:AngleRouterArbitrum",
        "label": "_initializing",
        "offset": 1,
        "slot": "0",
        "type": "t_bool"
      },
      {
        "astId": 5094,
        "contract": "contracts/sidechains/arbitrum/AngleRouterArbitrum.sol:AngleRouterArbitrum",
        "label": "core",
        "offset": 2,
        "slot": "0",
        "type": "t_contract(ICoreBorrow)7222"
      },
      {
        "astId": 5098,
        "contract": "contracts/sidechains/arbitrum/AngleRouterArbitrum.sol:AngleRouterArbitrum",
        "label": "uniswapV3Router",
        "offset": 0,
        "slot": "1",
        "type": "t_contract(IUniswapV3Router)9095"
      },
      {
        "astId": 5101,
        "contract": "contracts/sidechains/arbitrum/AngleRouterArbitrum.sol:AngleRouterArbitrum",
        "label": "oneInch",
        "offset": 0,
        "slot": "2",
        "type": "t_address"
      },
      {
        "astId": 5105,
        "contract": "contracts/sidechains/arbitrum/AngleRouterArbitrum.sol:AngleRouterArbitrum",
        "label": "__gap",
        "offset": 0,
        "slot": "3",
        "type": "t_array(t_uint256)47_storage"
      }
    ],
    "types": {
      "t_address": {
        "encoding": "inplace",
        "label": "address",
        "numberOfBytes": "20"
      },
      "t_array(t_uint256)47_storage": {
        "base": "t_uint256",
        "encoding": "inplace",
        "label": "uint256[47]",
        "numberOfBytes": "1504"
      },
      "t_bool": {
        "encoding": "inplace",
        "label": "bool",
        "numberOfBytes": "1"
      },
      "t_contract(ICoreBorrow)7222": {
        "encoding": "inplace",
        "label": "contract ICoreBorrow",
        "numberOfBytes": "20"
      },
      "t_contract(IUniswapV3Router)9095": {
        "encoding": "inplace",
        "label": "contract IUniswapV3Router",
        "numberOfBytes": "20"
      },
      "t_uint256": {
        "encoding": "inplace",
        "label": "uint256",
        "numberOfBytes": "32"
      }
    }
  }
}