{
  "address": "0xe991728CB7B4ce268F6f75339840765911e23C8A",
  "abi": [
    {
      "anonymous": false,
      "inputs": [
        {
          "indexed": true,
          "internalType": "address",
          "name": "admin",
          "type": "address"
        },
        {
          "indexed": false,
          "internalType": "bool",
          "name": "setGovernor",
          "type": "bool"
        }
      ],
      "name": "AdminChanged",
      "type": "event"
    },
    {
      "anonymous": false,
      "inputs": [
        {
          "indexed": true,
          "internalType": "address",
          "name": "stableMaster",
          "type": "address"
        },
        {
          "indexed": true,
          "internalType": "address",
          "name": "poolManager",
          "type": "address"
        },
        {
          "indexed": true,
          "internalType": "address",
          "name": "liquidityGauge",
          "type": "address"
        }
      ],
      "name": "CollateralToggled",
      "type": "event"
    },
    {
      "anonymous": false,
      "inputs": [
        {
          "indexed": true,
          "internalType": "address",
          "name": "tokenAddress",
          "type": "address"
        },
        {
          "indexed": true,
          "internalType": "address",
          "name": "to",
          "type": "address"
        },
        {
          "indexed": false,
          "internalType": "uint256",
          "name": "amount",
          "type": "uint256"
        }
      ],
      "name": "Recovered",
      "type": "event"
    },
    {
      "anonymous": false,
      "inputs": [
        {
          "indexed": true,
          "internalType": "address",
          "name": "sanToken",
          "type": "address"
        },
        {
          "indexed": true,
          "internalType": "address",
          "name": "newLiquidityGauge",
          "type": "address"
        }
      ],
      "name": "SanTokenLiquidityGaugeUpdated",
      "type": "event"
    },
    {
      "anonymous": false,
      "inputs": [
        {
          "indexed": true,
          "internalType": "address",
          "name": "stableMaster",
          "type": "address"
        }
      ],
      "name": "StablecoinAdded",
      "type": "event"
    },
    {
      "anonymous": false,
      "inputs": [
        {
          "indexed": true,
          "internalType": "address",
          "name": "stableMaster",
          "type": "address"
        }
      ],
      "name": "StablecoinRemoved",
      "type": "event"
    },
    {
      "inputs": [],
      "name": "ANGLE",
      "outputs": [
        {
          "internalType": "contract IERC20",
          "name": "",
          "type": "address"
        }
      ],
      "stateMutability": "view",
      "type": "function"
    },
    {
      "inputs": [],
      "name": "BASE_PARAMS",
      "outputs": [
        {
          "internalType": "uint256",
          "name": "",
          "type": "uint256"
        }
      ],
      "stateMutability": "view",
      "type": "function"
    },
    {
      "inputs": [],
      "name": "VEANGLE",
      "outputs": [
        {
          "internalType": "contract IVeANGLE",
          "name": "",
          "type": "address"
        }
      ],
      "stateMutability": "view",
      "type": "function"
    },
    {
      "inputs": [],
      "name": "WETH9",
      "outputs": [
        {
          "internalType": "contract IWETH9",
          "name": "",
          "type": "address"
        }
      ],
      "stateMutability": "view",
      "type": "function"
    },
    {
      "inputs": [],
      "name": "WSTETH",
      "outputs": [
        {
          "internalType": "contract IWStETH",
          "name": "",
          "type": "address"
        }
      ],
      "stateMutability": "view",
      "type": "function"
    },
    {
      "inputs": [
        {
          "internalType": "contract IERC20[]",
          "name": "stablecoins",
          "type": "address[]"
        },
        {
          "internalType": "contract IPoolManager[]",
          "name": "poolManagers",
          "type": "address[]"
        },
        {
          "internalType": "contract ILiquidityGauge[]",
          "name": "liquidityGauges",
          "type": "address[]"
        }
      ],
      "name": "addPairs",
      "outputs": [],
      "stateMutability": "nonpayable",
      "type": "function"
    },
    {
      "inputs": [
        {
          "internalType": "contract IERC20",
          "name": "stablecoin",
          "type": "address"
        },
        {
          "internalType": "contract IStableMasterFront",
          "name": "stableMaster",
          "type": "address"
        }
      ],
      "name": "addStableMaster",
      "outputs": [],
      "stateMutability": "nonpayable",
      "type": "function"
    },
    {
      "inputs": [
        {
          "internalType": "uint256",
          "name": "margin",
          "type": "uint256"
        },
        {
          "internalType": "uint256",
          "name": "perpetualID",
          "type": "uint256"
        },
        {
          "internalType": "bool",
          "name": "addressProcessed",
          "type": "bool"
        },
        {
          "internalType": "address",
          "name": "stablecoinOrPerpetualManager",
          "type": "address"
        },
        {
          "internalType": "address",
          "name": "collateral",
          "type": "address"
        }
      ],
      "name": "addToPerpetual",
      "outputs": [],
      "stateMutability": "nonpayable",
      "type": "function"
    },
    {
      "inputs": [
        {
          "internalType": "address",
          "name": "dest",
          "type": "address"
        },
        {
          "internalType": "uint256",
          "name": "amount",
          "type": "uint256"
        },
        {
          "internalType": "uint256",
          "name": "minCollatAmount",
          "type": "uint256"
        },
        {
          "internalType": "address",
          "name": "stablecoin",
          "type": "address"
        },
        {
          "internalType": "address",
          "name": "collateral",
          "type": "address"
        }
      ],
      "name": "burn",
      "outputs": [],
      "stateMutability": "nonpayable",
      "type": "function"
    },
    {
      "inputs": [
        {
          "internalType": "contract IERC20[]",
          "name": "tokens",
          "type": "address[]"
        },
        {
          "internalType": "address[]",
          "name": "spenders",
          "type": "address[]"
        },
        {
          "internalType": "uint256[]",
          "name": "amounts",
          "type": "uint256[]"
        }
      ],
      "name": "changeAllowance",
      "outputs": [],
      "stateMutability": "nonpayable",
      "type": "function"
    },
    {
      "inputs": [
        {
          "internalType": "address",
          "name": "user",
          "type": "address"
        },
        {
          "internalType": "address[]",
          "name": "liquidityGauges",
          "type": "address[]"
        },
        {
          "internalType": "uint256[]",
          "name": "perpetualIDs",
          "type": "uint256[]"
        },
        {
          "internalType": "address[]",
          "name": "perpetualManagers",
          "type": "address[]"
        }
      ],
      "name": "claimRewards",
      "outputs": [],
      "stateMutability": "nonpayable",
      "type": "function"
    },
    {
      "inputs": [
        {
          "internalType": "address",
          "name": "gaugeUser",
          "type": "address"
        },
        {
          "internalType": "address[]",
          "name": "liquidityGauges",
          "type": "address[]"
        },
        {
          "internalType": "uint256[]",
          "name": "perpetualIDs",
          "type": "uint256[]"
        },
        {
          "internalType": "address[]",
          "name": "stablecoins",
          "type": "address[]"
        },
        {
          "internalType": "address[]",
          "name": "collaterals",
          "type": "address[]"
        }
      ],
      "name": "claimRewards",
      "outputs": [],
      "stateMutability": "nonpayable",
      "type": "function"
    },
    {
      "inputs": [
        {
          "internalType": "address",
          "name": "user",
          "type": "address"
        },
        {
          "internalType": "uint256",
          "name": "amount",
          "type": "uint256"
        },
        {
          "internalType": "address",
          "name": "stableMaster",
          "type": "address"
        },
        {
          "internalType": "address",
          "name": "collateral",
          "type": "address"
        },
        {
          "internalType": "contract IPoolManager",
          "name": "poolManager",
          "type": "address"
        },
        {
          "internalType": "contract ISanToken",
          "name": "sanToken",
          "type": "address"
        }
      ],
      "name": "deposit",
      "outputs": [],
      "stateMutability": "nonpayable",
      "type": "function"
    },
    {
      "inputs": [
        {
          "internalType": "address",
          "name": "user",
          "type": "address"
        },
        {
          "internalType": "uint256",
          "name": "amount",
          "type": "uint256"
        },
        {
          "internalType": "address",
          "name": "stablecoin",
          "type": "address"
        },
        {
          "internalType": "address",
          "name": "collateral",
          "type": "address"
        }
      ],
      "name": "deposit",
      "outputs": [],
      "stateMutability": "nonpayable",
      "type": "function"
    },
    {
      "inputs": [
        {
          "internalType": "address",
          "name": "user",
          "type": "address"
        },
        {
          "internalType": "uint256",
          "name": "amount",
          "type": "uint256"
        },
        {
          "internalType": "contract ILiquidityGauge",
          "name": "gauge",
          "type": "address"
        },
        {
          "internalType": "bool",
          "name": "shouldClaimRewards",
          "type": "bool"
        },
        {
          "internalType": "contract IERC20",
          "name": "token",
          "type": "address"
        }
      ],
      "name": "gaugeDeposit",
      "outputs": [],
      "stateMutability": "nonpayable",
      "type": "function"
    },
    {
      "inputs": [],
      "name": "governor",
      "outputs": [
        {
          "internalType": "address",
          "name": "",
          "type": "address"
        }
      ],
      "stateMutability": "view",
      "type": "function"
    },
    {
      "inputs": [],
      "name": "guardian",
      "outputs": [
        {
          "internalType": "address",
          "name": "",
          "type": "address"
        }
      ],
      "stateMutability": "view",
      "type": "function"
    },
    {
      "inputs": [
        {
          "internalType": "address",
          "name": "_governor",
          "type": "address"
        },
        {
          "internalType": "address",
          "name": "_guardian",
          "type": "address"
        },
        {
          "internalType": "contract IUniswapV3Router",
          "name": "_uniswapV3Router",
          "type": "address"
        },
        {
          "internalType": "address",
          "name": "_oneInch",
          "type": "address"
        },
        {
          "internalType": "contract IStableMasterFront",
          "name": "existingStableMaster",
          "type": "address"
        },
        {
          "internalType": "contract IPoolManager[]",
          "name": "existingPoolManagers",
          "type": "address[]"
        },
        {
          "internalType": "contract ILiquidityGauge[]",
          "name": "existingLiquidityGauges",
          "type": "address[]"
        }
      ],
      "name": "initialize",
      "outputs": [],
      "stateMutability": "nonpayable",
      "type": "function"
    },
    {
      "inputs": [
        {
          "internalType": "contract IStableMasterFront",
          "name": "",
          "type": "address"
        },
        {
          "internalType": "contract IERC20",
          "name": "",
          "type": "address"
        }
      ],
      "name": "mapPoolManagers",
      "outputs": [
        {
          "internalType": "contract IPoolManager",
          "name": "poolManager",
          "type": "address"
        },
        {
          "internalType": "contract IPerpetualManagerFrontWithClaim",
          "name": "perpetualManager",
          "type": "address"
        },
        {
          "internalType": "contract ISanToken",
          "name": "sanToken",
          "type": "address"
        },
        {
          "internalType": "contract ILiquidityGauge",
          "name": "gauge",
          "type": "address"
        }
      ],
      "stateMutability": "view",
      "type": "function"
    },
    {
      "inputs": [
        {
          "internalType": "contract IERC20",
          "name": "",
          "type": "address"
        }
      ],
      "name": "mapStableMasters",
      "outputs": [
        {
          "internalType": "contract IStableMasterFront",
          "name": "",
          "type": "address"
        }
      ],
      "stateMutability": "view",
      "type": "function"
    },
    {
      "inputs": [
        {
          "internalType": "address",
          "name": "user",
          "type": "address"
        },
        {
          "internalType": "uint256",
          "name": "amount",
          "type": "uint256"
        },
        {
          "internalType": "uint256",
          "name": "minStableAmount",
          "type": "uint256"
        },
        {
          "internalType": "address",
          "name": "stablecoin",
          "type": "address"
        },
        {
          "internalType": "address",
          "name": "collateral",
          "type": "address"
        }
      ],
      "name": "mint",
      "outputs": [],
      "stateMutability": "nonpayable",
      "type": "function"
    },
    {
      "inputs": [
        {
          "internalType": "address",
          "name": "user",
          "type": "address"
        },
        {
          "internalType": "uint256",
          "name": "amount",
          "type": "uint256"
        },
        {
          "internalType": "uint256",
          "name": "minStableAmount",
          "type": "uint256"
        },
        {
          "internalType": "address",
          "name": "stableMaster",
          "type": "address"
        },
        {
          "internalType": "address",
          "name": "collateral",
          "type": "address"
        },
        {
          "internalType": "address",
          "name": "poolManager",
          "type": "address"
        }
      ],
      "name": "mint",
      "outputs": [],
      "stateMutability": "nonpayable",
      "type": "function"
    },
    {
      "inputs": [
        {
          "components": [
            {
              "internalType": "address",
              "name": "token",
              "type": "address"
            },
            {
              "internalType": "address",
              "name": "owner",
              "type": "address"
            },
            {
              "internalType": "uint256",
              "name": "value",
              "type": "uint256"
            },
            {
              "internalType": "uint256",
              "name": "deadline",
              "type": "uint256"
            },
            {
              "internalType": "uint8",
              "name": "v",
              "type": "uint8"
            },
            {
              "internalType": "bytes32",
              "name": "r",
              "type": "bytes32"
            },
            {
              "internalType": "bytes32",
              "name": "s",
              "type": "bytes32"
            }
          ],
          "internalType": "struct AngleRouter.PermitType[]",
          "name": "paramsPermit",
          "type": "tuple[]"
        },
        {
          "components": [
            {
              "internalType": "contract IERC20",
              "name": "inToken",
              "type": "address"
            },
            {
              "internalType": "uint256",
              "name": "amountIn",
              "type": "uint256"
            }
          ],
          "internalType": "struct AngleRouter.TransferType[]",
          "name": "paramsTransfer",
          "type": "tuple[]"
        },
        {
          "components": [
            {
              "internalType": "contract IERC20",
              "name": "inToken",
              "type": "address"
            },
            {
              "internalType": "address",
              "name": "collateral",
              "type": "address"
            },
            {
              "internalType": "uint256",
              "name": "amountIn",
              "type": "uint256"
            },
            {
              "internalType": "uint256",
              "name": "minAmountOut",
              "type": "uint256"
            },
            {
              "internalType": "bytes",
              "name": "args",
              "type": "bytes"
            },
            {
              "internalType": "enum AngleRouter.SwapType",
              "name": "swapType",
              "type": "uint8"
            }
          ],
          "internalType": "struct AngleRouter.ParamsSwapType[]",
          "name": "paramsSwap",
          "type": "tuple[]"
        },
        {
          "internalType": "enum AngleRouter.ActionType[]",
          "name": "actions",
          "type": "uint8[]"
        },
        {
          "internalType": "bytes[]",
          "name": "data",
          "type": "bytes[]"
        }
      ],
      "name": "mixer",
      "outputs": [],
      "stateMutability": "payable",
      "type": "function"
    },
    {
      "inputs": [],
      "name": "oneInch",
      "outputs": [
        {
          "internalType": "address",
          "name": "",
          "type": "address"
        }
      ],
      "stateMutability": "view",
      "type": "function"
    },
    {
      "inputs": [
        {
          "internalType": "contract IERC20",
          "name": "",
          "type": "address"
        }
      ],
      "name": "oneInchAllowedToken",
      "outputs": [
        {
          "internalType": "bool",
          "name": "",
          "type": "bool"
        }
      ],
      "stateMutability": "view",
      "type": "function"
    },
    {
      "inputs": [
        {
          "internalType": "address",
          "name": "owner",
          "type": "address"
        },
        {
          "internalType": "uint256",
          "name": "margin",
          "type": "uint256"
        },
        {
          "internalType": "uint256",
          "name": "amountCommitted",
          "type": "uint256"
        },
        {
          "internalType": "uint256",
          "name": "maxOracleRate",
          "type": "uint256"
        },
        {
          "internalType": "uint256",
          "name": "minNetMargin",
          "type": "uint256"
        },
        {
          "internalType": "bool",
          "name": "addressProcessed",
          "type": "bool"
        },
        {
          "internalType": "address",
          "name": "stablecoinOrPerpetualManager",
          "type": "address"
        },
        {
          "internalType": "address",
          "name": "collateral",
          "type": "address"
        }
      ],
      "name": "openPerpetual",
      "outputs": [],
      "stateMutability": "nonpayable",
      "type": "function"
    },
    {
      "inputs": [
        {
          "internalType": "address",
          "name": "tokenAddress",
          "type": "address"
        },
        {
          "internalType": "address",
          "name": "to",
          "type": "address"
        },
        {
          "internalType": "uint256",
          "name": "tokenAmount",
          "type": "uint256"
        }
      ],
      "name": "recoverERC20",
      "outputs": [],
      "stateMutability": "nonpayable",
      "type": "function"
    },
    {
      "inputs": [
        {
          "internalType": "contract IERC20[]",
          "name": "stablecoins",
          "type": "address[]"
        },
        {
          "internalType": "contract IERC20[]",
          "name": "collaterals",
          "type": "address[]"
        },
        {
          "internalType": "contract IStableMasterFront[]",
          "name": "stableMasters",
          "type": "address[]"
        }
      ],
      "name": "removePairs",
      "outputs": [],
      "stateMutability": "nonpayable",
      "type": "function"
    },
    {
      "inputs": [
        {
          "internalType": "contract IERC20",
          "name": "stablecoin",
          "type": "address"
        }
      ],
      "name": "removeStableMaster",
      "outputs": [],
      "stateMutability": "nonpayable",
      "type": "function"
    },
    {
      "inputs": [
        {
          "internalType": "address",
          "name": "admin",
          "type": "address"
        },
        {
          "internalType": "bool",
          "name": "setGovernor",
          "type": "bool"
        }
      ],
      "name": "setGovernorOrGuardian",
      "outputs": [],
      "stateMutability": "nonpayable",
      "type": "function"
    },
    {
      "inputs": [
        {
          "internalType": "contract IERC20[]",
          "name": "stablecoins",
          "type": "address[]"
        },
        {
          "internalType": "contract IERC20[]",
          "name": "collaterals",
          "type": "address[]"
        },
        {
          "internalType": "contract ILiquidityGauge[]",
          "name": "newLiquidityGauges",
          "type": "address[]"
        }
      ],
      "name": "setLiquidityGauges",
      "outputs": [],
      "stateMutability": "nonpayable",
      "type": "function"
    },
    {
      "inputs": [
        {
          "internalType": "contract IERC20",
          "name": "",
          "type": "address"
        }
      ],
      "name": "uniAllowedToken",
      "outputs": [
        {
          "internalType": "bool",
          "name": "",
          "type": "bool"
        }
      ],
      "stateMutability": "view",
      "type": "function"
    },
    {
      "inputs": [],
      "name": "uniswapV3Router",
      "outputs": [
        {
          "internalType": "contract IUniswapV3Router",
          "name": "",
          "type": "address"
        }
      ],
      "stateMutability": "view",
      "type": "function"
    },
    {
      "stateMutability": "payable",
      "type": "receive"
    }
  ],
  "transactionHash": "0x1b2a3006215bd047e0b6f4be3cda5ba80e1a96668f782dfca592fd51c2581aea",
  "args": [],
  "solcInputHash": "bbb8957438141797207eed353ed2237f",
  "bytecode": "0x608060405234801561001057600080fd5b50615d8680620000216000396000f3fe6080604052600436106101825760003560e01c8063045c08d51461018e5780630c340a24146101c45780630db3280f146101e45780631171bda9146102245780631fd66ede1461024657806322f2d586146102665780632c76d7a614610286578063313359b1146102a65780633fbe4484146102c8578063452a9320146102e85780634aa4a4fc146103085780634ba20f7014610330578063560a8b78146103505780635cc6b2d4146103785780636fb8df05146103985780637c295dfa146103b85780639f48118f14610449578063a11a233d1461046f578063aacdd99d1461048f578063aad3bff0146104af578063b044d1e0146104cf578063b8034424146104ef578063b82c4dc114610525578063c6f1649f14610545578063cef5cd0a14610565578063d0772c2914610578578063d7d9e46f14610598578063d9fb643a146105b8578063e45e6f30146105e0578063e9cefc6414610600578063ee7b495014610620578063f5a418bb14610640578063f8a3a1111461067057600080fd5b3661018957005b600080fd5b34801561019a57600080fd5b50603a546101ae906001600160a01b031681565b6040516101bb919061583e565b60405180910390f35b3480156101d057600080fd5b506037546101ae906001600160a01b031681565b3480156101f057600080fd5b506102146101ff366004614b58565b60356020526000908152604090205460ff1681565b60405190151581526020016101bb565b34801561023057600080fd5b5061024461023f366004615047565b610690565b005b34801561025257600080fd5b506102446102613660046152e6565b61073e565b34801561027257600080fd5b506102446102813660046153c3565b610792565b34801561029257600080fd5b506039546101ae906001600160a01b031681565b3480156102b257600080fd5b506101ae600080516020615d3183398151915281565b3480156102d457600080fd5b506102446102e3366004614f79565b610bf1565b3480156102f457600080fd5b506038546101ae906001600160a01b031681565b34801561031457600080fd5b506101ae73c02aaa39b223fe8d0a0e5c4f27ead9083c756cc281565b34801561033c57600080fd5b5061024461034b366004614ef4565b610ee5565b34801561035c57600080fd5b506101ae730c462dbb9ec8cd1630f1728b2cfd2769d09f0dd581565b34801561038457600080fd5b506102446103933660046153c3565b610f41565b3480156103a457600080fd5b506102446103b3366004614b58565b611301565b3480156103c457600080fd5b506104166103d336600461566d565b603460209081526000928352604080842090915290825290208054600182015460028301546003909301546001600160a01b039283169391831692918216911684565b604080516001600160a01b03958616815293851660208501529184169183019190915290911660608201526080016101bb565b34801561045557600080fd5b50610461633b9aca0081565b6040519081526020016101bb565b34801561047b57600080fd5b5061024461048a3660046151e1565b611398565b34801561049b57600080fd5b506102446104aa3660046153c3565b6114d0565b3480156104bb57600080fd5b506102446104ca36600461526d565b6115e0565b3480156104db57600080fd5b506102446104ea366004615340565b61163b565b3480156104fb57600080fd5b506101ae61050a366004614b58565b6033602052600090815260409020546001600160a01b031681565b34801561053157600080fd5b506102446105403660046153c3565b611689565b34801561055157600080fd5b5061024461056036600461521a565b61177e565b61024461057336600461545c565b6117d8565b34801561058457600080fd5b50610244610593366004615088565b6124c0565b3480156105a457600080fd5b506102446105b3366004615381565b612546565b3480156105c457600080fd5b506101ae737f39c581f595b53c5cb19bd0b3f8da6c935e2ca081565b3480156105ec57600080fd5b506102446105fb36600461566d565b612593565b34801561060c57600080fd5b5061024461061b366004615763565b61272a565b34801561062c57600080fd5b5061024461063b366004615340565b612774565b34801561064c57600080fd5b5061021461065b366004614b58565b60366020526000908152604090205460ff1681565b34801561067c57600080fd5b5061024461068b366004615122565b6127ac565b6037546001600160a01b03163314806106b357506038546001600160a01b031633145b6106d85760405162461bcd60e51b81526004016106cf906159af565b60405180910390fd5b6106ec6001600160a01b03841683836127e3565b816001600160a01b0316836001600160a01b03167ffff3b3844276f57024e0b42afec1a37f75db36511e43819a4f2a63ab7862b6488360405161073191815260200190565b60405180910390a3505050565b600260015414156107615760405162461bcd60e51b81526004016106cf90615a05565b600260015561077b6001600160a01b03821633308761283e565b6107878585858561287c565b505060018055505050565b6037546001600160a01b03163314806107b557506038546001600160a01b031633145b6107d15760405162461bcd60e51b81526004016106cf906159af565b82851480156107df57508085145b6107fb5760405162461bcd60e51b81526004016106cf90615976565b60005b85811015610be85760006033600089898581811061081e5761081e615cbe565b90506020020160208101906108339190614b58565b6001600160a01b03908116825260208083019390935260409182016000908120549091168082526034909352908120919250908188888681811061087957610879615cbe565b905060200201602081019061088e9190614b58565b6001600160a01b039081168252602082019290925260400160002060038101546002820154919350821691908116908416158015906108d6575082546001600160a01b031615155b6108f25760405162461bcd60e51b81526004016106cf9061593f565b86868681811061090457610904615cbe565b90506020020160208101906109199190614b58565b6003840180546001600160a01b0319166001600160a01b039283161790558216156109c15760405163095ea7b360e01b81526001600160a01b0382169063095ea7b39061096d90859060009060040161586c565b602060405180830381600087803b15801561098757600080fd5b505af115801561099b573d6000803e3d6000fd5b505050506040513d601f19601f820116820180604052508101906109bf9190615514565b505b60008787878181106109d5576109d5615cbe565b90506020020160208101906109ea9190614b58565b6001600160a01b031614610b6b57806001600160a01b0316878787818110610a1457610a14615cbe565b9050602002016020810190610a299190614b58565b6001600160a01b0316632dc7d74c6040518163ffffffff1660e01b8152600401602060405180830381600087803b158015610a6357600080fd5b505af1158015610a77573d6000803e3d6000fd5b505050506040513d601f19601f82011682018060405250810190610a9b9190614b75565b6001600160a01b031614610ac15760405162461bcd60e51b81526004016106cf906159e9565b806001600160a01b031663095ea7b3888888818110610ae257610ae2615cbe565b9050602002016020810190610af79190614b58565b6000196040518363ffffffff1660e01b8152600401610b1792919061586c565b602060405180830381600087803b158015610b3157600080fd5b505af1158015610b45573d6000803e3d6000fd5b505050506040513d601f19601f82011682018060405250810190610b699190615514565b505b868686818110610b7d57610b7d615cbe565b9050602002016020810190610b929190614b58565b6001600160a01b0316816001600160a01b03167f68bfc93bebf089f076e093803a9da9d10f6f78e2bde5f83b50b249ed5333442460405160405180910390a3505050508080610be090615c77565b9150506107fe565b50505050505050565b600054610100900460ff16610c0c5760005460ff1615610c10565b303b155b610c735760405162461bcd60e51b815260206004820152602e60248201527f496e697469616c697a61626c653a20636f6e747261637420697320616c72656160448201526d191e481a5b9a5d1a585b1a5e995960921b60648201526084016106cf565b600054610100900460ff16158015610c95576000805461ffff19166101011790555b6001600160a01b03881615801590610cb557506001600160a01b03871615155b8015610cc957506001600160a01b038a1615155b8015610cdd57506001600160a01b03891615155b610cf95760405162461bcd60e51b81526004016106cf9061593f565b886001600160a01b03168a6001600160a01b03161415610d2b5760405162461bcd60e51b81526004016106cf90615993565b838214610d4a5760405162461bcd60e51b81526004016106cf90615976565b8560336000886001600160a01b031663ee565a636040518163ffffffff1660e01b815260040160206040518083038186803b158015610d8857600080fd5b505afa158015610d9c573d6000803e3d6000fd5b505050506040513d601f19601f82011682018060405250810190610dc09190614b75565b6001600160a01b039081168252602082019290925260400160002080546001600160a01b03199081169383169390931790556037805483168d83161790556038805483168c83161790556039805483168b8316179055603a8054909216908916179055610e52600080516020615d31833981519152730c462dbb9ec8cd1630f1728b2cfd2769d09f0dd56000196128ec565b60005b84811015610ec657610eb487878784818110610e7357610e73615cbe565b9050602002016020810190610e889190614b58565b868685818110610e9a57610e9a615cbe565b9050602002016020810190610eaf9190614b58565b6129fe565b80610ebe81615c77565b915050610e55565b508015610ed9576000805461ff00191690555b50505050505050505050565b60026001541415610f085760405162461bcd60e51b81526004016106cf90615a05565b6002600155610f226001600160a01b03821633308a61283e565b610f328888888888888888612cbf565b50506001805550505050505050565b6037546001600160a01b0316331480610f6457506038546001600160a01b031633145b610f805760405162461bcd60e51b81526004016106cf906159af565b8285148015610f8e57508083145b610faa5760405162461bcd60e51b81526004016106cf90615976565b610fb2614418565b6000805b878110156112f6576000858583818110610fd257610fd2615cbe565b9050602002016020810190610fe79190614b58565b6001600160a01b031614156110555761104c89898381811061100b5761100b615cbe565b90506020020160208101906110209190614b58565b88888481811061103257611032615cbe565b90506020020160208101906110479190614b58565b612d7f565b93509150611115565b84848281811061106757611067615cbe565b905060200201602081019061107c9190614b58565b6001600160a01b03811660009081526034602052604081209193508888848181106110a9576110a9615cbe565b90506020020160208101906110be9190614b58565b6001600160a01b039081168252602080830193909352604091820160002082516080810184528154831681526001820154831694810194909452600281015482169284019290925260039091015416606082015292505b6001600160a01b03821660009081526034602052604081209088888481811061114057611140615cbe565b90506020020160208101906111559190614b58565b6001600160a01b03168152602081019190915260400160002080546001600160a01b0319908116825560018201805482169055600282018054821690556003909101805490911690556111d08787838181106111b3576111b3615cbe565b90506020020160208101906111c89190614b58565b836000612e31565b6112068787838181106111e5576111e5615cbe565b90506020020160208101906111fa9190614b58565b84602001516000612e31565b60608301516001600160a01b0316156112a45782604001516001600160a01b031663095ea7b3846060015160006040518363ffffffff1660e01b815260040161125092919061586c565b602060405180830381600087803b15801561126a57600080fd5b505af115801561127e573d6000803e3d6000fd5b505050506040513d601f19601f820116820180604052508101906112a29190615514565b505b82606001516001600160a01b031683600001516001600160a01b0316836001600160a01b0316600080516020615d1183398151915260405160405180910390a4806112ee81615c77565b915050610fb6565b505050505050505050565b6037546001600160a01b031633148061132457506038546001600160a01b031633145b6113405760405162461bcd60e51b81526004016106cf906159af565b6001600160a01b0380821660009081526033602052604080822080546001600160a01b03198116909155905192169182917f3302a1b37f04242bb55603f5449e7ecd690a35eef08ba1353c48c20e2aae9cda91a25050565b6037546001600160a01b03163314806113bb57506038546001600160a01b031633145b6113d75760405162461bcd60e51b81526004016106cf906159af565b6001600160a01b0382166113fd5760405162461bcd60e51b81526004016106cf9061593f565b6038546001600160a01b0383811691161480159061142957506037546001600160a01b03838116911614155b6114455760405162461bcd60e51b81526004016106cf90615993565b801561146b57603780546001600160a01b0319166001600160a01b038416179055611487565b603880546001600160a01b0319166001600160a01b0384161790555b816001600160a01b03167f4526a942aaed9ea92b149506bb00ccf0f9267091de10444718cf9b09e05dc680826040516114c4911515815260200190565b60405180910390a25050565b6037546001600160a01b03163314806114f357506038546001600160a01b031633145b61150f5760405162461bcd60e51b81526004016106cf906159af565b828514801561151d57508085145b6115395760405162461bcd60e51b81526004016106cf90615976565b60005b85811015610be85760006033600089898581811061155c5761155c615cbe565b90506020020160208101906115719190614b58565b6001600160a01b0390811682526020820192909252604001600020541690506115cd818787858181106115a6576115a6615cbe565b90506020020160208101906115bb9190614b58565b868686818110610e9a57610e9a615cbe565b50806115d881615c77565b91505061153c565b600260015414156116035760405162461bcd60e51b81526004016106cf90615a05565b600260015561161d6001600160a01b03841633308861283e565b61162d8686600187878787612f07565b505060018055505050505050565b6002600154141561165e5760405162461bcd60e51b81526004016106cf90615a05565b60026001556116786001600160a01b03821633308761283e565b610787858585600086866000613130565b6037546001600160a01b03163314806116ac57506038546001600160a01b031633145b6116c85760405162461bcd60e51b81526004016106cf906159af565b84831480156116d657508481145b6116f25760405162461bcd60e51b81526004016106cf90615976565b60005b85811015610be85761176c87878381811061171257611712615cbe565b90506020020160208101906117279190614b58565b86868481811061173957611739615cbe565b905060200201602081019061174e9190614b58565b85858581811061176057611760615cbe565b90506020020135612e31565b8061177681615c77565b9150506116f5565b600260015414156117a15760405162461bcd60e51b81526004016106cf90615a05565b60026001556117bb6001600160a01b03821633308661283e565b6117cc848460008585600080612f07565b50506001805550505050565b600260015414156117fb5760405162461bcd60e51b81526004016106cf90615a05565b600260015560005b86518110156119875786818151811061181e5761181e615cbe565b6020026020010151600001516001600160a01b031663d505accf88838151811061184a5761184a615cbe565b602002602001015160200151308a858151811061186957611869615cbe565b6020026020010151604001518b868151811061188757611887615cbe565b6020026020010151606001518c87815181106118a5576118a5615cbe565b6020026020010151608001518d88815181106118c3576118c3615cbe565b602002602001015160a001518e89815181106118e1576118e1615cbe565b602090810291909101015160c001516040516001600160e01b031960e08a901b1681526001600160a01b0397881660048201529690951660248701526044860193909352606485019190915260ff16608484015260a483015260c482015260e401600060405180830381600087803b15801561195c57600080fd5b505af1158015611970573d6000803e3d6000fd5b50505050808061197f90615c77565b915050611803565b5061199061443f565b61199861443f565b60005b8751811015611a56576119fe33308a84815181106119bb576119bb615cbe565b6020026020010151602001518b85815181106119d9576119d9615cbe565b6020026020010151600001516001600160a01b031661283e909392919063ffffffff16565b611a4483838a8481518110611a1557611a15615cbe565b6020026020010151600001518b8581518110611a3357611a33615cbe565b6020026020010151602001516131c0565b80611a4e81615c77565b91505061199b565b5060005b8651811015611b41576000611b03888381518110611a7a57611a7a615cbe565b602002602001015160000151898481518110611a9857611a98615cbe565b6020026020010151604001518a8581518110611ab657611ab6615cbe565b6020026020010151606001518b8681518110611ad457611ad4615cbe565b602002602001015160a001518c8781518110611af257611af2615cbe565b60200260200101516080015161324b565b9050611b2e84848a8581518110611b1c57611b1c615cbe565b602002602001015160200151846131c0565b5080611b3981615c77565b915050611a5a565b5060005b8551811015612440576000868281518110611b6257611b62615cbe565b60200260200101516009811115611b7b57611b7b615ca8565b1415611d585760008060008060008060008b8b89818110611b9e57611b9e615cbe565b9050602002810190611bb09190615ab3565b810190611bbd9190614d4c565b96509650965096509650965096506000600080516020615d318339815191526001600160a01b03166370a08231896040518263ffffffff1660e01b8152600401611c07919061583e565b60206040518083038186803b158015611c1f57600080fd5b505afa158015611c33573d6000803e3d6000fd5b505050506040513d601f19601f82011682018060405250810190611c579190615700565b9050611c678887878787876133b1565b8615611d4b576040516370a0823160e01b81528190600080516020615d31833981519152906370a0823190611ca0908c9060040161583e565b60206040518083038186803b158015611cb857600080fd5b505afa158015611ccc573d6000803e3d6000fd5b505050506040513d601f19601f82011682018060405250810190611cf09190615700565b611cfa9190615c34565b9050633b9aca00611d0b8883615c15565b611d159190615bf3565b9050611d31600080516020615d3183398151915233308461283e565b611d4b8b8b600080516020615d31833981519152846131c0565b505050505050505061242e565b6001868281518110611d6c57611d6c615cbe565b60200260200101516009811115611d8557611d85615ca8565b1415611dff576000806000878785818110611da257611da2615cbe565b9050602002810190611db49190615ab3565b810190611dc19190614c6d565b925092509250600080611dd585858561357f565b90925090506001600160a01b03811615611df557611df5888883856131c0565b505050505061242e565b6008868281518110611e1357611e13615cbe565b60200260200101516009811115611e2c57611e2c615ca8565b1415611e9757600080868684818110611e4757611e47615cbe565b9050602002810190611e599190615ab3565b810190611e669190614cb8565b91509150611e84818686600080516020615d318339815191526136a4565b9050611e90828261376b565b505061242e565b6002868281518110611eab57611eab615cbe565b60200260200101516009811115611ec457611ec4615ca8565b1415611f27576000806000806000898987818110611ee457611ee4615cbe565b9050602002810190611ef69190615ab3565b810190611f039190614ce4565b94509450945094509450611f19848989866136a4565b9350611df58585848461287c565b6005868281518110611f3b57611f3b615cbe565b60200260200101516009811115611f5457611f54615ca8565b1415611fe45760008060008060008060008b8b89818110611f7757611f77615cbe565b9050602002810190611f899190615ab3565b810190611f969190614e23565b9650965096509650965096509650611fb0868b8b866136a4565b9550611fc187878787878787612f07565b90965090508515611fd857611fd88a8a83896131c0565b5050505050505061242e565b6003868281518110611ff857611ff8615cbe565b6020026020010151600981111561201157612011615ca8565b141561208557600080600080600089898781811061203157612031615cbe565b90506020028101906120439190615ab3565b8101906120509190615719565b94509450945094509450612066858989846136a4565b9450612074858585856137da565b9095509150611df5888884886131c0565b600486828151811061209957612099615cbe565b602002602001015160098111156120b2576120b2615ca8565b141561211f5760008060008060008060008b8b898181106120d5576120d5615cbe565b90506020028101906120e79190615ab3565b8101906120f49190614eb0565b965096509650965096509650965061210e868b8b856136a4565b9550611fd887878787878787613130565b600686828151811061213357612133615cbe565b6020026020010151600981111561214c5761214c615ca8565b14156121cb576000806000806000806000808c8c8a81811061217057612170615cbe565b90506020028101906121829190615ab3565b81019061218f9190614ef4565b975097509750975097509750975097506121ab878c8c846136a4565b96506121bd8888888888888888612cbf565b50505050505050505061242e565b60078682815181106121df576121df615cbe565b602002602001015160098111156121f8576121f8615ca8565b141561225c57600080600080600089898781811061221857612218615cbe565b905060200281019061222a9190615ab3565b8101906122379190615763565b9450945094509450945061224d858989846136a4565b9450611df58585858585613a03565b600986828151811061227057612270615cbe565b6020026020010151600981111561228957612289615ca8565b141561242e576000806000806000806000808c8c8a8181106122ad576122ad615cbe565b90506020028101906122bf9190615ab3565b8101906122cc9190614b92565b975097509750975097509750975097506122e98887600019612e31565b60006122f9878585898987613a7a565b905061230789886000612e31565b8060400151816060015111156123a65760006123238d8b613b38565b905060008d82600a811061233957612339615cbe565b60200201516001600160a01b031614156123655760405162461bcd60e51b81526004016106cf9061593f565b816040015182606001516123799190615c34565b8c82600a811061238b5761238b615cbe565b6020020181815161239c9190615c34565b9052506123e99050565b806040015181606001511080156123c557506001600160a01b03861630145b156123e9576123e98c8c8b846060015185604001516123e49190615c34565b6131c0565b6020810151815111801561240557506001600160a01b03861630145b15612424576124248c8c8a846020015185600001516123e49190615c34565b5050505050505050505b8061243881615c77565b915050611b45565b5060005b600a811015610f325760008282600a811061246157612461615cbe565b602002015111156124ae576124ae338383600a811061248257612482615cbe565b60200201518584600a811061249957612499615cbe565b60200201516001600160a01b031691906127e3565b806124b881615c77565b915050612444565b600260015414156124e35760405162461bcd60e51b81526004016106cf90615a05565b600260018190555061253c848484600186516001600160401b0381111561250c5761250c615cd4565b604051908082528060200260200182016040528015612535578160200160208202803683370190505b50866133b1565b5050600180555050565b600260015414156125695760405162461bcd60e51b81526004016106cf90615a05565b60026001556125836001600160a01b03831633308861283e565b6117cc8686866001878787613130565b6037546001600160a01b03163314806125b657506038546001600160a01b031633145b6125d25760405162461bcd60e51b81526004016106cf906159af565b6001600160a01b0382166125f85760405162461bcd60e51b81526004016106cf9061593f565b6001600160a01b0382811660009081526033602052604090205416156126305760405162461bcd60e51b81526004016106cf906159cc565b816001600160a01b0316816001600160a01b031663ee565a636040518163ffffffff1660e01b8152600401602060405180830381600087803b15801561267557600080fd5b505af1158015612689573d6000803e3d6000fd5b505050506040513d601f19601f820116820180604052508101906126ad9190614b75565b6001600160a01b0316146126d35760405162461bcd60e51b81526004016106cf906159e9565b6001600160a01b0382811660009081526033602052604080822080546001600160a01b0319169385169384179055517f3db297c09c19972ba6a701ff373ab97e21ff1e4992e863c7abe44e9b2fed08479190a25050565b6002600154141561274d5760405162461bcd60e51b81526004016106cf90615a05565b60026001556127676001600160a01b03821633308861283e565b6107878585858585613a03565b600260015414156127975760405162461bcd60e51b81526004016106cf90615a05565b60026001556107878585856000868682613bc3565b600260015414156127cf5760405162461bcd60e51b81526004016106cf90615a05565b6002600155610787858585600086866133b1565b6128398363a9059cbb60e01b848460405160240161280292919061586c565b60408051601f198184030181529190526020810180516001600160e01b03166001600160e01b031990931692909217909152613c21565b505050565b6040516001600160a01b03808516602483015283166044820152606481018290526128769085906323b872dd60e01b90608401612802565b50505050565b6040516383df674760e01b8152600481018490526001600160a01b03858116602483015282151560448301528316906383df674790606401600060405180830381600087803b1580156128ce57600080fd5b505af11580156128e2573d6000803e3d6000fd5b5050505050505050565b8015806129745750604051636eb1769f60e11b81526001600160a01b0384169063dd62ed3e906129229030908690600401615852565b60206040518083038186803b15801561293a57600080fd5b505afa15801561294e573d6000803e3d6000fd5b505050506040513d601f19601f820116820180604052508101906129729190615700565b155b6129df5760405162461bcd60e51b815260206004820152603660248201527f5361666545524332303a20617070726f76652066726f6d206e6f6e2d7a65726f60448201527520746f206e6f6e2d7a65726f20616c6c6f77616e636560501b60648201526084016106cf565b6128398363095ea7b360e01b848460405160240161280292919061586c565b6000806000856001600160a01b031663ba8b7223866040518263ffffffff1660e01b8152600401612a2f919061583e565b60006040518083038186803b158015612a4757600080fd5b505afa158015612a5b573d6000803e3d6000fd5b505050506040513d6000823e601f3d908101601f19168201604052612a839190810190615531565b5050506001600160a01b03808d166000908152603460209081526040808320848b16845290915290208054979a509598509396509394909216159250612ade9150505760405162461bcd60e51b81526004016106cf906159cc565b80546001600160a01b038088166001600160a01b0319928316178355600183018054858316908416179055600283018054868316931692909217909155851615612c6457846001600160a01b0316632dc7d74c6040518163ffffffff1660e01b8152600401602060405180830381600087803b158015612b5d57600080fd5b505af1158015612b71573d6000803e3d6000fd5b505050506040513d601f19601f82011682018060405250810190612b959190614b75565b6001600160a01b0316836001600160a01b031614612bc55760405162461bcd60e51b81526004016106cf906159e9565b6003810180546001600160a01b0319166001600160a01b038781169190911790915560405163095ea7b360e01b81529084169063095ea7b390612c109088906000199060040161586c565b602060405180830381600087803b158015612c2a57600080fd5b505af1158015612c3e573d6000803e3d6000fd5b505050506040513d601f19601f82011682018060405250810190612c629190615514565b505b612c718488600019612e31565b612c7e8483600019612e31565b846001600160a01b0316866001600160a01b0316886001600160a01b0316600080516020615d1183398151915260405160405180910390a450505050505050565b600083612cdb576000612cd28484612d7f565b60200151945050505b60405163a62b2a3d60e01b81526001600160a01b038a81166004830152602482018a905260448201899052606482018890526084820187905284169063a62b2a3d9060a401602060405180830381600087803b158015612d3a57600080fd5b505af1158015612d4e573d6000803e3d6000fd5b505050506040513d601f19601f82011682018060405250810190612d729190615700565b9998505050505050505050565b6000612d89614418565b50506001600160a01b038083166000908152603360209081526040808320548416808452603483528184208686168552835292819020815160808101835281548616815260018201548616938101939093526002810154851691830191909152600301549092166060830152908115801590612e0e575080516001600160a01b031615155b612e2a5760405162461bcd60e51b81526004016106cf9061593f565b9250929050565b604051636eb1769f60e11b81526000906001600160a01b0385169063dd62ed3e90612e629030908790600401615852565b60206040518083038186803b158015612e7a57600080fd5b505afa158015612e8e573d6000803e3d6000fd5b505050506040513d601f19601f82011682018060405250810190612eb29190615700565b905081811015612ee057612edb83612eca8385615c34565b6001600160a01b0387169190613cf3565b612876565b818111156128765761287683612ef68484615c34565b6001600160a01b0387169190613d9f565b60008060008715612f19575085612f3c565b612f21614418565b612f2b8888612d7f565b805160409091015190975095509150505b6001600160a01b038a163014156130bd576040516370a0823160e01b81526001600160a01b038516906370a0823190612f7990309060040161583e565b60206040518083038186803b158015612f9157600080fd5b505afa158015612fa5573d6000803e3d6000fd5b505050506040513d601f19601f82011682018060405250810190612fc99190615700565b604051630b8b4a6160e21b81529093506001600160a01b03821690632e2d298490612ffc908c9030908a90600401615a94565b600060405180830381600087803b15801561301657600080fd5b505af115801561302a573d6000803e3d6000fd5b50506040516370a0823160e01b81528592506001600160a01b03871691506370a082319061305c90309060040161583e565b60206040518083038186803b15801561307457600080fd5b505afa158015613088573d6000803e3d6000fd5b505050506040513d601f19601f820116820180604052508101906130ac9190615700565b6130b69190615c34565b9250613120565b604051630b8b4a6160e21b81526001600160a01b03821690632e2d2984906130ed908c908e908a90600401615a94565b600060405180830381600087803b15801561310757600080fd5b505af115801561311b573d6000803e3d6000fd5b505050505b5082905097509795505050505050565b600061313e85858585613eb1565b6040516303a7722360e11b8152600481018a90526001600160a01b038b811660248301528083166044830152606482018a905291945091925082169063074ee446906084015b600060405180830381600087803b15801561319e57600080fd5b505af11580156131b2573d6000803e3d6000fd5b505050505050505050505050565b60006131cc8584613b38565b905060008582600a81106131e2576131e2615cbe565b60200201516001600160a01b0316141561321d57828582600a811061320957613209615cbe565b6001600160a01b0390921660209290920201525b818482600a811061323057613230615cbe565b602002018181516132419190615bdb565b9052505050505050565b6000844710613383576001600160a01b03861673c02aaa39b223fe8d0a0e5c4f27ead9083c756cc214156132e65773c02aaa39b223fe8d0a0e5c4f27ead9083c756cc26001600160a01b031663d0e30db0866040518263ffffffff1660e01b81526004016000604051808303818588803b1580156132c857600080fd5b505af11580156132dc573d6000803e3d6000fd5b5050505050613398565b6001600160a01b038616737f39c581f595b53c5cb19bd0b3f8da6c935e2ca0141561337e576040516000908190737f39c581f595b53c5cb19bd0b3f8da6c935e2ca09088908381818185875af1925050503d8060008114613363576040519150601f19603f3d011682016040523d82523d6000602084013e613368565b606091505b50915091508161337b5761337b81613ee8565b50505b613398565b6133986001600160a01b03871633308861283e565b6133a58686868686613f25565b90505b95945050505050565b835182511480156133c3575083518151145b6133df5760405162461bcd60e51b81526004016106cf90615976565b60005b8551811015613475578581815181106133fd576133fd615cbe565b60200260200101516001600160a01b03166384e9bd7e886040518263ffffffff1660e01b8152600401613430919061583e565b600060405180830381600087803b15801561344a57600080fd5b505af115801561345e573d6000803e3d6000fd5b50505050808061346d90615c77565b9150506133e2565b5060005b8451811015610be857600084156134ab5782828151811061349c5761349c615cbe565b602002602001015190506134f2565b60006134e98584815181106134c2576134c2615cbe565b60200260200101518585815181106134dc576134dc615cbe565b6020026020010151612d7f565b60200151925050505b806001600160a01b0316631c4b774b87848151811061351357613513615cbe565b60200260200101516040518263ffffffff1660e01b815260040161353991815260200190565b600060405180830381600087803b15801561355357600080fd5b505af1158015613567573d6000803e3d6000fd5b5050505050808061357790615c77565b915050613479565b600080836001600160a01b0316631e83409a866040518263ffffffff1660e01b81526004016135ae919061583e565b602060405180830381600087803b1580156135c857600080fd5b505af11580156135dc573d6000803e3d6000fd5b505050506040513d601f19601f820116820180604052508101906136009190615700565b9150821561369757836001600160a01b031663fc0c546a6040518163ffffffff1660e01b8152600401602060405180830381600087803b15801561364357600080fd5b505af1158015613657573d6000803e3d6000fd5b505050506040513d601f19601f8201168201806040525081019061367b9190614b75565b90506136926001600160a01b03821633308561283e565b61369c565b600091505b935093915050565b6000806136b18584613b38565b905060008582600a81106136c7576136c7615cbe565b60200201516001600160a01b031614156137085760405162461bcd60e51b8152602060048201526002602482015261333360f01b60448201526064016106cf565b633b9aca008482600a811061371f5761371f615cbe565b602002015161372e9088615c15565b6137389190615bf3565b9150818482600a811061374d5761374d615cbe565b6020020181815161375e9190615c34565b9052509095945050505050565b604051631d23139f60e11b8152730c462dbb9ec8cd1630f1728b2cfd2769d09f0dd590633a46273e906137a4908590859060040161586c565b600060405180830381600087803b1580156137be57600080fd5b505af11580156137d2573d6000803e3d6000fd5b505050505050565b600080600080861561386457859150849050806001600160a01b031663fc0c546a6040518163ffffffff1660e01b815260040160206040518083038186803b15801561382557600080fd5b505afa158015613839573d6000803e3d6000fd5b505050506040513d601f19601f8201168201806040525081019061385d9190614b75565b945061387e565b61386c614418565b6138768787612d7f565b519093509150505b6040516370a0823160e01b81526001600160a01b038616906370a08231906138aa90309060040161583e565b60206040518083038186803b1580156138c257600080fd5b505afa1580156138d6573d6000803e3d6000fd5b505050506040513d601f19601f820116820180604052508101906138fa9190615700565b60405163047c207560e31b8152600481018a9052306024820181905260448201526001600160a01b038381166064830152919550908316906323e103a890608401600060405180830381600087803b15801561395557600080fd5b505af1158015613969573d6000803e3d6000fd5b50506040516370a0823160e01b81528692506001600160a01b03881691506370a082319061399b90309060040161583e565b60206040518083038186803b1580156139b357600080fd5b505afa1580156139c7573d6000803e3d6000fd5b505050506040513d601f19601f820116820180604052508101906139eb9190615700565b6139f59190615c34565b989497509395505050505050565b82613a1d576000613a148383612d7f565b60200151935050505b6040516324d83b7960e01b815260048101859052602481018690526001600160a01b038316906324d83b7990604401600060405180830381600087803b158015613a6657600080fd5b505af11580156112f6573d6000803e3d6000fd5b613aa56040518060800160405280600081526020016000815260200160008152602001600081525090565b604051631bd1f8d360e31b81526001600160a01b0388169063de8fc69890613adb908990899033908a908a908a90600401615885565b608060405180830381600087803b158015613af557600080fd5b505af1158015613b09573d6000803e3d6000fd5b505050506040513d601f19601f82011682018060405250810190613b2d919061569b565b979650505050505050565b6000805b600a81108015613b6c575060008482600a8110613b5b57613b5b615cbe565b60200201516001600160a01b031614155b15613bba57826001600160a01b03168482600a8110613b8d57613b8d615cbe565b60200201516001600160a01b03161415613ba8579050613bbd565b80613bb281615c77565b915050613b3c565b90505b92915050565b6000613bd185858585613eb1565b604051633688210b60e11b8152600481018a90523360248201526001600160a01b038b811660448301528083166064830152608482018a9052919450919250821690636d1042169060a401613184565b6000613c76826040518060400160405280602081526020017f5361666545524332303a206c6f772d6c6576656c2063616c6c206661696c6564815250856001600160a01b0316613fe99092919063ffffffff16565b8051909150156128395780806020019051810190613c949190615514565b6128395760405162461bcd60e51b815260206004820152602a60248201527f5361666545524332303a204552433230206f7065726174696f6e20646964206e6044820152691bdd081cdd58d8d9595960b21b60648201526084016106cf565b600081846001600160a01b031663dd62ed3e30866040518363ffffffff1660e01b8152600401613d24929190615852565b60206040518083038186803b158015613d3c57600080fd5b505afa158015613d50573d6000803e3d6000fd5b505050506040513d601f19601f82011682018060405250810190613d749190615700565b613d7e9190615bdb565b90506128768463095ea7b360e01b858460405160240161280292919061586c565b604051636eb1769f60e11b81526000906001600160a01b0385169063dd62ed3e90613dd09030908790600401615852565b60206040518083038186803b158015613de857600080fd5b505afa158015613dfc573d6000803e3d6000fd5b505050506040513d601f19601f82011682018060405250810190613e209190615700565b905081811015613e845760405162461bcd60e51b815260206004820152602960248201527f5361666545524332303a2064656372656173656420616c6c6f77616e63652062604482015268656c6f77207a65726f60b81b60648201526084016106cf565b60405182820390613eaa90869063095ea7b360e01b90612802908890869060240161586c565b5050505050565b60008060008615613ec3575084613edc565b613ecb614418565b613ed58787612d7f565b5195509150505b96929550919350505050565b805115613ef757805181602001fd5b60405162461bcd60e51b815260206004820152600360248201526231313760e81b60448201526064016106cf565b600080836003811115613f3a57613f3a615ca8565b1415613f5357613f4c86868685614002565b90506133a8565b6001836003811115613f6757613f67615ca8565b1415613f7857613f4c868584614107565b6002836003811115613f8c57613f8c615ca8565b1415613f9c57613f4c858561421d565b6003836003811115613fb057613fb0615ca8565b1415613fbd5750836133a8565b60405162461bcd60e51b81526020600482015260016024820152603360f81b60448201526064016106cf565b6060613ff884846000856142c7565b90505b9392505050565b6001600160a01b03841660009081526035602052604081205460ff166140625760395461403e906001600160a01b038781169116600019613cf3565b6001600160a01b0385166000908152603560205260409020805460ff191660011790555b6039546040805160a08101825284815230602082015242818301526060810187905260808101869052905163c04b8d5960e01b81526001600160a01b039092169163c04b8d59916140b591600401615a3c565b602060405180830381600087803b1580156140cf57600080fd5b505af11580156140e3573d6000803e3d6000fd5b505050506040513d601f19601f820116820180604052508101906133a89190615700565b6001600160a01b03831660009081526036602052604081205460ff1661416757603a54614143906001600160a01b038681169116600019613cf3565b6001600160a01b0384166000908152603660205260409020805460ff191660011790555b603a5460405160009182916001600160a01b0390911690614189908690615822565b6000604051808303816000865af19150503d80600081146141c6576040519150601f19603f3d011682016040523d82523d6000602084013e6141cb565b606091505b5091509150816141de576141de81613ee8565b808060200190518101906141f29190615700565b9250848310156142145760405162461bcd60e51b81526004016106cf9061595a565b50509392505050565b604051630ea598cb60e41b815260048101839052600090737f39c581f595b53c5cb19bd0b3f8da6c935e2ca09063ea598cb090602401602060405180830381600087803b15801561426d57600080fd5b505af1158015614281573d6000803e3d6000fd5b505050506040513d601f19601f820116820180604052508101906142a59190615700565b905081811015613bbd5760405162461bcd60e51b81526004016106cf9061595a565b6060824710156143285760405162461bcd60e51b815260206004820152602660248201527f416464726573733a20696e73756666696369656e742062616c616e636520666f6044820152651c8818d85b1b60d21b60648201526084016106cf565b843b6143765760405162461bcd60e51b815260206004820152601d60248201527f416464726573733a2063616c6c20746f206e6f6e2d636f6e747261637400000060448201526064016106cf565b600080866001600160a01b031685876040516143929190615822565b60006040518083038185875af1925050503d80600081146143cf576040519150601f19603f3d011682016040523d82523d6000602084013e6143d4565b606091505b5091509150613b2d828286606083156143ee575081613ffb565b8251156143fe5782518084602001fd5b8160405162461bcd60e51b81526004016106cf919061592c565b60408051608081018252600080825260208201819052918101829052606081019190915290565b604051806101400160405280600a906020820280368337509192915050565b803561446981615cea565b919050565b60008083601f84011261448057600080fd5b5081356001600160401b0381111561449757600080fd5b6020830191508360208260051b8501011115612e2a57600080fd5b600082601f8301126144c357600080fd5b813560206144d86144d383615bb8565b615b88565b80838252828201915082860187848660051b89010111156144f857600080fd5b60005b8581101561452057813561450e81615cea565b845292840192908401906001016144fb565b5090979650505050505050565b600082601f83011261453e57600080fd5b8135602061454e6144d383615bb8565b80838252828201915082860187848660051b890101111561456e57600080fd5b6000805b868110156145b05782356001600160401b0381111561458f578283fd5b61459d8b88838d01016149db565b8652509385019391850191600101614572565b509198975050505050505050565b600082601f8301126145cf57600080fd5b813560206145df6144d383615bb8565b80838252828201915082860187848660051b89010111156145ff57600080fd5b6000805b868110156145b057823560088110614619578283fd5b85529385019391850191600101614603565b600082601f83011261463c57600080fd5b8135602061464c6144d383615bb8565b80838252828201915082860187848660051b890101111561466c57600080fd5b6000805b868110156145b0578235600a8110614686578283fd5b85529385019391850191600101614670565b600082601f8301126146a957600080fd5b813560206146b96144d383615bb8565b80838252828201915082860187848660051b89010111156146d957600080fd5b60005b858110156145205781356001600160401b03808211156146fb57600080fd5b9089019060c0828c03601f1901121561471357600080fd5b61471b615af9565b8783013561472881615cea565b815260408381013561473981615cea565b808a84015250606080850135828401526080915081850135818401525060a0808501358481111561476957600080fd5b6147778f8c838901016149db565b838501525060c085013594506004851061479057600080fd5b8201939093528652505092840192908401906001016146dc565b600082601f8301126147bb57600080fd5b813560206147cb6144d383615bb8565b8281528181019085830160e0808602880185018910156147ea57600080fd5b60005b868110156145b05781838b03121561480457600080fd5b61480c615b21565b833561481781615cea565b81528387013561482681615cea565b81880152604084810135908201526060808501359082015260808085013560ff8116811461485357600080fd5b9082015260a0848101359082015260c08085013590820152855293850193918101916001016147ed565b600082601f83011261488e57600080fd5b8135602061489e6144d383615bb8565b80838252828201915082860187848660061b89010111156148be57600080fd5b6000805b868110156145b057604080848c0312156148da578283fd5b6148e2615b43565b84356148ed81615cea565b81528488013588820152865294860194909201916001016148c2565b600082601f83011261491a57600080fd5b8135602061492a6144d383615bb8565b80838252828201915082860187848660051b890101111561494a57600080fd5b60005b858110156145205781358452928401929084019060010161494d565b600082601f83011261497a57600080fd5b8151602061498a6144d383615bb8565b80838252828201915082860187848660051b89010111156149aa57600080fd5b60005b85811015614520576149be82614b41565b845292840192908401906001016149ad565b803561446981615d02565b600082601f8301126149ec57600080fd5b81356001600160401b03811115614a0557614a05615cd4565b614a18601f8201601f1916602001615b88565b818152846020838601011115614a2d57600080fd5b816020850160208301376000918101602001919091529392505050565b60006101008284031215614a5d57600080fd5b614a65615b65565b82519091506001600160401b0380821115614a7f57600080fd5b614a8b85838601614969565b83526020840151915080821115614aa157600080fd5b614aad85838601614969565b60208401526040840151915080821115614ac657600080fd5b614ad285838601614969565b60408401526060840151915080821115614aeb57600080fd5b50614af884828501614969565b606083015250614b0a60808301614b41565b6080820152614b1b60a08301614b41565b60a0820152614b2c60c08301614b41565b60c082015260e082015160e082015292915050565b80516001600160401b038116811461446957600080fd5b600060208284031215614b6a57600080fd5b8135613bba81615cea565b600060208284031215614b8757600080fd5b8151613bba81615cea565b600080600080600080600080610100898b031215614baf57600080fd5b614bb88961445e565b9750614bc660208a0161445e565b9650614bd460408a0161445e565b9550614be260608a0161445e565b9450614bf060808a0161445e565b935060a08901356001600160401b0380821115614c0c57600080fd5b614c188c838d016145be565b945060c08b0135915080821115614c2e57600080fd5b614c3a8c838d0161452d565b935060e08b0135915080821115614c5057600080fd5b50614c5d8b828c016149db565b9150509295985092959890939650565b600080600060608486031215614c8257600080fd5b8335614c8d81615cea565b92506020840135614c9d81615cea565b91506040840135614cad81615d02565b809150509250925092565b60008060408385031215614ccb57600080fd5b8235614cd681615cea565b946020939093013593505050565b600080600080600060a08688031215614cfc57600080fd5b8535614d0781615cea565b9450602086013593506040860135614d1e81615cea565b92506060860135614d2e81615cea565b91506080860135614d3e81615d02565b809150509295509295909350565b600080600080600080600060e0888a031215614d6757600080fd5b614d708861445e565b96506020880135955060408801356001600160401b0380821115614d9357600080fd5b614d9f8b838c016144b2565b965060608a0135915080821115614db557600080fd5b614dc18b838c01614909565b9550614dcf60808b016149d0565b945060a08a0135915080821115614de557600080fd5b614df18b838c016144b2565b935060c08a0135915080821115614e0757600080fd5b50614e148a828b016144b2565b91505092959891949750929550565b600080600080600080600060e0888a031215614e3e57600080fd5b8735614e4981615cea565b9650602088013595506040880135614e6081615d02565b94506060880135614e7081615cea565b93506080880135614e8081615cea565b925060a0880135614e9081615cea565b915060c0880135614ea081615cea565b8091505092959891949750929550565b600080600080600080600060e0888a031215614ecb57600080fd5b8735614ed681615cea565b965060208801359550604088013594506060880135614e7081615d02565b600080600080600080600080610100898b031215614f1157600080fd5b8835614f1c81615cea565b97506020890135965060408901359550606089013594506080890135935060a0890135614f4881615d02565b925060c0890135614f5881615cea565b915060e0890135614f6881615cea565b809150509295985092959890939650565b600080600080600080600080600060e08a8c031215614f9757600080fd5b8935614fa281615cea565b985060208a0135614fb281615cea565b975060408a0135614fc281615cea565b965060608a0135614fd281615cea565b955060808a0135614fe281615cea565b945060a08a01356001600160401b0380821115614ffe57600080fd5b61500a8d838e0161446e565b909650945060c08c013591508082111561502357600080fd5b506150308c828d0161446e565b915080935050809150509295985092959850929598565b60008060006060848603121561505c57600080fd5b833561506781615cea565b9250602084013561507781615cea565b929592945050506040919091013590565b6000806000806080858703121561509e57600080fd5b84356150a981615cea565b935060208501356001600160401b03808211156150c557600080fd5b6150d1888389016144b2565b945060408701359150808211156150e757600080fd5b6150f388838901614909565b9350606087013591508082111561510957600080fd5b50615116878288016144b2565b91505092959194509250565b600080600080600060a0868803121561513a57600080fd5b853561514581615cea565b945060208601356001600160401b038082111561516157600080fd5b61516d89838a016144b2565b9550604088013591508082111561518357600080fd5b61518f89838a01614909565b945060608801359150808211156151a557600080fd5b6151b189838a016144b2565b935060808801359150808211156151c757600080fd5b506151d4888289016144b2565b9150509295509295909350565b600080604083850312156151f457600080fd5b82356151ff81615cea565b9150602083013561520f81615d02565b809150509250929050565b6000806000806080858703121561523057600080fd5b843561523b81615cea565b935060208501359250604085013561525281615cea565b9150606085013561526281615cea565b939692955090935050565b60008060008060008060c0878903121561528657600080fd5b863561529181615cea565b95506020870135945060408701356152a881615cea565b935060608701356152b881615cea565b925060808701356152c881615cea565b915060a08701356152d881615cea565b809150509295509295509295565b600080600080600060a086880312156152fe57600080fd5b853561530981615cea565b945060208601359350604086013561532081615cea565b9250606086013561533081615d02565b91506080860135614d3e81615cea565b600080600080600060a0868803121561535857600080fd5b853561536381615cea565b94506020860135935060408601359250606086013561533081615cea565b60008060008060008060c0878903121561539a57600080fd5b86356153a581615cea565b9550602087013594506040870135935060608701356152b881615cea565b600080600080600080606087890312156153dc57600080fd5b86356001600160401b03808211156153f357600080fd5b6153ff8a838b0161446e565b9098509650602089013591508082111561541857600080fd5b6154248a838b0161446e565b9096509450604089013591508082111561543d57600080fd5b5061544a89828a0161446e565b979a9699509497509295939492505050565b60008060008060008060a0878903121561547557600080fd5b86356001600160401b038082111561548c57600080fd5b6154988a838b016147aa565b975060208901359150808211156154ae57600080fd5b6154ba8a838b0161487d565b965060408901359150808211156154d057600080fd5b6154dc8a838b01614698565b955060608901359150808211156154f257600080fd5b6154fe8a838b0161462b565b9450608089013591508082111561543d57600080fd5b60006020828403121561552657600080fd5b8151613bba81615d02565b6000806000806000806000806000898b0361020081121561555157600080fd5b8a5161555c81615cea565b60208c0151909a5061556d81615cea565b60408c015190995061557e81615cea565b60608c015190985061558f81615cea565b8097505060808b0151955060a08b0151945060c08b015193506101008060df19830112156155bc57600080fd5b6155c4615b65565b60e08d01518152908c015160208201526101208c015160408201526101408c0151606082015290506155f96101608c01614b41565b608082015261560b6101808c01614b41565b60a082015261561d6101a08c01614b41565b60c082015261562f6101c08c01614b41565b60e08201526101e08b01519092506001600160401b0381111561565157600080fd5b61565d8c828d01614a4a565b9150509295985092959850929598565b6000806040838503121561568057600080fd5b823561568b81615cea565b9150602083013561520f81615cea565b6000608082840312156156ad57600080fd5b604051608081016001600160401b03811182821017156156cf576156cf615cd4565b8060405250825181526020830151602082015260408301516040820152606083015160608201528091505092915050565b60006020828403121561571257600080fd5b5051919050565b600080600080600060a0868803121561573157600080fd5b85359450602086013561574381615d02565b9350604086013561575381615cea565b9250606086013561533081615cea565b600080600080600060a0868803121561577b57600080fd5b8535945060208601359350604086013561575381615d02565b6001600160a01b03169052565b600081518084526020808501808196508360051b8101915082860160005b858110156157e95782840389526157d78483516157f6565b988501989350908401906001016157bf565b5091979650505050505050565b6000815180845261580e816020860160208601615c4b565b601f01601f19169290920160200192915050565b60008251615834818460208701615c4b565b9190910192915050565b6001600160a01b0391909116815260200190565b6001600160a01b0392831681529116602082015260400190565b6001600160a01b03929092168252602082015260400190565b60c0808252875190820181905260009060209060e0840190828b0184805b838110156158db578251600881106158c957634e487b7160e01b83526021600452602483fd5b855293850193918501916001016158a3565b50505050838103828501526158f0818a6157a1565b9150506159006040840188615794565b61590d6060840187615794565b61591a6080840186615794565b82810360a0840152612d7281856157f6565b602081526000613ffb60208301846157f6565b6020808252600190820152600360fc1b604082015260600190565b602080825260029082015261313560f01b604082015260600190565b6020808252600390820152620c4c0d60ea1b604082015260600190565b602080825260029082015261343960f01b604082015260600190565b60208082526003908201526231313560e81b604082015260600190565b6020808252600390820152620c4c4d60ea1b604082015260600190565b602080825260029082015261032360f41b604082015260600190565b6020808252601f908201527f5265656e7472616e637947756172643a207265656e7472616e742063616c6c00604082015260600190565b602081526000825160a06020840152615a5860c08401826157f6565b905060018060a01b0360208501511660408401526040840151606084015260608401516080840152608084015160a08401528091505092915050565b9283526001600160a01b03918216602084015216604082015260600190565b6000808335601e19843603018112615aca57600080fd5b8301803591506001600160401b03821115615ae457600080fd5b602001915036819003821315612e2a57600080fd5b60405160c081016001600160401b0381118282101715615b1b57615b1b615cd4565b60405290565b60405160e081016001600160401b0381118282101715615b1b57615b1b615cd4565b604080519081016001600160401b0381118282101715615b1b57615b1b615cd4565b60405161010081016001600160401b0381118282101715615b1b57615b1b615cd4565b604051601f8201601f191681016001600160401b0381118282101715615bb057615bb0615cd4565b604052919050565b60006001600160401b03821115615bd157615bd1615cd4565b5060051b60200190565b60008219821115615bee57615bee615c92565b500190565b600082615c1057634e487b7160e01b600052601260045260246000fd5b500490565b6000816000190483118215151615615c2f57615c2f615c92565b500290565b600082821015615c4657615c46615c92565b500390565b60005b83811015615c66578181015183820152602001615c4e565b838111156128765750506000910152565b6000600019821415615c8b57615c8b615c92565b5060010190565b634e487b7160e01b600052601160045260246000fd5b634e487b7160e01b600052602160045260246000fd5b634e487b7160e01b600052603260045260246000fd5b634e487b7160e01b600052604160045260246000fd5b6001600160a01b0381168114615cff57600080fd5b50565b8015158114615cff57600080fdfeb3c6ea40376b764923443dc6ded6f0af1b34f1109e2d22c4f499855d960eeeae00000000000000000000000031429d1856ad1377a8a0079410b297e1a9e214c2a26469706673582212209d1ae2a7327d24114da2251e48d2b7b46725295507a5e112c255934e8b46610264736f6c63430008070033",
  "devdoc": {
    "author": "Angle Core Team",
    "details": "Interfaces were designed for both advanced users which know the addresses of the protocol's contract, but most of the time users which only know addresses of the stablecoins and collateral types of the protocol can perform the actions they want without needing to understand what's happening under the hood",
    "kind": "dev",
    "methods": {
      "addPairs(address[],address[],address[])": {
        "params": {
          "liquidityGauges": "Addresses of liquidity gauges contract associated to sanToken",
          "poolManagers": "Addresses of the `PoolManager` contracts associated to the pair (stablecoin,collateral)",
          "stablecoins": "Addresses of the stablecoins associated to the `StableMaster` of interest"
        }
      },
      "addStableMaster(address,address)": {
        "params": {
          "stableMaster": "Address of the new `StableMaster`",
          "stablecoin": "Address of the new stablecoin"
        }
      },
      "addToPerpetual(uint256,uint256,bool,address,address)": {
        "details": "`stablecoinOrPerpetualManager` should be the address of the agToken is `addressProcessed` is false and the associated `perpetualManager` otherwise",
        "params": {
          "collateral": "Here the collateral should not be null (even if `addressProcessed is true) for the router to be able to know how to deposit collateral"
        }
      },
      "burn(address,uint256,uint256,address,address)": {
        "params": {
          "amount": "Amount of stablecoins to use for the burn",
          "collateral": "Collateral to mint from",
          "dest": "Address to send the collateral to",
          "minCollatAmount": "Minimum collateral amount received for the tx not to revert",
          "stablecoin": "Address of the stablecoin to mint"
        }
      },
      "changeAllowance(address[],address[],uint256[])": {
        "details": "Approvals are normally given in the `addGauges` method, in the initializer and in the internal functions to process swaps with Uniswap and 1Inch TODO need to approve StETH.safeApprove(address(WSTETH), type(uint256).max);",
        "params": {
          "amounts": "Amounts to allow",
          "spenders": "Addresses to allow transfer",
          "tokens": "Addresses of the tokens to allow"
        }
      },
      "claimRewards(address,address[],uint256[],address[])": {
        "details": "If the caller wants to send the rewards to another account it first needs to call `set_rewards_receiver(otherAccount)` on each `liquidityGauge`",
        "params": {
          "liquidityGauges": "Contracts to claim for",
          "perpetualIDs": "Perpetual IDs to claim rewards for",
          "perpetualManagers": "`perpetualManager` contracts for every perp to claim",
          "user": "Address to which the contract should send the rewards from gauges (not perpetuals)"
        }
      },
      "claimRewards(address,address[],uint256[],address[],address[])": {
        "details": "If the caller wants to send the rewards to another account it first needs to call `set_rewards_receiver(otherAccount)` on each `liquidityGauge`",
        "params": {
          "collaterals": "Collateral contracts linked to the perpetualsIDs or `perpetualManager`",
          "gaugeUser": "Address for which to fetch the rewards from the gauges",
          "liquidityGauges": "Gauges to claim on",
          "perpetualIDs": "Perpetual IDs to claim rewards for",
          "stablecoins": "Stablecoin contracts linked to the perpetualsIDs"
        }
      },
      "deposit(address,uint256,address,address)": {
        "details": "Contrary to the `mint` action, the `deposit` action can be used in composition with other actions, like `deposit` and then `stake",
        "params": {
          "amount": "Amount of collateral to deposit",
          "collateral": "Token to deposit",
          "stablecoin": "`StableMaster` associated to the sanToken",
          "user": "Address where to send the resulting sanTokens, if this address is the router address then it means that the intention is to stake the sanTokens obtained in a subsequent `gaugeDeposit` action"
        }
      },
      "deposit(address,uint256,address,address,address,address)": {
        "details": "Contrary to the `mint` action, the `deposit` action can be used in composition with other actions, like `deposit` and then `stake`",
        "params": {
          "amount": "Amount of collateral to deposit",
          "collateral": "Token to deposit",
          "poolManager": "PoolManager associated to the sanToken",
          "sanToken": "SanToken associated to the `collateral` and `stableMaster`",
          "stableMaster": "`StableMaster` associated to the sanToken",
          "user": "Address where to send the resulting sanTokens, if this address is the router address then it means that the intention is to stake the sanTokens obtained in a subsequent `gaugeDeposit` action"
        }
      },
      "gaugeDeposit(address,uint256,address,bool,address)": {
        "details": "The function will revert if the token does not correspond to the gauge",
        "params": {
          "token": "On top of the parameters of the internal function, users need to specify the token associated to the gauge they want to deposit in"
        }
      },
      "initialize(address,address,address,address,address,address[],address[])": {
        "details": "Be cautious with safe approvals, all tokens will have unlimited approvals within the protocol or UniswapV3 and 1Inch",
        "params": {
          "_governor": "Governor address",
          "_guardian": "Guardian address",
          "_oneInch": "1Inch aggregator address",
          "_uniswapV3Router": "UniswapV3 router address",
          "existingLiquidityGauges": "Addresses of liquidity gauge contracts associated to sanTokens",
          "existingPoolManagers": "Addresses of the associated poolManagers",
          "existingStableMaster": "Address of the existing `StableMaster`"
        }
      },
      "mint(address,uint256,uint256,address,address)": {
        "params": {
          "amount": "Amount of collateral to use for the mint",
          "collateral": "Collateral to mint from",
          "minStableAmount": "Minimum stablecoin minted for the tx not to revert",
          "stablecoin": "Address of the stablecoin to mint",
          "user": "Address to send the stablecoins to"
        }
      },
      "mint(address,uint256,uint256,address,address,address)": {
        "params": {
          "amount": "Amount of collateral to use for the mint",
          "collateral": "Collateral to mint from",
          "minStableAmount": "Minimum stablecoin minted for the tx not to revert",
          "poolManager": "PoolManager associated to the `collateral`",
          "stableMaster": "Address of the stableMaster managing the stablecoin to mint",
          "user": "Address to send the stablecoins to"
        }
      },
      "mixer((address,address,uint256,uint256,uint8,bytes32,bytes32)[],(address,uint256)[],(address,address,uint256,uint256,bytes,uint8)[],uint8[],bytes[])": {
        "details": "This function first fills the router balances via transfers and swaps. It then proceeds with each action in the order at which they are givenWith this function, users can specify paths to swap tokens to the desired token of their choice. Yet the protocol does not verify the payload given and cannot check that the swap performed by users actually gives the desired out token: in this case funds will be lost by the userFor some actions (`mint`, `deposit`, `openPerpetual`, `addToPerpetual`, `withdraw`), users are required to give a proportion of the amount of token they have brought to the router within the transaction (through a direct transfer or a swap) they want to use for the operation. If you want to use all the USDC you have brought (through an ETH -> USDC) swap to mint stablecoins for instance, you should use `BASE_PARAMS` as a proportion.The proportion that is specified for an action is a proportion of what is left. If you want to use 50% of your USDC for a `mint` and the rest for an `openPerpetual`, proportion used for the `mint` should be 50% (that is `BASE_PARAMS/2`), and proportion for the `openPerpetual` should be all that is left that is 100% (= `BASE_PARAMS`).For each action here, make sure to read the documentation of the associated internal function to know how to correctly specify parameters",
        "params": {
          "actions": "List of actions to be performed by the router (in order of execution): make sure to read for each action the associated internal function",
          "data": "Array of encoded data for each of the actions performed in this mixer. This is where the bytes-encoded parameters for a given action are stored",
          "paramsPermit": "Array of params `PermitType` used to do a 1 tx to approve the router on each token (can be done once by setting high approved amounts) which supports the `permit` standard. Users willing to interact with the contract with tokens that do not support permit should approve the contract for these tokens prior to interacting with it",
          "paramsSwap": "Array of params `ParamsSwapType` used to swap tokens",
          "paramsTransfer": "Array of params `TransferType` used to transfer tokens to the router"
        }
      },
      "openPerpetual(address,uint256,uint256,uint256,uint256,bool,address,address)": {
        "details": "`stablecoinOrPerpetualManager` should be the address of the agToken (= stablecoin) is `addressProcessed` is false  and the associated `perpetualManager` otherwise",
        "params": {
          "collateral": "Here the collateral should not be null (even if `addressProcessed` is true) for the router to be able to know how to deposit collateral"
        }
      },
      "recoverERC20(address,address,uint256)": {
        "details": "If tokens are mistakenly sent to this contract, any address can take advantage of the `mixer` function below to get the funds back",
        "params": {
          "to": "Address to give tokens to",
          "tokenAddress": "Address of the token to transfer",
          "tokenAmount": "Amount of tokens to transfer"
        }
      },
      "removePairs(address[],address[],address[])": {
        "details": "In the lists, if a `stableMaster` address is null in `stableMasters` then this means that the associated `stablecoins` address (at the same index) should be non null",
        "params": {
          "collaterals": "Addresses of the collaterals",
          "stableMasters": "List of the associated `StableMaster` contracts",
          "stablecoins": "Addresses of the stablecoins"
        }
      },
      "removeStableMaster(address)": {
        "details": "Before calling this function, governor or guardian should remove first all pairs from the `mapPoolManagers[stableMaster]`. It is assumed that the governor or guardian calling this function will act correctly here, it indeed avoids storing a list of all pairs for each `StableMaster`",
        "params": {
          "stablecoin": "Address of the associated stablecoin"
        }
      },
      "setGovernorOrGuardian(address,bool)": {
        "details": "There can only be one guardian and one governor address in the router and both need to be different",
        "params": {
          "admin": "New guardian or guardian address",
          "setGovernor": "Whether to set Governor if true, or Guardian if false"
        }
      },
      "setLiquidityGauges(address[],address[],address[])": {
        "details": "If `newLiquidityGauge` is null, this means that there is no liquidity gauge for this pairThis function could be used to simply revoke the approval to a liquidity gauge",
        "params": {
          "collaterals": "Addresses of the collaterals",
          "newLiquidityGauges": "Addresses of the new liquidity gauges contract",
          "stablecoins": "Addresses of the stablecoins"
        }
      }
    },
    "title": "Angle Router",
    "version": 1
  },
  "userdoc": {
    "kind": "user",
    "methods": {
      "BASE_PARAMS()": {
        "notice": "Base used for params"
      },
      "WSTETH()": {
        "notice": "Wrapped StETH contract"
      },
      "addPairs(address[],address[],address[])": {
        "notice": "Adds new collateral types to specific stablecoins"
      },
      "addStableMaster(address,address)": {
        "notice": "Adds a new `StableMaster`"
      },
      "addToPerpetual(uint256,uint256,bool,address,address)": {
        "notice": "Wrapper built on top of the `_addToPerpetual` method to add collateral to a perpetual with the protocol"
      },
      "burn(address,uint256,uint256,address,address)": {
        "notice": "Wrapper built on top of the `_burn` method to burn stablecoins"
      },
      "changeAllowance(address[],address[],uint256[])": {
        "notice": "Change allowance for a contract."
      },
      "claimRewards(address,address[],uint256[],address[])": {
        "notice": "Wrapper n2 (a little more gas efficient than n1) built on top of the _claimRewards function Allows to claim rewards for multiple gauges and perpetuals at once"
      },
      "claimRewards(address,address[],uint256[],address[],address[])": {
        "notice": "Wrapper n1 built on top of the _claimRewards function Allows to claim rewards for multiple gauges and perpetuals at once"
      },
      "deposit(address,uint256,address,address)": {
        "notice": "Wrapper n1 built on top of the `_deposit` method to deposit collateral as a SLP in the protocol Allows to deposit a collateral within the protocol"
      },
      "deposit(address,uint256,address,address,address,address)": {
        "notice": "Wrapper n2 (a little more gas efficient than n1) built on top of the `_deposit` method to deposit collateral as a SLP in the protocol Allows to deposit a collateral within the protocol"
      },
      "gaugeDeposit(address,uint256,address,bool,address)": {
        "notice": "Wrapper built on top of the `_gaugeDeposit` method to deposit collateral in a gauge"
      },
      "governor()": {
        "notice": "Governor address"
      },
      "guardian()": {
        "notice": "Guardian address"
      },
      "initialize(address,address,address,address,address,address[],address[])": {
        "notice": "Deploys the `AngleRouter` contract"
      },
      "mapPoolManagers(address,address)": {
        "notice": "Maps a `StableMaster` to a mapping of collateral token to its counterpart `PoolManager`"
      },
      "mapStableMasters(address)": {
        "notice": "Maps an agToken to its counterpart `StableMaster`"
      },
      "mint(address,uint256,uint256,address,address)": {
        "notice": "Wrapper n1 built on top of the `_mint` method to mint stablecoins"
      },
      "mint(address,uint256,uint256,address,address,address)": {
        "notice": "Wrapper n2 (a little more gas efficient than n1) built on top of the `_mint` method to mint stablecoins"
      },
      "mixer((address,address,uint256,uint256,uint8,bytes32,bytes32)[],(address,uint256)[],(address,address,uint256,uint256,bytes,uint8)[],uint8[],bytes[])": {
        "notice": "Allows composable calls to different functions within the protocol"
      },
      "oneInch()": {
        "notice": "Address of 1Inch router used for swaps"
      },
      "oneInchAllowedToken(address)": {
        "notice": "Whether the token was already approved on 1Inch"
      },
      "openPerpetual(address,uint256,uint256,uint256,uint256,bool,address,address)": {
        "notice": "Wrapper built on top of the `_openPerpetual` method to open a perpetual with the protocol"
      },
      "recoverERC20(address,address,uint256)": {
        "notice": "Supports recovering any tokens as the router does not own any other tokens than the one mistakenly sent"
      },
      "removePairs(address[],address[],address[])": {
        "notice": "Removes collateral types from specific `StableMaster` contracts using the address of the associated stablecoins"
      },
      "removeStableMaster(address)": {
        "notice": "Removes a `StableMaster`"
      },
      "setGovernorOrGuardian(address,bool)": {
        "notice": "Changes the guardian or the governor address"
      },
      "setLiquidityGauges(address[],address[],address[])": {
        "notice": "Sets new `liquidityGauge` contract for the associated sanTokens"
      },
      "uniAllowedToken(address)": {
        "notice": "Whether the token was already approved on Uniswap router"
      },
      "uniswapV3Router()": {
        "notice": "Address of the router used for swaps"
      }
    },
    "notice": "The `AngleRouter` contract facilitates interactions for users with the protocol. It was built to reduce the number of approvals required to users and the number of transactions needed to perform some complex actions: like deposit and stake in just one transaction",
    "version": 1
  },
  "storageLayout": {
    "storage": [
      {
        "astId": 6,
        "contract": "contracts/AngleRouter01.sol:AngleRouter",
        "label": "_initialized",
        "offset": 0,
        "slot": "0",
        "type": "t_bool"
      },
      {
        "astId": 9,
        "contract": "contracts/AngleRouter01.sol:AngleRouter",
        "label": "_initializing",
        "offset": 1,
        "slot": "0",
        "type": "t_bool"
      },
      {
        "astId": 87,
        "contract": "contracts/AngleRouter01.sol:AngleRouter",
        "label": "_status",
        "offset": 0,
        "slot": "1",
        "type": "t_uint256"
      },
      {
        "astId": 130,
        "contract": "contracts/AngleRouter01.sol:AngleRouter",
        "label": "__gap",
        "offset": 0,
        "slot": "2",
        "type": "t_array(t_uint256)49_storage"
      },
      {
        "astId": 5166,
        "contract": "contracts/AngleRouter01.sol:AngleRouter",
        "label": "mapStableMasters",
        "offset": 0,
        "slot": "51",
        "type": "t_mapping(t_contract(IERC20)3338,t_contract(IStableMasterFront)10661)"
      },
      {
        "astId": 5176,
        "contract": "contracts/AngleRouter01.sol:AngleRouter",
        "label": "mapPoolManagers",
        "offset": 0,
        "slot": "52",
        "type": "t_mapping(t_contract(IStableMasterFront)10661,t_mapping(t_contract(IERC20)3338,t_struct(Pairs)5108_storage))"
      },
      {
        "astId": 5182,
        "contract": "contracts/AngleRouter01.sol:AngleRouter",
        "label": "uniAllowedToken",
        "offset": 0,
        "slot": "53",
        "type": "t_mapping(t_contract(IERC20)3338,t_bool)"
      },
      {
        "astId": 5188,
        "contract": "contracts/AngleRouter01.sol:AngleRouter",
        "label": "oneInchAllowedToken",
        "offset": 0,
        "slot": "54",
        "type": "t_mapping(t_contract(IERC20)3338,t_bool)"
      },
      {
        "astId": 5191,
        "contract": "contracts/AngleRouter01.sol:AngleRouter",
        "label": "governor",
        "offset": 0,
        "slot": "55",
        "type": "t_address"
      },
      {
        "astId": 5194,
        "contract": "contracts/AngleRouter01.sol:AngleRouter",
        "label": "guardian",
        "offset": 0,
        "slot": "56",
        "type": "t_address"
      },
      {
        "astId": 5198,
        "contract": "contracts/AngleRouter01.sol:AngleRouter",
        "label": "uniswapV3Router",
        "offset": 0,
        "slot": "57",
        "type": "t_contract(IUniswapV3Router)11219"
      },
      {
        "astId": 5201,
        "contract": "contracts/AngleRouter01.sol:AngleRouter",
        "label": "oneInch",
        "offset": 0,
        "slot": "58",
        "type": "t_address"
      },
      {
        "astId": 5205,
        "contract": "contracts/AngleRouter01.sol:AngleRouter",
        "label": "__gap",
        "offset": 0,
        "slot": "59",
        "type": "t_array(t_uint256)50_storage"
      }
    ],
    "types": {
      "t_address": {
        "encoding": "inplace",
        "label": "address",
        "numberOfBytes": "20"
      },
      "t_array(t_uint256)49_storage": {
        "base": "t_uint256",
        "encoding": "inplace",
        "label": "uint256[49]",
        "numberOfBytes": "1568"
      },
      "t_array(t_uint256)50_storage": {
        "base": "t_uint256",
        "encoding": "inplace",
        "label": "uint256[50]",
        "numberOfBytes": "1600"
      },
      "t_bool": {
        "encoding": "inplace",
        "label": "bool",
        "numberOfBytes": "1"
      },
      "t_contract(IERC20)3338": {
        "encoding": "inplace",
        "label": "contract IERC20",
        "numberOfBytes": "20"
      },
      "t_contract(ILiquidityGauge)9694": {
        "encoding": "inplace",
        "label": "contract ILiquidityGauge",
        "numberOfBytes": "20"
      },
      "t_contract(IPerpetualManagerFrontWithClaim)9950": {
        "encoding": "inplace",
        "label": "contract IPerpetualManagerFrontWithClaim",
        "numberOfBytes": "20"
      },
      "t_contract(IPoolManager)10075": {
        "encoding": "inplace",
        "label": "contract IPoolManager",
        "numberOfBytes": "20"
      },
      "t_contract(ISanToken)10380": {
        "encoding": "inplace",
        "label": "contract ISanToken",
        "numberOfBytes": "20"
      },
      "t_contract(IStableMasterFront)10661": {
        "encoding": "inplace",
        "label": "contract IStableMasterFront",
        "numberOfBytes": "20"
      },
      "t_contract(IUniswapV3Router)11219": {
        "encoding": "inplace",
        "label": "contract IUniswapV3Router",
        "numberOfBytes": "20"
      },
      "t_mapping(t_contract(IERC20)3338,t_bool)": {
        "encoding": "mapping",
        "key": "t_contract(IERC20)3338",
        "label": "mapping(contract IERC20 => bool)",
        "numberOfBytes": "32",
        "value": "t_bool"
      },
      "t_mapping(t_contract(IERC20)3338,t_contract(IStableMasterFront)10661)": {
        "encoding": "mapping",
        "key": "t_contract(IERC20)3338",
        "label": "mapping(contract IERC20 => contract IStableMasterFront)",
        "numberOfBytes": "32",
        "value": "t_contract(IStableMasterFront)10661"
      },
      "t_mapping(t_contract(IERC20)3338,t_struct(Pairs)5108_storage)": {
        "encoding": "mapping",
        "key": "t_contract(IERC20)3338",
        "label": "mapping(contract IERC20 => struct AngleRouter.Pairs)",
        "numberOfBytes": "32",
        "value": "t_struct(Pairs)5108_storage"
      },
      "t_mapping(t_contract(IStableMasterFront)10661,t_mapping(t_contract(IERC20)3338,t_struct(Pairs)5108_storage))": {
        "encoding": "mapping",
        "key": "t_contract(IStableMasterFront)10661",
        "label": "mapping(contract IStableMasterFront => mapping(contract IERC20 => struct AngleRouter.Pairs))",
        "numberOfBytes": "32",
        "value": "t_mapping(t_contract(IERC20)3338,t_struct(Pairs)5108_storage)"
      },
      "t_struct(Pairs)5108_storage": {
        "encoding": "inplace",
        "label": "struct AngleRouter.Pairs",
        "members": [
          {
            "astId": 5098,
            "contract": "contracts/AngleRouter01.sol:AngleRouter",
            "label": "poolManager",
            "offset": 0,
            "slot": "0",
            "type": "t_contract(IPoolManager)10075"
          },
          {
            "astId": 5101,
            "contract": "contracts/AngleRouter01.sol:AngleRouter",
            "label": "perpetualManager",
            "offset": 0,
            "slot": "1",
            "type": "t_contract(IPerpetualManagerFrontWithClaim)9950"
          },
          {
            "astId": 5104,
            "contract": "contracts/AngleRouter01.sol:AngleRouter",
            "label": "sanToken",
            "offset": 0,
            "slot": "2",
            "type": "t_contract(ISanToken)10380"
          },
          {
            "astId": 5107,
            "contract": "contracts/AngleRouter01.sol:AngleRouter",
            "label": "gauge",
            "offset": 0,
            "slot": "3",
            "type": "t_contract(ILiquidityGauge)9694"
          }
        ],
        "numberOfBytes": "128"
      },
      "t_uint256": {
        "encoding": "inplace",
        "label": "uint256",
        "numberOfBytes": "32"
      }
    }
  }
}